{
  "contractName": "CallReceiverMock",
  "abi": [
    {
      "anonymous": false,
      "inputs": [],
      "name": "MockFunctionCalled",
      "type": "event"
    },
    {
      "anonymous": false,
      "inputs": [
        {
          "indexed": false,
          "internalType": "uint256",
          "name": "a",
          "type": "uint256"
        },
        {
          "indexed": false,
          "internalType": "uint256",
          "name": "b",
          "type": "uint256"
        }
      ],
      "name": "MockFunctionCalledWithArgs",
      "type": "event"
    },
    {
      "inputs": [],
      "name": "sharedAnswer",
      "outputs": [
        {
          "internalType": "string",
          "name": "",
          "type": "string"
        }
      ],
      "stateMutability": "view",
      "type": "function"
    },
    {
      "inputs": [],
      "name": "mockFunction",
      "outputs": [
        {
          "internalType": "string",
          "name": "",
          "type": "string"
        }
      ],
      "stateMutability": "payable",
      "type": "function"
    },
    {
      "inputs": [
        {
          "internalType": "uint256",
          "name": "a",
          "type": "uint256"
        },
        {
          "internalType": "uint256",
          "name": "b",
          "type": "uint256"
        }
      ],
      "name": "mockFunctionWithArgs",
      "outputs": [
        {
          "internalType": "string",
          "name": "",
          "type": "string"
        }
      ],
      "stateMutability": "payable",
      "type": "function"
    },
    {
      "inputs": [],
      "name": "mockFunctionNonPayable",
      "outputs": [
        {
          "internalType": "string",
          "name": "",
          "type": "string"
        }
      ],
      "stateMutability": "nonpayable",
      "type": "function"
    },
    {
      "inputs": [],
      "name": "mockStaticFunction",
      "outputs": [
        {
          "internalType": "string",
          "name": "",
          "type": "string"
        }
      ],
      "stateMutability": "pure",
      "type": "function"
    },
    {
      "inputs": [],
      "name": "mockFunctionRevertsNoReason",
      "outputs": [],
      "stateMutability": "payable",
      "type": "function"
    },
    {
      "inputs": [],
      "name": "mockFunctionRevertsReason",
      "outputs": [],
      "stateMutability": "payable",
      "type": "function"
    },
    {
      "inputs": [],
      "name": "mockFunctionThrows",
      "outputs": [],
      "stateMutability": "payable",
      "type": "function"
    },
    {
      "inputs": [],
      "name": "mockFunctionOutOfGas",
      "outputs": [],
      "stateMutability": "payable",
      "type": "function"
    },
    {
      "inputs": [],
      "name": "mockFunctionWritesStorage",
      "outputs": [
        {
          "internalType": "string",
          "name": "",
          "type": "string"
        }
      ],
      "stateMutability": "nonpayable",
      "type": "function"
    }
  ],
  "bytecode": "0x608060405234801561001057600080fd5b506108a0806100206000396000f3fe6080604052600436106100915760003560e01c8063a793ab4711610059578063a793ab47146100fd578063aa04f77e14610107578063c8fc769614610132578063fc40cf731461015d578063fdb273251461018857610091565b80630c034968146100965780630f63e42c146100a05780632c81d638146100cb5780633bcfaa14146100d55780633e6fec04146100df575b600080fd5b61009e6101b8565b005b3480156100ac57600080fd5b506100b56101f3565b6040516100c29190610621565b60405180910390f35b6100d361025c565b005b6100dd610261565b005b6100e7610272565b6040516100f49190610621565b60405180910390f35b6101056102db565b005b34801561011357600080fd5b5061011c610318565b6040516101299190610621565b60405180910390f35b34801561013e57600080fd5b506101476103a1565b6040516101549190610621565b60405180910390f35b34801561016957600080fd5b506101726103de565b60405161017f9190610621565b60405180910390f35b6101a2600480360381019061019d919061067e565b61046c565b6040516101af9190610621565b60405180910390f35b6040517f08c379a00000000000000000000000000000000000000000000000000000000081526004016101ea9061070a565b60405180910390fd5b60607f52c66ed6ec9ca819cba26fe2b2650059270d8981b295af300187a964f54a8c2360405160405180910390a16040518060400160405280600681526020017f3078313233340000000000000000000000000000000000000000000000000000815250905090565b600080fd5b60006102705761026f61072a565b5b565b60607f52c66ed6ec9ca819cba26fe2b2650059270d8981b295af300187a964f54a8c2360405160405180910390a16040518060400160405280600681526020017f3078313233340000000000000000000000000000000000000000000000000000815250905090565b60005b60018190806001815401808255809150506001900390600052602060002001600090919091909150558061031190610788565b90506102de565b60606040518060400160405280600281526020017f3432000000000000000000000000000000000000000000000000000000000000815250600090805190602001906103659291906104e5565b506040518060400160405280600681526020017f3078313233340000000000000000000000000000000000000000000000000000815250905090565b60606040518060400160405280600681526020017f3078313233340000000000000000000000000000000000000000000000000000815250905090565b600080546103eb90610800565b80601f016020809104026020016040519081016040528092919081815260200182805461041790610800565b80156104645780601f1061043957610100808354040283529160200191610464565b820191906000526020600020905b81548152906001019060200180831161044757829003601f168201915b505050505081565b60607f2b42b3c9af4187c86225f201736204c7597312c830cb5c2537dff6ef24b946ae838360405161049f929190610841565b60405180910390a16040518060400160405280600681526020017f3078313233340000000000000000000000000000000000000000000000000000815250905092915050565b8280546104f190610800565b90600052602060002090601f016020900481019282610513576000855561055a565b82601f1061052c57805160ff191683800117855561055a565b8280016001018555821561055a579182015b8281111561055957825182559160200191906001019061053e565b5b509050610567919061056b565b5090565b5b8082111561058457600081600090555060010161056c565b5090565b600081519050919050565b600082825260208201905092915050565b60005b838110156105c25780820151818401526020810190506105a7565b838111156105d1576000848401525b50505050565b6000601f19601f8301169050919050565b60006105f382610588565b6105fd8185610593565b935061060d8185602086016105a4565b610616816105d7565b840191505092915050565b6000602082019050818103600083015261063b81846105e8565b905092915050565b600080fd5b6000819050919050565b61065b81610648565b811461066657600080fd5b50565b60008135905061067881610652565b92915050565b6000806040838503121561069557610694610643565b5b60006106a385828601610669565b92505060206106b485828601610669565b9150509250929050565b7f43616c6c52656365697665724d6f636b3a20726576657274696e670000000000600082015250565b60006106f4601b83610593565b91506106ff826106be565b602082019050919050565b60006020820190508181036000830152610723816106e7565b9050919050565b7f4e487b7100000000000000000000000000000000000000000000000000000000600052600160045260246000fd5b7f4e487b7100000000000000000000000000000000000000000000000000000000600052601160045260246000fd5b600061079382610648565b91507fffffffffffffffffffffffffffffffffffffffffffffffffffffffffffffffff8214156107c6576107c5610759565b5b600182019050919050565b7f4e487b7100000000000000000000000000000000000000000000000000000000600052602260045260246000fd5b6000600282049050600182168061081857607f821691505b6020821081141561082c5761082b6107d1565b5b50919050565b61083b81610648565b82525050565b60006040820190506108566000830185610832565b6108636020830184610832565b939250505056fea26469706673582212207d686e0ac0fbc6e033a1803f0bd944fc41ee364f4ac87efe9f6872db8325f87c64736f6c634300080b0033",
  "immutableReferences": {},
  "source": "// SPDX-License-Identifier: MIT\r\n\r\npragma solidity ^0.8.0;\r\n\r\ncontract CallReceiverMock {\r\n    string public sharedAnswer;\r\n\r\n    event MockFunctionCalled();\r\n    event MockFunctionCalledWithArgs(uint256 a, uint256 b);\r\n\r\n    uint256[] private _array;\r\n\r\n    function mockFunction() public payable returns (string memory) {\r\n        emit MockFunctionCalled();\r\n\r\n        return \"0x1234\";\r\n    }\r\n\r\n    function mockFunctionWithArgs(uint256 a, uint256 b) public payable returns (string memory) {\r\n        emit MockFunctionCalledWithArgs(a, b);\r\n\r\n        return \"0x1234\";\r\n    }\r\n\r\n    function mockFunctionNonPayable() public returns (string memory) {\r\n        emit MockFunctionCalled();\r\n\r\n        return \"0x1234\";\r\n    }\r\n\r\n    function mockStaticFunction() public pure returns (string memory) {\r\n        return \"0x1234\";\r\n    }\r\n\r\n    function mockFunctionRevertsNoReason() public payable {\r\n        revert();\r\n    }\r\n\r\n    function mockFunctionRevertsReason() public payable {\r\n        revert(\"CallReceiverMock: reverting\");\r\n    }\r\n\r\n    function mockFunctionThrows() public payable {\r\n        assert(false);\r\n    }\r\n\r\n    function mockFunctionOutOfGas() public payable {\r\n        for (uint256 i = 0; ; ++i) {\r\n            _array.push(i);\r\n        }\r\n    }\r\n\r\n    function mockFunctionWritesStorage() public returns (string memory) {\r\n        sharedAnswer = \"42\";\r\n        return \"0x1234\";\r\n    }\r\n}\r\n",
  "sourcePath": "C:\\Users\\Alexandr\\dev\\nft-sim\\contract\\contracts\\mocks\\CallReceiverMock.sol",
  "compiler": {
    "name": "solc",
    "version": "0.8.11+commit.d7f03943.Emscripten.clang"
  },
  "schemaVersion": "3.4.4",
  "updatedAt": "2022-02-17T11:42:19.479Z",
  "devdoc": {
    "kind": "dev",
    "methods": {},
    "version": 1
  },
  "userdoc": {
    "kind": "user",
    "methods": {},
    "version": 1
  }
}