{
  "contractName": "CheckpointsImpl",
  "abi": [
    {
      "inputs": [],
      "name": "latest",
      "outputs": [
        {
          "internalType": "uint256",
          "name": "",
          "type": "uint256"
        }
      ],
      "stateMutability": "view",
      "type": "function"
    },
    {
      "inputs": [
        {
          "internalType": "uint256",
          "name": "blockNumber",
          "type": "uint256"
        }
      ],
      "name": "getAtBlock",
      "outputs": [
        {
          "internalType": "uint256",
          "name": "",
          "type": "uint256"
        }
      ],
      "stateMutability": "view",
      "type": "function"
    },
    {
      "inputs": [
        {
          "internalType": "uint256",
          "name": "value",
          "type": "uint256"
        }
      ],
      "name": "push",
      "outputs": [
        {
          "internalType": "uint256",
          "name": "",
          "type": "uint256"
        },
        {
          "internalType": "uint256",
          "name": "",
          "type": "uint256"
        }
      ],
      "stateMutability": "nonpayable",
      "type": "function"
    }
  ],
  "bytecode": "0x608060405234801561001057600080fd5b506109c6806100206000396000f3fe608060405234801561001057600080fd5b50600436106100415760003560e01c806352bfe78914610046578063959ac48414610064578063ee1bc75114610095575b600080fd5b61004e6100c5565b60405161005b9190610605565b60405180910390f35b61007e60048036038101906100799190610651565b6100d6565b60405161008c92919061067e565b60405180910390f35b6100af60048036038101906100aa9190610651565b6100f6565b6040516100bc9190610605565b60405180910390f35b60006100d16000610113565b905090565b6000806100ed8360006101ae90919063ffffffff16565b91509150915091565b600061010c8260006103b090919063ffffffff16565b9050919050565b6000808260000180549050905060008114610185578260000160018261013991906106d6565b8154811061014a5761014961070a565b5b9060005260206000200160000160049054906101000a90047bffffffffffffffffffffffffffffffffffffffffffffffffffffffff16610188565b60005b7bffffffffffffffffffffffffffffffffffffffffffffffffffffffff16915050919050565b60008060008460000180549050905060006101c886610113565b905060008211801561021e575043866000016001846101e791906106d6565b815481106101f8576101f761070a565b5b9060005260206000200160000160009054906101000a900463ffffffff1663ffffffff16145b156102ae5761022c85610508565b8660000160018461023d91906106d6565b8154811061024e5761024d61070a565b5b9060005260206000200160000160046101000a8154817bffffffffffffffffffffffffffffffffffffffffffffffffffffffff02191690837bffffffffffffffffffffffffffffffffffffffffffffffffffffffff1602179055506103a1565b8560000160405180604001604052806102c643610573565b63ffffffff1681526020016102da88610508565b7bffffffffffffffffffffffffffffffffffffffffffffffffffffffff168152509080600181540180825580915050600190039060005260206000200160009091909190915060008201518160000160006101000a81548163ffffffff021916908363ffffffff16021790555060208201518160000160046101000a8154817bffffffffffffffffffffffffffffffffffffffffffffffffffffffff02191690837bffffffffffffffffffffffffffffffffffffffffffffffffffffffff16021790555050505b80859350935050509250929050565b60004382106103f4576040517f08c379a00000000000000000000000000000000000000000000000000000000081526004016103eb90610796565b60405180910390fd5b60008360000180549050905060005b8181101561047857600061041782846105c6565b9050848660000182815481106104305761042f61070a565b5b9060005260206000200160000160009054906101000a900463ffffffff1663ffffffff16111561046257809250610472565b60018161046f91906107b6565b91505b50610403565b600082146104dd578460000160018361049191906106d6565b815481106104a2576104a161070a565b5b9060005260206000200160000160049054906101000a90047bffffffffffffffffffffffffffffffffffffffffffffffffffffffff166104e0565b60005b7bffffffffffffffffffffffffffffffffffffffffffffffffffffffff169250505092915050565b60007bffffffffffffffffffffffffffffffffffffffffffffffffffffffff801682111561056b576040517f08c379a00000000000000000000000000000000000000000000000000000000081526004016105629061087e565b60405180910390fd5b819050919050565b600063ffffffff80168211156105be576040517f08c379a00000000000000000000000000000000000000000000000000000000081526004016105b590610910565b60405180910390fd5b819050919050565b600060028284186105d7919061095f565b8284166105e491906107b6565b905092915050565b6000819050919050565b6105ff816105ec565b82525050565b600060208201905061061a60008301846105f6565b92915050565b600080fd5b61062e816105ec565b811461063957600080fd5b50565b60008135905061064b81610625565b92915050565b60006020828403121561066757610666610620565b5b60006106758482850161063c565b91505092915050565b600060408201905061069360008301856105f6565b6106a060208301846105f6565b9392505050565b7f4e487b7100000000000000000000000000000000000000000000000000000000600052601160045260246000fd5b60006106e1826105ec565b91506106ec836105ec565b9250828210156106ff576106fe6106a7565b5b828203905092915050565b7f4e487b7100000000000000000000000000000000000000000000000000000000600052603260045260246000fd5b600082825260208201905092915050565b7f436865636b706f696e74733a20626c6f636b206e6f7420796574206d696e6564600082015250565b6000610780602083610739565b915061078b8261074a565b602082019050919050565b600060208201905081810360008301526107af81610773565b9050919050565b60006107c1826105ec565b91506107cc836105ec565b9250827fffffffffffffffffffffffffffffffffffffffffffffffffffffffffffffffff03821115610801576108006106a7565b5b828201905092915050565b7f53616665436173743a2076616c756520646f65736e27742066697420696e203260008201527f3234206269747300000000000000000000000000000000000000000000000000602082015250565b6000610868602783610739565b91506108738261080c565b604082019050919050565b600060208201905081810360008301526108978161085b565b9050919050565b7f53616665436173743a2076616c756520646f65736e27742066697420696e203360008201527f3220626974730000000000000000000000000000000000000000000000000000602082015250565b60006108fa602683610739565b91506109058261089e565b604082019050919050565b60006020820190508181036000830152610929816108ed565b9050919050565b7f4e487b7100000000000000000000000000000000000000000000000000000000600052601260045260246000fd5b600061096a826105ec565b9150610975836105ec565b92508261098557610984610930565b5b82820490509291505056fea26469706673582212203ff37f736c80a9ff9eb6e2ecb367b52d373a7c193714b04d0b3f3d2febbfe6a964736f6c634300080b0033",
  "immutableReferences": {},
  "source": "// SPDX-License-Identifier: MIT\r\n\r\npragma solidity ^0.8.0;\r\n\r\nimport \"../utils/Checkpoints.sol\";\r\n\r\ncontract CheckpointsImpl {\r\n    using Checkpoints for Checkpoints.History;\r\n\r\n    Checkpoints.History private _totalCheckpoints;\r\n\r\n    function latest() public view returns (uint256) {\r\n        return _totalCheckpoints.latest();\r\n    }\r\n\r\n    function getAtBlock(uint256 blockNumber) public view returns (uint256) {\r\n        return _totalCheckpoints.getAtBlock(blockNumber);\r\n    }\r\n\r\n    function push(uint256 value) public returns (uint256, uint256) {\r\n        return _totalCheckpoints.push(value);\r\n    }\r\n}\r\n",
  "sourcePath": "C:\\Users\\Alexandr\\dev\\nft-sim\\contract\\contracts\\mocks\\CheckpointsImpl.sol",
  "compiler": {
    "name": "solc",
    "version": "0.8.11+commit.d7f03943.Emscripten.clang"
  },
  "schemaVersion": "3.4.4",
  "updatedAt": "2022-02-17T10:48:56.479Z",
  "devdoc": {
    "kind": "dev",
    "methods": {},
    "version": 1
  },
  "userdoc": {
    "kind": "user",
    "methods": {},
    "version": 1
  }
}