{
  "contractName": "ERC1155SupplyMock",
  "abi": [
    {
      "inputs": [
        {
          "internalType": "string",
          "name": "uri",
          "type": "string"
        }
      ],
      "stateMutability": "nonpayable",
      "type": "constructor"
    },
    {
      "anonymous": false,
      "inputs": [
        {
          "indexed": true,
          "internalType": "address",
          "name": "account",
          "type": "address"
        },
        {
          "indexed": true,
          "internalType": "address",
          "name": "operator",
          "type": "address"
        },
        {
          "indexed": false,
          "internalType": "bool",
          "name": "approved",
          "type": "bool"
        }
      ],
      "name": "ApprovalForAll",
      "type": "event"
    },
    {
      "anonymous": false,
      "inputs": [
        {
          "indexed": true,
          "internalType": "address",
          "name": "operator",
          "type": "address"
        },
        {
          "indexed": true,
          "internalType": "address",
          "name": "from",
          "type": "address"
        },
        {
          "indexed": true,
          "internalType": "address",
          "name": "to",
          "type": "address"
        },
        {
          "indexed": false,
          "internalType": "uint256[]",
          "name": "ids",
          "type": "uint256[]"
        },
        {
          "indexed": false,
          "internalType": "uint256[]",
          "name": "values",
          "type": "uint256[]"
        }
      ],
      "name": "TransferBatch",
      "type": "event"
    },
    {
      "anonymous": false,
      "inputs": [
        {
          "indexed": true,
          "internalType": "address",
          "name": "operator",
          "type": "address"
        },
        {
          "indexed": true,
          "internalType": "address",
          "name": "from",
          "type": "address"
        },
        {
          "indexed": true,
          "internalType": "address",
          "name": "to",
          "type": "address"
        },
        {
          "indexed": false,
          "internalType": "uint256",
          "name": "id",
          "type": "uint256"
        },
        {
          "indexed": false,
          "internalType": "uint256",
          "name": "value",
          "type": "uint256"
        }
      ],
      "name": "TransferSingle",
      "type": "event"
    },
    {
      "anonymous": false,
      "inputs": [
        {
          "indexed": false,
          "internalType": "string",
          "name": "value",
          "type": "string"
        },
        {
          "indexed": true,
          "internalType": "uint256",
          "name": "id",
          "type": "uint256"
        }
      ],
      "name": "URI",
      "type": "event"
    },
    {
      "inputs": [
        {
          "internalType": "address",
          "name": "account",
          "type": "address"
        },
        {
          "internalType": "uint256",
          "name": "id",
          "type": "uint256"
        }
      ],
      "name": "balanceOf",
      "outputs": [
        {
          "internalType": "uint256",
          "name": "",
          "type": "uint256"
        }
      ],
      "stateMutability": "view",
      "type": "function"
    },
    {
      "inputs": [
        {
          "internalType": "address[]",
          "name": "accounts",
          "type": "address[]"
        },
        {
          "internalType": "uint256[]",
          "name": "ids",
          "type": "uint256[]"
        }
      ],
      "name": "balanceOfBatch",
      "outputs": [
        {
          "internalType": "uint256[]",
          "name": "",
          "type": "uint256[]"
        }
      ],
      "stateMutability": "view",
      "type": "function"
    },
    {
      "inputs": [
        {
          "internalType": "address",
          "name": "owner",
          "type": "address"
        },
        {
          "internalType": "uint256",
          "name": "id",
          "type": "uint256"
        },
        {
          "internalType": "uint256",
          "name": "value",
          "type": "uint256"
        }
      ],
      "name": "burn",
      "outputs": [],
      "stateMutability": "nonpayable",
      "type": "function"
    },
    {
      "inputs": [
        {
          "internalType": "address",
          "name": "owner",
          "type": "address"
        },
        {
          "internalType": "uint256[]",
          "name": "ids",
          "type": "uint256[]"
        },
        {
          "internalType": "uint256[]",
          "name": "values",
          "type": "uint256[]"
        }
      ],
      "name": "burnBatch",
      "outputs": [],
      "stateMutability": "nonpayable",
      "type": "function"
    },
    {
      "inputs": [
        {
          "internalType": "uint256",
          "name": "id",
          "type": "uint256"
        }
      ],
      "name": "exists",
      "outputs": [
        {
          "internalType": "bool",
          "name": "",
          "type": "bool"
        }
      ],
      "stateMutability": "view",
      "type": "function"
    },
    {
      "inputs": [
        {
          "internalType": "address",
          "name": "account",
          "type": "address"
        },
        {
          "internalType": "address",
          "name": "operator",
          "type": "address"
        }
      ],
      "name": "isApprovedForAll",
      "outputs": [
        {
          "internalType": "bool",
          "name": "",
          "type": "bool"
        }
      ],
      "stateMutability": "view",
      "type": "function"
    },
    {
      "inputs": [
        {
          "internalType": "address",
          "name": "to",
          "type": "address"
        },
        {
          "internalType": "uint256",
          "name": "id",
          "type": "uint256"
        },
        {
          "internalType": "uint256",
          "name": "value",
          "type": "uint256"
        },
        {
          "internalType": "bytes",
          "name": "data",
          "type": "bytes"
        }
      ],
      "name": "mint",
      "outputs": [],
      "stateMutability": "nonpayable",
      "type": "function"
    },
    {
      "inputs": [
        {
          "internalType": "address",
          "name": "to",
          "type": "address"
        },
        {
          "internalType": "uint256[]",
          "name": "ids",
          "type": "uint256[]"
        },
        {
          "internalType": "uint256[]",
          "name": "values",
          "type": "uint256[]"
        },
        {
          "internalType": "bytes",
          "name": "data",
          "type": "bytes"
        }
      ],
      "name": "mintBatch",
      "outputs": [],
      "stateMutability": "nonpayable",
      "type": "function"
    },
    {
      "inputs": [
        {
          "internalType": "address",
          "name": "from",
          "type": "address"
        },
        {
          "internalType": "address",
          "name": "to",
          "type": "address"
        },
        {
          "internalType": "uint256[]",
          "name": "ids",
          "type": "uint256[]"
        },
        {
          "internalType": "uint256[]",
          "name": "amounts",
          "type": "uint256[]"
        },
        {
          "internalType": "bytes",
          "name": "data",
          "type": "bytes"
        }
      ],
      "name": "safeBatchTransferFrom",
      "outputs": [],
      "stateMutability": "nonpayable",
      "type": "function"
    },
    {
      "inputs": [
        {
          "internalType": "address",
          "name": "from",
          "type": "address"
        },
        {
          "internalType": "address",
          "name": "to",
          "type": "address"
        },
        {
          "internalType": "uint256",
          "name": "id",
          "type": "uint256"
        },
        {
          "internalType": "uint256",
          "name": "amount",
          "type": "uint256"
        },
        {
          "internalType": "bytes",
          "name": "data",
          "type": "bytes"
        }
      ],
      "name": "safeTransferFrom",
      "outputs": [],
      "stateMutability": "nonpayable",
      "type": "function"
    },
    {
      "inputs": [
        {
          "internalType": "address",
          "name": "operator",
          "type": "address"
        },
        {
          "internalType": "bool",
          "name": "approved",
          "type": "bool"
        }
      ],
      "name": "setApprovalForAll",
      "outputs": [],
      "stateMutability": "nonpayable",
      "type": "function"
    },
    {
      "inputs": [
        {
          "internalType": "string",
          "name": "newuri",
          "type": "string"
        }
      ],
      "name": "setURI",
      "outputs": [],
      "stateMutability": "nonpayable",
      "type": "function"
    },
    {
      "inputs": [
        {
          "internalType": "bytes4",
          "name": "interfaceId",
          "type": "bytes4"
        }
      ],
      "name": "supportsInterface",
      "outputs": [
        {
          "internalType": "bool",
          "name": "",
          "type": "bool"
        }
      ],
      "stateMutability": "view",
      "type": "function"
    },
    {
      "inputs": [
        {
          "internalType": "uint256",
          "name": "id",
          "type": "uint256"
        }
      ],
      "name": "totalSupply",
      "outputs": [
        {
          "internalType": "uint256",
          "name": "",
          "type": "uint256"
        }
      ],
      "stateMutability": "view",
      "type": "function"
    },
    {
      "inputs": [
        {
          "internalType": "uint256",
          "name": "",
          "type": "uint256"
        }
      ],
      "name": "uri",
      "outputs": [
        {
          "internalType": "string",
          "name": "",
          "type": "string"
        }
      ],
      "stateMutability": "view",
      "type": "function"
    }
  ],
  "bytecode": "0x60806040523480156200001157600080fd5b5060405162003c0538038062003c058339818101604052810190620000379190620002bc565b80806200004a816200005360201b60201c565b50505062000372565b80600290805190602001906200006b9291906200006f565b5050565b8280546200007d906200033c565b90600052602060002090601f016020900481019282620000a15760008555620000ed565b82601f10620000bc57805160ff1916838001178555620000ed565b82800160010185558215620000ed579182015b82811115620000ec578251825591602001919060010190620000cf565b5b509050620000fc919062000100565b5090565b5b808211156200011b57600081600090555060010162000101565b5090565b6000604051905090565b600080fd5b600080fd5b600080fd5b600080fd5b6000601f19601f8301169050919050565b7f4e487b7100000000000000000000000000000000000000000000000000000000600052604160045260246000fd5b62000188826200013d565b810181811067ffffffffffffffff82111715620001aa57620001a96200014e565b5b80604052505050565b6000620001bf6200011f565b9050620001cd82826200017d565b919050565b600067ffffffffffffffff821115620001f057620001ef6200014e565b5b620001fb826200013d565b9050602081019050919050565b60005b83811015620002285780820151818401526020810190506200020b565b8381111562000238576000848401525b50505050565b6000620002556200024f84620001d2565b620001b3565b90508281526020810184848401111562000274576200027362000138565b5b6200028184828562000208565b509392505050565b600082601f830112620002a157620002a062000133565b5b8151620002b38482602086016200023e565b91505092915050565b600060208284031215620002d557620002d462000129565b5b600082015167ffffffffffffffff811115620002f657620002f56200012e565b5b620003048482850162000289565b91505092915050565b7f4e487b7100000000000000000000000000000000000000000000000000000000600052602260045260246000fd5b600060028204905060018216806200035557607f821691505b602082108114156200036c576200036b6200030d565b5b50919050565b61388380620003826000396000f3fe608060405234801561001057600080fd5b50600436106100f45760003560e01c80634f558e7911610097578063bd85b03911610066578063bd85b03914610291578063e985e9c5146102c1578063f242432a146102f1578063f5298aca1461030d576100f4565b80634f558e791461020d5780636b20c4541461023d578063731133e914610259578063a22cb46514610275576100f4565b80630e89341c116100d35780630e89341c146101755780631f7fdffa146101a55780632eb2c2d6146101c15780634e1273f4146101dd576100f4565b8062fdd58e146100f957806301ffc9a71461012957806302fe530514610159575b600080fd5b610113600480360381019061010e9190612129565b610329565b6040516101209190612178565b60405180910390f35b610143600480360381019061013e91906121eb565b6103f2565b6040516101509190612233565b60405180910390f35b610173600480360381019061016e9190612394565b6104d4565b005b61018f600480360381019061018a91906123dd565b6104e0565b60405161019c9190612492565b60405180910390f35b6101bf60048036038101906101ba919061261d565b610574565b005b6101db60048036038101906101d691906126d8565b610586565b005b6101f760048036038101906101f2919061286a565b610627565b60405161020491906129a0565b60405180910390f35b610227600480360381019061022291906123dd565b610740565b6040516102349190612233565b60405180910390f35b610257600480360381019061025291906129c2565b610754565b005b610273600480360381019061026e9190612a4d565b610764565b005b61028f600480360381019061028a9190612afc565b610776565b005b6102ab60048036038101906102a691906123dd565b61078c565b6040516102b89190612178565b60405180910390f35b6102db60048036038101906102d69190612b3c565b6107a9565b6040516102e89190612233565b60405180910390f35b61030b60048036038101906103069190612b7c565b61083d565b005b61032760048036038101906103229190612c13565b6108de565b005b60008073ffffffffffffffffffffffffffffffffffffffff168373ffffffffffffffffffffffffffffffffffffffff16141561039a576040517f08c379a000000000000000000000000000000000000000000000000000000000815260040161039190612cd8565b60405180910390fd5b60008083815260200190815260200160002060008473ffffffffffffffffffffffffffffffffffffffff1673ffffffffffffffffffffffffffffffffffffffff16815260200190815260200160002054905092915050565b60007fd9b67a26000000000000000000000000000000000000000000000000000000007bffffffffffffffffffffffffffffffffffffffffffffffffffffffff1916827bffffffffffffffffffffffffffffffffffffffffffffffffffffffff191614806104bd57507f0e89341c000000000000000000000000000000000000000000000000000000007bffffffffffffffffffffffffffffffffffffffffffffffffffffffff1916827bffffffffffffffffffffffffffffffffffffffffffffffffffffffff1916145b806104cd57506104cc826108ee565b5b9050919050565b6104dd81610958565b50565b6060600280546104ef90612d27565b80601f016020809104026020016040519081016040528092919081815260200182805461051b90612d27565b80156105685780601f1061053d57610100808354040283529160200191610568565b820191906000526020600020905b81548152906001019060200180831161054b57829003601f168201915b50505050509050919050565b61058084848484610972565b50505050565b61058e610b9f565b73ffffffffffffffffffffffffffffffffffffffff168573ffffffffffffffffffffffffffffffffffffffff1614806105d457506105d3856105ce610b9f565b6107a9565b5b610613576040517f08c379a000000000000000000000000000000000000000000000000000000000815260040161060a90612dcb565b60405180910390fd5b6106208585858585610ba7565b5050505050565b6060815183511461066d576040517f08c379a000000000000000000000000000000000000000000000000000000000815260040161066490612e5d565b60405180910390fd5b6000835167ffffffffffffffff81111561068a57610689612269565b5b6040519080825280602002602001820160405280156106b85781602001602082028036833780820191505090505b50905060005b8451811015610735576107058582815181106106dd576106dc612e7d565b5b60200260200101518583815181106106f8576106f7612e7d565b5b6020026020010151610329565b82828151811061071857610717612e7d565b5b6020026020010181815250508061072e90612edb565b90506106be565b508091505092915050565b60008061074c8361078c565b119050919050565b61075f838383610ec9565b505050565b61077084848484611198565b50505050565b610788610781610b9f565b8383611349565b5050565b600060036000838152602001908152602001600020549050919050565b6000600160008473ffffffffffffffffffffffffffffffffffffffff1673ffffffffffffffffffffffffffffffffffffffff16815260200190815260200160002060008373ffffffffffffffffffffffffffffffffffffffff1673ffffffffffffffffffffffffffffffffffffffff16815260200190815260200160002060009054906101000a900460ff16905092915050565b610845610b9f565b73ffffffffffffffffffffffffffffffffffffffff168573ffffffffffffffffffffffffffffffffffffffff16148061088b575061088a85610885610b9f565b6107a9565b5b6108ca576040517f08c379a00000000000000000000000000000000000000000000000000000000081526004016108c190612f96565b60405180910390fd5b6108d785858585856114b6565b5050505050565b6108e9838383611752565b505050565b60007f01ffc9a7000000000000000000000000000000000000000000000000000000007bffffffffffffffffffffffffffffffffffffffffffffffffffffffff1916827bffffffffffffffffffffffffffffffffffffffffffffffffffffffff1916149050919050565b806002908051906020019061096e929190611fde565b5050565b600073ffffffffffffffffffffffffffffffffffffffff168473ffffffffffffffffffffffffffffffffffffffff1614156109e2576040517f08c379a00000000000000000000000000000000000000000000000000000000081526004016109d990613028565b60405180910390fd5b8151835114610a26576040517f08c379a0000000000000000000000000000000000000000000000000000000008152600401610a1d906130ba565b60405180910390fd5b6000610a30610b9f565b9050610a4181600087878787611999565b60005b8451811015610afa57838181518110610a6057610a5f612e7d565b5b6020026020010151600080878481518110610a7e57610a7d612e7d565b5b6020026020010151815260200190815260200160002060008873ffffffffffffffffffffffffffffffffffffffff1673ffffffffffffffffffffffffffffffffffffffff1681526020019081526020016000206000828254610ae091906130da565b925050819055508080610af290612edb565b915050610a44565b508473ffffffffffffffffffffffffffffffffffffffff16600073ffffffffffffffffffffffffffffffffffffffff168273ffffffffffffffffffffffffffffffffffffffff167f4a39dc06d4c0dbc64b70af90fd698a233a518aa5d07e595d983b8c0526c8f7fb8787604051610b72929190613130565b60405180910390a4610b89816000878787876119af565b610b9881600087878787611b87565b5050505050565b600033905090565b8151835114610beb576040517f08c379a0000000000000000000000000000000000000000000000000000000008152600401610be2906130ba565b60405180910390fd5b600073ffffffffffffffffffffffffffffffffffffffff168473ffffffffffffffffffffffffffffffffffffffff161415610c5b576040517f08c379a0000000000000000000000000000000000000000000000000000000008152600401610c52906131d9565b60405180910390fd5b6000610c65610b9f565b9050610c75818787878787611999565b60005b8451811015610e26576000858281518110610c9657610c95612e7d565b5b602002602001015190506000858381518110610cb557610cb4612e7d565b5b60200260200101519050600080600084815260200190815260200160002060008b73ffffffffffffffffffffffffffffffffffffffff1673ffffffffffffffffffffffffffffffffffffffff16815260200190815260200160002054905081811015610d56576040517f08c379a0000000000000000000000000000000000000000000000000000000008152600401610d4d9061326b565b60405180910390fd5b81810360008085815260200190815260200160002060008c73ffffffffffffffffffffffffffffffffffffffff1673ffffffffffffffffffffffffffffffffffffffff168152602001908152602001600020819055508160008085815260200190815260200160002060008b73ffffffffffffffffffffffffffffffffffffffff1673ffffffffffffffffffffffffffffffffffffffff1681526020019081526020016000206000828254610e0b91906130da565b9250508190555050505080610e1f90612edb565b9050610c78565b508473ffffffffffffffffffffffffffffffffffffffff168673ffffffffffffffffffffffffffffffffffffffff168273ffffffffffffffffffffffffffffffffffffffff167f4a39dc06d4c0dbc64b70af90fd698a233a518aa5d07e595d983b8c0526c8f7fb8787604051610e9d929190613130565b60405180910390a4610eb38187878787876119af565b610ec1818787878787611b87565b505050505050565b600073ffffffffffffffffffffffffffffffffffffffff168373ffffffffffffffffffffffffffffffffffffffff161415610f39576040517f08c379a0000000000000000000000000000000000000000000000000000000008152600401610f30906132fd565b60405180910390fd5b8051825114610f7d576040517f08c379a0000000000000000000000000000000000000000000000000000000008152600401610f74906130ba565b60405180910390fd5b6000610f87610b9f565b9050610fa781856000868660405180602001604052806000815250611999565b60005b83518110156110f4576000848281518110610fc857610fc7612e7d565b5b602002602001015190506000848381518110610fe757610fe6612e7d565b5b60200260200101519050600080600084815260200190815260200160002060008973ffffffffffffffffffffffffffffffffffffffff1673ffffffffffffffffffffffffffffffffffffffff16815260200190815260200160002054905081811015611088576040517f08c379a000000000000000000000000000000000000000000000000000000000815260040161107f9061338f565b60405180910390fd5b81810360008085815260200190815260200160002060008a73ffffffffffffffffffffffffffffffffffffffff1673ffffffffffffffffffffffffffffffffffffffff1681526020019081526020016000208190555050505080806110ec90612edb565b915050610faa565b50600073ffffffffffffffffffffffffffffffffffffffff168473ffffffffffffffffffffffffffffffffffffffff168273ffffffffffffffffffffffffffffffffffffffff167f4a39dc06d4c0dbc64b70af90fd698a233a518aa5d07e595d983b8c0526c8f7fb868660405161116c929190613130565b60405180910390a461119281856000868660405180602001604052806000815250611b87565b50505050565b600073ffffffffffffffffffffffffffffffffffffffff168473ffffffffffffffffffffffffffffffffffffffff161415611208576040517f08c379a00000000000000000000000000000000000000000000000000000000081526004016111ff90613028565b60405180910390fd5b6000611212610b9f565b9050600061121f85611b8f565b9050600061122c85611b8f565b905061123d83600089858589611999565b8460008088815260200190815260200160002060008973ffffffffffffffffffffffffffffffffffffffff1673ffffffffffffffffffffffffffffffffffffffff168152602001908152602001600020600082825461129c91906130da565b925050819055508673ffffffffffffffffffffffffffffffffffffffff16600073ffffffffffffffffffffffffffffffffffffffff168473ffffffffffffffffffffffffffffffffffffffff167fc3d58168c5ae7397731d063d5bbf3d657854427343f4c083240f7aacaa2d0f62898960405161131a9291906133af565b60405180910390a461133183600089898989611c09565b61134083600089858589611b87565b50505050505050565b8173ffffffffffffffffffffffffffffffffffffffff168373ffffffffffffffffffffffffffffffffffffffff1614156113b8576040517f08c379a00000000000000000000000000000000000000000000000000000000081526004016113af9061344a565b60405180910390fd5b80600160008573ffffffffffffffffffffffffffffffffffffffff1673ffffffffffffffffffffffffffffffffffffffff16815260200190815260200160002060008473ffffffffffffffffffffffffffffffffffffffff1673ffffffffffffffffffffffffffffffffffffffff16815260200190815260200160002060006101000a81548160ff0219169083151502179055508173ffffffffffffffffffffffffffffffffffffffff168373ffffffffffffffffffffffffffffffffffffffff167f17307eab39ab6107e8899845ad3d59bd9653f200f220920489ca2b5937696c31836040516114a99190612233565b60405180910390a3505050565b600073ffffffffffffffffffffffffffffffffffffffff168473ffffffffffffffffffffffffffffffffffffffff161415611526576040517f08c379a000000000000000000000000000000000000000000000000000000000815260040161151d906131d9565b60405180910390fd5b6000611530610b9f565b9050600061153d85611b8f565b9050600061154a85611b8f565b905061155a838989858589611999565b600080600088815260200190815260200160002060008a73ffffffffffffffffffffffffffffffffffffffff1673ffffffffffffffffffffffffffffffffffffffff168152602001908152602001600020549050858110156115f1576040517f08c379a00000000000000000000000000000000000000000000000000000000081526004016115e89061326b565b60405180910390fd5b85810360008089815260200190815260200160002060008b73ffffffffffffffffffffffffffffffffffffffff1673ffffffffffffffffffffffffffffffffffffffff168152602001908152602001600020819055508560008089815260200190815260200160002060008a73ffffffffffffffffffffffffffffffffffffffff1673ffffffffffffffffffffffffffffffffffffffff16815260200190815260200160002060008282546116a691906130da565b925050819055508773ffffffffffffffffffffffffffffffffffffffff168973ffffffffffffffffffffffffffffffffffffffff168573ffffffffffffffffffffffffffffffffffffffff167fc3d58168c5ae7397731d063d5bbf3d657854427343f4c083240f7aacaa2d0f628a8a6040516117239291906133af565b60405180910390a4611739848a8a8a8a8a611c09565b611747848a8a86868a611b87565b505050505050505050565b600073ffffffffffffffffffffffffffffffffffffffff168373ffffffffffffffffffffffffffffffffffffffff1614156117c2576040517f08c379a00000000000000000000000000000000000000000000000000000000081526004016117b9906132fd565b60405180910390fd5b60006117cc610b9f565b905060006117d984611b8f565b905060006117e684611b8f565b905061180683876000858560405180602001604052806000815250611999565b600080600087815260200190815260200160002060008873ffffffffffffffffffffffffffffffffffffffff1673ffffffffffffffffffffffffffffffffffffffff1681526020019081526020016000205490508481101561189d576040517f08c379a00000000000000000000000000000000000000000000000000000000081526004016118949061338f565b60405180910390fd5b84810360008088815260200190815260200160002060008973ffffffffffffffffffffffffffffffffffffffff1673ffffffffffffffffffffffffffffffffffffffff16815260200190815260200160002081905550600073ffffffffffffffffffffffffffffffffffffffff168773ffffffffffffffffffffffffffffffffffffffff168573ffffffffffffffffffffffffffffffffffffffff167fc3d58168c5ae7397731d063d5bbf3d657854427343f4c083240f7aacaa2d0f62898960405161196a9291906133af565b60405180910390a461199084886000868660405180602001604052806000815250611b87565b50505050505050565b6119a7868686868686611de1565b505050505050565b6119ce8473ffffffffffffffffffffffffffffffffffffffff16611fb3565b15611b7f578373ffffffffffffffffffffffffffffffffffffffff1663bc197c8187878686866040518663ffffffff1660e01b8152600401611a149594939291906134ce565b6020604051808303816000875af1925050508015611a5057506040513d601f19601f82011682018060405250810190611a4d919061354b565b60015b611af657611a5c613585565b806308c379a01415611ab95750611a716135a7565b80611a7c5750611abb565b806040517f08c379a0000000000000000000000000000000000000000000000000000000008152600401611ab09190612492565b60405180910390fd5b505b6040517f08c379a0000000000000000000000000000000000000000000000000000000008152600401611aed906136af565b60405180910390fd5b63bc197c8160e01b7bffffffffffffffffffffffffffffffffffffffffffffffffffffffff1916817bffffffffffffffffffffffffffffffffffffffffffffffffffffffff191614611b7d576040517f08c379a0000000000000000000000000000000000000000000000000000000008152600401611b7490613741565b60405180910390fd5b505b505050505050565b505050505050565b60606000600167ffffffffffffffff811115611bae57611bad612269565b5b604051908082528060200260200182016040528015611bdc5781602001602082028036833780820191505090505b5090508281600081518110611bf457611bf3612e7d565b5b60200260200101818152505080915050919050565b611c288473ffffffffffffffffffffffffffffffffffffffff16611fb3565b15611dd9578373ffffffffffffffffffffffffffffffffffffffff1663f23a6e6187878686866040518663ffffffff1660e01b8152600401611c6e959493929190613761565b6020604051808303816000875af1925050508015611caa57506040513d601f19601f82011682018060405250810190611ca7919061354b565b60015b611d5057611cb6613585565b806308c379a01415611d135750611ccb6135a7565b80611cd65750611d15565b806040517f08c379a0000000000000000000000000000000000000000000000000000000008152600401611d0a9190612492565b60405180910390fd5b505b6040517f08c379a0000000000000000000000000000000000000000000000000000000008152600401611d47906136af565b60405180910390fd5b63f23a6e6160e01b7bffffffffffffffffffffffffffffffffffffffffffffffffffffffff1916817bffffffffffffffffffffffffffffffffffffffffffffffffffffffff191614611dd7576040517f08c379a0000000000000000000000000000000000000000000000000000000008152600401611dce90613741565b60405180910390fd5b505b505050505050565b611def868686868686611fd6565b600073ffffffffffffffffffffffffffffffffffffffff168573ffffffffffffffffffffffffffffffffffffffff161415611ea15760005b8351811015611e9f57828181518110611e4357611e42612e7d565b5b602002602001015160036000868481518110611e6257611e61612e7d565b5b602002602001015181526020019081526020016000206000828254611e8791906130da565b9250508190555080611e9890612edb565b9050611e27565b505b600073ffffffffffffffffffffffffffffffffffffffff168473ffffffffffffffffffffffffffffffffffffffff161415611fab5760005b8351811015611fa9576000848281518110611ef757611ef6612e7d565b5b602002602001015190506000848381518110611f1657611f15612e7d565b5b6020026020010151905060006003600084815260200190815260200160002054905081811015611f7b576040517f08c379a0000000000000000000000000000000000000000000000000000000008152600401611f729061382d565b60405180910390fd5b818103600360008581526020019081526020016000208190555050505080611fa290612edb565b9050611ed9565b505b505050505050565b6000808273ffffffffffffffffffffffffffffffffffffffff163b119050919050565b505050505050565b828054611fea90612d27565b90600052602060002090601f01602090048101928261200c5760008555612053565b82601f1061202557805160ff1916838001178555612053565b82800160010185558215612053579182015b82811115612052578251825591602001919060010190612037565b5b5090506120609190612064565b5090565b5b8082111561207d576000816000905550600101612065565b5090565b6000604051905090565b600080fd5b600080fd5b600073ffffffffffffffffffffffffffffffffffffffff82169050919050565b60006120c082612095565b9050919050565b6120d0816120b5565b81146120db57600080fd5b50565b6000813590506120ed816120c7565b92915050565b6000819050919050565b612106816120f3565b811461211157600080fd5b50565b600081359050612123816120fd565b92915050565b600080604083850312156121405761213f61208b565b5b600061214e858286016120de565b925050602061215f85828601612114565b9150509250929050565b612172816120f3565b82525050565b600060208201905061218d6000830184612169565b92915050565b60007fffffffff0000000000000000000000000000000000000000000000000000000082169050919050565b6121c881612193565b81146121d357600080fd5b50565b6000813590506121e5816121bf565b92915050565b6000602082840312156122015761220061208b565b5b600061220f848285016121d6565b91505092915050565b60008115159050919050565b61222d81612218565b82525050565b60006020820190506122486000830184612224565b92915050565b600080fd5b600080fd5b6000601f19601f8301169050919050565b7f4e487b7100000000000000000000000000000000000000000000000000000000600052604160045260246000fd5b6122a182612258565b810181811067ffffffffffffffff821117156122c0576122bf612269565b5b80604052505050565b60006122d3612081565b90506122df8282612298565b919050565b600067ffffffffffffffff8211156122ff576122fe612269565b5b61230882612258565b9050602081019050919050565b82818337600083830152505050565b6000612337612332846122e4565b6122c9565b90508281526020810184848401111561235357612352612253565b5b61235e848285612315565b509392505050565b600082601f83011261237b5761237a61224e565b5b813561238b848260208601612324565b91505092915050565b6000602082840312156123aa576123a961208b565b5b600082013567ffffffffffffffff8111156123c8576123c7612090565b5b6123d484828501612366565b91505092915050565b6000602082840312156123f3576123f261208b565b5b600061240184828501612114565b91505092915050565b600081519050919050565b600082825260208201905092915050565b60005b83811015612444578082015181840152602081019050612429565b83811115612453576000848401525b50505050565b60006124648261240a565b61246e8185612415565b935061247e818560208601612426565b61248781612258565b840191505092915050565b600060208201905081810360008301526124ac8184612459565b905092915050565b600067ffffffffffffffff8211156124cf576124ce612269565b5b602082029050602081019050919050565b600080fd5b60006124f86124f3846124b4565b6122c9565b9050808382526020820190506020840283018581111561251b5761251a6124e0565b5b835b8181101561254457806125308882612114565b84526020840193505060208101905061251d565b5050509392505050565b600082601f8301126125635761256261224e565b5b81356125738482602086016124e5565b91505092915050565b600067ffffffffffffffff82111561259757612596612269565b5b6125a082612258565b9050602081019050919050565b60006125c06125bb8461257c565b6122c9565b9050828152602081018484840111156125dc576125db612253565b5b6125e7848285612315565b509392505050565b600082601f8301126126045761260361224e565b5b81356126148482602086016125ad565b91505092915050565b600080600080608085870312156126375761263661208b565b5b6000612645878288016120de565b945050602085013567ffffffffffffffff81111561266657612665612090565b5b6126728782880161254e565b935050604085013567ffffffffffffffff81111561269357612692612090565b5b61269f8782880161254e565b925050606085013567ffffffffffffffff8111156126c0576126bf612090565b5b6126cc878288016125ef565b91505092959194509250565b600080600080600060a086880312156126f4576126f361208b565b5b6000612702888289016120de565b9550506020612713888289016120de565b945050604086013567ffffffffffffffff81111561273457612733612090565b5b6127408882890161254e565b935050606086013567ffffffffffffffff81111561276157612760612090565b5b61276d8882890161254e565b925050608086013567ffffffffffffffff81111561278e5761278d612090565b5b61279a888289016125ef565b9150509295509295909350565b600067ffffffffffffffff8211156127c2576127c1612269565b5b602082029050602081019050919050565b60006127e66127e1846127a7565b6122c9565b90508083825260208201905060208402830185811115612809576128086124e0565b5b835b81811015612832578061281e88826120de565b84526020840193505060208101905061280b565b5050509392505050565b600082601f8301126128515761285061224e565b5b81356128618482602086016127d3565b91505092915050565b600080604083850312156128815761288061208b565b5b600083013567ffffffffffffffff81111561289f5761289e612090565b5b6128ab8582860161283c565b925050602083013567ffffffffffffffff8111156128cc576128cb612090565b5b6128d88582860161254e565b9150509250929050565b600081519050919050565b600082825260208201905092915050565b6000819050602082019050919050565b612917816120f3565b82525050565b6000612929838361290e565b60208301905092915050565b6000602082019050919050565b600061294d826128e2565b61295781856128ed565b9350612962836128fe565b8060005b8381101561299357815161297a888261291d565b975061298583612935565b925050600181019050612966565b5085935050505092915050565b600060208201905081810360008301526129ba8184612942565b905092915050565b6000806000606084860312156129db576129da61208b565b5b60006129e9868287016120de565b935050602084013567ffffffffffffffff811115612a0a57612a09612090565b5b612a168682870161254e565b925050604084013567ffffffffffffffff811115612a3757612a36612090565b5b612a438682870161254e565b9150509250925092565b60008060008060808587031215612a6757612a6661208b565b5b6000612a75878288016120de565b9450506020612a8687828801612114565b9350506040612a9787828801612114565b925050606085013567ffffffffffffffff811115612ab857612ab7612090565b5b612ac4878288016125ef565b91505092959194509250565b612ad981612218565b8114612ae457600080fd5b50565b600081359050612af681612ad0565b92915050565b60008060408385031215612b1357612b1261208b565b5b6000612b21858286016120de565b9250506020612b3285828601612ae7565b9150509250929050565b60008060408385031215612b5357612b5261208b565b5b6000612b61858286016120de565b9250506020612b72858286016120de565b9150509250929050565b600080600080600060a08688031215612b9857612b9761208b565b5b6000612ba6888289016120de565b9550506020612bb7888289016120de565b9450506040612bc888828901612114565b9350506060612bd988828901612114565b925050608086013567ffffffffffffffff811115612bfa57612bf9612090565b5b612c06888289016125ef565b9150509295509295909350565b600080600060608486031215612c2c57612c2b61208b565b5b6000612c3a868287016120de565b9350506020612c4b86828701612114565b9250506040612c5c86828701612114565b9150509250925092565b7f455243313135353a2062616c616e636520717565727920666f7220746865207a60008201527f65726f2061646472657373000000000000000000000000000000000000000000602082015250565b6000612cc2602b83612415565b9150612ccd82612c66565b604082019050919050565b60006020820190508181036000830152612cf181612cb5565b9050919050565b7f4e487b7100000000000000000000000000000000000000000000000000000000600052602260045260246000fd5b60006002820490506001821680612d3f57607f821691505b60208210811415612d5357612d52612cf8565b5b50919050565b7f455243313135353a207472616e736665722063616c6c6572206973206e6f742060008201527f6f776e6572206e6f7220617070726f7665640000000000000000000000000000602082015250565b6000612db5603283612415565b9150612dc082612d59565b604082019050919050565b60006020820190508181036000830152612de481612da8565b9050919050565b7f455243313135353a206163636f756e747320616e6420696473206c656e67746860008201527f206d69736d617463680000000000000000000000000000000000000000000000602082015250565b6000612e47602983612415565b9150612e5282612deb565b604082019050919050565b60006020820190508181036000830152612e7681612e3a565b9050919050565b7f4e487b7100000000000000000000000000000000000000000000000000000000600052603260045260246000fd5b7f4e487b7100000000000000000000000000000000000000000000000000000000600052601160045260246000fd5b6000612ee6826120f3565b91507fffffffffffffffffffffffffffffffffffffffffffffffffffffffffffffffff821415612f1957612f18612eac565b5b600182019050919050565b7f455243313135353a2063616c6c6572206973206e6f74206f776e6572206e6f7260008201527f20617070726f7665640000000000000000000000000000000000000000000000602082015250565b6000612f80602983612415565b9150612f8b82612f24565b604082019050919050565b60006020820190508181036000830152612faf81612f73565b9050919050565b7f455243313135353a206d696e7420746f20746865207a65726f2061646472657360008201527f7300000000000000000000000000000000000000000000000000000000000000602082015250565b6000613012602183612415565b915061301d82612fb6565b604082019050919050565b6000602082019050818103600083015261304181613005565b9050919050565b7f455243313135353a2069647320616e6420616d6f756e7473206c656e6774682060008201527f6d69736d61746368000000000000000000000000000000000000000000000000602082015250565b60006130a4602883612415565b91506130af82613048565b604082019050919050565b600060208201905081810360008301526130d381613097565b9050919050565b60006130e5826120f3565b91506130f0836120f3565b9250827fffffffffffffffffffffffffffffffffffffffffffffffffffffffffffffffff0382111561312557613124612eac565b5b828201905092915050565b6000604082019050818103600083015261314a8185612942565b9050818103602083015261315e8184612942565b90509392505050565b7f455243313135353a207472616e7366657220746f20746865207a65726f20616460008201527f6472657373000000000000000000000000000000000000000000000000000000602082015250565b60006131c3602583612415565b91506131ce82613167565b604082019050919050565b600060208201905081810360008301526131f2816131b6565b9050919050565b7f455243313135353a20696e73756666696369656e742062616c616e636520666f60008201527f72207472616e7366657200000000000000000000000000000000000000000000602082015250565b6000613255602a83612415565b9150613260826131f9565b604082019050919050565b6000602082019050818103600083015261328481613248565b9050919050565b7f455243313135353a206275726e2066726f6d20746865207a65726f206164647260008201527f6573730000000000000000000000000000000000000000000000000000000000602082015250565b60006132e7602383612415565b91506132f28261328b565b604082019050919050565b60006020820190508181036000830152613316816132da565b9050919050565b7f455243313135353a206275726e20616d6f756e7420657863656564732062616c60008201527f616e636500000000000000000000000000000000000000000000000000000000602082015250565b6000613379602483612415565b91506133848261331d565b604082019050919050565b600060208201905081810360008301526133a88161336c565b9050919050565b60006040820190506133c46000830185612169565b6133d16020830184612169565b9392505050565b7f455243313135353a2073657474696e6720617070726f76616c2073746174757360008201527f20666f722073656c660000000000000000000000000000000000000000000000602082015250565b6000613434602983612415565b915061343f826133d8565b604082019050919050565b6000602082019050818103600083015261346381613427565b9050919050565b613473816120b5565b82525050565b600081519050919050565b600082825260208201905092915050565b60006134a082613479565b6134aa8185613484565b93506134ba818560208601612426565b6134c381612258565b840191505092915050565b600060a0820190506134e3600083018861346a565b6134f0602083018761346a565b81810360408301526135028186612942565b905081810360608301526135168185612942565b9050818103608083015261352a8184613495565b90509695505050505050565b600081519050613545816121bf565b92915050565b6000602082840312156135615761356061208b565b5b600061356f84828501613536565b91505092915050565b60008160e01c9050919050565b600060033d11156135a45760046000803e6135a1600051613578565b90505b90565b600060443d10156135b75761363a565b6135bf612081565b60043d036004823e80513d602482011167ffffffffffffffff821117156135e757505061363a565b808201805167ffffffffffffffff811115613605575050505061363a565b80602083010160043d03850181111561362257505050505061363a565b61363182602001850186612298565b82955050505050505b90565b7f455243313135353a207472616e7366657220746f206e6f6e204552433131353560008201527f526563656976657220696d706c656d656e746572000000000000000000000000602082015250565b6000613699603483612415565b91506136a48261363d565b604082019050919050565b600060208201905081810360008301526136c88161368c565b9050919050565b7f455243313135353a204552433131353552656365697665722072656a6563746560008201527f6420746f6b656e73000000000000000000000000000000000000000000000000602082015250565b600061372b602883612415565b9150613736826136cf565b604082019050919050565b6000602082019050818103600083015261375a8161371e565b9050919050565b600060a082019050613776600083018861346a565b613783602083018761346a565b6137906040830186612169565b61379d6060830185612169565b81810360808301526137af8184613495565b90509695505050505050565b7f455243313135353a206275726e20616d6f756e74206578636565647320746f7460008201527f616c537570706c79000000000000000000000000000000000000000000000000602082015250565b6000613817602883612415565b9150613822826137bb565b604082019050919050565b600060208201905081810360008301526138468161380a565b905091905056fea2646970667358221220f9eff11930dcb193c489674106930a855f5ebf4ec9aa9c136398d4a598317b2d64736f6c634300080b0033",
  "immutableReferences": {},
  "source": "// SPDX-License-Identifier: MIT\r\n\r\npragma solidity ^0.8.0;\r\n\r\nimport \"./ERC1155Mock.sol\";\r\nimport \"../token/ERC1155/extensions/ERC1155Supply.sol\";\r\n\r\ncontract ERC1155SupplyMock is ERC1155Mock, ERC1155Supply {\r\n    constructor(string memory uri) ERC1155Mock(uri) {}\r\n\r\n    function _beforeTokenTransfer(\r\n        address operator,\r\n        address from,\r\n        address to,\r\n        uint256[] memory ids,\r\n        uint256[] memory amounts,\r\n        bytes memory data\r\n    ) internal virtual override(ERC1155, ERC1155Supply) {\r\n        super._beforeTokenTransfer(operator, from, to, ids, amounts, data);\r\n    }\r\n}\r\n",
  "sourcePath": "C:\\Users\\Alexandr\\dev\\nft-sim\\contract\\contracts\\mocks\\ERC1155SupplyMock.sol",
  "compiler": {
    "name": "solc",
    "version": "0.8.11+commit.d7f03943.Emscripten.clang"
  },
  "schemaVersion": "3.4.4",
  "updatedAt": "2022-02-17T11:42:19.756Z",
  "devdoc": {
    "kind": "dev",
    "methods": {
      "balanceOf(address,uint256)": {
        "details": "See {IERC1155-balanceOf}. Requirements: - `account` cannot be the zero address."
      },
      "balanceOfBatch(address[],uint256[])": {
        "details": "See {IERC1155-balanceOfBatch}. Requirements: - `accounts` and `ids` must have the same length."
      },
      "exists(uint256)": {
        "details": "Indicates whether any token exist with a given id, or not."
      },
      "isApprovedForAll(address,address)": {
        "details": "See {IERC1155-isApprovedForAll}."
      },
      "safeBatchTransferFrom(address,address,uint256[],uint256[],bytes)": {
        "details": "See {IERC1155-safeBatchTransferFrom}."
      },
      "safeTransferFrom(address,address,uint256,uint256,bytes)": {
        "details": "See {IERC1155-safeTransferFrom}."
      },
      "setApprovalForAll(address,bool)": {
        "details": "See {IERC1155-setApprovalForAll}."
      },
      "supportsInterface(bytes4)": {
        "details": "See {IERC165-supportsInterface}."
      },
      "totalSupply(uint256)": {
        "details": "Total amount of tokens in with a given id."
      },
      "uri(uint256)": {
        "details": "See {IERC1155MetadataURI-uri}. This implementation returns the same URI for *all* token types. It relies on the token type ID substitution mechanism https://eips.ethereum.org/EIPS/eip-1155#metadata[defined in the EIP]. Clients calling this function must replace the `\\{id\\}` substring with the actual token type ID."
      }
    },
    "version": 1
  },
  "userdoc": {
    "kind": "user",
    "methods": {},
    "version": 1
  }
}