{
  "contractName": "ERC1155PausableMock",
  "abi": [
    {
      "inputs": [
        {
          "internalType": "string",
          "name": "uri",
          "type": "string"
        }
      ],
      "stateMutability": "nonpayable",
      "type": "constructor"
    },
    {
      "anonymous": false,
      "inputs": [
        {
          "indexed": true,
          "internalType": "address",
          "name": "account",
          "type": "address"
        },
        {
          "indexed": true,
          "internalType": "address",
          "name": "operator",
          "type": "address"
        },
        {
          "indexed": false,
          "internalType": "bool",
          "name": "approved",
          "type": "bool"
        }
      ],
      "name": "ApprovalForAll",
      "type": "event"
    },
    {
      "anonymous": false,
      "inputs": [
        {
          "indexed": false,
          "internalType": "address",
          "name": "account",
          "type": "address"
        }
      ],
      "name": "Paused",
      "type": "event"
    },
    {
      "anonymous": false,
      "inputs": [
        {
          "indexed": true,
          "internalType": "address",
          "name": "operator",
          "type": "address"
        },
        {
          "indexed": true,
          "internalType": "address",
          "name": "from",
          "type": "address"
        },
        {
          "indexed": true,
          "internalType": "address",
          "name": "to",
          "type": "address"
        },
        {
          "indexed": false,
          "internalType": "uint256[]",
          "name": "ids",
          "type": "uint256[]"
        },
        {
          "indexed": false,
          "internalType": "uint256[]",
          "name": "values",
          "type": "uint256[]"
        }
      ],
      "name": "TransferBatch",
      "type": "event"
    },
    {
      "anonymous": false,
      "inputs": [
        {
          "indexed": true,
          "internalType": "address",
          "name": "operator",
          "type": "address"
        },
        {
          "indexed": true,
          "internalType": "address",
          "name": "from",
          "type": "address"
        },
        {
          "indexed": true,
          "internalType": "address",
          "name": "to",
          "type": "address"
        },
        {
          "indexed": false,
          "internalType": "uint256",
          "name": "id",
          "type": "uint256"
        },
        {
          "indexed": false,
          "internalType": "uint256",
          "name": "value",
          "type": "uint256"
        }
      ],
      "name": "TransferSingle",
      "type": "event"
    },
    {
      "anonymous": false,
      "inputs": [
        {
          "indexed": false,
          "internalType": "string",
          "name": "value",
          "type": "string"
        },
        {
          "indexed": true,
          "internalType": "uint256",
          "name": "id",
          "type": "uint256"
        }
      ],
      "name": "URI",
      "type": "event"
    },
    {
      "anonymous": false,
      "inputs": [
        {
          "indexed": false,
          "internalType": "address",
          "name": "account",
          "type": "address"
        }
      ],
      "name": "Unpaused",
      "type": "event"
    },
    {
      "inputs": [
        {
          "internalType": "address",
          "name": "account",
          "type": "address"
        },
        {
          "internalType": "uint256",
          "name": "id",
          "type": "uint256"
        }
      ],
      "name": "balanceOf",
      "outputs": [
        {
          "internalType": "uint256",
          "name": "",
          "type": "uint256"
        }
      ],
      "stateMutability": "view",
      "type": "function"
    },
    {
      "inputs": [
        {
          "internalType": "address[]",
          "name": "accounts",
          "type": "address[]"
        },
        {
          "internalType": "uint256[]",
          "name": "ids",
          "type": "uint256[]"
        }
      ],
      "name": "balanceOfBatch",
      "outputs": [
        {
          "internalType": "uint256[]",
          "name": "",
          "type": "uint256[]"
        }
      ],
      "stateMutability": "view",
      "type": "function"
    },
    {
      "inputs": [
        {
          "internalType": "address",
          "name": "owner",
          "type": "address"
        },
        {
          "internalType": "uint256",
          "name": "id",
          "type": "uint256"
        },
        {
          "internalType": "uint256",
          "name": "value",
          "type": "uint256"
        }
      ],
      "name": "burn",
      "outputs": [],
      "stateMutability": "nonpayable",
      "type": "function"
    },
    {
      "inputs": [
        {
          "internalType": "address",
          "name": "owner",
          "type": "address"
        },
        {
          "internalType": "uint256[]",
          "name": "ids",
          "type": "uint256[]"
        },
        {
          "internalType": "uint256[]",
          "name": "values",
          "type": "uint256[]"
        }
      ],
      "name": "burnBatch",
      "outputs": [],
      "stateMutability": "nonpayable",
      "type": "function"
    },
    {
      "inputs": [
        {
          "internalType": "address",
          "name": "account",
          "type": "address"
        },
        {
          "internalType": "address",
          "name": "operator",
          "type": "address"
        }
      ],
      "name": "isApprovedForAll",
      "outputs": [
        {
          "internalType": "bool",
          "name": "",
          "type": "bool"
        }
      ],
      "stateMutability": "view",
      "type": "function"
    },
    {
      "inputs": [
        {
          "internalType": "address",
          "name": "to",
          "type": "address"
        },
        {
          "internalType": "uint256",
          "name": "id",
          "type": "uint256"
        },
        {
          "internalType": "uint256",
          "name": "value",
          "type": "uint256"
        },
        {
          "internalType": "bytes",
          "name": "data",
          "type": "bytes"
        }
      ],
      "name": "mint",
      "outputs": [],
      "stateMutability": "nonpayable",
      "type": "function"
    },
    {
      "inputs": [
        {
          "internalType": "address",
          "name": "to",
          "type": "address"
        },
        {
          "internalType": "uint256[]",
          "name": "ids",
          "type": "uint256[]"
        },
        {
          "internalType": "uint256[]",
          "name": "values",
          "type": "uint256[]"
        },
        {
          "internalType": "bytes",
          "name": "data",
          "type": "bytes"
        }
      ],
      "name": "mintBatch",
      "outputs": [],
      "stateMutability": "nonpayable",
      "type": "function"
    },
    {
      "inputs": [],
      "name": "paused",
      "outputs": [
        {
          "internalType": "bool",
          "name": "",
          "type": "bool"
        }
      ],
      "stateMutability": "view",
      "type": "function"
    },
    {
      "inputs": [
        {
          "internalType": "address",
          "name": "from",
          "type": "address"
        },
        {
          "internalType": "address",
          "name": "to",
          "type": "address"
        },
        {
          "internalType": "uint256[]",
          "name": "ids",
          "type": "uint256[]"
        },
        {
          "internalType": "uint256[]",
          "name": "amounts",
          "type": "uint256[]"
        },
        {
          "internalType": "bytes",
          "name": "data",
          "type": "bytes"
        }
      ],
      "name": "safeBatchTransferFrom",
      "outputs": [],
      "stateMutability": "nonpayable",
      "type": "function"
    },
    {
      "inputs": [
        {
          "internalType": "address",
          "name": "from",
          "type": "address"
        },
        {
          "internalType": "address",
          "name": "to",
          "type": "address"
        },
        {
          "internalType": "uint256",
          "name": "id",
          "type": "uint256"
        },
        {
          "internalType": "uint256",
          "name": "amount",
          "type": "uint256"
        },
        {
          "internalType": "bytes",
          "name": "data",
          "type": "bytes"
        }
      ],
      "name": "safeTransferFrom",
      "outputs": [],
      "stateMutability": "nonpayable",
      "type": "function"
    },
    {
      "inputs": [
        {
          "internalType": "address",
          "name": "operator",
          "type": "address"
        },
        {
          "internalType": "bool",
          "name": "approved",
          "type": "bool"
        }
      ],
      "name": "setApprovalForAll",
      "outputs": [],
      "stateMutability": "nonpayable",
      "type": "function"
    },
    {
      "inputs": [
        {
          "internalType": "string",
          "name": "newuri",
          "type": "string"
        }
      ],
      "name": "setURI",
      "outputs": [],
      "stateMutability": "nonpayable",
      "type": "function"
    },
    {
      "inputs": [
        {
          "internalType": "bytes4",
          "name": "interfaceId",
          "type": "bytes4"
        }
      ],
      "name": "supportsInterface",
      "outputs": [
        {
          "internalType": "bool",
          "name": "",
          "type": "bool"
        }
      ],
      "stateMutability": "view",
      "type": "function"
    },
    {
      "inputs": [
        {
          "internalType": "uint256",
          "name": "",
          "type": "uint256"
        }
      ],
      "name": "uri",
      "outputs": [
        {
          "internalType": "string",
          "name": "",
          "type": "string"
        }
      ],
      "stateMutability": "view",
      "type": "function"
    },
    {
      "inputs": [],
      "name": "pause",
      "outputs": [],
      "stateMutability": "nonpayable",
      "type": "function"
    },
    {
      "inputs": [],
      "name": "unpause",
      "outputs": [],
      "stateMutability": "nonpayable",
      "type": "function"
    }
  ],
  "bytecode": "0x60806040523480156200001157600080fd5b5060405162003cbb38038062003cbb8339818101604052810190620000379190620002d7565b80806200004a816200006e60201b60201c565b50506000600360006101000a81548160ff021916908315150217905550506200038d565b8060029080519060200190620000869291906200008a565b5050565b828054620000989062000357565b90600052602060002090601f016020900481019282620000bc576000855562000108565b82601f10620000d757805160ff191683800117855562000108565b8280016001018555821562000108579182015b8281111562000107578251825591602001919060010190620000ea565b5b5090506200011791906200011b565b5090565b5b80821115620001365760008160009055506001016200011c565b5090565b6000604051905090565b600080fd5b600080fd5b600080fd5b600080fd5b6000601f19601f8301169050919050565b7f4e487b7100000000000000000000000000000000000000000000000000000000600052604160045260246000fd5b620001a38262000158565b810181811067ffffffffffffffff82111715620001c557620001c462000169565b5b80604052505050565b6000620001da6200013a565b9050620001e8828262000198565b919050565b600067ffffffffffffffff8211156200020b576200020a62000169565b5b620002168262000158565b9050602081019050919050565b60005b838110156200024357808201518184015260208101905062000226565b8381111562000253576000848401525b50505050565b6000620002706200026a84620001ed565b620001ce565b9050828152602081018484840111156200028f576200028e62000153565b5b6200029c84828562000223565b509392505050565b600082601f830112620002bc57620002bb6200014e565b5b8151620002ce84826020860162000259565b91505092915050565b600060208284031215620002f057620002ef62000144565b5b600082015167ffffffffffffffff81111562000311576200031062000149565b5b6200031f84828501620002a4565b91505092915050565b7f4e487b7100000000000000000000000000000000000000000000000000000000600052602260045260246000fd5b600060028204905060018216806200037057607f821691505b6020821081141562000387576200038662000328565b5b50919050565b61391e806200039d6000396000f3fe608060405234801561001057600080fd5b50600436106100ff5760003560e01c80635c975abb11610097578063a22cb46511610066578063a22cb46514610282578063e985e9c51461029e578063f242432a146102ce578063f5298aca146102ea576100ff565b80635c975abb146102225780636b20c45414610240578063731133e91461025c5780638456cb5914610278576100ff565b80631f7fdffa116100d35780631f7fdffa146101b05780632eb2c2d6146101cc5780633f4ba83a146101e85780634e1273f4146101f2576100ff565b8062fdd58e1461010457806301ffc9a71461013457806302fe5305146101645780630e89341c14610180575b600080fd5b61011e600480360381019061011991906120d1565b610306565b60405161012b9190612120565b60405180910390f35b61014e60048036038101906101499190612193565b6103cf565b60405161015b91906121db565b60405180910390f35b61017e6004803603810190610179919061233c565b6104b1565b005b61019a60048036038101906101959190612385565b6104bd565b6040516101a7919061243a565b60405180910390f35b6101ca60048036038101906101c591906125c5565b610551565b005b6101e660048036038101906101e19190612680565b610563565b005b6101f0610604565b005b61020c60048036038101906102079190612812565b61060e565b6040516102199190612948565b60405180910390f35b61022a610727565b60405161023791906121db565b60405180910390f35b61025a6004803603810190610255919061296a565b61073e565b005b610276600480360381019061027191906129f5565b61074e565b005b610280610760565b005b61029c60048036038101906102979190612aa4565b61076a565b005b6102b860048036038101906102b39190612ae4565b610780565b6040516102c591906121db565b60405180910390f35b6102e860048036038101906102e39190612b24565b610814565b005b61030460048036038101906102ff9190612bbb565b6108b5565b005b60008073ffffffffffffffffffffffffffffffffffffffff168373ffffffffffffffffffffffffffffffffffffffff161415610377576040517f08c379a000000000000000000000000000000000000000000000000000000000815260040161036e90612c80565b60405180910390fd5b60008083815260200190815260200160002060008473ffffffffffffffffffffffffffffffffffffffff1673ffffffffffffffffffffffffffffffffffffffff16815260200190815260200160002054905092915050565b60007fd9b67a26000000000000000000000000000000000000000000000000000000007bffffffffffffffffffffffffffffffffffffffffffffffffffffffff1916827bffffffffffffffffffffffffffffffffffffffffffffffffffffffff1916148061049a57507f0e89341c000000000000000000000000000000000000000000000000000000007bffffffffffffffffffffffffffffffffffffffffffffffffffffffff1916827bffffffffffffffffffffffffffffffffffffffffffffffffffffffff1916145b806104aa57506104a9826108c5565b5b9050919050565b6104ba8161092f565b50565b6060600280546104cc90612ccf565b80601f01602080910402602001604051908101604052809291908181526020018280546104f890612ccf565b80156105455780601f1061051a57610100808354040283529160200191610545565b820191906000526020600020905b81548152906001019060200180831161052857829003601f168201915b50505050509050919050565b61055d84848484610949565b50505050565b61056b610b76565b73ffffffffffffffffffffffffffffffffffffffff168573ffffffffffffffffffffffffffffffffffffffff1614806105b157506105b0856105ab610b76565b610780565b5b6105f0576040517f08c379a00000000000000000000000000000000000000000000000000000000081526004016105e790612d73565b60405180910390fd5b6105fd8585858585610b7e565b5050505050565b61060c610ea0565b565b60608151835114610654576040517f08c379a000000000000000000000000000000000000000000000000000000000815260040161064b90612e05565b60405180910390fd5b6000835167ffffffffffffffff81111561067157610670612211565b5b60405190808252806020026020018201604052801561069f5781602001602082028036833780820191505090505b50905060005b845181101561071c576106ec8582815181106106c4576106c3612e25565b5b60200260200101518583815181106106df576106de612e25565b5b6020026020010151610306565b8282815181106106ff576106fe612e25565b5b6020026020010181815250508061071590612e83565b90506106a5565b508091505092915050565b6000600360009054906101000a900460ff16905090565b610749838383610f42565b505050565b61075a84848484611211565b50505050565b6107686113c2565b565b61077c610775610b76565b8383611465565b5050565b6000600160008473ffffffffffffffffffffffffffffffffffffffff1673ffffffffffffffffffffffffffffffffffffffff16815260200190815260200160002060008373ffffffffffffffffffffffffffffffffffffffff1673ffffffffffffffffffffffffffffffffffffffff16815260200190815260200160002060009054906101000a900460ff16905092915050565b61081c610b76565b73ffffffffffffffffffffffffffffffffffffffff168573ffffffffffffffffffffffffffffffffffffffff16148061086257506108618561085c610b76565b610780565b5b6108a1576040517f08c379a000000000000000000000000000000000000000000000000000000000815260040161089890612f3e565b60405180910390fd5b6108ae85858585856115d2565b5050505050565b6108c083838361186e565b505050565b60007f01ffc9a7000000000000000000000000000000000000000000000000000000007bffffffffffffffffffffffffffffffffffffffffffffffffffffffff1916827bffffffffffffffffffffffffffffffffffffffffffffffffffffffff1916149050919050565b8060029080519060200190610945929190611f86565b5050565b600073ffffffffffffffffffffffffffffffffffffffff168473ffffffffffffffffffffffffffffffffffffffff1614156109b9576040517f08c379a00000000000000000000000000000000000000000000000000000000081526004016109b090612fd0565b60405180910390fd5b81518351146109fd576040517f08c379a00000000000000000000000000000000000000000000000000000000081526004016109f490613062565b60405180910390fd5b6000610a07610b76565b9050610a1881600087878787611ab5565b60005b8451811015610ad157838181518110610a3757610a36612e25565b5b6020026020010151600080878481518110610a5557610a54612e25565b5b6020026020010151815260200190815260200160002060008873ffffffffffffffffffffffffffffffffffffffff1673ffffffffffffffffffffffffffffffffffffffff1681526020019081526020016000206000828254610ab79190613082565b925050819055508080610ac990612e83565b915050610a1b565b508473ffffffffffffffffffffffffffffffffffffffff16600073ffffffffffffffffffffffffffffffffffffffff168273ffffffffffffffffffffffffffffffffffffffff167f4a39dc06d4c0dbc64b70af90fd698a233a518aa5d07e595d983b8c0526c8f7fb8787604051610b499291906130d8565b60405180910390a4610b6081600087878787611acb565b610b6f81600087878787611ca3565b5050505050565b600033905090565b8151835114610bc2576040517f08c379a0000000000000000000000000000000000000000000000000000000008152600401610bb990613062565b60405180910390fd5b600073ffffffffffffffffffffffffffffffffffffffff168473ffffffffffffffffffffffffffffffffffffffff161415610c32576040517f08c379a0000000000000000000000000000000000000000000000000000000008152600401610c2990613181565b60405180910390fd5b6000610c3c610b76565b9050610c4c818787878787611ab5565b60005b8451811015610dfd576000858281518110610c6d57610c6c612e25565b5b602002602001015190506000858381518110610c8c57610c8b612e25565b5b60200260200101519050600080600084815260200190815260200160002060008b73ffffffffffffffffffffffffffffffffffffffff1673ffffffffffffffffffffffffffffffffffffffff16815260200190815260200160002054905081811015610d2d576040517f08c379a0000000000000000000000000000000000000000000000000000000008152600401610d2490613213565b60405180910390fd5b81810360008085815260200190815260200160002060008c73ffffffffffffffffffffffffffffffffffffffff1673ffffffffffffffffffffffffffffffffffffffff168152602001908152602001600020819055508160008085815260200190815260200160002060008b73ffffffffffffffffffffffffffffffffffffffff1673ffffffffffffffffffffffffffffffffffffffff1681526020019081526020016000206000828254610de29190613082565b9250508190555050505080610df690612e83565b9050610c4f565b508473ffffffffffffffffffffffffffffffffffffffff168673ffffffffffffffffffffffffffffffffffffffff168273ffffffffffffffffffffffffffffffffffffffff167f4a39dc06d4c0dbc64b70af90fd698a233a518aa5d07e595d983b8c0526c8f7fb8787604051610e749291906130d8565b60405180910390a4610e8a818787878787611acb565b610e98818787878787611ca3565b505050505050565b610ea8610727565b610ee7576040517f08c379a0000000000000000000000000000000000000000000000000000000008152600401610ede9061327f565b60405180910390fd5b6000600360006101000a81548160ff0219169083151502179055507f5db9ee0a495bf2e6ff9c91a7834c1ba4fdd244a5e8aa4e537bd38aeae4b073aa610f2b610b76565b604051610f3891906132ae565b60405180910390a1565b600073ffffffffffffffffffffffffffffffffffffffff168373ffffffffffffffffffffffffffffffffffffffff161415610fb2576040517f08c379a0000000000000000000000000000000000000000000000000000000008152600401610fa99061333b565b60405180910390fd5b8051825114610ff6576040517f08c379a0000000000000000000000000000000000000000000000000000000008152600401610fed90613062565b60405180910390fd5b6000611000610b76565b905061102081856000868660405180602001604052806000815250611ab5565b60005b835181101561116d57600084828151811061104157611040612e25565b5b6020026020010151905060008483815181106110605761105f612e25565b5b60200260200101519050600080600084815260200190815260200160002060008973ffffffffffffffffffffffffffffffffffffffff1673ffffffffffffffffffffffffffffffffffffffff16815260200190815260200160002054905081811015611101576040517f08c379a00000000000000000000000000000000000000000000000000000000081526004016110f8906133cd565b60405180910390fd5b81810360008085815260200190815260200160002060008a73ffffffffffffffffffffffffffffffffffffffff1673ffffffffffffffffffffffffffffffffffffffff16815260200190815260200160002081905550505050808061116590612e83565b915050611023565b50600073ffffffffffffffffffffffffffffffffffffffff168473ffffffffffffffffffffffffffffffffffffffff168273ffffffffffffffffffffffffffffffffffffffff167f4a39dc06d4c0dbc64b70af90fd698a233a518aa5d07e595d983b8c0526c8f7fb86866040516111e59291906130d8565b60405180910390a461120b81856000868660405180602001604052806000815250611ca3565b50505050565b600073ffffffffffffffffffffffffffffffffffffffff168473ffffffffffffffffffffffffffffffffffffffff161415611281576040517f08c379a000000000000000000000000000000000000000000000000000000000815260040161127890612fd0565b60405180910390fd5b600061128b610b76565b9050600061129885611cab565b905060006112a585611cab565b90506112b683600089858589611ab5565b8460008088815260200190815260200160002060008973ffffffffffffffffffffffffffffffffffffffff1673ffffffffffffffffffffffffffffffffffffffff16815260200190815260200160002060008282546113159190613082565b925050819055508673ffffffffffffffffffffffffffffffffffffffff16600073ffffffffffffffffffffffffffffffffffffffff168473ffffffffffffffffffffffffffffffffffffffff167fc3d58168c5ae7397731d063d5bbf3d657854427343f4c083240f7aacaa2d0f6289896040516113939291906133ed565b60405180910390a46113aa83600089898989611d25565b6113b983600089858589611ca3565b50505050505050565b6113ca610727565b1561140a576040517f08c379a000000000000000000000000000000000000000000000000000000000815260040161140190613462565b60405180910390fd5b6001600360006101000a81548160ff0219169083151502179055507f62e78cea01bee320cd4e420270b5ea74000d11b0c9f74754ebdbfc544b05a25861144e610b76565b60405161145b91906132ae565b60405180910390a1565b8173ffffffffffffffffffffffffffffffffffffffff168373ffffffffffffffffffffffffffffffffffffffff1614156114d4576040517f08c379a00000000000000000000000000000000000000000000000000000000081526004016114cb906134f4565b60405180910390fd5b80600160008573ffffffffffffffffffffffffffffffffffffffff1673ffffffffffffffffffffffffffffffffffffffff16815260200190815260200160002060008473ffffffffffffffffffffffffffffffffffffffff1673ffffffffffffffffffffffffffffffffffffffff16815260200190815260200160002060006101000a81548160ff0219169083151502179055508173ffffffffffffffffffffffffffffffffffffffff168373ffffffffffffffffffffffffffffffffffffffff167f17307eab39ab6107e8899845ad3d59bd9653f200f220920489ca2b5937696c31836040516115c591906121db565b60405180910390a3505050565b600073ffffffffffffffffffffffffffffffffffffffff168473ffffffffffffffffffffffffffffffffffffffff161415611642576040517f08c379a000000000000000000000000000000000000000000000000000000000815260040161163990613181565b60405180910390fd5b600061164c610b76565b9050600061165985611cab565b9050600061166685611cab565b9050611676838989858589611ab5565b600080600088815260200190815260200160002060008a73ffffffffffffffffffffffffffffffffffffffff1673ffffffffffffffffffffffffffffffffffffffff1681526020019081526020016000205490508581101561170d576040517f08c379a000000000000000000000000000000000000000000000000000000000815260040161170490613213565b60405180910390fd5b85810360008089815260200190815260200160002060008b73ffffffffffffffffffffffffffffffffffffffff1673ffffffffffffffffffffffffffffffffffffffff168152602001908152602001600020819055508560008089815260200190815260200160002060008a73ffffffffffffffffffffffffffffffffffffffff1673ffffffffffffffffffffffffffffffffffffffff16815260200190815260200160002060008282546117c29190613082565b925050819055508773ffffffffffffffffffffffffffffffffffffffff168973ffffffffffffffffffffffffffffffffffffffff168573ffffffffffffffffffffffffffffffffffffffff167fc3d58168c5ae7397731d063d5bbf3d657854427343f4c083240f7aacaa2d0f628a8a60405161183f9291906133ed565b60405180910390a4611855848a8a8a8a8a611d25565b611863848a8a86868a611ca3565b505050505050505050565b600073ffffffffffffffffffffffffffffffffffffffff168373ffffffffffffffffffffffffffffffffffffffff1614156118de576040517f08c379a00000000000000000000000000000000000000000000000000000000081526004016118d59061333b565b60405180910390fd5b60006118e8610b76565b905060006118f584611cab565b9050600061190284611cab565b905061192283876000858560405180602001604052806000815250611ab5565b600080600087815260200190815260200160002060008873ffffffffffffffffffffffffffffffffffffffff1673ffffffffffffffffffffffffffffffffffffffff168152602001908152602001600020549050848110156119b9576040517f08c379a00000000000000000000000000000000000000000000000000000000081526004016119b0906133cd565b60405180910390fd5b84810360008088815260200190815260200160002060008973ffffffffffffffffffffffffffffffffffffffff1673ffffffffffffffffffffffffffffffffffffffff16815260200190815260200160002081905550600073ffffffffffffffffffffffffffffffffffffffff168773ffffffffffffffffffffffffffffffffffffffff168573ffffffffffffffffffffffffffffffffffffffff167fc3d58168c5ae7397731d063d5bbf3d657854427343f4c083240f7aacaa2d0f628989604051611a869291906133ed565b60405180910390a4611aac84886000868660405180602001604052806000815250611ca3565b50505050505050565b611ac3868686868686611efd565b505050505050565b611aea8473ffffffffffffffffffffffffffffffffffffffff16611f5b565b15611c9b578373ffffffffffffffffffffffffffffffffffffffff1663bc197c8187878686866040518663ffffffff1660e01b8152600401611b30959493929190613569565b6020604051808303816000875af1925050508015611b6c57506040513d601f19601f82011682018060405250810190611b6991906135e6565b60015b611c1257611b78613620565b806308c379a01415611bd55750611b8d613642565b80611b985750611bd7565b806040517f08c379a0000000000000000000000000000000000000000000000000000000008152600401611bcc919061243a565b60405180910390fd5b505b6040517f08c379a0000000000000000000000000000000000000000000000000000000008152600401611c099061374a565b60405180910390fd5b63bc197c8160e01b7bffffffffffffffffffffffffffffffffffffffffffffffffffffffff1916817bffffffffffffffffffffffffffffffffffffffffffffffffffffffff191614611c99576040517f08c379a0000000000000000000000000000000000000000000000000000000008152600401611c90906137dc565b60405180910390fd5b505b505050505050565b505050505050565b60606000600167ffffffffffffffff811115611cca57611cc9612211565b5b604051908082528060200260200182016040528015611cf85781602001602082028036833780820191505090505b5090508281600081518110611d1057611d0f612e25565b5b60200260200101818152505080915050919050565b611d448473ffffffffffffffffffffffffffffffffffffffff16611f5b565b15611ef5578373ffffffffffffffffffffffffffffffffffffffff1663f23a6e6187878686866040518663ffffffff1660e01b8152600401611d8a9594939291906137fc565b6020604051808303816000875af1925050508015611dc657506040513d601f19601f82011682018060405250810190611dc391906135e6565b60015b611e6c57611dd2613620565b806308c379a01415611e2f5750611de7613642565b80611df25750611e31565b806040517f08c379a0000000000000000000000000000000000000000000000000000000008152600401611e26919061243a565b60405180910390fd5b505b6040517f08c379a0000000000000000000000000000000000000000000000000000000008152600401611e639061374a565b60405180910390fd5b63f23a6e6160e01b7bffffffffffffffffffffffffffffffffffffffffffffffffffffffff1916817bffffffffffffffffffffffffffffffffffffffffffffffffffffffff191614611ef3576040517f08c379a0000000000000000000000000000000000000000000000000000000008152600401611eea906137dc565b60405180910390fd5b505b505050505050565b611f0b868686868686611f7e565b611f13610727565b15611f53576040517f08c379a0000000000000000000000000000000000000000000000000000000008152600401611f4a906138c8565b60405180910390fd5b505050505050565b6000808273ffffffffffffffffffffffffffffffffffffffff163b119050919050565b505050505050565b828054611f9290612ccf565b90600052602060002090601f016020900481019282611fb45760008555611ffb565b82601f10611fcd57805160ff1916838001178555611ffb565b82800160010185558215611ffb579182015b82811115611ffa578251825591602001919060010190611fdf565b5b509050612008919061200c565b5090565b5b8082111561202557600081600090555060010161200d565b5090565b6000604051905090565b600080fd5b600080fd5b600073ffffffffffffffffffffffffffffffffffffffff82169050919050565b60006120688261203d565b9050919050565b6120788161205d565b811461208357600080fd5b50565b6000813590506120958161206f565b92915050565b6000819050919050565b6120ae8161209b565b81146120b957600080fd5b50565b6000813590506120cb816120a5565b92915050565b600080604083850312156120e8576120e7612033565b5b60006120f685828601612086565b9250506020612107858286016120bc565b9150509250929050565b61211a8161209b565b82525050565b60006020820190506121356000830184612111565b92915050565b60007fffffffff0000000000000000000000000000000000000000000000000000000082169050919050565b6121708161213b565b811461217b57600080fd5b50565b60008135905061218d81612167565b92915050565b6000602082840312156121a9576121a8612033565b5b60006121b78482850161217e565b91505092915050565b60008115159050919050565b6121d5816121c0565b82525050565b60006020820190506121f060008301846121cc565b92915050565b600080fd5b600080fd5b6000601f19601f8301169050919050565b7f4e487b7100000000000000000000000000000000000000000000000000000000600052604160045260246000fd5b61224982612200565b810181811067ffffffffffffffff8211171561226857612267612211565b5b80604052505050565b600061227b612029565b90506122878282612240565b919050565b600067ffffffffffffffff8211156122a7576122a6612211565b5b6122b082612200565b9050602081019050919050565b82818337600083830152505050565b60006122df6122da8461228c565b612271565b9050828152602081018484840111156122fb576122fa6121fb565b5b6123068482856122bd565b509392505050565b600082601f830112612323576123226121f6565b5b81356123338482602086016122cc565b91505092915050565b60006020828403121561235257612351612033565b5b600082013567ffffffffffffffff8111156123705761236f612038565b5b61237c8482850161230e565b91505092915050565b60006020828403121561239b5761239a612033565b5b60006123a9848285016120bc565b91505092915050565b600081519050919050565b600082825260208201905092915050565b60005b838110156123ec5780820151818401526020810190506123d1565b838111156123fb576000848401525b50505050565b600061240c826123b2565b61241681856123bd565b93506124268185602086016123ce565b61242f81612200565b840191505092915050565b600060208201905081810360008301526124548184612401565b905092915050565b600067ffffffffffffffff82111561247757612476612211565b5b602082029050602081019050919050565b600080fd5b60006124a061249b8461245c565b612271565b905080838252602082019050602084028301858111156124c3576124c2612488565b5b835b818110156124ec57806124d888826120bc565b8452602084019350506020810190506124c5565b5050509392505050565b600082601f83011261250b5761250a6121f6565b5b813561251b84826020860161248d565b91505092915050565b600067ffffffffffffffff82111561253f5761253e612211565b5b61254882612200565b9050602081019050919050565b600061256861256384612524565b612271565b905082815260208101848484011115612584576125836121fb565b5b61258f8482856122bd565b509392505050565b600082601f8301126125ac576125ab6121f6565b5b81356125bc848260208601612555565b91505092915050565b600080600080608085870312156125df576125de612033565b5b60006125ed87828801612086565b945050602085013567ffffffffffffffff81111561260e5761260d612038565b5b61261a878288016124f6565b935050604085013567ffffffffffffffff81111561263b5761263a612038565b5b612647878288016124f6565b925050606085013567ffffffffffffffff81111561266857612667612038565b5b61267487828801612597565b91505092959194509250565b600080600080600060a0868803121561269c5761269b612033565b5b60006126aa88828901612086565b95505060206126bb88828901612086565b945050604086013567ffffffffffffffff8111156126dc576126db612038565b5b6126e8888289016124f6565b935050606086013567ffffffffffffffff81111561270957612708612038565b5b612715888289016124f6565b925050608086013567ffffffffffffffff81111561273657612735612038565b5b61274288828901612597565b9150509295509295909350565b600067ffffffffffffffff82111561276a57612769612211565b5b602082029050602081019050919050565b600061278e6127898461274f565b612271565b905080838252602082019050602084028301858111156127b1576127b0612488565b5b835b818110156127da57806127c68882612086565b8452602084019350506020810190506127b3565b5050509392505050565b600082601f8301126127f9576127f86121f6565b5b813561280984826020860161277b565b91505092915050565b6000806040838503121561282957612828612033565b5b600083013567ffffffffffffffff81111561284757612846612038565b5b612853858286016127e4565b925050602083013567ffffffffffffffff81111561287457612873612038565b5b612880858286016124f6565b9150509250929050565b600081519050919050565b600082825260208201905092915050565b6000819050602082019050919050565b6128bf8161209b565b82525050565b60006128d183836128b6565b60208301905092915050565b6000602082019050919050565b60006128f58261288a565b6128ff8185612895565b935061290a836128a6565b8060005b8381101561293b57815161292288826128c5565b975061292d836128dd565b92505060018101905061290e565b5085935050505092915050565b6000602082019050818103600083015261296281846128ea565b905092915050565b60008060006060848603121561298357612982612033565b5b600061299186828701612086565b935050602084013567ffffffffffffffff8111156129b2576129b1612038565b5b6129be868287016124f6565b925050604084013567ffffffffffffffff8111156129df576129de612038565b5b6129eb868287016124f6565b9150509250925092565b60008060008060808587031215612a0f57612a0e612033565b5b6000612a1d87828801612086565b9450506020612a2e878288016120bc565b9350506040612a3f878288016120bc565b925050606085013567ffffffffffffffff811115612a6057612a5f612038565b5b612a6c87828801612597565b91505092959194509250565b612a81816121c0565b8114612a8c57600080fd5b50565b600081359050612a9e81612a78565b92915050565b60008060408385031215612abb57612aba612033565b5b6000612ac985828601612086565b9250506020612ada85828601612a8f565b9150509250929050565b60008060408385031215612afb57612afa612033565b5b6000612b0985828601612086565b9250506020612b1a85828601612086565b9150509250929050565b600080600080600060a08688031215612b4057612b3f612033565b5b6000612b4e88828901612086565b9550506020612b5f88828901612086565b9450506040612b70888289016120bc565b9350506060612b81888289016120bc565b925050608086013567ffffffffffffffff811115612ba257612ba1612038565b5b612bae88828901612597565b9150509295509295909350565b600080600060608486031215612bd457612bd3612033565b5b6000612be286828701612086565b9350506020612bf3868287016120bc565b9250506040612c04868287016120bc565b9150509250925092565b7f455243313135353a2062616c616e636520717565727920666f7220746865207a60008201527f65726f2061646472657373000000000000000000000000000000000000000000602082015250565b6000612c6a602b836123bd565b9150612c7582612c0e565b604082019050919050565b60006020820190508181036000830152612c9981612c5d565b9050919050565b7f4e487b7100000000000000000000000000000000000000000000000000000000600052602260045260246000fd5b60006002820490506001821680612ce757607f821691505b60208210811415612cfb57612cfa612ca0565b5b50919050565b7f455243313135353a207472616e736665722063616c6c6572206973206e6f742060008201527f6f776e6572206e6f7220617070726f7665640000000000000000000000000000602082015250565b6000612d5d6032836123bd565b9150612d6882612d01565b604082019050919050565b60006020820190508181036000830152612d8c81612d50565b9050919050565b7f455243313135353a206163636f756e747320616e6420696473206c656e67746860008201527f206d69736d617463680000000000000000000000000000000000000000000000602082015250565b6000612def6029836123bd565b9150612dfa82612d93565b604082019050919050565b60006020820190508181036000830152612e1e81612de2565b9050919050565b7f4e487b7100000000000000000000000000000000000000000000000000000000600052603260045260246000fd5b7f4e487b7100000000000000000000000000000000000000000000000000000000600052601160045260246000fd5b6000612e8e8261209b565b91507fffffffffffffffffffffffffffffffffffffffffffffffffffffffffffffffff821415612ec157612ec0612e54565b5b600182019050919050565b7f455243313135353a2063616c6c6572206973206e6f74206f776e6572206e6f7260008201527f20617070726f7665640000000000000000000000000000000000000000000000602082015250565b6000612f286029836123bd565b9150612f3382612ecc565b604082019050919050565b60006020820190508181036000830152612f5781612f1b565b9050919050565b7f455243313135353a206d696e7420746f20746865207a65726f2061646472657360008201527f7300000000000000000000000000000000000000000000000000000000000000602082015250565b6000612fba6021836123bd565b9150612fc582612f5e565b604082019050919050565b60006020820190508181036000830152612fe981612fad565b9050919050565b7f455243313135353a2069647320616e6420616d6f756e7473206c656e6774682060008201527f6d69736d61746368000000000000000000000000000000000000000000000000602082015250565b600061304c6028836123bd565b915061305782612ff0565b604082019050919050565b6000602082019050818103600083015261307b8161303f565b9050919050565b600061308d8261209b565b91506130988361209b565b9250827fffffffffffffffffffffffffffffffffffffffffffffffffffffffffffffffff038211156130cd576130cc612e54565b5b828201905092915050565b600060408201905081810360008301526130f281856128ea565b9050818103602083015261310681846128ea565b90509392505050565b7f455243313135353a207472616e7366657220746f20746865207a65726f20616460008201527f6472657373000000000000000000000000000000000000000000000000000000602082015250565b600061316b6025836123bd565b91506131768261310f565b604082019050919050565b6000602082019050818103600083015261319a8161315e565b9050919050565b7f455243313135353a20696e73756666696369656e742062616c616e636520666f60008201527f72207472616e7366657200000000000000000000000000000000000000000000602082015250565b60006131fd602a836123bd565b9150613208826131a1565b604082019050919050565b6000602082019050818103600083015261322c816131f0565b9050919050565b7f5061757361626c653a206e6f7420706175736564000000000000000000000000600082015250565b60006132696014836123bd565b915061327482613233565b602082019050919050565b600060208201905081810360008301526132988161325c565b9050919050565b6132a88161205d565b82525050565b60006020820190506132c3600083018461329f565b92915050565b7f455243313135353a206275726e2066726f6d20746865207a65726f206164647260008201527f6573730000000000000000000000000000000000000000000000000000000000602082015250565b60006133256023836123bd565b9150613330826132c9565b604082019050919050565b6000602082019050818103600083015261335481613318565b9050919050565b7f455243313135353a206275726e20616d6f756e7420657863656564732062616c60008201527f616e636500000000000000000000000000000000000000000000000000000000602082015250565b60006133b76024836123bd565b91506133c28261335b565b604082019050919050565b600060208201905081810360008301526133e6816133aa565b9050919050565b60006040820190506134026000830185612111565b61340f6020830184612111565b9392505050565b7f5061757361626c653a2070617573656400000000000000000000000000000000600082015250565b600061344c6010836123bd565b915061345782613416565b602082019050919050565b6000602082019050818103600083015261347b8161343f565b9050919050565b7f455243313135353a2073657474696e6720617070726f76616c2073746174757360008201527f20666f722073656c660000000000000000000000000000000000000000000000602082015250565b60006134de6029836123bd565b91506134e982613482565b604082019050919050565b6000602082019050818103600083015261350d816134d1565b9050919050565b600081519050919050565b600082825260208201905092915050565b600061353b82613514565b613545818561351f565b93506135558185602086016123ce565b61355e81612200565b840191505092915050565b600060a08201905061357e600083018861329f565b61358b602083018761329f565b818103604083015261359d81866128ea565b905081810360608301526135b181856128ea565b905081810360808301526135c58184613530565b90509695505050505050565b6000815190506135e081612167565b92915050565b6000602082840312156135fc576135fb612033565b5b600061360a848285016135d1565b91505092915050565b60008160e01c9050919050565b600060033d111561363f5760046000803e61363c600051613613565b90505b90565b600060443d1015613652576136d5565b61365a612029565b60043d036004823e80513d602482011167ffffffffffffffff821117156136825750506136d5565b808201805167ffffffffffffffff8111156136a057505050506136d5565b80602083010160043d0385018111156136bd5750505050506136d5565b6136cc82602001850186612240565b82955050505050505b90565b7f455243313135353a207472616e7366657220746f206e6f6e204552433131353560008201527f526563656976657220696d706c656d656e746572000000000000000000000000602082015250565b60006137346034836123bd565b915061373f826136d8565b604082019050919050565b6000602082019050818103600083015261376381613727565b9050919050565b7f455243313135353a204552433131353552656365697665722072656a6563746560008201527f6420746f6b656e73000000000000000000000000000000000000000000000000602082015250565b60006137c66028836123bd565b91506137d18261376a565b604082019050919050565b600060208201905081810360008301526137f5816137b9565b9050919050565b600060a082019050613811600083018861329f565b61381e602083018761329f565b61382b6040830186612111565b6138386060830185612111565b818103608083015261384a8184613530565b90509695505050505050565b7f455243313135355061757361626c653a20746f6b656e207472616e736665722060008201527f7768696c65207061757365640000000000000000000000000000000000000000602082015250565b60006138b2602c836123bd565b91506138bd82613856565b604082019050919050565b600060208201905081810360008301526138e1816138a5565b905091905056fea2646970667358221220c7bba97bc0ce7ffab6c0cae2bbb72ca24aa36a318893a503ba6ac7d1d2b9f40164736f6c634300080b0033",
  "immutableReferences": {},
  "source": "// SPDX-License-Identifier: MIT\r\n\r\npragma solidity ^0.8.0;\r\n\r\nimport \"./ERC1155Mock.sol\";\r\nimport \"../token/ERC1155/extensions/ERC1155Pausable.sol\";\r\n\r\ncontract ERC1155PausableMock is ERC1155Mock, ERC1155Pausable {\r\n    constructor(string memory uri) ERC1155Mock(uri) {}\r\n\r\n    function pause() external {\r\n        _pause();\r\n    }\r\n\r\n    function unpause() external {\r\n        _unpause();\r\n    }\r\n\r\n    function _beforeTokenTransfer(\r\n        address operator,\r\n        address from,\r\n        address to,\r\n        uint256[] memory ids,\r\n        uint256[] memory amounts,\r\n        bytes memory data\r\n    ) internal virtual override(ERC1155, ERC1155Pausable) {\r\n        super._beforeTokenTransfer(operator, from, to, ids, amounts, data);\r\n    }\r\n}\r\n",
  "sourcePath": "C:\\Users\\Alexandr\\dev\\nft-sim\\contract\\contracts\\mocks\\ERC1155PausableMock.sol",
  "compiler": {
    "name": "solc",
    "version": "0.8.11+commit.d7f03943.Emscripten.clang"
  },
  "schemaVersion": "3.4.4",
  "updatedAt": "2022-02-17T11:42:19.707Z",
  "devdoc": {
    "kind": "dev",
    "methods": {
      "balanceOf(address,uint256)": {
        "details": "See {IERC1155-balanceOf}. Requirements: - `account` cannot be the zero address."
      },
      "balanceOfBatch(address[],uint256[])": {
        "details": "See {IERC1155-balanceOfBatch}. Requirements: - `accounts` and `ids` must have the same length."
      },
      "isApprovedForAll(address,address)": {
        "details": "See {IERC1155-isApprovedForAll}."
      },
      "paused()": {
        "details": "Returns true if the contract is paused, and false otherwise."
      },
      "safeBatchTransferFrom(address,address,uint256[],uint256[],bytes)": {
        "details": "See {IERC1155-safeBatchTransferFrom}."
      },
      "safeTransferFrom(address,address,uint256,uint256,bytes)": {
        "details": "See {IERC1155-safeTransferFrom}."
      },
      "setApprovalForAll(address,bool)": {
        "details": "See {IERC1155-setApprovalForAll}."
      },
      "supportsInterface(bytes4)": {
        "details": "See {IERC165-supportsInterface}."
      },
      "uri(uint256)": {
        "details": "See {IERC1155MetadataURI-uri}. This implementation returns the same URI for *all* token types. It relies on the token type ID substitution mechanism https://eips.ethereum.org/EIPS/eip-1155#metadata[defined in the EIP]. Clients calling this function must replace the `\\{id\\}` substring with the actual token type ID."
      }
    },
    "version": 1
  },
  "userdoc": {
    "kind": "user",
    "methods": {},
    "version": 1
  }
}