{
  "contractName": "ERC1155BurnableMock",
  "abi": [
    {
      "inputs": [
        {
          "internalType": "string",
          "name": "uri",
          "type": "string"
        }
      ],
      "stateMutability": "nonpayable",
      "type": "constructor"
    },
    {
      "anonymous": false,
      "inputs": [
        {
          "indexed": true,
          "internalType": "address",
          "name": "account",
          "type": "address"
        },
        {
          "indexed": true,
          "internalType": "address",
          "name": "operator",
          "type": "address"
        },
        {
          "indexed": false,
          "internalType": "bool",
          "name": "approved",
          "type": "bool"
        }
      ],
      "name": "ApprovalForAll",
      "type": "event"
    },
    {
      "anonymous": false,
      "inputs": [
        {
          "indexed": true,
          "internalType": "address",
          "name": "operator",
          "type": "address"
        },
        {
          "indexed": true,
          "internalType": "address",
          "name": "from",
          "type": "address"
        },
        {
          "indexed": true,
          "internalType": "address",
          "name": "to",
          "type": "address"
        },
        {
          "indexed": false,
          "internalType": "uint256[]",
          "name": "ids",
          "type": "uint256[]"
        },
        {
          "indexed": false,
          "internalType": "uint256[]",
          "name": "values",
          "type": "uint256[]"
        }
      ],
      "name": "TransferBatch",
      "type": "event"
    },
    {
      "anonymous": false,
      "inputs": [
        {
          "indexed": true,
          "internalType": "address",
          "name": "operator",
          "type": "address"
        },
        {
          "indexed": true,
          "internalType": "address",
          "name": "from",
          "type": "address"
        },
        {
          "indexed": true,
          "internalType": "address",
          "name": "to",
          "type": "address"
        },
        {
          "indexed": false,
          "internalType": "uint256",
          "name": "id",
          "type": "uint256"
        },
        {
          "indexed": false,
          "internalType": "uint256",
          "name": "value",
          "type": "uint256"
        }
      ],
      "name": "TransferSingle",
      "type": "event"
    },
    {
      "anonymous": false,
      "inputs": [
        {
          "indexed": false,
          "internalType": "string",
          "name": "value",
          "type": "string"
        },
        {
          "indexed": true,
          "internalType": "uint256",
          "name": "id",
          "type": "uint256"
        }
      ],
      "name": "URI",
      "type": "event"
    },
    {
      "inputs": [
        {
          "internalType": "address",
          "name": "account",
          "type": "address"
        },
        {
          "internalType": "uint256",
          "name": "id",
          "type": "uint256"
        }
      ],
      "name": "balanceOf",
      "outputs": [
        {
          "internalType": "uint256",
          "name": "",
          "type": "uint256"
        }
      ],
      "stateMutability": "view",
      "type": "function"
    },
    {
      "inputs": [
        {
          "internalType": "address[]",
          "name": "accounts",
          "type": "address[]"
        },
        {
          "internalType": "uint256[]",
          "name": "ids",
          "type": "uint256[]"
        }
      ],
      "name": "balanceOfBatch",
      "outputs": [
        {
          "internalType": "uint256[]",
          "name": "",
          "type": "uint256[]"
        }
      ],
      "stateMutability": "view",
      "type": "function"
    },
    {
      "inputs": [
        {
          "internalType": "address",
          "name": "account",
          "type": "address"
        },
        {
          "internalType": "uint256",
          "name": "id",
          "type": "uint256"
        },
        {
          "internalType": "uint256",
          "name": "value",
          "type": "uint256"
        }
      ],
      "name": "burn",
      "outputs": [],
      "stateMutability": "nonpayable",
      "type": "function"
    },
    {
      "inputs": [
        {
          "internalType": "address",
          "name": "account",
          "type": "address"
        },
        {
          "internalType": "uint256[]",
          "name": "ids",
          "type": "uint256[]"
        },
        {
          "internalType": "uint256[]",
          "name": "values",
          "type": "uint256[]"
        }
      ],
      "name": "burnBatch",
      "outputs": [],
      "stateMutability": "nonpayable",
      "type": "function"
    },
    {
      "inputs": [
        {
          "internalType": "address",
          "name": "account",
          "type": "address"
        },
        {
          "internalType": "address",
          "name": "operator",
          "type": "address"
        }
      ],
      "name": "isApprovedForAll",
      "outputs": [
        {
          "internalType": "bool",
          "name": "",
          "type": "bool"
        }
      ],
      "stateMutability": "view",
      "type": "function"
    },
    {
      "inputs": [
        {
          "internalType": "address",
          "name": "from",
          "type": "address"
        },
        {
          "internalType": "address",
          "name": "to",
          "type": "address"
        },
        {
          "internalType": "uint256[]",
          "name": "ids",
          "type": "uint256[]"
        },
        {
          "internalType": "uint256[]",
          "name": "amounts",
          "type": "uint256[]"
        },
        {
          "internalType": "bytes",
          "name": "data",
          "type": "bytes"
        }
      ],
      "name": "safeBatchTransferFrom",
      "outputs": [],
      "stateMutability": "nonpayable",
      "type": "function"
    },
    {
      "inputs": [
        {
          "internalType": "address",
          "name": "from",
          "type": "address"
        },
        {
          "internalType": "address",
          "name": "to",
          "type": "address"
        },
        {
          "internalType": "uint256",
          "name": "id",
          "type": "uint256"
        },
        {
          "internalType": "uint256",
          "name": "amount",
          "type": "uint256"
        },
        {
          "internalType": "bytes",
          "name": "data",
          "type": "bytes"
        }
      ],
      "name": "safeTransferFrom",
      "outputs": [],
      "stateMutability": "nonpayable",
      "type": "function"
    },
    {
      "inputs": [
        {
          "internalType": "address",
          "name": "operator",
          "type": "address"
        },
        {
          "internalType": "bool",
          "name": "approved",
          "type": "bool"
        }
      ],
      "name": "setApprovalForAll",
      "outputs": [],
      "stateMutability": "nonpayable",
      "type": "function"
    },
    {
      "inputs": [
        {
          "internalType": "bytes4",
          "name": "interfaceId",
          "type": "bytes4"
        }
      ],
      "name": "supportsInterface",
      "outputs": [
        {
          "internalType": "bool",
          "name": "",
          "type": "bool"
        }
      ],
      "stateMutability": "view",
      "type": "function"
    },
    {
      "inputs": [
        {
          "internalType": "uint256",
          "name": "",
          "type": "uint256"
        }
      ],
      "name": "uri",
      "outputs": [
        {
          "internalType": "string",
          "name": "",
          "type": "string"
        }
      ],
      "stateMutability": "view",
      "type": "function"
    },
    {
      "inputs": [
        {
          "internalType": "address",
          "name": "to",
          "type": "address"
        },
        {
          "internalType": "uint256",
          "name": "id",
          "type": "uint256"
        },
        {
          "internalType": "uint256",
          "name": "value",
          "type": "uint256"
        },
        {
          "internalType": "bytes",
          "name": "data",
          "type": "bytes"
        }
      ],
      "name": "mint",
      "outputs": [],
      "stateMutability": "nonpayable",
      "type": "function"
    }
  ],
  "bytecode": "0x60806040523480156200001157600080fd5b50604051620034e1380380620034e18339818101604052810190620000379190620002ba565b8062000049816200005160201b60201c565b505062000370565b8060029080519060200190620000699291906200006d565b5050565b8280546200007b906200033a565b90600052602060002090601f0160209004810192826200009f5760008555620000eb565b82601f10620000ba57805160ff1916838001178555620000eb565b82800160010185558215620000eb579182015b82811115620000ea578251825591602001919060010190620000cd565b5b509050620000fa9190620000fe565b5090565b5b8082111562000119576000816000905550600101620000ff565b5090565b6000604051905090565b600080fd5b600080fd5b600080fd5b600080fd5b6000601f19601f8301169050919050565b7f4e487b7100000000000000000000000000000000000000000000000000000000600052604160045260246000fd5b62000186826200013b565b810181811067ffffffffffffffff82111715620001a857620001a76200014c565b5b80604052505050565b6000620001bd6200011d565b9050620001cb82826200017b565b919050565b600067ffffffffffffffff821115620001ee57620001ed6200014c565b5b620001f9826200013b565b9050602081019050919050565b60005b838110156200022657808201518184015260208101905062000209565b8381111562000236576000848401525b50505050565b6000620002536200024d84620001d0565b620001b1565b90508281526020810184848401111562000272576200027162000136565b5b6200027f84828562000206565b509392505050565b600082601f8301126200029f576200029e62000131565b5b8151620002b18482602086016200023c565b91505092915050565b600060208284031215620002d357620002d262000127565b5b600082015167ffffffffffffffff811115620002f457620002f36200012c565b5b620003028482850162000287565b91505092915050565b7f4e487b7100000000000000000000000000000000000000000000000000000000600052602260045260246000fd5b600060028204905060018216806200035357607f821691505b602082108114156200036a57620003696200030b565b5b50919050565b61316180620003806000396000f3fe608060405234801561001057600080fd5b50600436106100a85760003560e01c80636b20c454116100715780636b20c45414610189578063731133e9146101a5578063a22cb465146101c1578063e985e9c5146101dd578063f242432a1461020d578063f5298aca14610229576100a8565b8062fdd58e146100ad57806301ffc9a7146100dd5780630e89341c1461010d5780632eb2c2d61461013d5780634e1273f414610159575b600080fd5b6100c760048036038101906100c29190611c3e565b610245565b6040516100d49190611c8d565b60405180910390f35b6100f760048036038101906100f29190611d00565b61030e565b6040516101049190611d48565b60405180910390f35b61012760048036038101906101229190611d63565b6103f0565b6040516101349190611e29565b60405180910390f35b61015760048036038101906101529190612048565b610484565b005b610173600480360381019061016e91906121da565b610525565b6040516101809190612310565b60405180910390f35b6101a3600480360381019061019e9190612332565b61063e565b005b6101bf60048036038101906101ba91906123bd565b6106db565b005b6101db60048036038101906101d6919061246c565b6106ed565b005b6101f760048036038101906101f291906124ac565b610703565b6040516102049190611d48565b60405180910390f35b610227600480360381019061022291906124ec565b610797565b005b610243600480360381019061023e9190612583565b610838565b005b60008073ffffffffffffffffffffffffffffffffffffffff168373ffffffffffffffffffffffffffffffffffffffff1614156102b6576040517f08c379a00000000000000000000000000000000000000000000000000000000081526004016102ad90612648565b60405180910390fd5b60008083815260200190815260200160002060008473ffffffffffffffffffffffffffffffffffffffff1673ffffffffffffffffffffffffffffffffffffffff16815260200190815260200160002054905092915050565b60007fd9b67a26000000000000000000000000000000000000000000000000000000007bffffffffffffffffffffffffffffffffffffffffffffffffffffffff1916827bffffffffffffffffffffffffffffffffffffffffffffffffffffffff191614806103d957507f0e89341c000000000000000000000000000000000000000000000000000000007bffffffffffffffffffffffffffffffffffffffffffffffffffffffff1916827bffffffffffffffffffffffffffffffffffffffffffffffffffffffff1916145b806103e957506103e8826108d5565b5b9050919050565b6060600280546103ff90612697565b80601f016020809104026020016040519081016040528092919081815260200182805461042b90612697565b80156104785780601f1061044d57610100808354040283529160200191610478565b820191906000526020600020905b81548152906001019060200180831161045b57829003601f168201915b50505050509050919050565b61048c61093f565b73ffffffffffffffffffffffffffffffffffffffff168573ffffffffffffffffffffffffffffffffffffffff1614806104d257506104d1856104cc61093f565b610703565b5b610511576040517f08c379a00000000000000000000000000000000000000000000000000000000081526004016105089061273b565b60405180910390fd5b61051e8585858585610947565b5050505050565b6060815183511461056b576040517f08c379a0000000000000000000000000000000000000000000000000000000008152600401610562906127cd565b60405180910390fd5b6000835167ffffffffffffffff81111561058857610587611e50565b5b6040519080825280602002602001820160405280156105b65781602001602082028036833780820191505090505b50905060005b8451811015610633576106038582815181106105db576105da6127ed565b5b60200260200101518583815181106105f6576105f56127ed565b5b6020026020010151610245565b828281518110610616576106156127ed565b5b6020026020010181815250508061062c9061284b565b90506105bc565b508091505092915050565b61064661093f565b73ffffffffffffffffffffffffffffffffffffffff168373ffffffffffffffffffffffffffffffffffffffff16148061068c575061068b8361068661093f565b610703565b5b6106cb576040517f08c379a00000000000000000000000000000000000000000000000000000000081526004016106c290612906565b60405180910390fd5b6106d6838383610c69565b505050565b6106e784848484610f38565b50505050565b6106ff6106f861093f565b83836110e9565b5050565b6000600160008473ffffffffffffffffffffffffffffffffffffffff1673ffffffffffffffffffffffffffffffffffffffff16815260200190815260200160002060008373ffffffffffffffffffffffffffffffffffffffff1673ffffffffffffffffffffffffffffffffffffffff16815260200190815260200160002060009054906101000a900460ff16905092915050565b61079f61093f565b73ffffffffffffffffffffffffffffffffffffffff168573ffffffffffffffffffffffffffffffffffffffff1614806107e557506107e4856107df61093f565b610703565b5b610824576040517f08c379a000000000000000000000000000000000000000000000000000000000815260040161081b90612906565b60405180910390fd5b6108318585858585611256565b5050505050565b61084061093f565b73ffffffffffffffffffffffffffffffffffffffff168373ffffffffffffffffffffffffffffffffffffffff16148061088657506108858361088061093f565b610703565b5b6108c5576040517f08c379a00000000000000000000000000000000000000000000000000000000081526004016108bc90612906565b60405180910390fd5b6108d08383836114f2565b505050565b60007f01ffc9a7000000000000000000000000000000000000000000000000000000007bffffffffffffffffffffffffffffffffffffffffffffffffffffffff1916827bffffffffffffffffffffffffffffffffffffffffffffffffffffffff1916149050919050565b600033905090565b815183511461098b576040517f08c379a000000000000000000000000000000000000000000000000000000000815260040161098290612998565b60405180910390fd5b600073ffffffffffffffffffffffffffffffffffffffff168473ffffffffffffffffffffffffffffffffffffffff1614156109fb576040517f08c379a00000000000000000000000000000000000000000000000000000000081526004016109f290612a2a565b60405180910390fd5b6000610a0561093f565b9050610a15818787878787611739565b60005b8451811015610bc6576000858281518110610a3657610a356127ed565b5b602002602001015190506000858381518110610a5557610a546127ed565b5b60200260200101519050600080600084815260200190815260200160002060008b73ffffffffffffffffffffffffffffffffffffffff1673ffffffffffffffffffffffffffffffffffffffff16815260200190815260200160002054905081811015610af6576040517f08c379a0000000000000000000000000000000000000000000000000000000008152600401610aed90612abc565b60405180910390fd5b81810360008085815260200190815260200160002060008c73ffffffffffffffffffffffffffffffffffffffff1673ffffffffffffffffffffffffffffffffffffffff168152602001908152602001600020819055508160008085815260200190815260200160002060008b73ffffffffffffffffffffffffffffffffffffffff1673ffffffffffffffffffffffffffffffffffffffff1681526020019081526020016000206000828254610bab9190612adc565b9250508190555050505080610bbf9061284b565b9050610a18565b508473ffffffffffffffffffffffffffffffffffffffff168673ffffffffffffffffffffffffffffffffffffffff168273ffffffffffffffffffffffffffffffffffffffff167f4a39dc06d4c0dbc64b70af90fd698a233a518aa5d07e595d983b8c0526c8f7fb8787604051610c3d929190612b32565b60405180910390a4610c53818787878787611741565b610c61818787878787611919565b505050505050565b600073ffffffffffffffffffffffffffffffffffffffff168373ffffffffffffffffffffffffffffffffffffffff161415610cd9576040517f08c379a0000000000000000000000000000000000000000000000000000000008152600401610cd090612bdb565b60405180910390fd5b8051825114610d1d576040517f08c379a0000000000000000000000000000000000000000000000000000000008152600401610d1490612998565b60405180910390fd5b6000610d2761093f565b9050610d4781856000868660405180602001604052806000815250611739565b60005b8351811015610e94576000848281518110610d6857610d676127ed565b5b602002602001015190506000848381518110610d8757610d866127ed565b5b60200260200101519050600080600084815260200190815260200160002060008973ffffffffffffffffffffffffffffffffffffffff1673ffffffffffffffffffffffffffffffffffffffff16815260200190815260200160002054905081811015610e28576040517f08c379a0000000000000000000000000000000000000000000000000000000008152600401610e1f90612c6d565b60405180910390fd5b81810360008085815260200190815260200160002060008a73ffffffffffffffffffffffffffffffffffffffff1673ffffffffffffffffffffffffffffffffffffffff168152602001908152602001600020819055505050508080610e8c9061284b565b915050610d4a565b50600073ffffffffffffffffffffffffffffffffffffffff168473ffffffffffffffffffffffffffffffffffffffff168273ffffffffffffffffffffffffffffffffffffffff167f4a39dc06d4c0dbc64b70af90fd698a233a518aa5d07e595d983b8c0526c8f7fb8686604051610f0c929190612b32565b60405180910390a4610f3281856000868660405180602001604052806000815250611919565b50505050565b600073ffffffffffffffffffffffffffffffffffffffff168473ffffffffffffffffffffffffffffffffffffffff161415610fa8576040517f08c379a0000000000000000000000000000000000000000000000000000000008152600401610f9f90612cff565b60405180910390fd5b6000610fb261093f565b90506000610fbf85611921565b90506000610fcc85611921565b9050610fdd83600089858589611739565b8460008088815260200190815260200160002060008973ffffffffffffffffffffffffffffffffffffffff1673ffffffffffffffffffffffffffffffffffffffff168152602001908152602001600020600082825461103c9190612adc565b925050819055508673ffffffffffffffffffffffffffffffffffffffff16600073ffffffffffffffffffffffffffffffffffffffff168473ffffffffffffffffffffffffffffffffffffffff167fc3d58168c5ae7397731d063d5bbf3d657854427343f4c083240f7aacaa2d0f6289896040516110ba929190612d1f565b60405180910390a46110d18360008989898961199b565b6110e083600089858589611919565b50505050505050565b8173ffffffffffffffffffffffffffffffffffffffff168373ffffffffffffffffffffffffffffffffffffffff161415611158576040517f08c379a000000000000000000000000000000000000000000000000000000000815260040161114f90612dba565b60405180910390fd5b80600160008573ffffffffffffffffffffffffffffffffffffffff1673ffffffffffffffffffffffffffffffffffffffff16815260200190815260200160002060008473ffffffffffffffffffffffffffffffffffffffff1673ffffffffffffffffffffffffffffffffffffffff16815260200190815260200160002060006101000a81548160ff0219169083151502179055508173ffffffffffffffffffffffffffffffffffffffff168373ffffffffffffffffffffffffffffffffffffffff167f17307eab39ab6107e8899845ad3d59bd9653f200f220920489ca2b5937696c31836040516112499190611d48565b60405180910390a3505050565b600073ffffffffffffffffffffffffffffffffffffffff168473ffffffffffffffffffffffffffffffffffffffff1614156112c6576040517f08c379a00000000000000000000000000000000000000000000000000000000081526004016112bd90612a2a565b60405180910390fd5b60006112d061093f565b905060006112dd85611921565b905060006112ea85611921565b90506112fa838989858589611739565b600080600088815260200190815260200160002060008a73ffffffffffffffffffffffffffffffffffffffff1673ffffffffffffffffffffffffffffffffffffffff16815260200190815260200160002054905085811015611391576040517f08c379a000000000000000000000000000000000000000000000000000000000815260040161138890612abc565b60405180910390fd5b85810360008089815260200190815260200160002060008b73ffffffffffffffffffffffffffffffffffffffff1673ffffffffffffffffffffffffffffffffffffffff168152602001908152602001600020819055508560008089815260200190815260200160002060008a73ffffffffffffffffffffffffffffffffffffffff1673ffffffffffffffffffffffffffffffffffffffff16815260200190815260200160002060008282546114469190612adc565b925050819055508773ffffffffffffffffffffffffffffffffffffffff168973ffffffffffffffffffffffffffffffffffffffff168573ffffffffffffffffffffffffffffffffffffffff167fc3d58168c5ae7397731d063d5bbf3d657854427343f4c083240f7aacaa2d0f628a8a6040516114c3929190612d1f565b60405180910390a46114d9848a8a8a8a8a61199b565b6114e7848a8a86868a611919565b505050505050505050565b600073ffffffffffffffffffffffffffffffffffffffff168373ffffffffffffffffffffffffffffffffffffffff161415611562576040517f08c379a000000000000000000000000000000000000000000000000000000000815260040161155990612bdb565b60405180910390fd5b600061156c61093f565b9050600061157984611921565b9050600061158684611921565b90506115a683876000858560405180602001604052806000815250611739565b600080600087815260200190815260200160002060008873ffffffffffffffffffffffffffffffffffffffff1673ffffffffffffffffffffffffffffffffffffffff1681526020019081526020016000205490508481101561163d576040517f08c379a000000000000000000000000000000000000000000000000000000000815260040161163490612c6d565b60405180910390fd5b84810360008088815260200190815260200160002060008973ffffffffffffffffffffffffffffffffffffffff1673ffffffffffffffffffffffffffffffffffffffff16815260200190815260200160002081905550600073ffffffffffffffffffffffffffffffffffffffff168773ffffffffffffffffffffffffffffffffffffffff168573ffffffffffffffffffffffffffffffffffffffff167fc3d58168c5ae7397731d063d5bbf3d657854427343f4c083240f7aacaa2d0f62898960405161170a929190612d1f565b60405180910390a461173084886000868660405180602001604052806000815250611919565b50505050505050565b505050505050565b6117608473ffffffffffffffffffffffffffffffffffffffff16611b73565b15611911578373ffffffffffffffffffffffffffffffffffffffff1663bc197c8187878686866040518663ffffffff1660e01b81526004016117a6959493929190612e3e565b6020604051808303816000875af19250505080156117e257506040513d601f19601f820116820180604052508101906117df9190612ebb565b60015b611888576117ee612ef5565b806308c379a0141561184b5750611803612f17565b8061180e575061184d565b806040517f08c379a00000000000000000000000000000000000000000000000000000000081526004016118429190611e29565b60405180910390fd5b505b6040517f08c379a000000000000000000000000000000000000000000000000000000000815260040161187f9061301f565b60405180910390fd5b63bc197c8160e01b7bffffffffffffffffffffffffffffffffffffffffffffffffffffffff1916817bffffffffffffffffffffffffffffffffffffffffffffffffffffffff19161461190f576040517f08c379a0000000000000000000000000000000000000000000000000000000008152600401611906906130b1565b60405180910390fd5b505b505050505050565b505050505050565b60606000600167ffffffffffffffff8111156119405761193f611e50565b5b60405190808252806020026020018201604052801561196e5781602001602082028036833780820191505090505b5090508281600081518110611986576119856127ed565b5b60200260200101818152505080915050919050565b6119ba8473ffffffffffffffffffffffffffffffffffffffff16611b73565b15611b6b578373ffffffffffffffffffffffffffffffffffffffff1663f23a6e6187878686866040518663ffffffff1660e01b8152600401611a009594939291906130d1565b6020604051808303816000875af1925050508015611a3c57506040513d601f19601f82011682018060405250810190611a399190612ebb565b60015b611ae257611a48612ef5565b806308c379a01415611aa55750611a5d612f17565b80611a685750611aa7565b806040517f08c379a0000000000000000000000000000000000000000000000000000000008152600401611a9c9190611e29565b60405180910390fd5b505b6040517f08c379a0000000000000000000000000000000000000000000000000000000008152600401611ad99061301f565b60405180910390fd5b63f23a6e6160e01b7bffffffffffffffffffffffffffffffffffffffffffffffffffffffff1916817bffffffffffffffffffffffffffffffffffffffffffffffffffffffff191614611b69576040517f08c379a0000000000000000000000000000000000000000000000000000000008152600401611b60906130b1565b60405180910390fd5b505b505050505050565b6000808273ffffffffffffffffffffffffffffffffffffffff163b119050919050565b6000604051905090565b600080fd5b600080fd5b600073ffffffffffffffffffffffffffffffffffffffff82169050919050565b6000611bd582611baa565b9050919050565b611be581611bca565b8114611bf057600080fd5b50565b600081359050611c0281611bdc565b92915050565b6000819050919050565b611c1b81611c08565b8114611c2657600080fd5b50565b600081359050611c3881611c12565b92915050565b60008060408385031215611c5557611c54611ba0565b5b6000611c6385828601611bf3565b9250506020611c7485828601611c29565b9150509250929050565b611c8781611c08565b82525050565b6000602082019050611ca26000830184611c7e565b92915050565b60007fffffffff0000000000000000000000000000000000000000000000000000000082169050919050565b611cdd81611ca8565b8114611ce857600080fd5b50565b600081359050611cfa81611cd4565b92915050565b600060208284031215611d1657611d15611ba0565b5b6000611d2484828501611ceb565b91505092915050565b60008115159050919050565b611d4281611d2d565b82525050565b6000602082019050611d5d6000830184611d39565b92915050565b600060208284031215611d7957611d78611ba0565b5b6000611d8784828501611c29565b91505092915050565b600081519050919050565b600082825260208201905092915050565b60005b83811015611dca578082015181840152602081019050611daf565b83811115611dd9576000848401525b50505050565b6000601f19601f8301169050919050565b6000611dfb82611d90565b611e058185611d9b565b9350611e15818560208601611dac565b611e1e81611ddf565b840191505092915050565b60006020820190508181036000830152611e438184611df0565b905092915050565b600080fd5b7f4e487b7100000000000000000000000000000000000000000000000000000000600052604160045260246000fd5b611e8882611ddf565b810181811067ffffffffffffffff82111715611ea757611ea6611e50565b5b80604052505050565b6000611eba611b96565b9050611ec68282611e7f565b919050565b600067ffffffffffffffff821115611ee657611ee5611e50565b5b602082029050602081019050919050565b600080fd5b6000611f0f611f0a84611ecb565b611eb0565b90508083825260208201905060208402830185811115611f3257611f31611ef7565b5b835b81811015611f5b5780611f478882611c29565b845260208401935050602081019050611f34565b5050509392505050565b600082601f830112611f7a57611f79611e4b565b5b8135611f8a848260208601611efc565b91505092915050565b600080fd5b600067ffffffffffffffff821115611fb357611fb2611e50565b5b611fbc82611ddf565b9050602081019050919050565b82818337600083830152505050565b6000611feb611fe684611f98565b611eb0565b90508281526020810184848401111561200757612006611f93565b5b612012848285611fc9565b509392505050565b600082601f83011261202f5761202e611e4b565b5b813561203f848260208601611fd8565b91505092915050565b600080600080600060a0868803121561206457612063611ba0565b5b600061207288828901611bf3565b955050602061208388828901611bf3565b945050604086013567ffffffffffffffff8111156120a4576120a3611ba5565b5b6120b088828901611f65565b935050606086013567ffffffffffffffff8111156120d1576120d0611ba5565b5b6120dd88828901611f65565b925050608086013567ffffffffffffffff8111156120fe576120fd611ba5565b5b61210a8882890161201a565b9150509295509295909350565b600067ffffffffffffffff82111561213257612131611e50565b5b602082029050602081019050919050565b600061215661215184612117565b611eb0565b9050808382526020820190506020840283018581111561217957612178611ef7565b5b835b818110156121a2578061218e8882611bf3565b84526020840193505060208101905061217b565b5050509392505050565b600082601f8301126121c1576121c0611e4b565b5b81356121d1848260208601612143565b91505092915050565b600080604083850312156121f1576121f0611ba0565b5b600083013567ffffffffffffffff81111561220f5761220e611ba5565b5b61221b858286016121ac565b925050602083013567ffffffffffffffff81111561223c5761223b611ba5565b5b61224885828601611f65565b9150509250929050565b600081519050919050565b600082825260208201905092915050565b6000819050602082019050919050565b61228781611c08565b82525050565b6000612299838361227e565b60208301905092915050565b6000602082019050919050565b60006122bd82612252565b6122c7818561225d565b93506122d28361226e565b8060005b838110156123035781516122ea888261228d565b97506122f5836122a5565b9250506001810190506122d6565b5085935050505092915050565b6000602082019050818103600083015261232a81846122b2565b905092915050565b60008060006060848603121561234b5761234a611ba0565b5b600061235986828701611bf3565b935050602084013567ffffffffffffffff81111561237a57612379611ba5565b5b61238686828701611f65565b925050604084013567ffffffffffffffff8111156123a7576123a6611ba5565b5b6123b386828701611f65565b9150509250925092565b600080600080608085870312156123d7576123d6611ba0565b5b60006123e587828801611bf3565b94505060206123f687828801611c29565b935050604061240787828801611c29565b925050606085013567ffffffffffffffff81111561242857612427611ba5565b5b6124348782880161201a565b91505092959194509250565b61244981611d2d565b811461245457600080fd5b50565b60008135905061246681612440565b92915050565b6000806040838503121561248357612482611ba0565b5b600061249185828601611bf3565b92505060206124a285828601612457565b9150509250929050565b600080604083850312156124c3576124c2611ba0565b5b60006124d185828601611bf3565b92505060206124e285828601611bf3565b9150509250929050565b600080600080600060a0868803121561250857612507611ba0565b5b600061251688828901611bf3565b955050602061252788828901611bf3565b945050604061253888828901611c29565b935050606061254988828901611c29565b925050608086013567ffffffffffffffff81111561256a57612569611ba5565b5b6125768882890161201a565b9150509295509295909350565b60008060006060848603121561259c5761259b611ba0565b5b60006125aa86828701611bf3565b93505060206125bb86828701611c29565b92505060406125cc86828701611c29565b9150509250925092565b7f455243313135353a2062616c616e636520717565727920666f7220746865207a60008201527f65726f2061646472657373000000000000000000000000000000000000000000602082015250565b6000612632602b83611d9b565b915061263d826125d6565b604082019050919050565b6000602082019050818103600083015261266181612625565b9050919050565b7f4e487b7100000000000000000000000000000000000000000000000000000000600052602260045260246000fd5b600060028204905060018216806126af57607f821691505b602082108114156126c3576126c2612668565b5b50919050565b7f455243313135353a207472616e736665722063616c6c6572206973206e6f742060008201527f6f776e6572206e6f7220617070726f7665640000000000000000000000000000602082015250565b6000612725603283611d9b565b9150612730826126c9565b604082019050919050565b6000602082019050818103600083015261275481612718565b9050919050565b7f455243313135353a206163636f756e747320616e6420696473206c656e67746860008201527f206d69736d617463680000000000000000000000000000000000000000000000602082015250565b60006127b7602983611d9b565b91506127c28261275b565b604082019050919050565b600060208201905081810360008301526127e6816127aa565b9050919050565b7f4e487b7100000000000000000000000000000000000000000000000000000000600052603260045260246000fd5b7f4e487b7100000000000000000000000000000000000000000000000000000000600052601160045260246000fd5b600061285682611c08565b91507fffffffffffffffffffffffffffffffffffffffffffffffffffffffffffffffff8214156128895761288861281c565b5b600182019050919050565b7f455243313135353a2063616c6c6572206973206e6f74206f776e6572206e6f7260008201527f20617070726f7665640000000000000000000000000000000000000000000000602082015250565b60006128f0602983611d9b565b91506128fb82612894565b604082019050919050565b6000602082019050818103600083015261291f816128e3565b9050919050565b7f455243313135353a2069647320616e6420616d6f756e7473206c656e6774682060008201527f6d69736d61746368000000000000000000000000000000000000000000000000602082015250565b6000612982602883611d9b565b915061298d82612926565b604082019050919050565b600060208201905081810360008301526129b181612975565b9050919050565b7f455243313135353a207472616e7366657220746f20746865207a65726f20616460008201527f6472657373000000000000000000000000000000000000000000000000000000602082015250565b6000612a14602583611d9b565b9150612a1f826129b8565b604082019050919050565b60006020820190508181036000830152612a4381612a07565b9050919050565b7f455243313135353a20696e73756666696369656e742062616c616e636520666f60008201527f72207472616e7366657200000000000000000000000000000000000000000000602082015250565b6000612aa6602a83611d9b565b9150612ab182612a4a565b604082019050919050565b60006020820190508181036000830152612ad581612a99565b9050919050565b6000612ae782611c08565b9150612af283611c08565b9250827fffffffffffffffffffffffffffffffffffffffffffffffffffffffffffffffff03821115612b2757612b2661281c565b5b828201905092915050565b60006040820190508181036000830152612b4c81856122b2565b90508181036020830152612b6081846122b2565b90509392505050565b7f455243313135353a206275726e2066726f6d20746865207a65726f206164647260008201527f6573730000000000000000000000000000000000000000000000000000000000602082015250565b6000612bc5602383611d9b565b9150612bd082612b69565b604082019050919050565b60006020820190508181036000830152612bf481612bb8565b9050919050565b7f455243313135353a206275726e20616d6f756e7420657863656564732062616c60008201527f616e636500000000000000000000000000000000000000000000000000000000602082015250565b6000612c57602483611d9b565b9150612c6282612bfb565b604082019050919050565b60006020820190508181036000830152612c8681612c4a565b9050919050565b7f455243313135353a206d696e7420746f20746865207a65726f2061646472657360008201527f7300000000000000000000000000000000000000000000000000000000000000602082015250565b6000612ce9602183611d9b565b9150612cf482612c8d565b604082019050919050565b60006020820190508181036000830152612d1881612cdc565b9050919050565b6000604082019050612d346000830185611c7e565b612d416020830184611c7e565b9392505050565b7f455243313135353a2073657474696e6720617070726f76616c2073746174757360008201527f20666f722073656c660000000000000000000000000000000000000000000000602082015250565b6000612da4602983611d9b565b9150612daf82612d48565b604082019050919050565b60006020820190508181036000830152612dd381612d97565b9050919050565b612de381611bca565b82525050565b600081519050919050565b600082825260208201905092915050565b6000612e1082612de9565b612e1a8185612df4565b9350612e2a818560208601611dac565b612e3381611ddf565b840191505092915050565b600060a082019050612e536000830188612dda565b612e606020830187612dda565b8181036040830152612e7281866122b2565b90508181036060830152612e8681856122b2565b90508181036080830152612e9a8184612e05565b90509695505050505050565b600081519050612eb581611cd4565b92915050565b600060208284031215612ed157612ed0611ba0565b5b6000612edf84828501612ea6565b91505092915050565b60008160e01c9050919050565b600060033d1115612f145760046000803e612f11600051612ee8565b90505b90565b600060443d1015612f2757612faa565b612f2f611b96565b60043d036004823e80513d602482011167ffffffffffffffff82111715612f57575050612faa565b808201805167ffffffffffffffff811115612f755750505050612faa565b80602083010160043d038501811115612f92575050505050612faa565b612fa182602001850186611e7f565b82955050505050505b90565b7f455243313135353a207472616e7366657220746f206e6f6e204552433131353560008201527f526563656976657220696d706c656d656e746572000000000000000000000000602082015250565b6000613009603483611d9b565b915061301482612fad565b604082019050919050565b6000602082019050818103600083015261303881612ffc565b9050919050565b7f455243313135353a204552433131353552656365697665722072656a6563746560008201527f6420746f6b656e73000000000000000000000000000000000000000000000000602082015250565b600061309b602883611d9b565b91506130a68261303f565b604082019050919050565b600060208201905081810360008301526130ca8161308e565b9050919050565b600060a0820190506130e66000830188612dda565b6130f36020830187612dda565b6131006040830186611c7e565b61310d6060830185611c7e565b818103608083015261311f8184612e05565b9050969550505050505056fea2646970667358221220cfd6650228eca151c61857e94d42253b5c521f2fe51d8872dc45da4a24cf81a464736f6c634300080b0033",
  "immutableReferences": {},
  "source": "// SPDX-License-Identifier: MIT\r\n\r\npragma solidity ^0.8.0;\r\n\r\nimport \"../token/ERC1155/extensions/ERC1155Burnable.sol\";\r\n\r\ncontract ERC1155BurnableMock is ERC1155Burnable {\r\n    constructor(string memory uri) ERC1155(uri) {}\r\n\r\n    function mint(\r\n        address to,\r\n        uint256 id,\r\n        uint256 value,\r\n        bytes memory data\r\n    ) public {\r\n        _mint(to, id, value, data);\r\n    }\r\n}\r\n",
  "sourcePath": "C:\\Users\\Alexandr\\dev\\nft-sim\\contract\\contracts\\mocks\\ERC1155BurnableMock.sol",
  "compiler": {
    "name": "solc",
    "version": "0.8.11+commit.d7f03943.Emscripten.clang"
  },
  "schemaVersion": "3.4.4",
  "updatedAt": "2022-02-17T11:30:00.187Z",
  "devdoc": {
    "kind": "dev",
    "methods": {
      "balanceOf(address,uint256)": {
        "details": "See {IERC1155-balanceOf}. Requirements: - `account` cannot be the zero address."
      },
      "balanceOfBatch(address[],uint256[])": {
        "details": "See {IERC1155-balanceOfBatch}. Requirements: - `accounts` and `ids` must have the same length."
      },
      "isApprovedForAll(address,address)": {
        "details": "See {IERC1155-isApprovedForAll}."
      },
      "safeBatchTransferFrom(address,address,uint256[],uint256[],bytes)": {
        "details": "See {IERC1155-safeBatchTransferFrom}."
      },
      "safeTransferFrom(address,address,uint256,uint256,bytes)": {
        "details": "See {IERC1155-safeTransferFrom}."
      },
      "setApprovalForAll(address,bool)": {
        "details": "See {IERC1155-setApprovalForAll}."
      },
      "supportsInterface(bytes4)": {
        "details": "See {IERC165-supportsInterface}."
      },
      "uri(uint256)": {
        "details": "See {IERC1155MetadataURI-uri}. This implementation returns the same URI for *all* token types. It relies on the token type ID substitution mechanism https://eips.ethereum.org/EIPS/eip-1155#metadata[defined in the EIP]. Clients calling this function must replace the `\\{id\\}` substring with the actual token type ID."
      }
    },
    "version": 1
  },
  "userdoc": {
    "kind": "user",
    "methods": {},
    "version": 1
  }
}