{
  "contractName": "ERC721VotesMock",
  "abi": [
    {
      "inputs": [
        {
          "internalType": "string",
          "name": "name",
          "type": "string"
        },
        {
          "internalType": "string",
          "name": "symbol",
          "type": "string"
        }
      ],
      "stateMutability": "nonpayable",
      "type": "constructor"
    },
    {
      "anonymous": false,
      "inputs": [
        {
          "indexed": true,
          "internalType": "address",
          "name": "owner",
          "type": "address"
        },
        {
          "indexed": true,
          "internalType": "address",
          "name": "approved",
          "type": "address"
        },
        {
          "indexed": true,
          "internalType": "uint256",
          "name": "tokenId",
          "type": "uint256"
        }
      ],
      "name": "Approval",
      "type": "event"
    },
    {
      "anonymous": false,
      "inputs": [
        {
          "indexed": true,
          "internalType": "address",
          "name": "owner",
          "type": "address"
        },
        {
          "indexed": true,
          "internalType": "address",
          "name": "operator",
          "type": "address"
        },
        {
          "indexed": false,
          "internalType": "bool",
          "name": "approved",
          "type": "bool"
        }
      ],
      "name": "ApprovalForAll",
      "type": "event"
    },
    {
      "anonymous": false,
      "inputs": [
        {
          "indexed": true,
          "internalType": "address",
          "name": "delegator",
          "type": "address"
        },
        {
          "indexed": true,
          "internalType": "address",
          "name": "fromDelegate",
          "type": "address"
        },
        {
          "indexed": true,
          "internalType": "address",
          "name": "toDelegate",
          "type": "address"
        }
      ],
      "name": "DelegateChanged",
      "type": "event"
    },
    {
      "anonymous": false,
      "inputs": [
        {
          "indexed": true,
          "internalType": "address",
          "name": "delegate",
          "type": "address"
        },
        {
          "indexed": false,
          "internalType": "uint256",
          "name": "previousBalance",
          "type": "uint256"
        },
        {
          "indexed": false,
          "internalType": "uint256",
          "name": "newBalance",
          "type": "uint256"
        }
      ],
      "name": "DelegateVotesChanged",
      "type": "event"
    },
    {
      "anonymous": false,
      "inputs": [
        {
          "indexed": true,
          "internalType": "address",
          "name": "from",
          "type": "address"
        },
        {
          "indexed": true,
          "internalType": "address",
          "name": "to",
          "type": "address"
        },
        {
          "indexed": true,
          "internalType": "uint256",
          "name": "tokenId",
          "type": "uint256"
        }
      ],
      "name": "Transfer",
      "type": "event"
    },
    {
      "inputs": [],
      "name": "DOMAIN_SEPARATOR",
      "outputs": [
        {
          "internalType": "bytes32",
          "name": "",
          "type": "bytes32"
        }
      ],
      "stateMutability": "view",
      "type": "function"
    },
    {
      "inputs": [
        {
          "internalType": "address",
          "name": "to",
          "type": "address"
        },
        {
          "internalType": "uint256",
          "name": "tokenId",
          "type": "uint256"
        }
      ],
      "name": "approve",
      "outputs": [],
      "stateMutability": "nonpayable",
      "type": "function"
    },
    {
      "inputs": [
        {
          "internalType": "address",
          "name": "owner",
          "type": "address"
        }
      ],
      "name": "balanceOf",
      "outputs": [
        {
          "internalType": "uint256",
          "name": "",
          "type": "uint256"
        }
      ],
      "stateMutability": "view",
      "type": "function"
    },
    {
      "inputs": [
        {
          "internalType": "address",
          "name": "delegatee",
          "type": "address"
        }
      ],
      "name": "delegate",
      "outputs": [],
      "stateMutability": "nonpayable",
      "type": "function"
    },
    {
      "inputs": [
        {
          "internalType": "address",
          "name": "delegatee",
          "type": "address"
        },
        {
          "internalType": "uint256",
          "name": "nonce",
          "type": "uint256"
        },
        {
          "internalType": "uint256",
          "name": "expiry",
          "type": "uint256"
        },
        {
          "internalType": "uint8",
          "name": "v",
          "type": "uint8"
        },
        {
          "internalType": "bytes32",
          "name": "r",
          "type": "bytes32"
        },
        {
          "internalType": "bytes32",
          "name": "s",
          "type": "bytes32"
        }
      ],
      "name": "delegateBySig",
      "outputs": [],
      "stateMutability": "nonpayable",
      "type": "function"
    },
    {
      "inputs": [
        {
          "internalType": "address",
          "name": "account",
          "type": "address"
        }
      ],
      "name": "delegates",
      "outputs": [
        {
          "internalType": "address",
          "name": "",
          "type": "address"
        }
      ],
      "stateMutability": "view",
      "type": "function"
    },
    {
      "inputs": [
        {
          "internalType": "uint256",
          "name": "tokenId",
          "type": "uint256"
        }
      ],
      "name": "getApproved",
      "outputs": [
        {
          "internalType": "address",
          "name": "",
          "type": "address"
        }
      ],
      "stateMutability": "view",
      "type": "function"
    },
    {
      "inputs": [
        {
          "internalType": "uint256",
          "name": "blockNumber",
          "type": "uint256"
        }
      ],
      "name": "getPastTotalSupply",
      "outputs": [
        {
          "internalType": "uint256",
          "name": "",
          "type": "uint256"
        }
      ],
      "stateMutability": "view",
      "type": "function"
    },
    {
      "inputs": [
        {
          "internalType": "address",
          "name": "account",
          "type": "address"
        },
        {
          "internalType": "uint256",
          "name": "blockNumber",
          "type": "uint256"
        }
      ],
      "name": "getPastVotes",
      "outputs": [
        {
          "internalType": "uint256",
          "name": "",
          "type": "uint256"
        }
      ],
      "stateMutability": "view",
      "type": "function"
    },
    {
      "inputs": [
        {
          "internalType": "address",
          "name": "account",
          "type": "address"
        }
      ],
      "name": "getVotes",
      "outputs": [
        {
          "internalType": "uint256",
          "name": "",
          "type": "uint256"
        }
      ],
      "stateMutability": "view",
      "type": "function"
    },
    {
      "inputs": [
        {
          "internalType": "address",
          "name": "owner",
          "type": "address"
        },
        {
          "internalType": "address",
          "name": "operator",
          "type": "address"
        }
      ],
      "name": "isApprovedForAll",
      "outputs": [
        {
          "internalType": "bool",
          "name": "",
          "type": "bool"
        }
      ],
      "stateMutability": "view",
      "type": "function"
    },
    {
      "inputs": [],
      "name": "name",
      "outputs": [
        {
          "internalType": "string",
          "name": "",
          "type": "string"
        }
      ],
      "stateMutability": "view",
      "type": "function"
    },
    {
      "inputs": [
        {
          "internalType": "address",
          "name": "owner",
          "type": "address"
        }
      ],
      "name": "nonces",
      "outputs": [
        {
          "internalType": "uint256",
          "name": "",
          "type": "uint256"
        }
      ],
      "stateMutability": "view",
      "type": "function"
    },
    {
      "inputs": [
        {
          "internalType": "uint256",
          "name": "tokenId",
          "type": "uint256"
        }
      ],
      "name": "ownerOf",
      "outputs": [
        {
          "internalType": "address",
          "name": "",
          "type": "address"
        }
      ],
      "stateMutability": "view",
      "type": "function"
    },
    {
      "inputs": [
        {
          "internalType": "address",
          "name": "from",
          "type": "address"
        },
        {
          "internalType": "address",
          "name": "to",
          "type": "address"
        },
        {
          "internalType": "uint256",
          "name": "tokenId",
          "type": "uint256"
        }
      ],
      "name": "safeTransferFrom",
      "outputs": [],
      "stateMutability": "nonpayable",
      "type": "function"
    },
    {
      "inputs": [
        {
          "internalType": "address",
          "name": "from",
          "type": "address"
        },
        {
          "internalType": "address",
          "name": "to",
          "type": "address"
        },
        {
          "internalType": "uint256",
          "name": "tokenId",
          "type": "uint256"
        },
        {
          "internalType": "bytes",
          "name": "_data",
          "type": "bytes"
        }
      ],
      "name": "safeTransferFrom",
      "outputs": [],
      "stateMutability": "nonpayable",
      "type": "function"
    },
    {
      "inputs": [
        {
          "internalType": "address",
          "name": "operator",
          "type": "address"
        },
        {
          "internalType": "bool",
          "name": "approved",
          "type": "bool"
        }
      ],
      "name": "setApprovalForAll",
      "outputs": [],
      "stateMutability": "nonpayable",
      "type": "function"
    },
    {
      "inputs": [
        {
          "internalType": "bytes4",
          "name": "interfaceId",
          "type": "bytes4"
        }
      ],
      "name": "supportsInterface",
      "outputs": [
        {
          "internalType": "bool",
          "name": "",
          "type": "bool"
        }
      ],
      "stateMutability": "view",
      "type": "function"
    },
    {
      "inputs": [],
      "name": "symbol",
      "outputs": [
        {
          "internalType": "string",
          "name": "",
          "type": "string"
        }
      ],
      "stateMutability": "view",
      "type": "function"
    },
    {
      "inputs": [
        {
          "internalType": "uint256",
          "name": "tokenId",
          "type": "uint256"
        }
      ],
      "name": "tokenURI",
      "outputs": [
        {
          "internalType": "string",
          "name": "",
          "type": "string"
        }
      ],
      "stateMutability": "view",
      "type": "function"
    },
    {
      "inputs": [
        {
          "internalType": "address",
          "name": "from",
          "type": "address"
        },
        {
          "internalType": "address",
          "name": "to",
          "type": "address"
        },
        {
          "internalType": "uint256",
          "name": "tokenId",
          "type": "uint256"
        }
      ],
      "name": "transferFrom",
      "outputs": [],
      "stateMutability": "nonpayable",
      "type": "function"
    },
    {
      "inputs": [],
      "name": "getTotalSupply",
      "outputs": [
        {
          "internalType": "uint256",
          "name": "",
          "type": "uint256"
        }
      ],
      "stateMutability": "view",
      "type": "function"
    },
    {
      "inputs": [
        {
          "internalType": "address",
          "name": "account",
          "type": "address"
        },
        {
          "internalType": "uint256",
          "name": "tokenId",
          "type": "uint256"
        }
      ],
      "name": "mint",
      "outputs": [],
      "stateMutability": "nonpayable",
      "type": "function"
    },
    {
      "inputs": [
        {
          "internalType": "uint256",
          "name": "tokenId",
          "type": "uint256"
        }
      ],
      "name": "burn",
      "outputs": [],
      "stateMutability": "nonpayable",
      "type": "function"
    },
    {
      "inputs": [],
      "name": "getChainId",
      "outputs": [
        {
          "internalType": "uint256",
          "name": "",
          "type": "uint256"
        }
      ],
      "stateMutability": "view",
      "type": "function"
    }
  ],
  "bytecode": "0x6101406040523480156200001257600080fd5b5060405162004988380380620049888339818101604052810190620000389190620003e8565b816040518060400160405280600181526020017f310000000000000000000000000000000000000000000000000000000000000081525083838160009080519060200190620000899291906200019b565b508060019080519060200190620000a29291906200019b565b50505060008280519060200120905060008280519060200120905060007f8b73c3c69bb8fe3d512ecc4cf759cc79239f7b179b0ffacaa9a75d522b39400f90508260e081815250508161010081815250504660a081815250506200010e8184846200015f60201b60201c565b608081815250503073ffffffffffffffffffffffffffffffffffffffff1660c08173ffffffffffffffffffffffffffffffffffffffff168152505080610120818152505050505050505050620005aa565b600083838346306040516020016200017c959493929190620004e8565b6040516020818303038152906040528051906020012090509392505050565b828054620001a99062000574565b90600052602060002090601f016020900481019282620001cd576000855562000219565b82601f10620001e857805160ff191683800117855562000219565b8280016001018555821562000219579182015b8281111562000218578251825591602001919060010190620001fb565b5b5090506200022891906200022c565b5090565b5b80821115620002475760008160009055506001016200022d565b5090565b6000604051905090565b600080fd5b600080fd5b600080fd5b600080fd5b6000601f19601f8301169050919050565b7f4e487b7100000000000000000000000000000000000000000000000000000000600052604160045260246000fd5b620002b48262000269565b810181811067ffffffffffffffff82111715620002d657620002d56200027a565b5b80604052505050565b6000620002eb6200024b565b9050620002f98282620002a9565b919050565b600067ffffffffffffffff8211156200031c576200031b6200027a565b5b620003278262000269565b9050602081019050919050565b60005b838110156200035457808201518184015260208101905062000337565b8381111562000364576000848401525b50505050565b6000620003816200037b84620002fe565b620002df565b905082815260208101848484011115620003a0576200039f62000264565b5b620003ad84828562000334565b509392505050565b600082601f830112620003cd57620003cc6200025f565b5b8151620003df8482602086016200036a565b91505092915050565b6000806040838503121562000402576200040162000255565b5b600083015167ffffffffffffffff8111156200042357620004226200025a565b5b6200043185828601620003b5565b925050602083015167ffffffffffffffff8111156200045557620004546200025a565b5b6200046385828601620003b5565b9150509250929050565b6000819050919050565b62000482816200046d565b82525050565b6000819050919050565b6200049d8162000488565b82525050565b600073ffffffffffffffffffffffffffffffffffffffff82169050919050565b6000620004d082620004a3565b9050919050565b620004e281620004c3565b82525050565b600060a082019050620004ff600083018862000477565b6200050e602083018762000477565b6200051d604083018662000477565b6200052c606083018562000492565b6200053b6080830184620004d7565b9695505050505050565b7f4e487b7100000000000000000000000000000000000000000000000000000000600052602260045260246000fd5b600060028204905060018216806200058d57607f821691505b60208210811415620005a457620005a362000545565b5b50919050565b60805160a05160c05160e051610100516101205161438e620005fa600039600061150501526000611547015260006115260152600061145b015260006114b1015260006114da015261438e6000f3fe608060405234801561001057600080fd5b50600436106101735760003560e01c80635c19a95c116100de5780639ab24eb011610097578063c3cda52011610071578063c3cda52014610480578063c4e41b221461049c578063c87b56dd146104ba578063e985e9c5146104ea57610173565b80639ab24eb014610418578063a22cb46514610448578063b88d4fde1461046457610173565b80635c19a95c1461031e5780636352211e1461033a57806370a082311461036a5780637ecebe001461039a5780638e539e8c146103ca57806395d89b41146103fa57610173565b80633644e515116101305780633644e5151461024c5780633a46b1a81461026a57806340c10f191461029a57806342842e0e146102b657806342966c68146102d2578063587cde1e146102ee57610173565b806301ffc9a71461017857806306fdde03146101a8578063081812fc146101c6578063095ea7b3146101f657806323b872dd146102125780633408e4701461022e575b600080fd5b610192600480360381019061018d9190612b33565b61051a565b60405161019f9190612b7b565b60405180910390f35b6101b06105fc565b6040516101bd9190612c2f565b60405180910390f35b6101e060048036038101906101db9190612c87565b61068e565b6040516101ed9190612cf5565b60405180910390f35b610210600480360381019061020b9190612d3c565b610713565b005b61022c60048036038101906102279190612d7c565b61082b565b005b61023661088b565b6040516102439190612dde565b60405180910390f35b610254610893565b6040516102619190612e12565b60405180910390f35b610284600480360381019061027f9190612d3c565b6108a2565b6040516102919190612dde565b60405180910390f35b6102b460048036038101906102af9190612d3c565b6108fd565b005b6102d060048036038101906102cb9190612d7c565b61090b565b005b6102ec60048036038101906102e79190612c87565b61092b565b005b61030860048036038101906103039190612e2d565b610937565b6040516103159190612cf5565b60405180910390f35b61033860048036038101906103339190612e2d565b6109a0565b005b610354600480360381019061034f9190612c87565b6109ba565b6040516103619190612cf5565b60405180910390f35b610384600480360381019061037f9190612e2d565b610a6c565b6040516103919190612dde565b60405180910390f35b6103b460048036038101906103af9190612e2d565b610b24565b6040516103c19190612dde565b60405180910390f35b6103e460048036038101906103df9190612c87565b610b74565b6040516103f19190612dde565b60405180910390f35b610402610bd3565b60405161040f9190612c2f565b60405180910390f35b610432600480360381019061042d9190612e2d565b610c65565b60405161043f9190612dde565b60405180910390f35b610462600480360381019061045d9190612e86565b610cb5565b005b61047e60048036038101906104799190612ffb565b610ccb565b005b61049a600480360381019061049591906130e3565b610d2d565b005b6104a4610e31565b6040516104b19190612dde565b60405180910390f35b6104d460048036038101906104cf9190612c87565b610e40565b6040516104e19190612c2f565b60405180910390f35b61050460048036038101906104ff9190613170565b610ee7565b6040516105119190612b7b565b60405180910390f35b60007f80ac58cd000000000000000000000000000000000000000000000000000000007bffffffffffffffffffffffffffffffffffffffffffffffffffffffff1916827bffffffffffffffffffffffffffffffffffffffffffffffffffffffff191614806105e557507f5b5e139f000000000000000000000000000000000000000000000000000000007bffffffffffffffffffffffffffffffffffffffffffffffffffffffff1916827bffffffffffffffffffffffffffffffffffffffffffffffffffffffff1916145b806105f557506105f482610f7b565b5b9050919050565b60606000805461060b906131df565b80601f0160208091040260200160405190810160405280929190818152602001828054610637906131df565b80156106845780601f1061065957610100808354040283529160200191610684565b820191906000526020600020905b81548152906001019060200180831161066757829003601f168201915b5050505050905090565b600061069982610fe5565b6106d8576040517f08c379a00000000000000000000000000000000000000000000000000000000081526004016106cf90613283565b60405180910390fd5b6004600083815260200190815260200160002060009054906101000a900473ffffffffffffffffffffffffffffffffffffffff169050919050565b600061071e826109ba565b90508073ffffffffffffffffffffffffffffffffffffffff168373ffffffffffffffffffffffffffffffffffffffff16141561078f576040517f08c379a000000000000000000000000000000000000000000000000000000000815260040161078690613315565b60405180910390fd5b8073ffffffffffffffffffffffffffffffffffffffff166107ae611051565b73ffffffffffffffffffffffffffffffffffffffff1614806107dd57506107dc816107d7611051565b610ee7565b5b61081c576040517f08c379a0000000000000000000000000000000000000000000000000000000008152600401610813906133a7565b60405180910390fd5b6108268383611059565b505050565b61083c610836611051565b82611112565b61087b576040517f08c379a000000000000000000000000000000000000000000000000000000000815260040161087290613439565b60405180910390fd5b6108868383836111f0565b505050565b600046905090565b600061089d611457565b905090565b60006108f582600760008673ffffffffffffffffffffffffffffffffffffffff1673ffffffffffffffffffffffffffffffffffffffff16815260200190815260200160002061157190919063ffffffff16565b905092915050565b61090782826116c9565b5050565b61092683838360405180602001604052806000815250610ccb565b505050565b610934816118a3565b50565b6000600660008373ffffffffffffffffffffffffffffffffffffffff1673ffffffffffffffffffffffffffffffffffffffff16815260200190815260200160002060009054906101000a900473ffffffffffffffffffffffffffffffffffffffff169050919050565b60006109aa611051565b90506109b681836119c0565b5050565b6000806002600084815260200190815260200160002060009054906101000a900473ffffffffffffffffffffffffffffffffffffffff169050600073ffffffffffffffffffffffffffffffffffffffff168173ffffffffffffffffffffffffffffffffffffffff161415610a63576040517f08c379a0000000000000000000000000000000000000000000000000000000008152600401610a5a906134cb565b60405180910390fd5b80915050919050565b60008073ffffffffffffffffffffffffffffffffffffffff168273ffffffffffffffffffffffffffffffffffffffff161415610add576040517f08c379a0000000000000000000000000000000000000000000000000000000008152600401610ad49061355d565b60405180910390fd5b600360008373ffffffffffffffffffffffffffffffffffffffff1673ffffffffffffffffffffffffffffffffffffffff168152602001908152602001600020549050919050565b6000610b6d600960008473ffffffffffffffffffffffffffffffffffffffff1673ffffffffffffffffffffffffffffffffffffffff168152602001908152602001600020611ad4565b9050919050565b6000438210610bb8576040517f08c379a0000000000000000000000000000000000000000000000000000000008152600401610baf906135c9565b60405180910390fd5b610bcc82600861157190919063ffffffff16565b9050919050565b606060018054610be2906131df565b80601f0160208091040260200160405190810160405280929190818152602001828054610c0e906131df565b8015610c5b5780601f10610c3057610100808354040283529160200191610c5b565b820191906000526020600020905b815481529060010190602001808311610c3e57829003601f168201915b5050505050905090565b6000610cae600760008473ffffffffffffffffffffffffffffffffffffffff1673ffffffffffffffffffffffffffffffffffffffff168152602001908152602001600020611ae2565b9050919050565b610cc7610cc0611051565b8383611b7d565b5050565b610cdc610cd6611051565b83611112565b610d1b576040517f08c379a0000000000000000000000000000000000000000000000000000000008152600401610d1290613439565b60405180910390fd5b610d2784848484611cea565b50505050565b83421115610d70576040517f08c379a0000000000000000000000000000000000000000000000000000000008152600401610d6790613635565b60405180910390fd5b6000610dd2610dca7fe48329057bfd03d55e49b547132e39cffd9c1820ad7b9d4c5307691425d15adf898989604051602001610daf9493929190613655565b60405160208183030381529060405280519060200120611d46565b858585611d60565b9050610ddd81611d8b565b8614610e1e576040517f08c379a0000000000000000000000000000000000000000000000000000000008152600401610e15906136e6565b60405180910390fd5b610e2881886119c0565b50505050505050565b6000610e3b611de9565b905090565b6060610e4b82610fe5565b610e8a576040517f08c379a0000000000000000000000000000000000000000000000000000000008152600401610e8190613778565b60405180910390fd5b6000610e94611dfa565b90506000815111610eb45760405180602001604052806000815250610edf565b80610ebe84611e11565b604051602001610ecf9291906137d4565b6040516020818303038152906040525b915050919050565b6000600560008473ffffffffffffffffffffffffffffffffffffffff1673ffffffffffffffffffffffffffffffffffffffff16815260200190815260200160002060008373ffffffffffffffffffffffffffffffffffffffff1673ffffffffffffffffffffffffffffffffffffffff16815260200190815260200160002060009054906101000a900460ff16905092915050565b60007f01ffc9a7000000000000000000000000000000000000000000000000000000007bffffffffffffffffffffffffffffffffffffffffffffffffffffffff1916827bffffffffffffffffffffffffffffffffffffffffffffffffffffffff1916149050919050565b60008073ffffffffffffffffffffffffffffffffffffffff166002600084815260200190815260200160002060009054906101000a900473ffffffffffffffffffffffffffffffffffffffff1673ffffffffffffffffffffffffffffffffffffffff1614159050919050565b600033905090565b816004600083815260200190815260200160002060006101000a81548173ffffffffffffffffffffffffffffffffffffffff021916908373ffffffffffffffffffffffffffffffffffffffff160217905550808273ffffffffffffffffffffffffffffffffffffffff166110cc836109ba565b73ffffffffffffffffffffffffffffffffffffffff167f8c5be1e5ebec7d5bd14f71427d1e84f3dd0314c0f7b2291e5b200ac8c7c3b92560405160405180910390a45050565b600061111d82610fe5565b61115c576040517f08c379a00000000000000000000000000000000000000000000000000000000081526004016111539061386a565b60405180910390fd5b6000611167836109ba565b90508073ffffffffffffffffffffffffffffffffffffffff168473ffffffffffffffffffffffffffffffffffffffff1614806111d657508373ffffffffffffffffffffffffffffffffffffffff166111be8461068e565b73ffffffffffffffffffffffffffffffffffffffff16145b806111e757506111e68185610ee7565b5b91505092915050565b8273ffffffffffffffffffffffffffffffffffffffff16611210826109ba565b73ffffffffffffffffffffffffffffffffffffffff1614611266576040517f08c379a000000000000000000000000000000000000000000000000000000000815260040161125d906138fc565b60405180910390fd5b600073ffffffffffffffffffffffffffffffffffffffff168273ffffffffffffffffffffffffffffffffffffffff1614156112d6576040517f08c379a00000000000000000000000000000000000000000000000000000000081526004016112cd9061398e565b60405180910390fd5b6112e1838383611f72565b6112ec600082611059565b6001600360008573ffffffffffffffffffffffffffffffffffffffff1673ffffffffffffffffffffffffffffffffffffffff168152602001908152602001600020600082825461133c91906139dd565b925050819055506001600360008473ffffffffffffffffffffffffffffffffffffffff1673ffffffffffffffffffffffffffffffffffffffff16815260200190815260200160002060008282546113939190613a11565b92505081905550816002600083815260200190815260200160002060006101000a81548173ffffffffffffffffffffffffffffffffffffffff021916908373ffffffffffffffffffffffffffffffffffffffff160217905550808273ffffffffffffffffffffffffffffffffffffffff168473ffffffffffffffffffffffffffffffffffffffff167fddf252ad1be2c89b69c2b068fc378daa952ba7f163c4a11628f55a4df523b3ef60405160405180910390a4611452838383611f77565b505050565b60007f000000000000000000000000000000000000000000000000000000000000000073ffffffffffffffffffffffffffffffffffffffff163073ffffffffffffffffffffffffffffffffffffffff161480156114d357507f000000000000000000000000000000000000000000000000000000000000000046145b15611500577f0000000000000000000000000000000000000000000000000000000000000000905061156e565b61156b7f00000000000000000000000000000000000000000000000000000000000000007f00000000000000000000000000000000000000000000000000000000000000007f0000000000000000000000000000000000000000000000000000000000000000611f93565b90505b90565b60004382106115b5576040517f08c379a00000000000000000000000000000000000000000000000000000000081526004016115ac90613ab3565b60405180910390fd5b60008360000180549050905060005b818110156116395760006115d88284611fcd565b9050848660000182815481106115f1576115f0613ad3565b5b9060005260206000200160000160009054906101000a900463ffffffff1663ffffffff16111561162357809250611633565b6001816116309190613a11565b91505b506115c4565b6000821461169e578460000160018361165291906139dd565b8154811061166357611662613ad3565b5b9060005260206000200160000160049054906101000a90047bffffffffffffffffffffffffffffffffffffffffffffffffffffffff166116a1565b60005b7bffffffffffffffffffffffffffffffffffffffffffffffffffffffff169250505092915050565b600073ffffffffffffffffffffffffffffffffffffffff168273ffffffffffffffffffffffffffffffffffffffff161415611739576040517f08c379a000000000000000000000000000000000000000000000000000000000815260040161173090613b4e565b60405180910390fd5b61174281610fe5565b15611782576040517f08c379a000000000000000000000000000000000000000000000000000000000815260040161177990613bba565b60405180910390fd5b61178e60008383611f72565b6001600360008473ffffffffffffffffffffffffffffffffffffffff1673ffffffffffffffffffffffffffffffffffffffff16815260200190815260200160002060008282546117de9190613a11565b92505081905550816002600083815260200190815260200160002060006101000a81548173ffffffffffffffffffffffffffffffffffffffff021916908373ffffffffffffffffffffffffffffffffffffffff160217905550808273ffffffffffffffffffffffffffffffffffffffff16600073ffffffffffffffffffffffffffffffffffffffff167fddf252ad1be2c89b69c2b068fc378daa952ba7f163c4a11628f55a4df523b3ef60405160405180910390a461189f60008383611f77565b5050565b60006118ae826109ba565b90506118bc81600084611f72565b6118c7600083611059565b6001600360008373ffffffffffffffffffffffffffffffffffffffff1673ffffffffffffffffffffffffffffffffffffffff168152602001908152602001600020600082825461191791906139dd565b925050819055506002600083815260200190815260200160002060006101000a81549073ffffffffffffffffffffffffffffffffffffffff021916905581600073ffffffffffffffffffffffffffffffffffffffff168273ffffffffffffffffffffffffffffffffffffffff167fddf252ad1be2c89b69c2b068fc378daa952ba7f163c4a11628f55a4df523b3ef60405160405180910390a46119bc81600084611f77565b5050565b60006119cb83610937565b905081600660008573ffffffffffffffffffffffffffffffffffffffff1673ffffffffffffffffffffffffffffffffffffffff16815260200190815260200160002060006101000a81548173ffffffffffffffffffffffffffffffffffffffff021916908373ffffffffffffffffffffffffffffffffffffffff1602179055508173ffffffffffffffffffffffffffffffffffffffff168173ffffffffffffffffffffffffffffffffffffffff168473ffffffffffffffffffffffffffffffffffffffff167f3134e8a2e6d97e929a7e54011ea5485d7d196dd5f0ba4d4ef95803e8e3fc257f60405160405180910390a4611acf8183611aca86611ff3565b612005565b505050565b600081600001549050919050565b6000808260000180549050905060008114611b545782600001600182611b0891906139dd565b81548110611b1957611b18613ad3565b5b9060005260206000200160000160049054906101000a90047bffffffffffffffffffffffffffffffffffffffffffffffffffffffff16611b57565b60005b7bffffffffffffffffffffffffffffffffffffffffffffffffffffffff16915050919050565b8173ffffffffffffffffffffffffffffffffffffffff168373ffffffffffffffffffffffffffffffffffffffff161415611bec576040517f08c379a0000000000000000000000000000000000000000000000000000000008152600401611be390613c26565b60405180910390fd5b80600560008573ffffffffffffffffffffffffffffffffffffffff1673ffffffffffffffffffffffffffffffffffffffff16815260200190815260200160002060008473ffffffffffffffffffffffffffffffffffffffff1673ffffffffffffffffffffffffffffffffffffffff16815260200190815260200160002060006101000a81548160ff0219169083151502179055508173ffffffffffffffffffffffffffffffffffffffff168373ffffffffffffffffffffffffffffffffffffffff167f17307eab39ab6107e8899845ad3d59bd9653f200f220920489ca2b5937696c3183604051611cdd9190612b7b565b60405180910390a3505050565b611cf58484846111f0565b611d0184848484612212565b611d40576040517f08c379a0000000000000000000000000000000000000000000000000000000008152600401611d3790613cb8565b60405180910390fd5b50505050565b6000611d59611d53611457565b8361239a565b9050919050565b6000806000611d71878787876123cd565b91509150611d7e816124da565b8192505050949350505050565b600080600960008473ffffffffffffffffffffffffffffffffffffffff1673ffffffffffffffffffffffffffffffffffffffff1681526020019081526020016000209050611dd881611ad4565b9150611de3816126af565b50919050565b6000611df56008611ae2565b905090565b606060405180602001604052806000815250905090565b60606000821415611e59576040518060400160405280600181526020017f30000000000000000000000000000000000000000000000000000000000000008152509050611f6d565b600082905060005b60008214611e8b578080611e7490613cd8565b915050600a82611e849190613d50565b9150611e61565b60008167ffffffffffffffff811115611ea757611ea6612ed0565b5b6040519080825280601f01601f191660200182016040528015611ed95781602001600182028036833780820191505090505b5090505b60008514611f6657600182611ef291906139dd565b9150600a85611f019190613d81565b6030611f0d9190613a11565b60f81b818381518110611f2357611f22613ad3565b5b60200101907effffffffffffffffffffffffffffffffffffffffffffffffffffffffffffff1916908160001a905350600a85611f5f9190613d50565b9450611edd565b8093505050505b919050565b505050565b611f83838360016126c5565b611f8e838383612785565b505050565b60008383834630604051602001611fae959493929190613db2565b6040516020818303038152906040528051906020012090509392505050565b60006002828418611fde9190613d50565b828416611feb9190613a11565b905092915050565b6000611ffe82610a6c565b9050919050565b8173ffffffffffffffffffffffffffffffffffffffff168373ffffffffffffffffffffffffffffffffffffffff16141580156120415750600081115b1561220d57600073ffffffffffffffffffffffffffffffffffffffff168373ffffffffffffffffffffffffffffffffffffffff1614612129576000806120d261278a84600760008973ffffffffffffffffffffffffffffffffffffffff1673ffffffffffffffffffffffffffffffffffffffff1681526020019081526020016000206127a09092919063ffffffff16565b915091508473ffffffffffffffffffffffffffffffffffffffff167fdec2bacdd2f05b59de34da9b523dff8be42e5e38e818c82fdb0bae774387a724838360405161211e929190613e05565b60405180910390a250505b600073ffffffffffffffffffffffffffffffffffffffff168273ffffffffffffffffffffffffffffffffffffffff161461220c576000806121b56127ce84600760008873ffffffffffffffffffffffffffffffffffffffff1673ffffffffffffffffffffffffffffffffffffffff1681526020019081526020016000206127a09092919063ffffffff16565b915091508373ffffffffffffffffffffffffffffffffffffffff167fdec2bacdd2f05b59de34da9b523dff8be42e5e38e818c82fdb0bae774387a7248383604051612201929190613e05565b60405180910390a250505b5b505050565b60006122338473ffffffffffffffffffffffffffffffffffffffff166127e4565b1561238d578373ffffffffffffffffffffffffffffffffffffffff1663150b7a0261225c611051565b8786866040518563ffffffff1660e01b815260040161227e9493929190613e83565b6020604051808303816000875af19250505080156122ba57506040513d601f19601f820116820180604052508101906122b79190613ee4565b60015b61233d573d80600081146122ea576040519150601f19603f3d011682016040523d82523d6000602084013e6122ef565b606091505b50600081511415612335576040517f08c379a000000000000000000000000000000000000000000000000000000000815260040161232c90613cb8565b60405180910390fd5b805181602001fd5b63150b7a0260e01b7bffffffffffffffffffffffffffffffffffffffffffffffffffffffff1916817bffffffffffffffffffffffffffffffffffffffffffffffffffffffff191614915050612392565b600190505b949350505050565b600082826040516020016123af929190613f7e565b60405160208183030381529060405280519060200120905092915050565b6000807f7fffffffffffffffffffffffffffffff5d576e7357a4501ddfe92f46681b20a08360001c11156124085760006003915091506124d1565b601b8560ff16141580156124205750601c8560ff1614155b156124325760006004915091506124d1565b6000600187878787604051600081526020016040526040516124579493929190613fc4565b6020604051602081039080840390855afa158015612479573d6000803e3d6000fd5b505050602060405103519050600073ffffffffffffffffffffffffffffffffffffffff168173ffffffffffffffffffffffffffffffffffffffff1614156124c8576000600192509250506124d1565b80600092509250505b94509492505050565b600060048111156124ee576124ed614009565b5b81600481111561250157612500614009565b5b141561250c576126ac565b600160048111156125205761251f614009565b5b81600481111561253357612532614009565b5b1415612574576040517f08c379a000000000000000000000000000000000000000000000000000000000815260040161256b90614084565b60405180910390fd5b6002600481111561258857612587614009565b5b81600481111561259b5761259a614009565b5b14156125dc576040517f08c379a00000000000000000000000000000000000000000000000000000000081526004016125d3906140f0565b60405180910390fd5b600360048111156125f0576125ef614009565b5b81600481111561260357612602614009565b5b1415612644576040517f08c379a000000000000000000000000000000000000000000000000000000000815260040161263b90614182565b60405180910390fd5b60048081111561265757612656614009565b5b81600481111561266a57612669614009565b5b14156126ab576040517f08c379a00000000000000000000000000000000000000000000000000000000081526004016126a290614214565b60405180910390fd5b5b50565b6001816000016000828254019250508190555050565b600073ffffffffffffffffffffffffffffffffffffffff168373ffffffffffffffffffffffffffffffffffffffff161415612715576127126127ce8260086127a09092919063ffffffff16565b50505b600073ffffffffffffffffffffffffffffffffffffffff168273ffffffffffffffffffffffffffffffffffffffff1614156127655761276261278a8260086127a09092919063ffffffff16565b50505b61278061277184610937565b61277a84610937565b83612005565b505050565b505050565b6000818361279891906139dd565b905092915050565b6000806127c2856127bd6127b388611ae2565b868863ffffffff16565b612807565b91509150935093915050565b600081836127dc9190613a11565b905092915050565b6000808273ffffffffffffffffffffffffffffffffffffffff163b119050919050565b600080600084600001805490509050600061282186611ae2565b90506000821180156128775750438660000160018461284091906139dd565b8154811061285157612850613ad3565b5b9060005260206000200160000160009054906101000a900463ffffffff1663ffffffff16145b156129075761288585612a09565b8660000160018461289691906139dd565b815481106128a7576128a6613ad3565b5b9060005260206000200160000160046101000a8154817bffffffffffffffffffffffffffffffffffffffffffffffffffffffff02191690837bffffffffffffffffffffffffffffffffffffffffffffffffffffffff1602179055506129fa565b85600001604051806040016040528061291f43612a74565b63ffffffff16815260200161293388612a09565b7bffffffffffffffffffffffffffffffffffffffffffffffffffffffff168152509080600181540180825580915050600190039060005260206000200160009091909190915060008201518160000160006101000a81548163ffffffff021916908363ffffffff16021790555060208201518160000160046101000a8154817bffffffffffffffffffffffffffffffffffffffffffffffffffffffff02191690837bffffffffffffffffffffffffffffffffffffffffffffffffffffffff16021790555050505b80859350935050509250929050565b60007bffffffffffffffffffffffffffffffffffffffffffffffffffffffff8016821115612a6c576040517f08c379a0000000000000000000000000000000000000000000000000000000008152600401612a63906142a6565b60405180910390fd5b819050919050565b600063ffffffff8016821115612abf576040517f08c379a0000000000000000000000000000000000000000000000000000000008152600401612ab690614338565b60405180910390fd5b819050919050565b6000604051905090565b600080fd5b600080fd5b60007fffffffff0000000000000000000000000000000000000000000000000000000082169050919050565b612b1081612adb565b8114612b1b57600080fd5b50565b600081359050612b2d81612b07565b92915050565b600060208284031215612b4957612b48612ad1565b5b6000612b5784828501612b1e565b91505092915050565b60008115159050919050565b612b7581612b60565b82525050565b6000602082019050612b906000830184612b6c565b92915050565b600081519050919050565b600082825260208201905092915050565b60005b83811015612bd0578082015181840152602081019050612bb5565b83811115612bdf576000848401525b50505050565b6000601f19601f8301169050919050565b6000612c0182612b96565b612c0b8185612ba1565b9350612c1b818560208601612bb2565b612c2481612be5565b840191505092915050565b60006020820190508181036000830152612c498184612bf6565b905092915050565b6000819050919050565b612c6481612c51565b8114612c6f57600080fd5b50565b600081359050612c8181612c5b565b92915050565b600060208284031215612c9d57612c9c612ad1565b5b6000612cab84828501612c72565b91505092915050565b600073ffffffffffffffffffffffffffffffffffffffff82169050919050565b6000612cdf82612cb4565b9050919050565b612cef81612cd4565b82525050565b6000602082019050612d0a6000830184612ce6565b92915050565b612d1981612cd4565b8114612d2457600080fd5b50565b600081359050612d3681612d10565b92915050565b60008060408385031215612d5357612d52612ad1565b5b6000612d6185828601612d27565b9250506020612d7285828601612c72565b9150509250929050565b600080600060608486031215612d9557612d94612ad1565b5b6000612da386828701612d27565b9350506020612db486828701612d27565b9250506040612dc586828701612c72565b9150509250925092565b612dd881612c51565b82525050565b6000602082019050612df36000830184612dcf565b92915050565b6000819050919050565b612e0c81612df9565b82525050565b6000602082019050612e276000830184612e03565b92915050565b600060208284031215612e4357612e42612ad1565b5b6000612e5184828501612d27565b91505092915050565b612e6381612b60565b8114612e6e57600080fd5b50565b600081359050612e8081612e5a565b92915050565b60008060408385031215612e9d57612e9c612ad1565b5b6000612eab85828601612d27565b9250506020612ebc85828601612e71565b9150509250929050565b600080fd5b600080fd5b7f4e487b7100000000000000000000000000000000000000000000000000000000600052604160045260246000fd5b612f0882612be5565b810181811067ffffffffffffffff82111715612f2757612f26612ed0565b5b80604052505050565b6000612f3a612ac7565b9050612f468282612eff565b919050565b600067ffffffffffffffff821115612f6657612f65612ed0565b5b612f6f82612be5565b9050602081019050919050565b82818337600083830152505050565b6000612f9e612f9984612f4b565b612f30565b905082815260208101848484011115612fba57612fb9612ecb565b5b612fc5848285612f7c565b509392505050565b600082601f830112612fe257612fe1612ec6565b5b8135612ff2848260208601612f8b565b91505092915050565b6000806000806080858703121561301557613014612ad1565b5b600061302387828801612d27565b945050602061303487828801612d27565b935050604061304587828801612c72565b925050606085013567ffffffffffffffff81111561306657613065612ad6565b5b61307287828801612fcd565b91505092959194509250565b600060ff82169050919050565b6130948161307e565b811461309f57600080fd5b50565b6000813590506130b18161308b565b92915050565b6130c081612df9565b81146130cb57600080fd5b50565b6000813590506130dd816130b7565b92915050565b60008060008060008060c08789031215613100576130ff612ad1565b5b600061310e89828a01612d27565b965050602061311f89828a01612c72565b955050604061313089828a01612c72565b945050606061314189828a016130a2565b935050608061315289828a016130ce565b92505060a061316389828a016130ce565b9150509295509295509295565b6000806040838503121561318757613186612ad1565b5b600061319585828601612d27565b92505060206131a685828601612d27565b9150509250929050565b7f4e487b7100000000000000000000000000000000000000000000000000000000600052602260045260246000fd5b600060028204905060018216806131f757607f821691505b6020821081141561320b5761320a6131b0565b5b50919050565b7f4552433732313a20617070726f76656420717565727920666f72206e6f6e657860008201527f697374656e7420746f6b656e0000000000000000000000000000000000000000602082015250565b600061326d602c83612ba1565b915061327882613211565b604082019050919050565b6000602082019050818103600083015261329c81613260565b9050919050565b7f4552433732313a20617070726f76616c20746f2063757272656e74206f776e6560008201527f7200000000000000000000000000000000000000000000000000000000000000602082015250565b60006132ff602183612ba1565b915061330a826132a3565b604082019050919050565b6000602082019050818103600083015261332e816132f2565b9050919050565b7f4552433732313a20617070726f76652063616c6c6572206973206e6f74206f7760008201527f6e6572206e6f7220617070726f76656420666f7220616c6c0000000000000000602082015250565b6000613391603883612ba1565b915061339c82613335565b604082019050919050565b600060208201905081810360008301526133c081613384565b9050919050565b7f4552433732313a207472616e736665722063616c6c6572206973206e6f74206f60008201527f776e6572206e6f7220617070726f766564000000000000000000000000000000602082015250565b6000613423603183612ba1565b915061342e826133c7565b604082019050919050565b6000602082019050818103600083015261345281613416565b9050919050565b7f4552433732313a206f776e657220717565727920666f72206e6f6e657869737460008201527f656e7420746f6b656e0000000000000000000000000000000000000000000000602082015250565b60006134b5602983612ba1565b91506134c082613459565b604082019050919050565b600060208201905081810360008301526134e4816134a8565b9050919050565b7f4552433732313a2062616c616e636520717565727920666f7220746865207a6560008201527f726f206164647265737300000000000000000000000000000000000000000000602082015250565b6000613547602a83612ba1565b9150613552826134eb565b604082019050919050565b600060208201905081810360008301526135768161353a565b9050919050565b7f566f7465733a20626c6f636b206e6f7420796574206d696e6564000000000000600082015250565b60006135b3601a83612ba1565b91506135be8261357d565b602082019050919050565b600060208201905081810360008301526135e2816135a6565b9050919050565b7f566f7465733a207369676e617475726520657870697265640000000000000000600082015250565b600061361f601883612ba1565b915061362a826135e9565b602082019050919050565b6000602082019050818103600083015261364e81613612565b9050919050565b600060808201905061366a6000830187612e03565b6136776020830186612ce6565b6136846040830185612dcf565b6136916060830184612dcf565b95945050505050565b7f566f7465733a20696e76616c6964206e6f6e6365000000000000000000000000600082015250565b60006136d0601483612ba1565b91506136db8261369a565b602082019050919050565b600060208201905081810360008301526136ff816136c3565b9050919050565b7f4552433732314d657461646174613a2055524920717565727920666f72206e6f60008201527f6e6578697374656e7420746f6b656e0000000000000000000000000000000000602082015250565b6000613762602f83612ba1565b915061376d82613706565b604082019050919050565b6000602082019050818103600083015261379181613755565b9050919050565b600081905092915050565b60006137ae82612b96565b6137b88185613798565b93506137c8818560208601612bb2565b80840191505092915050565b60006137e082856137a3565b91506137ec82846137a3565b91508190509392505050565b7f4552433732313a206f70657261746f7220717565727920666f72206e6f6e657860008201527f697374656e7420746f6b656e0000000000000000000000000000000000000000602082015250565b6000613854602c83612ba1565b915061385f826137f8565b604082019050919050565b6000602082019050818103600083015261388381613847565b9050919050565b7f4552433732313a207472616e736665722066726f6d20696e636f72726563742060008201527f6f776e6572000000000000000000000000000000000000000000000000000000602082015250565b60006138e6602583612ba1565b91506138f18261388a565b604082019050919050565b60006020820190508181036000830152613915816138d9565b9050919050565b7f4552433732313a207472616e7366657220746f20746865207a65726f2061646460008201527f7265737300000000000000000000000000000000000000000000000000000000602082015250565b6000613978602483612ba1565b91506139838261391c565b604082019050919050565b600060208201905081810360008301526139a78161396b565b9050919050565b7f4e487b7100000000000000000000000000000000000000000000000000000000600052601160045260246000fd5b60006139e882612c51565b91506139f383612c51565b925082821015613a0657613a056139ae565b5b828203905092915050565b6000613a1c82612c51565b9150613a2783612c51565b9250827fffffffffffffffffffffffffffffffffffffffffffffffffffffffffffffffff03821115613a5c57613a5b6139ae565b5b828201905092915050565b7f436865636b706f696e74733a20626c6f636b206e6f7420796574206d696e6564600082015250565b6000613a9d602083612ba1565b9150613aa882613a67565b602082019050919050565b60006020820190508181036000830152613acc81613a90565b9050919050565b7f4e487b7100000000000000000000000000000000000000000000000000000000600052603260045260246000fd5b7f4552433732313a206d696e7420746f20746865207a65726f2061646472657373600082015250565b6000613b38602083612ba1565b9150613b4382613b02565b602082019050919050565b60006020820190508181036000830152613b6781613b2b565b9050919050565b7f4552433732313a20746f6b656e20616c7265616479206d696e74656400000000600082015250565b6000613ba4601c83612ba1565b9150613baf82613b6e565b602082019050919050565b60006020820190508181036000830152613bd381613b97565b9050919050565b7f4552433732313a20617070726f766520746f2063616c6c657200000000000000600082015250565b6000613c10601983612ba1565b9150613c1b82613bda565b602082019050919050565b60006020820190508181036000830152613c3f81613c03565b9050919050565b7f4552433732313a207472616e7366657220746f206e6f6e20455243373231526560008201527f63656976657220696d706c656d656e7465720000000000000000000000000000602082015250565b6000613ca2603283612ba1565b9150613cad82613c46565b604082019050919050565b60006020820190508181036000830152613cd181613c95565b9050919050565b6000613ce382612c51565b91507fffffffffffffffffffffffffffffffffffffffffffffffffffffffffffffffff821415613d1657613d156139ae565b5b600182019050919050565b7f4e487b7100000000000000000000000000000000000000000000000000000000600052601260045260246000fd5b6000613d5b82612c51565b9150613d6683612c51565b925082613d7657613d75613d21565b5b828204905092915050565b6000613d8c82612c51565b9150613d9783612c51565b925082613da757613da6613d21565b5b828206905092915050565b600060a082019050613dc76000830188612e03565b613dd46020830187612e03565b613de16040830186612e03565b613dee6060830185612dcf565b613dfb6080830184612ce6565b9695505050505050565b6000604082019050613e1a6000830185612dcf565b613e276020830184612dcf565b9392505050565b600081519050919050565b600082825260208201905092915050565b6000613e5582613e2e565b613e5f8185613e39565b9350613e6f818560208601612bb2565b613e7881612be5565b840191505092915050565b6000608082019050613e986000830187612ce6565b613ea56020830186612ce6565b613eb26040830185612dcf565b8181036060830152613ec48184613e4a565b905095945050505050565b600081519050613ede81612b07565b92915050565b600060208284031215613efa57613ef9612ad1565b5b6000613f0884828501613ecf565b91505092915050565b7f1901000000000000000000000000000000000000000000000000000000000000600082015250565b6000613f47600283613798565b9150613f5282613f11565b600282019050919050565b6000819050919050565b613f78613f7382612df9565b613f5d565b82525050565b6000613f8982613f3a565b9150613f958285613f67565b602082019150613fa58284613f67565b6020820191508190509392505050565b613fbe8161307e565b82525050565b6000608082019050613fd96000830187612e03565b613fe66020830186613fb5565b613ff36040830185612e03565b6140006060830184612e03565b95945050505050565b7f4e487b7100000000000000000000000000000000000000000000000000000000600052602160045260246000fd5b7f45434453413a20696e76616c6964207369676e61747572650000000000000000600082015250565b600061406e601883612ba1565b915061407982614038565b602082019050919050565b6000602082019050818103600083015261409d81614061565b9050919050565b7f45434453413a20696e76616c6964207369676e6174757265206c656e67746800600082015250565b60006140da601f83612ba1565b91506140e5826140a4565b602082019050919050565b60006020820190508181036000830152614109816140cd565b9050919050565b7f45434453413a20696e76616c6964207369676e6174757265202773272076616c60008201527f7565000000000000000000000000000000000000000000000000000000000000602082015250565b600061416c602283612ba1565b915061417782614110565b604082019050919050565b6000602082019050818103600083015261419b8161415f565b9050919050565b7f45434453413a20696e76616c6964207369676e6174757265202776272076616c60008201527f7565000000000000000000000000000000000000000000000000000000000000602082015250565b60006141fe602283612ba1565b9150614209826141a2565b604082019050919050565b6000602082019050818103600083015261422d816141f1565b9050919050565b7f53616665436173743a2076616c756520646f65736e27742066697420696e203260008201527f3234206269747300000000000000000000000000000000000000000000000000602082015250565b6000614290602783612ba1565b915061429b82614234565b604082019050919050565b600060208201905081810360008301526142bf81614283565b9050919050565b7f53616665436173743a2076616c756520646f65736e27742066697420696e203360008201527f3220626974730000000000000000000000000000000000000000000000000000602082015250565b6000614322602683612ba1565b915061432d826142c6565b604082019050919050565b6000602082019050818103600083015261435181614315565b905091905056fea264697066735822122045867da8bbe316b871349d177b9a496ba4fff9fd0135728daa3c51d8612aba4764736f6c634300080b0033",
  "immutableReferences": {
    "28894": [
      {
        "length": 32,
        "start": 5338
      }
    ],
    "28896": [
      {
        "length": 32,
        "start": 5297
      }
    ],
    "28898": [
      {
        "length": 32,
        "start": 5211
      }
    ],
    "28900": [
      {
        "length": 32,
        "start": 5414
      }
    ],
    "28902": [
      {
        "length": 32,
        "start": 5447
      }
    ],
    "28904": [
      {
        "length": 32,
        "start": 5381
      }
    ]
  },
  "source": "// SPDX-License-Identifier: MIT\r\n\r\npragma solidity ^0.8.0;\r\n\r\nimport \"../token/ERC721/extensions/draft-ERC721Votes.sol\";\r\n\r\ncontract ERC721VotesMock is ERC721Votes {\r\n    constructor(string memory name, string memory symbol) ERC721(name, symbol) EIP712(name, \"1\") {}\r\n\r\n    function getTotalSupply() public view returns (uint256) {\r\n        return _getTotalSupply();\r\n    }\r\n\r\n    function mint(address account, uint256 tokenId) public {\r\n        _mint(account, tokenId);\r\n    }\r\n\r\n    function burn(uint256 tokenId) public {\r\n        _burn(tokenId);\r\n    }\r\n\r\n    function getChainId() external view returns (uint256) {\r\n        return block.chainid;\r\n    }\r\n}\r\n",
  "sourcePath": "C:\\Users\\Alexandr\\dev\\nft-sim\\contract\\contracts\\mocks\\ERC721VotesMock.sol",
  "compiler": {
    "name": "solc",
    "version": "0.8.11+commit.d7f03943.Emscripten.clang"
  },
  "schemaVersion": "3.4.4",
  "updatedAt": "2022-02-17T11:42:20.294Z",
  "devdoc": {
    "kind": "dev",
    "methods": {
      "DOMAIN_SEPARATOR()": {
        "details": "Returns the contract's {EIP712} domain separator."
      },
      "approve(address,uint256)": {
        "details": "See {IERC721-approve}."
      },
      "balanceOf(address)": {
        "details": "See {IERC721-balanceOf}."
      },
      "delegate(address)": {
        "details": "Delegates votes from the sender to `delegatee`."
      },
      "delegateBySig(address,uint256,uint256,uint8,bytes32,bytes32)": {
        "details": "Delegates votes from signer to `delegatee`."
      },
      "delegates(address)": {
        "details": "Returns the delegate that `account` has chosen."
      },
      "getApproved(uint256)": {
        "details": "See {IERC721-getApproved}."
      },
      "getPastTotalSupply(uint256)": {
        "details": "Returns the total supply of votes available at the end of a past block (`blockNumber`). NOTE: This value is the sum of all available votes, which is not necessarily the sum of all delegated votes. Votes that have not been delegated are still part of total supply, even though they would not participate in a vote. Requirements: - `blockNumber` must have been already mined"
      },
      "getPastVotes(address,uint256)": {
        "details": "Returns the amount of votes that `account` had at the end of a past block (`blockNumber`). Requirements: - `blockNumber` must have been already mined"
      },
      "getVotes(address)": {
        "details": "Returns the current amount of votes that `account` has."
      },
      "isApprovedForAll(address,address)": {
        "details": "See {IERC721-isApprovedForAll}."
      },
      "name()": {
        "details": "See {IERC721Metadata-name}."
      },
      "nonces(address)": {
        "details": "Returns an address nonce."
      },
      "ownerOf(uint256)": {
        "details": "See {IERC721-ownerOf}."
      },
      "safeTransferFrom(address,address,uint256)": {
        "details": "See {IERC721-safeTransferFrom}."
      },
      "safeTransferFrom(address,address,uint256,bytes)": {
        "details": "See {IERC721-safeTransferFrom}."
      },
      "setApprovalForAll(address,bool)": {
        "details": "See {IERC721-setApprovalForAll}."
      },
      "supportsInterface(bytes4)": {
        "details": "See {IERC165-supportsInterface}."
      },
      "symbol()": {
        "details": "See {IERC721Metadata-symbol}."
      },
      "tokenURI(uint256)": {
        "details": "See {IERC721Metadata-tokenURI}."
      },
      "transferFrom(address,address,uint256)": {
        "details": "See {IERC721-transferFrom}."
      }
    },
    "version": 1
  },
  "userdoc": {
    "kind": "user",
    "methods": {},
    "version": 1
  }
}