{
  "contractName": "GovernorPreventLateQuorumMock",
  "abi": [
    {
      "inputs": [
        {
          "internalType": "string",
          "name": "name_",
          "type": "string"
        },
        {
          "internalType": "contract IVotes",
          "name": "token_",
          "type": "address"
        },
        {
          "internalType": "uint256",
          "name": "votingDelay_",
          "type": "uint256"
        },
        {
          "internalType": "uint256",
          "name": "votingPeriod_",
          "type": "uint256"
        },
        {
          "internalType": "uint256",
          "name": "quorum_",
          "type": "uint256"
        },
        {
          "internalType": "uint64",
          "name": "voteExtension_",
          "type": "uint64"
        }
      ],
      "stateMutability": "nonpayable",
      "type": "constructor"
    },
    {
      "anonymous": false,
      "inputs": [
        {
          "indexed": false,
          "internalType": "uint64",
          "name": "oldVoteExtension",
          "type": "uint64"
        },
        {
          "indexed": false,
          "internalType": "uint64",
          "name": "newVoteExtension",
          "type": "uint64"
        }
      ],
      "name": "LateQuorumVoteExtensionSet",
      "type": "event"
    },
    {
      "anonymous": false,
      "inputs": [
        {
          "indexed": false,
          "internalType": "uint256",
          "name": "proposalId",
          "type": "uint256"
        }
      ],
      "name": "ProposalCanceled",
      "type": "event"
    },
    {
      "anonymous": false,
      "inputs": [
        {
          "indexed": false,
          "internalType": "uint256",
          "name": "proposalId",
          "type": "uint256"
        },
        {
          "indexed": false,
          "internalType": "address",
          "name": "proposer",
          "type": "address"
        },
        {
          "indexed": false,
          "internalType": "address[]",
          "name": "targets",
          "type": "address[]"
        },
        {
          "indexed": false,
          "internalType": "uint256[]",
          "name": "values",
          "type": "uint256[]"
        },
        {
          "indexed": false,
          "internalType": "string[]",
          "name": "signatures",
          "type": "string[]"
        },
        {
          "indexed": false,
          "internalType": "bytes[]",
          "name": "calldatas",
          "type": "bytes[]"
        },
        {
          "indexed": false,
          "internalType": "uint256",
          "name": "startBlock",
          "type": "uint256"
        },
        {
          "indexed": false,
          "internalType": "uint256",
          "name": "endBlock",
          "type": "uint256"
        },
        {
          "indexed": false,
          "internalType": "string",
          "name": "description",
          "type": "string"
        }
      ],
      "name": "ProposalCreated",
      "type": "event"
    },
    {
      "anonymous": false,
      "inputs": [
        {
          "indexed": false,
          "internalType": "uint256",
          "name": "proposalId",
          "type": "uint256"
        }
      ],
      "name": "ProposalExecuted",
      "type": "event"
    },
    {
      "anonymous": false,
      "inputs": [
        {
          "indexed": true,
          "internalType": "uint256",
          "name": "proposalId",
          "type": "uint256"
        },
        {
          "indexed": false,
          "internalType": "uint64",
          "name": "extendedDeadline",
          "type": "uint64"
        }
      ],
      "name": "ProposalExtended",
      "type": "event"
    },
    {
      "anonymous": false,
      "inputs": [
        {
          "indexed": false,
          "internalType": "uint256",
          "name": "oldProposalThreshold",
          "type": "uint256"
        },
        {
          "indexed": false,
          "internalType": "uint256",
          "name": "newProposalThreshold",
          "type": "uint256"
        }
      ],
      "name": "ProposalThresholdSet",
      "type": "event"
    },
    {
      "anonymous": false,
      "inputs": [
        {
          "indexed": true,
          "internalType": "address",
          "name": "voter",
          "type": "address"
        },
        {
          "indexed": false,
          "internalType": "uint256",
          "name": "proposalId",
          "type": "uint256"
        },
        {
          "indexed": false,
          "internalType": "uint8",
          "name": "support",
          "type": "uint8"
        },
        {
          "indexed": false,
          "internalType": "uint256",
          "name": "weight",
          "type": "uint256"
        },
        {
          "indexed": false,
          "internalType": "string",
          "name": "reason",
          "type": "string"
        }
      ],
      "name": "VoteCast",
      "type": "event"
    },
    {
      "anonymous": false,
      "inputs": [
        {
          "indexed": false,
          "internalType": "uint256",
          "name": "oldVotingDelay",
          "type": "uint256"
        },
        {
          "indexed": false,
          "internalType": "uint256",
          "name": "newVotingDelay",
          "type": "uint256"
        }
      ],
      "name": "VotingDelaySet",
      "type": "event"
    },
    {
      "anonymous": false,
      "inputs": [
        {
          "indexed": false,
          "internalType": "uint256",
          "name": "oldVotingPeriod",
          "type": "uint256"
        },
        {
          "indexed": false,
          "internalType": "uint256",
          "name": "newVotingPeriod",
          "type": "uint256"
        }
      ],
      "name": "VotingPeriodSet",
      "type": "event"
    },
    {
      "inputs": [],
      "name": "BALLOT_TYPEHASH",
      "outputs": [
        {
          "internalType": "bytes32",
          "name": "",
          "type": "bytes32"
        }
      ],
      "stateMutability": "view",
      "type": "function"
    },
    {
      "inputs": [],
      "name": "COUNTING_MODE",
      "outputs": [
        {
          "internalType": "string",
          "name": "",
          "type": "string"
        }
      ],
      "stateMutability": "pure",
      "type": "function"
    },
    {
      "inputs": [
        {
          "internalType": "uint256",
          "name": "proposalId",
          "type": "uint256"
        },
        {
          "internalType": "uint8",
          "name": "support",
          "type": "uint8"
        }
      ],
      "name": "castVote",
      "outputs": [
        {
          "internalType": "uint256",
          "name": "",
          "type": "uint256"
        }
      ],
      "stateMutability": "nonpayable",
      "type": "function"
    },
    {
      "inputs": [
        {
          "internalType": "uint256",
          "name": "proposalId",
          "type": "uint256"
        },
        {
          "internalType": "uint8",
          "name": "support",
          "type": "uint8"
        },
        {
          "internalType": "uint8",
          "name": "v",
          "type": "uint8"
        },
        {
          "internalType": "bytes32",
          "name": "r",
          "type": "bytes32"
        },
        {
          "internalType": "bytes32",
          "name": "s",
          "type": "bytes32"
        }
      ],
      "name": "castVoteBySig",
      "outputs": [
        {
          "internalType": "uint256",
          "name": "",
          "type": "uint256"
        }
      ],
      "stateMutability": "nonpayable",
      "type": "function"
    },
    {
      "inputs": [
        {
          "internalType": "uint256",
          "name": "proposalId",
          "type": "uint256"
        },
        {
          "internalType": "uint8",
          "name": "support",
          "type": "uint8"
        },
        {
          "internalType": "string",
          "name": "reason",
          "type": "string"
        }
      ],
      "name": "castVoteWithReason",
      "outputs": [
        {
          "internalType": "uint256",
          "name": "",
          "type": "uint256"
        }
      ],
      "stateMutability": "nonpayable",
      "type": "function"
    },
    {
      "inputs": [
        {
          "internalType": "address[]",
          "name": "targets",
          "type": "address[]"
        },
        {
          "internalType": "uint256[]",
          "name": "values",
          "type": "uint256[]"
        },
        {
          "internalType": "bytes[]",
          "name": "calldatas",
          "type": "bytes[]"
        },
        {
          "internalType": "bytes32",
          "name": "descriptionHash",
          "type": "bytes32"
        }
      ],
      "name": "execute",
      "outputs": [
        {
          "internalType": "uint256",
          "name": "",
          "type": "uint256"
        }
      ],
      "stateMutability": "payable",
      "type": "function"
    },
    {
      "inputs": [
        {
          "internalType": "address",
          "name": "account",
          "type": "address"
        },
        {
          "internalType": "uint256",
          "name": "blockNumber",
          "type": "uint256"
        }
      ],
      "name": "getVotes",
      "outputs": [
        {
          "internalType": "uint256",
          "name": "",
          "type": "uint256"
        }
      ],
      "stateMutability": "view",
      "type": "function"
    },
    {
      "inputs": [
        {
          "internalType": "uint256",
          "name": "proposalId",
          "type": "uint256"
        },
        {
          "internalType": "address",
          "name": "account",
          "type": "address"
        }
      ],
      "name": "hasVoted",
      "outputs": [
        {
          "internalType": "bool",
          "name": "",
          "type": "bool"
        }
      ],
      "stateMutability": "view",
      "type": "function"
    },
    {
      "inputs": [
        {
          "internalType": "address[]",
          "name": "targets",
          "type": "address[]"
        },
        {
          "internalType": "uint256[]",
          "name": "values",
          "type": "uint256[]"
        },
        {
          "internalType": "bytes[]",
          "name": "calldatas",
          "type": "bytes[]"
        },
        {
          "internalType": "bytes32",
          "name": "descriptionHash",
          "type": "bytes32"
        }
      ],
      "name": "hashProposal",
      "outputs": [
        {
          "internalType": "uint256",
          "name": "",
          "type": "uint256"
        }
      ],
      "stateMutability": "pure",
      "type": "function"
    },
    {
      "inputs": [],
      "name": "lateQuorumVoteExtension",
      "outputs": [
        {
          "internalType": "uint64",
          "name": "",
          "type": "uint64"
        }
      ],
      "stateMutability": "view",
      "type": "function"
    },
    {
      "inputs": [],
      "name": "name",
      "outputs": [
        {
          "internalType": "string",
          "name": "",
          "type": "string"
        }
      ],
      "stateMutability": "view",
      "type": "function"
    },
    {
      "inputs": [
        {
          "internalType": "uint256",
          "name": "proposalId",
          "type": "uint256"
        }
      ],
      "name": "proposalSnapshot",
      "outputs": [
        {
          "internalType": "uint256",
          "name": "",
          "type": "uint256"
        }
      ],
      "stateMutability": "view",
      "type": "function"
    },
    {
      "inputs": [
        {
          "internalType": "uint256",
          "name": "proposalId",
          "type": "uint256"
        }
      ],
      "name": "proposalVotes",
      "outputs": [
        {
          "internalType": "uint256",
          "name": "againstVotes",
          "type": "uint256"
        },
        {
          "internalType": "uint256",
          "name": "forVotes",
          "type": "uint256"
        },
        {
          "internalType": "uint256",
          "name": "abstainVotes",
          "type": "uint256"
        }
      ],
      "stateMutability": "view",
      "type": "function"
    },
    {
      "inputs": [
        {
          "internalType": "address[]",
          "name": "targets",
          "type": "address[]"
        },
        {
          "internalType": "uint256[]",
          "name": "values",
          "type": "uint256[]"
        },
        {
          "internalType": "bytes[]",
          "name": "calldatas",
          "type": "bytes[]"
        },
        {
          "internalType": "string",
          "name": "description",
          "type": "string"
        }
      ],
      "name": "propose",
      "outputs": [
        {
          "internalType": "uint256",
          "name": "",
          "type": "uint256"
        }
      ],
      "stateMutability": "nonpayable",
      "type": "function"
    },
    {
      "inputs": [
        {
          "internalType": "address",
          "name": "target",
          "type": "address"
        },
        {
          "internalType": "uint256",
          "name": "value",
          "type": "uint256"
        },
        {
          "internalType": "bytes",
          "name": "data",
          "type": "bytes"
        }
      ],
      "name": "relay",
      "outputs": [],
      "stateMutability": "nonpayable",
      "type": "function"
    },
    {
      "inputs": [
        {
          "internalType": "uint64",
          "name": "newVoteExtension",
          "type": "uint64"
        }
      ],
      "name": "setLateQuorumVoteExtension",
      "outputs": [],
      "stateMutability": "nonpayable",
      "type": "function"
    },
    {
      "inputs": [
        {
          "internalType": "uint256",
          "name": "newProposalThreshold",
          "type": "uint256"
        }
      ],
      "name": "setProposalThreshold",
      "outputs": [],
      "stateMutability": "nonpayable",
      "type": "function"
    },
    {
      "inputs": [
        {
          "internalType": "uint256",
          "name": "newVotingDelay",
          "type": "uint256"
        }
      ],
      "name": "setVotingDelay",
      "outputs": [],
      "stateMutability": "nonpayable",
      "type": "function"
    },
    {
      "inputs": [
        {
          "internalType": "uint256",
          "name": "newVotingPeriod",
          "type": "uint256"
        }
      ],
      "name": "setVotingPeriod",
      "outputs": [],
      "stateMutability": "nonpayable",
      "type": "function"
    },
    {
      "inputs": [
        {
          "internalType": "uint256",
          "name": "proposalId",
          "type": "uint256"
        }
      ],
      "name": "state",
      "outputs": [
        {
          "internalType": "enum IGovernor.ProposalState",
          "name": "",
          "type": "uint8"
        }
      ],
      "stateMutability": "view",
      "type": "function"
    },
    {
      "inputs": [
        {
          "internalType": "bytes4",
          "name": "interfaceId",
          "type": "bytes4"
        }
      ],
      "name": "supportsInterface",
      "outputs": [
        {
          "internalType": "bool",
          "name": "",
          "type": "bool"
        }
      ],
      "stateMutability": "view",
      "type": "function"
    },
    {
      "inputs": [],
      "name": "token",
      "outputs": [
        {
          "internalType": "contract IVotes",
          "name": "",
          "type": "address"
        }
      ],
      "stateMutability": "view",
      "type": "function"
    },
    {
      "inputs": [],
      "name": "version",
      "outputs": [
        {
          "internalType": "string",
          "name": "",
          "type": "string"
        }
      ],
      "stateMutability": "view",
      "type": "function"
    },
    {
      "inputs": [],
      "name": "votingDelay",
      "outputs": [
        {
          "internalType": "uint256",
          "name": "",
          "type": "uint256"
        }
      ],
      "stateMutability": "view",
      "type": "function"
    },
    {
      "inputs": [],
      "name": "votingPeriod",
      "outputs": [
        {
          "internalType": "uint256",
          "name": "",
          "type": "uint256"
        }
      ],
      "stateMutability": "view",
      "type": "function"
    },
    {
      "stateMutability": "payable",
      "type": "receive"
    },
    {
      "inputs": [
        {
          "internalType": "uint256",
          "name": "",
          "type": "uint256"
        }
      ],
      "name": "quorum",
      "outputs": [
        {
          "internalType": "uint256",
          "name": "",
          "type": "uint256"
        }
      ],
      "stateMutability": "view",
      "type": "function"
    },
    {
      "inputs": [
        {
          "internalType": "uint256",
          "name": "proposalId",
          "type": "uint256"
        }
      ],
      "name": "proposalDeadline",
      "outputs": [
        {
          "internalType": "uint256",
          "name": "",
          "type": "uint256"
        }
      ],
      "stateMutability": "view",
      "type": "function"
    },
    {
      "inputs": [],
      "name": "proposalThreshold",
      "outputs": [
        {
          "internalType": "uint256",
          "name": "",
          "type": "uint256"
        }
      ],
      "stateMutability": "view",
      "type": "function"
    }
  ],
  "bytecode": "0x6101606040523480156200001257600080fd5b50604051620050d9380380620050d9833981810160405281019062000038919062000704565b8085858560008a8062000050620001ad60201b60201c565b60008280519060200120905060008280519060200120905060007f8b73c3c69bb8fe3d512ecc4cf759cc79239f7b179b0ffacaa9a75d522b39400f90508260e081815250508161010081815250504660a08181525050620000b9818484620001ea60201b60201c565b608081815250503073ffffffffffffffffffffffffffffffffffffffff1660c08173ffffffffffffffffffffffffffffffffffffffff1681525050806101208181525050505050505080600090805190602001906200011a929190620003be565b50506200012d836200022660201b60201c565b6200013e826200026d60201b60201c565b6200014f81620002fa60201b60201c565b5050508073ffffffffffffffffffffffffffffffffffffffff166101408173ffffffffffffffffffffffffffffffffffffffff16815250505062000199816200034160201b60201c565b5081600881905550505050505050620009d2565b60606040518060400160405280600181526020017f3100000000000000000000000000000000000000000000000000000000000000815250905090565b6000838383463060405160200162000207959493929190620007fc565b6040516020818303038152906040528051906020012090509392505050565b7fc565b045403dc03c2eea82b81a0465edad9e2e7fc4d97e11421c209da93d7a93600254826040516200025b92919062000859565b60405180910390a18060028190555050565b60008111620002b3576040517f08c379a0000000000000000000000000000000000000000000000000000000008152600401620002aa906200090d565b60405180910390fd5b7f7e3f7f0708a84de9203036abaa450dccc85ad5ff52f78c170f3edb55cf5e882860035482604051620002e892919062000859565b60405180910390a18060038190555050565b7fccb45da8d5717e6c4544694297c4ba5cf151d455c9bb0ed4fc7a38411bc05461600454826040516200032f92919062000859565b60405180910390a18060048190555050565b7f7ca4ac117ed3cdce75c1161d8207c440389b1a15d69d096831664657c07dafc2600660009054906101000a900467ffffffffffffffff16826040516200038a92919062000940565b60405180910390a180600660006101000a81548167ffffffffffffffff021916908367ffffffffffffffff16021790555050565b828054620003cc906200099c565b90600052602060002090601f016020900481019282620003f057600085556200043c565b82601f106200040b57805160ff19168380011785556200043c565b828001600101855582156200043c579182015b828111156200043b5782518255916020019190600101906200041e565b5b5090506200044b91906200044f565b5090565b5b808211156200046a57600081600090555060010162000450565b5090565b6000604051905090565b600080fd5b600080fd5b600080fd5b600080fd5b6000601f19601f8301169050919050565b7f4e487b7100000000000000000000000000000000000000000000000000000000600052604160045260246000fd5b620004d7826200048c565b810181811067ffffffffffffffff82111715620004f957620004f86200049d565b5b80604052505050565b60006200050e6200046e565b90506200051c8282620004cc565b919050565b600067ffffffffffffffff8211156200053f576200053e6200049d565b5b6200054a826200048c565b9050602081019050919050565b60005b83811015620005775780820151818401526020810190506200055a565b8381111562000587576000848401525b50505050565b6000620005a46200059e8462000521565b62000502565b905082815260208101848484011115620005c357620005c262000487565b5b620005d084828562000557565b509392505050565b600082601f830112620005f057620005ef62000482565b5b8151620006028482602086016200058d565b91505092915050565b600073ffffffffffffffffffffffffffffffffffffffff82169050919050565b600062000638826200060b565b9050919050565b60006200064c826200062b565b9050919050565b6200065e816200063f565b81146200066a57600080fd5b50565b6000815190506200067e8162000653565b92915050565b6000819050919050565b620006998162000684565b8114620006a557600080fd5b50565b600081519050620006b9816200068e565b92915050565b600067ffffffffffffffff82169050919050565b620006de81620006bf565b8114620006ea57600080fd5b50565b600081519050620006fe81620006d3565b92915050565b60008060008060008060c0878903121562000724576200072362000478565b5b600087015167ffffffffffffffff8111156200074557620007446200047d565b5b6200075389828a01620005d8565b96505060206200076689828a016200066d565b95505060406200077989828a01620006a8565b94505060606200078c89828a01620006a8565b93505060806200079f89828a01620006a8565b92505060a0620007b289828a01620006ed565b9150509295509295509295565b6000819050919050565b620007d481620007bf565b82525050565b620007e58162000684565b82525050565b620007f6816200062b565b82525050565b600060a082019050620008136000830188620007c9565b620008226020830187620007c9565b620008316040830186620007c9565b620008406060830185620007da565b6200084f6080830184620007eb565b9695505050505050565b6000604082019050620008706000830185620007da565b6200087f6020830184620007da565b9392505050565b600082825260208201905092915050565b7f476f7665726e6f7253657474696e67733a20766f74696e6720706572696f642060008201527f746f6f206c6f7700000000000000000000000000000000000000000000000000602082015250565b6000620008f560278362000886565b9150620009028262000897565b604082019050919050565b600060208201905081810360008301526200092881620008e6565b9050919050565b6200093a81620006bf565b82525050565b60006040820190506200095760008301856200092f565b6200096660208301846200092f565b9392505050565b7f4e487b7100000000000000000000000000000000000000000000000000000000600052602260045260246000fd5b60006002820490506001821680620009b557607f821691505b60208210811415620009cc57620009cb6200096d565b5b50919050565b60805160a05160c05160e0516101005161012051610140516146a562000a34600039600081816113cc015261150401526000611b7b01526000611bbd01526000611b9c01526000611ad101526000611b2701526000611b5001526146a56000f3fe6080604052600436106101bb5760003560e01c80637b3c71d3116100ec578063dd4e2ba51161008a578063eb9019d411610064578063eb9019d4146106d3578063ece40cc114610710578063f8ce560a14610739578063fc0c546a1461077657610201565b8063dd4e2ba514610654578063deaaa7cc1461067f578063ea0217cf146106aa57610201565b8063c01f9e37116100c6578063c01f9e3714610588578063c28bc2fa146105c5578063c59057e4146105ee578063d07f91e91461062b57610201565b80637b3c71d3146104e35780637d5e81e214610520578063b58131b01461055d57610201565b80633bccf4fd11610159578063544ffc9c11610133578063544ffc9c1461041357806354fd4d5014610452578063567813881461047d57806370b0f660146104ba57610201565b80633bccf4fd1461035c5780633e4f49e61461039957806343859632146103d657610201565b80632656227d116101955780632656227d146102995780632d63f693146102c957806332b8113e146103065780633932abb11461033157610201565b806301ffc9a71461020657806302a251a31461024357806306fdde031461026e57610201565b36610201573073ffffffffffffffffffffffffffffffffffffffff166101df6107a1565b73ffffffffffffffffffffffffffffffffffffffff16146101ff57600080fd5b005b600080fd5b34801561021257600080fd5b5061022d600480360381019061022891906125d3565b6107a9565b60405161023a919061261b565b60405180910390f35b34801561024f57600080fd5b50610258610823565b604051610265919061264f565b60405180910390f35b34801561027a57600080fd5b5061028361082d565b6040516102909190612703565b60405180910390f35b6102b360048036038101906102ae9190612b86565b6108bf565b6040516102c0919061264f565b60405180910390f35b3480156102d557600080fd5b506102f060048036038101906102eb9190612c41565b6109f2565b6040516102fd919061264f565b60405180910390f35b34801561031257600080fd5b5061031b610a60565b6040516103289190612c91565b60405180910390f35b34801561033d57600080fd5b50610346610a7e565b604051610353919061264f565b60405180910390f35b34801561036857600080fd5b50610383600480360381019061037e9190612ce5565b610a88565b604051610390919061264f565b60405180910390f35b3480156103a557600080fd5b506103c060048036038101906103bb9190612c41565b610b12565b6040516103cd9190612dd7565b60405180910390f35b3480156103e257600080fd5b506103fd60048036038101906103f89190612df2565b610c27565b60405161040a919061261b565b60405180910390f35b34801561041f57600080fd5b5061043a60048036038101906104359190612c41565b610c92565b60405161044993929190612e32565b60405180910390f35b34801561045e57600080fd5b50610467610cca565b6040516104749190612703565b60405180910390f35b34801561048957600080fd5b506104a4600480360381019061049f9190612e69565b610d07565b6040516104b1919061264f565b60405180910390f35b3480156104c657600080fd5b506104e160048036038101906104dc9190612c41565b610d38565b005b3480156104ef57600080fd5b5061050a60048036038101906105059190612f04565b610dc0565b604051610517919061264f565b60405180910390f35b34801561052c57600080fd5b5061054760048036038101906105429190613019565b610e28565b604051610554919061264f565b60405180910390f35b34801561056957600080fd5b50610572611128565b60405161057f919061264f565b60405180910390f35b34801561059457600080fd5b506105af60048036038101906105aa9190612c41565b611137565b6040516105bc919061264f565b60405180910390f35b3480156105d157600080fd5b506105ec60048036038101906105e79190613146565b611149565b005b3480156105fa57600080fd5b5061061560048036038101906106109190612b86565b61121b565b604051610622919061264f565b60405180910390f35b34801561063757600080fd5b50610652600480360381019061064d91906131e6565b611257565b005b34801561066057600080fd5b506106696112df565b6040516106769190612703565b60405180910390f35b34801561068b57600080fd5b5061069461131c565b6040516106a19190613222565b60405180910390f35b3480156106b657600080fd5b506106d160048036038101906106cc9190612c41565b611340565b005b3480156106df57600080fd5b506106fa60048036038101906106f5919061323d565b6113c8565b604051610707919061264f565b60405180910390f35b34801561071c57600080fd5b5061073760048036038101906107329190612c41565b61146e565b005b34801561074557600080fd5b50610760600480360381019061075b9190612c41565b6114f6565b60405161076d919061264f565b60405180910390f35b34801561078257600080fd5b5061078b611502565b60405161079891906132dc565b60405180910390f35b600030905090565b60007fbf26d897000000000000000000000000000000000000000000000000000000007bffffffffffffffffffffffffffffffffffffffffffffffffffffffff1916827bffffffffffffffffffffffffffffffffffffffffffffffffffffffff1916148061081c575061081b82611526565b5b9050919050565b6000600354905090565b60606000805461083c90613326565b80601f016020809104026020016040519081016040528092919081815260200182805461086890613326565b80156108b55780601f1061088a576101008083540402835291602001916108b5565b820191906000526020600020905b81548152906001019060200180831161089857829003601f168201915b5050505050905090565b6000806108ce8686868661121b565b905060006108db82610b12565b9050600460078111156108f1576108f0612d60565b5b81600781111561090457610903612d60565b5b148061093457506005600781111561091f5761091e612d60565b5b81600781111561093257610931612d60565b5b145b610973576040517f08c379a000000000000000000000000000000000000000000000000000000000815260040161096a906133ca565b60405180910390fd5b600180600084815260200190815260200160002060020160006101000a81548160ff0219169083151502179055507f712ae1383f79ac853f8d882153778e0260ef8f03b504e2866e0593e04d2b291f826040516109d0919061264f565b60405180910390a16109e58288888888611590565b8192505050949350505050565b6000610a4f600160008481526020019081526020016000206000016040518060200160405290816000820160009054906101000a900467ffffffffffffffff1667ffffffffffffffff1667ffffffffffffffff168152505061169f565b67ffffffffffffffff169050919050565b6000600660009054906101000a900467ffffffffffffffff16905090565b6000600254905090565b600080610ae9610ae17f150214d74d59b7d1e90c73fc22ef3d991dd0a76b046543d4d80ab92d2a50328f8989604051602001610ac6939291906133f9565b604051602081830303815290604052805190602001206116ad565b8686866116c7565b9050610b06878288604051806020016040528060008152506116f2565b91505095945050505050565b6000806001600084815260200190815260200160002090508060020160009054906101000a900460ff1615610b4b576007915050610c22565b8060020160019054906101000a900460ff1615610b6c576002915050610c22565b6000610b77846109f2565b90506000811415610bbd576040517f08c379a0000000000000000000000000000000000000000000000000000000008152600401610bb49061347c565b60405180910390fd5b438110610bcf57600092505050610c22565b6000610bda85611137565b9050438110610bef5760019350505050610c22565b610bf88561170a565b8015610c095750610c0885611751565b5b15610c1a5760049350505050610c22565b600393505050505b919050565b60006005600084815260200190815260200160002060030160008373ffffffffffffffffffffffffffffffffffffffff1673ffffffffffffffffffffffffffffffffffffffff16815260200190815260200160002060009054906101000a900460ff16905092915050565b600080600080600560008681526020019081526020016000209050806000015481600101548260020154935093509350509193909250565b60606040518060400160405280600181526020017f3100000000000000000000000000000000000000000000000000000000000000815250905090565b600080610d1261177c565b9050610d2f848285604051806020016040528060008152506116f2565b91505092915050565b610d406107a1565b73ffffffffffffffffffffffffffffffffffffffff16610d5e61177c565b73ffffffffffffffffffffffffffffffffffffffff1614610db4576040517f08c379a0000000000000000000000000000000000000000000000000000000008152600401610dab906134e8565b60405180910390fd5b610dbd81611784565b50565b600080610dcb61177c565b9050610e1d86828787878080601f016020809104026020016040519081016040528093929190818152602001838380828437600081840152601f19601f820116905080830192505050505050506116f2565b915050949350505050565b6000610e32611128565b610e4833600143610e439190613537565b6113c8565b1015610e89576040517f08c379a0000000000000000000000000000000000000000000000000000000008152600401610e8090613603565b60405180910390fd5b6000610e9e868686868051906020012061121b565b90508451865114610ee4576040517f08c379a0000000000000000000000000000000000000000000000000000000008152600401610edb90613695565b60405180910390fd5b8351865114610f28576040517f08c379a0000000000000000000000000000000000000000000000000000000008152600401610f1f90613695565b60405180910390fd5b6000865111610f6c576040517f08c379a0000000000000000000000000000000000000000000000000000000008152600401610f6390613701565b60405180910390fd5b6000600160008381526020019081526020016000209050610fcc816000016040518060200160405290816000820160009054906101000a900467ffffffffffffffff1667ffffffffffffffff1667ffffffffffffffff16815250506117c9565b61100b576040517f08c379a000000000000000000000000000000000000000000000000000000000815260040161100290613793565b60405180910390fd5b600061101d611018610a7e565b6117e3565b611026436117e3565b61103091906137b3565b9050600061104461103f610823565b6117e3565b8261104f91906137b3565b9050611067828460000161183a90919063ffffffff16565b61107d818460010161183a90919063ffffffff16565b7f7d84a6263ae0d98d3329bd7b46bb4e8d6f98cd35a7adb45c274c8b7fd5ebd5e0846110a761177c565b8b8b8d5167ffffffffffffffff8111156110c4576110c361272a565b5b6040519080825280602002602001820160405280156110f757816020015b60608152602001906001900390816110e25790505b508c88888e60405161111199989796959493929190613bd0565b60405180910390a183945050505050949350505050565b6000611132611869565b905090565b600061114282611873565b9050919050565b6111516107a1565b73ffffffffffffffffffffffffffffffffffffffff1661116f61177c565b73ffffffffffffffffffffffffffffffffffffffff16146111c5576040517f08c379a00000000000000000000000000000000000000000000000000000000081526004016111bc906134e8565b60405180910390fd5b6112148483838080601f016020809104026020016040519081016040528093929190818152602001838380828437600081840152601f19601f82011690508083019250505050505050856118ef565b5050505050565b6000848484846040516020016112349493929190613c80565b6040516020818303038152906040528051906020012060001c9050949350505050565b61125f6107a1565b73ffffffffffffffffffffffffffffffffffffffff1661127d61177c565b73ffffffffffffffffffffffffffffffffffffffff16146112d3576040517f08c379a00000000000000000000000000000000000000000000000000000000081526004016112ca906134e8565b60405180910390fd5b6112dc8161191e565b50565b60606040518060400160405280602081526020017f737570706f72743d627261766f2671756f72756d3d666f722c6162737461696e815250905090565b7f150214d74d59b7d1e90c73fc22ef3d991dd0a76b046543d4d80ab92d2a50328f81565b6113486107a1565b73ffffffffffffffffffffffffffffffffffffffff1661136661177c565b73ffffffffffffffffffffffffffffffffffffffff16146113bc576040517f08c379a00000000000000000000000000000000000000000000000000000000081526004016113b3906134e8565b60405180910390fd5b6113c581611999565b50565b60007f000000000000000000000000000000000000000000000000000000000000000073ffffffffffffffffffffffffffffffffffffffff16633a46b1a884846040518363ffffffff1660e01b8152600401611425929190613cda565b602060405180830381865afa158015611442573d6000803e3d6000fd5b505050506040513d601f19601f820116820180604052508101906114669190613d18565b905092915050565b6114766107a1565b73ffffffffffffffffffffffffffffffffffffffff1661149461177c565b73ffffffffffffffffffffffffffffffffffffffff16146114ea576040517f08c379a00000000000000000000000000000000000000000000000000000000081526004016114e1906134e8565b60405180910390fd5b6114f381611a21565b50565b60006008549050919050565b7f000000000000000000000000000000000000000000000000000000000000000081565b60007f01ffc9a7000000000000000000000000000000000000000000000000000000007bffffffffffffffffffffffffffffffffffffffffffffffffffffffff1916827bffffffffffffffffffffffffffffffffffffffffffffffffffffffff1916149050919050565b600060405180606001604052806027815260200161462060279139905060005b8551811015611696576000808783815181106115cf576115ce613d45565b5b602002602001015173ffffffffffffffffffffffffffffffffffffffff16878481518110611600576115ff613d45565b5b602002602001015187858151811061161b5761161a613d45565b5b60200260200101516040516116309190613db0565b60006040518083038185875af1925050503d806000811461166d576040519150601f19603f3d011682016040523d82523d6000602084013e611672565b606091505b5091509150611682828286611a66565b5050508061168f90613dc7565b90506115b0565b50505050505050565b600081600001519050919050565b60006116c06116ba611acd565b83611be7565b9050919050565b60008060006116d887878787611c1a565b915091506116e581611d27565b8192505050949350505050565b600061170085858585611efc565b9050949350505050565b600080600560008481526020019081526020016000209050806002015481600101546117369190613e10565b611747611742856109f2565b6114f6565b1115915050919050565b6000806005600084815260200190815260200160002090508060000154816001015411915050919050565b600033905090565b7fc565b045403dc03c2eea82b81a0465edad9e2e7fc4d97e11421c209da93d7a93600254826040516117b7929190613e66565b60405180910390a18060028190555050565b600080826000015167ffffffffffffffff16149050919050565b600067ffffffffffffffff8016821115611832576040517f08c379a000000000000000000000000000000000000000000000000000000000815260040161182990613f01565b60405180910390fd5b819050919050565b808260000160006101000a81548167ffffffffffffffff021916908367ffffffffffffffff1602179055505050565b6000600454905090565b60006118e861188183612014565b6118d9600760008681526020019081526020016000206040518060200160405290816000820160009054906101000a900467ffffffffffffffff1667ffffffffffffffff1667ffffffffffffffff168152505061169f565b67ffffffffffffffff16612082565b9050919050565b60606119158484846040518060600160405280602981526020016146476029913961209c565b90509392505050565b7f7ca4ac117ed3cdce75c1161d8207c440389b1a15d69d096831664657c07dafc2600660009054906101000a900467ffffffffffffffff1682604051611965929190613f21565b60405180910390a180600660006101000a81548167ffffffffffffffff021916908367ffffffffffffffff16021790555050565b600081116119dc576040517f08c379a00000000000000000000000000000000000000000000000000000000081526004016119d390613fbc565b60405180910390fd5b7f7e3f7f0708a84de9203036abaa450dccc85ad5ff52f78c170f3edb55cf5e882860035482604051611a0f929190613e66565b60405180910390a18060038190555050565b7fccb45da8d5717e6c4544694297c4ba5cf151d455c9bb0ed4fc7a38411bc0546160045482604051611a54929190613e66565b60405180910390a18060048190555050565b60608315611a7657829050611ac6565b600083511115611a895782518084602001fd5b816040517f08c379a0000000000000000000000000000000000000000000000000000000008152600401611abd9190612703565b60405180910390fd5b9392505050565b60007f000000000000000000000000000000000000000000000000000000000000000073ffffffffffffffffffffffffffffffffffffffff163073ffffffffffffffffffffffffffffffffffffffff16148015611b4957507f000000000000000000000000000000000000000000000000000000000000000046145b15611b76577f00000000000000000000000000000000000000000000000000000000000000009050611be4565b611be17f00000000000000000000000000000000000000000000000000000000000000007f00000000000000000000000000000000000000000000000000000000000000007f00000000000000000000000000000000000000000000000000000000000000006121b0565b90505b90565b60008282604051602001611bfc929190614054565b60405160208183030381529060405280519060200120905092915050565b6000807f7fffffffffffffffffffffffffffffff5d576e7357a4501ddfe92f46681b20a08360001c1115611c55576000600391509150611d1e565b601b8560ff1614158015611c6d5750601c8560ff1614155b15611c7f576000600491509150611d1e565b600060018787878760405160008152602001604052604051611ca4949392919061408b565b6020604051602081039080840390855afa158015611cc6573d6000803e3d6000fd5b505050602060405103519050600073ffffffffffffffffffffffffffffffffffffffff168173ffffffffffffffffffffffffffffffffffffffff161415611d1557600060019250925050611d1e565b80600092509250505b94509492505050565b60006004811115611d3b57611d3a612d60565b5b816004811115611d4e57611d4d612d60565b5b1415611d5957611ef9565b60016004811115611d6d57611d6c612d60565b5b816004811115611d8057611d7f612d60565b5b1415611dc1576040517f08c379a0000000000000000000000000000000000000000000000000000000008152600401611db89061411c565b60405180910390fd5b60026004811115611dd557611dd4612d60565b5b816004811115611de857611de7612d60565b5b1415611e29576040517f08c379a0000000000000000000000000000000000000000000000000000000008152600401611e2090614188565b60405180910390fd5b60036004811115611e3d57611e3c612d60565b5b816004811115611e5057611e4f612d60565b5b1415611e91576040517f08c379a0000000000000000000000000000000000000000000000000000000008152600401611e889061421a565b60405180910390fd5b600480811115611ea457611ea3612d60565b5b816004811115611eb757611eb6612d60565b5b1415611ef8576040517f08c379a0000000000000000000000000000000000000000000000000000000008152600401611eef906142ac565b60405180910390fd5b5b50565b600080611f0b868686866121ea565b90506000600760008881526020019081526020016000209050611f6a816040518060200160405290816000820160009054906101000a900467ffffffffffffffff1667ffffffffffffffff1667ffffffffffffffff16815250506117c9565b8015611f7b5750611f7a8761170a565b5b15612007576000611f8a610a60565b611f93436117e3565b611f9d91906137b3565b9050611fa888611137565b8167ffffffffffffffff161115611ff257877f541f725fb9f7c98a30cc9c0ff32fbb14358cd7159c847a3aa20a2bdc442ba51182604051611fe99190612c91565b60405180910390a25b612005818361183a90919063ffffffff16565b505b8192505050949350505050565b6000612071600160008481526020019081526020016000206001016040518060200160405290816000820160009054906101000a900467ffffffffffffffff1667ffffffffffffffff1667ffffffffffffffff168152505061169f565b67ffffffffffffffff169050919050565b6000818310156120925781612094565b825b905092915050565b6060824710156120e1576040517f08c379a00000000000000000000000000000000000000000000000000000000081526004016120d89061433e565b60405180910390fd5b6120ea8561233e565b612129576040517f08c379a0000000000000000000000000000000000000000000000000000000008152600401612120906143aa565b60405180910390fd5b6000808673ffffffffffffffffffffffffffffffffffffffff1685876040516121529190613db0565b60006040518083038185875af1925050503d806000811461218f576040519150601f19603f3d011682016040523d82523d6000602084013e612194565b606091505b50915091506121a4828286611a66565b92505050949350505050565b600083838346306040516020016121cb9594939291906143ca565b6040516020818303038152906040528051906020012090509392505050565b6000806001600087815260200190815260200160002090506001600781111561221657612215612d60565b5b61221f87610b12565b600781111561223157612230612d60565b5b14612271576040517f08c379a00000000000000000000000000000000000000000000000000000000081526004016122689061448f565b60405180910390fd5b60006122cf866122c0846000016040518060200160405290816000820160009054906101000a900467ffffffffffffffff1667ffffffffffffffff1667ffffffffffffffff168152505061169f565b67ffffffffffffffff166113c8565b90506122dd87878784612361565b8573ffffffffffffffffffffffffffffffffffffffff167fb8e138887d0aa13bab447e82de9d5c1777041ecd21ca36ba824ff1e6c07ddda48887848860405161232994939291906144af565b60405180910390a28092505050949350505050565b6000808273ffffffffffffffffffffffffffffffffffffffff163b119050919050565b60006005600086815260200190815260200160002090508060030160008573ffffffffffffffffffffffffffffffffffffffff1673ffffffffffffffffffffffffffffffffffffffff16815260200190815260200160002060009054906101000a900460ff1615612407576040517f08c379a00000000000000000000000000000000000000000000000000000000081526004016123fe9061456d565b60405180910390fd5b60018160030160008673ffffffffffffffffffffffffffffffffffffffff1673ffffffffffffffffffffffffffffffffffffffff16815260200190815260200160002060006101000a81548160ff0219169083151502179055506000600281111561247557612474612d60565b5b60ff168360ff1614156124a257818160000160008282546124969190613e10565b92505081905550612560565b600160028111156124b6576124b5612d60565b5b60ff168360ff1614156124e357818160010160008282546124d79190613e10565b9250508190555061255f565b6002808111156124f6576124f5612d60565b5b60ff168360ff16141561252357818160020160008282546125179190613e10565b9250508190555061255e565b6040517f08c379a0000000000000000000000000000000000000000000000000000000008152600401612555906145ff565b60405180910390fd5b5b5b5050505050565b6000604051905090565b600080fd5b600080fd5b60007fffffffff0000000000000000000000000000000000000000000000000000000082169050919050565b6125b08161257b565b81146125bb57600080fd5b50565b6000813590506125cd816125a7565b92915050565b6000602082840312156125e9576125e8612571565b5b60006125f7848285016125be565b91505092915050565b60008115159050919050565b61261581612600565b82525050565b6000602082019050612630600083018461260c565b92915050565b6000819050919050565b61264981612636565b82525050565b60006020820190506126646000830184612640565b92915050565b600081519050919050565b600082825260208201905092915050565b60005b838110156126a4578082015181840152602081019050612689565b838111156126b3576000848401525b50505050565b6000601f19601f8301169050919050565b60006126d58261266a565b6126df8185612675565b93506126ef818560208601612686565b6126f8816126b9565b840191505092915050565b6000602082019050818103600083015261271d81846126ca565b905092915050565b600080fd5b7f4e487b7100000000000000000000000000000000000000000000000000000000600052604160045260246000fd5b612762826126b9565b810181811067ffffffffffffffff821117156127815761278061272a565b5b80604052505050565b6000612794612567565b90506127a08282612759565b919050565b600067ffffffffffffffff8211156127c0576127bf61272a565b5b602082029050602081019050919050565b600080fd5b600073ffffffffffffffffffffffffffffffffffffffff82169050919050565b6000612801826127d6565b9050919050565b612811816127f6565b811461281c57600080fd5b50565b60008135905061282e81612808565b92915050565b6000612847612842846127a5565b61278a565b9050808382526020820190506020840283018581111561286a576128696127d1565b5b835b81811015612893578061287f888261281f565b84526020840193505060208101905061286c565b5050509392505050565b600082601f8301126128b2576128b1612725565b5b81356128c2848260208601612834565b91505092915050565b600067ffffffffffffffff8211156128e6576128e561272a565b5b602082029050602081019050919050565b61290081612636565b811461290b57600080fd5b50565b60008135905061291d816128f7565b92915050565b6000612936612931846128cb565b61278a565b90508083825260208201905060208402830185811115612959576129586127d1565b5b835b81811015612982578061296e888261290e565b84526020840193505060208101905061295b565b5050509392505050565b600082601f8301126129a1576129a0612725565b5b81356129b1848260208601612923565b91505092915050565b600067ffffffffffffffff8211156129d5576129d461272a565b5b602082029050602081019050919050565b600080fd5b600067ffffffffffffffff821115612a0657612a0561272a565b5b612a0f826126b9565b9050602081019050919050565b82818337600083830152505050565b6000612a3e612a39846129eb565b61278a565b905082815260208101848484011115612a5a57612a596129e6565b5b612a65848285612a1c565b509392505050565b600082601f830112612a8257612a81612725565b5b8135612a92848260208601612a2b565b91505092915050565b6000612aae612aa9846129ba565b61278a565b90508083825260208201905060208402830185811115612ad157612ad06127d1565b5b835b81811015612b1857803567ffffffffffffffff811115612af657612af5612725565b5b808601612b038982612a6d565b85526020850194505050602081019050612ad3565b5050509392505050565b600082601f830112612b3757612b36612725565b5b8135612b47848260208601612a9b565b91505092915050565b6000819050919050565b612b6381612b50565b8114612b6e57600080fd5b50565b600081359050612b8081612b5a565b92915050565b60008060008060808587031215612ba057612b9f612571565b5b600085013567ffffffffffffffff811115612bbe57612bbd612576565b5b612bca8782880161289d565b945050602085013567ffffffffffffffff811115612beb57612bea612576565b5b612bf78782880161298c565b935050604085013567ffffffffffffffff811115612c1857612c17612576565b5b612c2487828801612b22565b9250506060612c3587828801612b71565b91505092959194509250565b600060208284031215612c5757612c56612571565b5b6000612c658482850161290e565b91505092915050565b600067ffffffffffffffff82169050919050565b612c8b81612c6e565b82525050565b6000602082019050612ca66000830184612c82565b92915050565b600060ff82169050919050565b612cc281612cac565b8114612ccd57600080fd5b50565b600081359050612cdf81612cb9565b92915050565b600080600080600060a08688031215612d0157612d00612571565b5b6000612d0f8882890161290e565b9550506020612d2088828901612cd0565b9450506040612d3188828901612cd0565b9350506060612d4288828901612b71565b9250506080612d5388828901612b71565b9150509295509295909350565b7f4e487b7100000000000000000000000000000000000000000000000000000000600052602160045260246000fd5b60088110612da057612d9f612d60565b5b50565b6000819050612db182612d8f565b919050565b6000612dc182612da3565b9050919050565b612dd181612db6565b82525050565b6000602082019050612dec6000830184612dc8565b92915050565b60008060408385031215612e0957612e08612571565b5b6000612e178582860161290e565b9250506020612e288582860161281f565b9150509250929050565b6000606082019050612e476000830186612640565b612e546020830185612640565b612e616040830184612640565b949350505050565b60008060408385031215612e8057612e7f612571565b5b6000612e8e8582860161290e565b9250506020612e9f85828601612cd0565b9150509250929050565b600080fd5b60008083601f840112612ec457612ec3612725565b5b8235905067ffffffffffffffff811115612ee157612ee0612ea9565b5b602083019150836001820283011115612efd57612efc6127d1565b5b9250929050565b60008060008060608587031215612f1e57612f1d612571565b5b6000612f2c8782880161290e565b9450506020612f3d87828801612cd0565b935050604085013567ffffffffffffffff811115612f5e57612f5d612576565b5b612f6a87828801612eae565b925092505092959194509250565b600067ffffffffffffffff821115612f9357612f9261272a565b5b612f9c826126b9565b9050602081019050919050565b6000612fbc612fb784612f78565b61278a565b905082815260208101848484011115612fd857612fd76129e6565b5b612fe3848285612a1c565b509392505050565b600082601f83011261300057612fff612725565b5b8135613010848260208601612fa9565b91505092915050565b6000806000806080858703121561303357613032612571565b5b600085013567ffffffffffffffff81111561305157613050612576565b5b61305d8782880161289d565b945050602085013567ffffffffffffffff81111561307e5761307d612576565b5b61308a8782880161298c565b935050604085013567ffffffffffffffff8111156130ab576130aa612576565b5b6130b787828801612b22565b925050606085013567ffffffffffffffff8111156130d8576130d7612576565b5b6130e487828801612feb565b91505092959194509250565b60008083601f84011261310657613105612725565b5b8235905067ffffffffffffffff81111561312357613122612ea9565b5b60208301915083600182028301111561313f5761313e6127d1565b5b9250929050565b600080600080606085870312156131605761315f612571565b5b600061316e8782880161281f565b945050602061317f8782880161290e565b935050604085013567ffffffffffffffff8111156131a05761319f612576565b5b6131ac878288016130f0565b925092505092959194509250565b6131c381612c6e565b81146131ce57600080fd5b50565b6000813590506131e0816131ba565b92915050565b6000602082840312156131fc576131fb612571565b5b600061320a848285016131d1565b91505092915050565b61321c81612b50565b82525050565b60006020820190506132376000830184613213565b92915050565b6000806040838503121561325457613253612571565b5b60006132628582860161281f565b92505060206132738582860161290e565b9150509250929050565b6000819050919050565b60006132a261329d613298846127d6565b61327d565b6127d6565b9050919050565b60006132b482613287565b9050919050565b60006132c6826132a9565b9050919050565b6132d6816132bb565b82525050565b60006020820190506132f160008301846132cd565b92915050565b7f4e487b7100000000000000000000000000000000000000000000000000000000600052602260045260246000fd5b6000600282049050600182168061333e57607f821691505b60208210811415613352576133516132f7565b5b50919050565b7f476f7665726e6f723a2070726f706f73616c206e6f742073756363657373667560008201527f6c00000000000000000000000000000000000000000000000000000000000000602082015250565b60006133b4602183612675565b91506133bf82613358565b604082019050919050565b600060208201905081810360008301526133e3816133a7565b9050919050565b6133f381612cac565b82525050565b600060608201905061340e6000830186613213565b61341b6020830185612640565b61342860408301846133ea565b949350505050565b7f476f7665726e6f723a20756e6b6e6f776e2070726f706f73616c206964000000600082015250565b6000613466601d83612675565b915061347182613430565b602082019050919050565b6000602082019050818103600083015261349581613459565b9050919050565b7f476f7665726e6f723a206f6e6c79476f7665726e616e63650000000000000000600082015250565b60006134d2601883612675565b91506134dd8261349c565b602082019050919050565b60006020820190508181036000830152613501816134c5565b9050919050565b7f4e487b7100000000000000000000000000000000000000000000000000000000600052601160045260246000fd5b600061354282612636565b915061354d83612636565b9250828210156135605761355f613508565b5b828203905092915050565b7f476f7665726e6f72436f6d7061746962696c697479427261766f3a2070726f7060008201527f6f73657220766f7465732062656c6f772070726f706f73616c2074687265736860208201527f6f6c640000000000000000000000000000000000000000000000000000000000604082015250565b60006135ed604383612675565b91506135f88261356b565b606082019050919050565b6000602082019050818103600083015261361c816135e0565b9050919050565b7f476f7665726e6f723a20696e76616c69642070726f706f73616c206c656e677460008201527f6800000000000000000000000000000000000000000000000000000000000000602082015250565b600061367f602183612675565b915061368a82613623565b604082019050919050565b600060208201905081810360008301526136ae81613672565b9050919050565b7f476f7665726e6f723a20656d7074792070726f706f73616c0000000000000000600082015250565b60006136eb601883612675565b91506136f6826136b5565b602082019050919050565b6000602082019050818103600083015261371a816136de565b9050919050565b7f476f7665726e6f723a2070726f706f73616c20616c726561647920657869737460008201527f7300000000000000000000000000000000000000000000000000000000000000602082015250565b600061377d602183612675565b915061378882613721565b604082019050919050565b600060208201905081810360008301526137ac81613770565b9050919050565b60006137be82612c6e565b91506137c983612c6e565b92508267ffffffffffffffff038211156137e6576137e5613508565b5b828201905092915050565b6137fa816127f6565b82525050565b600081519050919050565b600082825260208201905092915050565b6000819050602082019050919050565b613835816127f6565b82525050565b6000613847838361382c565b60208301905092915050565b6000602082019050919050565b600061386b82613800565b613875818561380b565b93506138808361381c565b8060005b838110156138b1578151613898888261383b565b97506138a383613853565b925050600181019050613884565b5085935050505092915050565b600081519050919050565b600082825260208201905092915050565b6000819050602082019050919050565b6138f381612636565b82525050565b600061390583836138ea565b60208301905092915050565b6000602082019050919050565b6000613929826138be565b61393381856138c9565b935061393e836138da565b8060005b8381101561396f57815161395688826138f9565b975061396183613911565b925050600181019050613942565b5085935050505092915050565b600081519050919050565b600082825260208201905092915050565b6000819050602082019050919050565b600082825260208201905092915050565b60006139c48261266a565b6139ce81856139a8565b93506139de818560208601612686565b6139e7816126b9565b840191505092915050565b60006139fe83836139b9565b905092915050565b6000602082019050919050565b6000613a1e8261397c565b613a288185613987565b935083602082028501613a3a85613998565b8060005b85811015613a765784840389528151613a5785826139f2565b9450613a6283613a06565b925060208a01995050600181019050613a3e565b50829750879550505050505092915050565b600081519050919050565b600082825260208201905092915050565b6000819050602082019050919050565b600081519050919050565b600082825260208201905092915050565b6000613adb82613ab4565b613ae58185613abf565b9350613af5818560208601612686565b613afe816126b9565b840191505092915050565b6000613b158383613ad0565b905092915050565b6000602082019050919050565b6000613b3582613a88565b613b3f8185613a93565b935083602082028501613b5185613aa4565b8060005b85811015613b8d5784840389528151613b6e8582613b09565b9450613b7983613b1d565b925060208a01995050600181019050613b55565b50829750879550505050505092915050565b6000613bba613bb5613bb084612c6e565b61327d565b612636565b9050919050565b613bca81613b9f565b82525050565b600061012082019050613be6600083018c612640565b613bf3602083018b6137f1565b8181036040830152613c05818a613860565b90508181036060830152613c19818961391e565b90508181036080830152613c2d8188613a13565b905081810360a0830152613c418187613b2a565b9050613c5060c0830186613bc1565b613c5d60e0830185613bc1565b818103610100830152613c7081846126ca565b90509a9950505050505050505050565b60006080820190508181036000830152613c9a8187613860565b90508181036020830152613cae818661391e565b90508181036040830152613cc28185613b2a565b9050613cd16060830184613213565b95945050505050565b6000604082019050613cef60008301856137f1565b613cfc6020830184612640565b9392505050565b600081519050613d12816128f7565b92915050565b600060208284031215613d2e57613d2d612571565b5b6000613d3c84828501613d03565b91505092915050565b7f4e487b7100000000000000000000000000000000000000000000000000000000600052603260045260246000fd5b600081905092915050565b6000613d8a82613ab4565b613d948185613d74565b9350613da4818560208601612686565b80840191505092915050565b6000613dbc8284613d7f565b915081905092915050565b6000613dd282612636565b91507fffffffffffffffffffffffffffffffffffffffffffffffffffffffffffffffff821415613e0557613e04613508565b5b600182019050919050565b6000613e1b82612636565b9150613e2683612636565b9250827fffffffffffffffffffffffffffffffffffffffffffffffffffffffffffffffff03821115613e5b57613e5a613508565b5b828201905092915050565b6000604082019050613e7b6000830185612640565b613e886020830184612640565b9392505050565b7f53616665436173743a2076616c756520646f65736e27742066697420696e203660008201527f3420626974730000000000000000000000000000000000000000000000000000602082015250565b6000613eeb602683612675565b9150613ef682613e8f565b604082019050919050565b60006020820190508181036000830152613f1a81613ede565b9050919050565b6000604082019050613f366000830185612c82565b613f436020830184612c82565b9392505050565b7f476f7665726e6f7253657474696e67733a20766f74696e6720706572696f642060008201527f746f6f206c6f7700000000000000000000000000000000000000000000000000602082015250565b6000613fa6602783612675565b9150613fb182613f4a565b604082019050919050565b60006020820190508181036000830152613fd581613f99565b9050919050565b600081905092915050565b7f1901000000000000000000000000000000000000000000000000000000000000600082015250565b600061401d600283613fdc565b915061402882613fe7565b600282019050919050565b6000819050919050565b61404e61404982612b50565b614033565b82525050565b600061405f82614010565b915061406b828561403d565b60208201915061407b828461403d565b6020820191508190509392505050565b60006080820190506140a06000830187613213565b6140ad60208301866133ea565b6140ba6040830185613213565b6140c76060830184613213565b95945050505050565b7f45434453413a20696e76616c6964207369676e61747572650000000000000000600082015250565b6000614106601883612675565b9150614111826140d0565b602082019050919050565b60006020820190508181036000830152614135816140f9565b9050919050565b7f45434453413a20696e76616c6964207369676e6174757265206c656e67746800600082015250565b6000614172601f83612675565b915061417d8261413c565b602082019050919050565b600060208201905081810360008301526141a181614165565b9050919050565b7f45434453413a20696e76616c6964207369676e6174757265202773272076616c60008201527f7565000000000000000000000000000000000000000000000000000000000000602082015250565b6000614204602283612675565b915061420f826141a8565b604082019050919050565b60006020820190508181036000830152614233816141f7565b9050919050565b7f45434453413a20696e76616c6964207369676e6174757265202776272076616c60008201527f7565000000000000000000000000000000000000000000000000000000000000602082015250565b6000614296602283612675565b91506142a18261423a565b604082019050919050565b600060208201905081810360008301526142c581614289565b9050919050565b7f416464726573733a20696e73756666696369656e742062616c616e636520666f60008201527f722063616c6c0000000000000000000000000000000000000000000000000000602082015250565b6000614328602683612675565b9150614333826142cc565b604082019050919050565b600060208201905081810360008301526143578161431b565b9050919050565b7f416464726573733a2063616c6c20746f206e6f6e2d636f6e7472616374000000600082015250565b6000614394601d83612675565b915061439f8261435e565b602082019050919050565b600060208201905081810360008301526143c381614387565b9050919050565b600060a0820190506143df6000830188613213565b6143ec6020830187613213565b6143f96040830186613213565b6144066060830185612640565b61441360808301846137f1565b9695505050505050565b7f476f7665726e6f723a20766f7465206e6f742063757272656e746c792061637460008201527f6976650000000000000000000000000000000000000000000000000000000000602082015250565b6000614479602383612675565b91506144848261441d565b604082019050919050565b600060208201905081810360008301526144a88161446c565b9050919050565b60006080820190506144c46000830187612640565b6144d160208301866133ea565b6144de6040830185612640565b81810360608301526144f081846126ca565b905095945050505050565b7f476f7665726e6f72566f74696e6753696d706c653a20766f746520616c72656160008201527f6479206361737400000000000000000000000000000000000000000000000000602082015250565b6000614557602783612675565b9150614562826144fb565b604082019050919050565b600060208201905081810360008301526145868161454a565b9050919050565b7f476f7665726e6f72566f74696e6753696d706c653a20696e76616c696420766160008201527f6c756520666f7220656e756d20566f7465547970650000000000000000000000602082015250565b60006145e9603583612675565b91506145f48261458d565b604082019050919050565b60006020820190508181036000830152614618816145dc565b905091905056fe476f7665726e6f723a2063616c6c20726576657274656420776974686f7574206d657373616765416464726573733a206c6f772d6c6576656c2063616c6c20776974682076616c7565206661696c6564a2646970667358221220921d131c23e5afebbf37be34f15984c7b498fafd8acfcf2b7a6a4ff04dc3e8df64736f6c634300080b0033",
  "immutableReferences": {
    "5772": [
      {
        "length": 32,
        "start": 5068
      },
      {
        "length": 32,
        "start": 5380
      }
    ],
    "28224": [
      {
        "length": 32,
        "start": 6992
      }
    ],
    "28226": [
      {
        "length": 32,
        "start": 6951
      }
    ],
    "28228": [
      {
        "length": 32,
        "start": 6865
      }
    ],
    "28230": [
      {
        "length": 32,
        "start": 7068
      }
    ],
    "28232": [
      {
        "length": 32,
        "start": 7101
      }
    ],
    "28234": [
      {
        "length": 32,
        "start": 7035
      }
    ]
  },
  "source": "// SPDX-License-Identifier: MIT\r\n\r\npragma solidity ^0.8.0;\r\n\r\nimport \"../governance/extensions/GovernorPreventLateQuorum.sol\";\r\nimport \"../governance/extensions/GovernorSettings.sol\";\r\nimport \"../governance/extensions/GovernorCountingSimple.sol\";\r\nimport \"../governance/extensions/GovernorVotes.sol\";\r\n\r\ncontract GovernorPreventLateQuorumMock is\r\n    GovernorSettings,\r\n    GovernorVotes,\r\n    GovernorCountingSimple,\r\n    GovernorPreventLateQuorum\r\n{\r\n    uint256 private _quorum;\r\n\r\n    constructor(\r\n        string memory name_,\r\n        IVotes token_,\r\n        uint256 votingDelay_,\r\n        uint256 votingPeriod_,\r\n        uint256 quorum_,\r\n        uint64 voteExtension_\r\n    )\r\n        Governor(name_)\r\n        GovernorSettings(votingDelay_, votingPeriod_, 0)\r\n        GovernorVotes(token_)\r\n        GovernorPreventLateQuorum(voteExtension_)\r\n    {\r\n        _quorum = quorum_;\r\n    }\r\n\r\n    function quorum(uint256) public view virtual override returns (uint256) {\r\n        return _quorum;\r\n    }\r\n\r\n    function proposalDeadline(uint256 proposalId)\r\n        public\r\n        view\r\n        virtual\r\n        override(Governor, GovernorPreventLateQuorum)\r\n        returns (uint256)\r\n    {\r\n        return super.proposalDeadline(proposalId);\r\n    }\r\n\r\n    function proposalThreshold() public view virtual override(Governor, GovernorSettings) returns (uint256) {\r\n        return super.proposalThreshold();\r\n    }\r\n\r\n    function _castVote(\r\n        uint256 proposalId,\r\n        address account,\r\n        uint8 support,\r\n        string memory reason\r\n    ) internal virtual override(Governor, GovernorPreventLateQuorum) returns (uint256) {\r\n        return super._castVote(proposalId, account, support, reason);\r\n    }\r\n}\r\n",
  "sourcePath": "C:\\Users\\Alexandr\\dev\\nft-sim\\contract\\contracts\\mocks\\GovernorPreventLateQuorumMock.sol",
  "compiler": {
    "name": "solc",
    "version": "0.8.11+commit.d7f03943.Emscripten.clang"
  },
  "schemaVersion": "3.4.4",
  "updatedAt": "2022-02-17T10:48:57.187Z",
  "devdoc": {
    "kind": "dev",
    "methods": {
      "COUNTING_MODE()": {
        "details": "See {IGovernor-COUNTING_MODE}."
      },
      "castVote(uint256,uint8)": {
        "details": "See {IGovernor-castVote}."
      },
      "castVoteBySig(uint256,uint8,uint8,bytes32,bytes32)": {
        "details": "See {IGovernor-castVoteBySig}."
      },
      "castVoteWithReason(uint256,uint8,string)": {
        "details": "See {IGovernor-castVoteWithReason}."
      },
      "execute(address[],uint256[],bytes[],bytes32)": {
        "details": "See {IGovernor-execute}."
      },
      "hasVoted(uint256,address)": {
        "details": "See {IGovernor-hasVoted}."
      },
      "hashProposal(address[],uint256[],bytes[],bytes32)": {
        "details": "See {IGovernor-hashProposal}. The proposal id is produced by hashing the RLC encoded `targets` array, the `values` array, the `calldatas` array and the descriptionHash (bytes32 which itself is the keccak256 hash of the description string). This proposal id can be produced from the proposal data which is part of the {ProposalCreated} event. It can even be computed in advance, before the proposal is submitted. Note that the chainId and the governor address are not part of the proposal id computation. Consequently, the same proposal (with same operation and same description) will have the same id if submitted on multiple governors accross multiple networks. This also means that in order to execute the same operation twice (on the same governor) the proposer will have to change the description in order to avoid proposal id conflicts."
      },
      "lateQuorumVoteExtension()": {
        "details": "Returns the current value of the vote extension parameter: the number of blocks that are required to pass from the time a proposal reaches quorum until its voting period ends."
      },
      "name()": {
        "details": "See {IGovernor-name}."
      },
      "proposalSnapshot(uint256)": {
        "details": "See {IGovernor-proposalSnapshot}."
      },
      "proposalVotes(uint256)": {
        "details": "Accessor to the internal vote counts."
      },
      "propose(address[],uint256[],bytes[],string)": {
        "details": "See {IGovernor-propose}."
      },
      "relay(address,uint256,bytes)": {
        "details": "Relays a transaction or function call to an arbitrary target. In cases where the governance executor is some contract other than the governor itself, like when using a timelock, this function can be invoked in a governance proposal to recover tokens or Ether that was sent to the governor contract by mistake. Note that if the executor is simply the governor itself, use of `relay` is redundant."
      },
      "setLateQuorumVoteExtension(uint64)": {
        "details": "Changes the {lateQuorumVoteExtension}. This operation can only be performed by the governance executor, generally through a governance proposal. Emits a {LateQuorumVoteExtensionSet} event."
      },
      "setProposalThreshold(uint256)": {
        "details": "Update the proposal threshold. This operation can only be performed through a governance proposal. Emits a {ProposalThresholdSet} event."
      },
      "setVotingDelay(uint256)": {
        "details": "Update the voting delay. This operation can only be performed through a governance proposal. Emits a {VotingDelaySet} event."
      },
      "setVotingPeriod(uint256)": {
        "details": "Update the voting period. This operation can only be performed through a governance proposal. Emits a {VotingPeriodSet} event."
      },
      "state(uint256)": {
        "details": "See {IGovernor-state}."
      },
      "supportsInterface(bytes4)": {
        "details": "See {IERC165-supportsInterface}."
      },
      "version()": {
        "details": "See {IGovernor-version}."
      },
      "votingDelay()": {
        "details": "See {IGovernor-votingDelay}."
      },
      "votingPeriod()": {
        "details": "See {IGovernor-votingPeriod}."
      }
    },
    "version": 1
  },
  "userdoc": {
    "kind": "user",
    "methods": {
      "getVotes(address,uint256)": {
        "notice": "Read the voting weight from the token's built in snapshot mechanism (see {IGovernor-getVotes})."
      }
    },
    "version": 1
  }
}