{
  "contractName": "GovernorVoteMocks",
  "abi": [
    {
      "inputs": [
        {
          "internalType": "string",
          "name": "name_",
          "type": "string"
        },
        {
          "internalType": "contract IVotes",
          "name": "token_",
          "type": "address"
        }
      ],
      "stateMutability": "nonpayable",
      "type": "constructor"
    },
    {
      "anonymous": false,
      "inputs": [
        {
          "indexed": false,
          "internalType": "uint256",
          "name": "proposalId",
          "type": "uint256"
        }
      ],
      "name": "ProposalCanceled",
      "type": "event"
    },
    {
      "anonymous": false,
      "inputs": [
        {
          "indexed": false,
          "internalType": "uint256",
          "name": "proposalId",
          "type": "uint256"
        },
        {
          "indexed": false,
          "internalType": "address",
          "name": "proposer",
          "type": "address"
        },
        {
          "indexed": false,
          "internalType": "address[]",
          "name": "targets",
          "type": "address[]"
        },
        {
          "indexed": false,
          "internalType": "uint256[]",
          "name": "values",
          "type": "uint256[]"
        },
        {
          "indexed": false,
          "internalType": "string[]",
          "name": "signatures",
          "type": "string[]"
        },
        {
          "indexed": false,
          "internalType": "bytes[]",
          "name": "calldatas",
          "type": "bytes[]"
        },
        {
          "indexed": false,
          "internalType": "uint256",
          "name": "startBlock",
          "type": "uint256"
        },
        {
          "indexed": false,
          "internalType": "uint256",
          "name": "endBlock",
          "type": "uint256"
        },
        {
          "indexed": false,
          "internalType": "string",
          "name": "description",
          "type": "string"
        }
      ],
      "name": "ProposalCreated",
      "type": "event"
    },
    {
      "anonymous": false,
      "inputs": [
        {
          "indexed": false,
          "internalType": "uint256",
          "name": "proposalId",
          "type": "uint256"
        }
      ],
      "name": "ProposalExecuted",
      "type": "event"
    },
    {
      "anonymous": false,
      "inputs": [
        {
          "indexed": true,
          "internalType": "address",
          "name": "voter",
          "type": "address"
        },
        {
          "indexed": false,
          "internalType": "uint256",
          "name": "proposalId",
          "type": "uint256"
        },
        {
          "indexed": false,
          "internalType": "uint8",
          "name": "support",
          "type": "uint8"
        },
        {
          "indexed": false,
          "internalType": "uint256",
          "name": "weight",
          "type": "uint256"
        },
        {
          "indexed": false,
          "internalType": "string",
          "name": "reason",
          "type": "string"
        }
      ],
      "name": "VoteCast",
      "type": "event"
    },
    {
      "inputs": [],
      "name": "BALLOT_TYPEHASH",
      "outputs": [
        {
          "internalType": "bytes32",
          "name": "",
          "type": "bytes32"
        }
      ],
      "stateMutability": "view",
      "type": "function"
    },
    {
      "inputs": [],
      "name": "COUNTING_MODE",
      "outputs": [
        {
          "internalType": "string",
          "name": "",
          "type": "string"
        }
      ],
      "stateMutability": "pure",
      "type": "function"
    },
    {
      "inputs": [
        {
          "internalType": "uint256",
          "name": "proposalId",
          "type": "uint256"
        },
        {
          "internalType": "uint8",
          "name": "support",
          "type": "uint8"
        }
      ],
      "name": "castVote",
      "outputs": [
        {
          "internalType": "uint256",
          "name": "",
          "type": "uint256"
        }
      ],
      "stateMutability": "nonpayable",
      "type": "function"
    },
    {
      "inputs": [
        {
          "internalType": "uint256",
          "name": "proposalId",
          "type": "uint256"
        },
        {
          "internalType": "uint8",
          "name": "support",
          "type": "uint8"
        },
        {
          "internalType": "uint8",
          "name": "v",
          "type": "uint8"
        },
        {
          "internalType": "bytes32",
          "name": "r",
          "type": "bytes32"
        },
        {
          "internalType": "bytes32",
          "name": "s",
          "type": "bytes32"
        }
      ],
      "name": "castVoteBySig",
      "outputs": [
        {
          "internalType": "uint256",
          "name": "",
          "type": "uint256"
        }
      ],
      "stateMutability": "nonpayable",
      "type": "function"
    },
    {
      "inputs": [
        {
          "internalType": "uint256",
          "name": "proposalId",
          "type": "uint256"
        },
        {
          "internalType": "uint8",
          "name": "support",
          "type": "uint8"
        },
        {
          "internalType": "string",
          "name": "reason",
          "type": "string"
        }
      ],
      "name": "castVoteWithReason",
      "outputs": [
        {
          "internalType": "uint256",
          "name": "",
          "type": "uint256"
        }
      ],
      "stateMutability": "nonpayable",
      "type": "function"
    },
    {
      "inputs": [
        {
          "internalType": "address[]",
          "name": "targets",
          "type": "address[]"
        },
        {
          "internalType": "uint256[]",
          "name": "values",
          "type": "uint256[]"
        },
        {
          "internalType": "bytes[]",
          "name": "calldatas",
          "type": "bytes[]"
        },
        {
          "internalType": "bytes32",
          "name": "descriptionHash",
          "type": "bytes32"
        }
      ],
      "name": "execute",
      "outputs": [
        {
          "internalType": "uint256",
          "name": "",
          "type": "uint256"
        }
      ],
      "stateMutability": "payable",
      "type": "function"
    },
    {
      "inputs": [
        {
          "internalType": "uint256",
          "name": "proposalId",
          "type": "uint256"
        },
        {
          "internalType": "address",
          "name": "account",
          "type": "address"
        }
      ],
      "name": "hasVoted",
      "outputs": [
        {
          "internalType": "bool",
          "name": "",
          "type": "bool"
        }
      ],
      "stateMutability": "view",
      "type": "function"
    },
    {
      "inputs": [
        {
          "internalType": "address[]",
          "name": "targets",
          "type": "address[]"
        },
        {
          "internalType": "uint256[]",
          "name": "values",
          "type": "uint256[]"
        },
        {
          "internalType": "bytes[]",
          "name": "calldatas",
          "type": "bytes[]"
        },
        {
          "internalType": "bytes32",
          "name": "descriptionHash",
          "type": "bytes32"
        }
      ],
      "name": "hashProposal",
      "outputs": [
        {
          "internalType": "uint256",
          "name": "",
          "type": "uint256"
        }
      ],
      "stateMutability": "pure",
      "type": "function"
    },
    {
      "inputs": [],
      "name": "name",
      "outputs": [
        {
          "internalType": "string",
          "name": "",
          "type": "string"
        }
      ],
      "stateMutability": "view",
      "type": "function"
    },
    {
      "inputs": [
        {
          "internalType": "uint256",
          "name": "proposalId",
          "type": "uint256"
        }
      ],
      "name": "proposalDeadline",
      "outputs": [
        {
          "internalType": "uint256",
          "name": "",
          "type": "uint256"
        }
      ],
      "stateMutability": "view",
      "type": "function"
    },
    {
      "inputs": [
        {
          "internalType": "uint256",
          "name": "proposalId",
          "type": "uint256"
        }
      ],
      "name": "proposalSnapshot",
      "outputs": [
        {
          "internalType": "uint256",
          "name": "",
          "type": "uint256"
        }
      ],
      "stateMutability": "view",
      "type": "function"
    },
    {
      "inputs": [],
      "name": "proposalThreshold",
      "outputs": [
        {
          "internalType": "uint256",
          "name": "",
          "type": "uint256"
        }
      ],
      "stateMutability": "view",
      "type": "function"
    },
    {
      "inputs": [
        {
          "internalType": "uint256",
          "name": "proposalId",
          "type": "uint256"
        }
      ],
      "name": "proposalVotes",
      "outputs": [
        {
          "internalType": "uint256",
          "name": "againstVotes",
          "type": "uint256"
        },
        {
          "internalType": "uint256",
          "name": "forVotes",
          "type": "uint256"
        },
        {
          "internalType": "uint256",
          "name": "abstainVotes",
          "type": "uint256"
        }
      ],
      "stateMutability": "view",
      "type": "function"
    },
    {
      "inputs": [
        {
          "internalType": "address[]",
          "name": "targets",
          "type": "address[]"
        },
        {
          "internalType": "uint256[]",
          "name": "values",
          "type": "uint256[]"
        },
        {
          "internalType": "bytes[]",
          "name": "calldatas",
          "type": "bytes[]"
        },
        {
          "internalType": "string",
          "name": "description",
          "type": "string"
        }
      ],
      "name": "propose",
      "outputs": [
        {
          "internalType": "uint256",
          "name": "",
          "type": "uint256"
        }
      ],
      "stateMutability": "nonpayable",
      "type": "function"
    },
    {
      "inputs": [
        {
          "internalType": "address",
          "name": "target",
          "type": "address"
        },
        {
          "internalType": "uint256",
          "name": "value",
          "type": "uint256"
        },
        {
          "internalType": "bytes",
          "name": "data",
          "type": "bytes"
        }
      ],
      "name": "relay",
      "outputs": [],
      "stateMutability": "nonpayable",
      "type": "function"
    },
    {
      "inputs": [
        {
          "internalType": "uint256",
          "name": "proposalId",
          "type": "uint256"
        }
      ],
      "name": "state",
      "outputs": [
        {
          "internalType": "enum IGovernor.ProposalState",
          "name": "",
          "type": "uint8"
        }
      ],
      "stateMutability": "view",
      "type": "function"
    },
    {
      "inputs": [
        {
          "internalType": "bytes4",
          "name": "interfaceId",
          "type": "bytes4"
        }
      ],
      "name": "supportsInterface",
      "outputs": [
        {
          "internalType": "bool",
          "name": "",
          "type": "bool"
        }
      ],
      "stateMutability": "view",
      "type": "function"
    },
    {
      "inputs": [],
      "name": "token",
      "outputs": [
        {
          "internalType": "contract IVotes",
          "name": "",
          "type": "address"
        }
      ],
      "stateMutability": "view",
      "type": "function"
    },
    {
      "inputs": [],
      "name": "version",
      "outputs": [
        {
          "internalType": "string",
          "name": "",
          "type": "string"
        }
      ],
      "stateMutability": "view",
      "type": "function"
    },
    {
      "stateMutability": "payable",
      "type": "receive"
    },
    {
      "inputs": [
        {
          "internalType": "uint256",
          "name": "",
          "type": "uint256"
        }
      ],
      "name": "quorum",
      "outputs": [
        {
          "internalType": "uint256",
          "name": "",
          "type": "uint256"
        }
      ],
      "stateMutability": "pure",
      "type": "function"
    },
    {
      "inputs": [],
      "name": "votingDelay",
      "outputs": [
        {
          "internalType": "uint256",
          "name": "",
          "type": "uint256"
        }
      ],
      "stateMutability": "pure",
      "type": "function"
    },
    {
      "inputs": [],
      "name": "votingPeriod",
      "outputs": [
        {
          "internalType": "uint256",
          "name": "",
          "type": "uint256"
        }
      ],
      "stateMutability": "pure",
      "type": "function"
    },
    {
      "inputs": [
        {
          "internalType": "address[]",
          "name": "targets",
          "type": "address[]"
        },
        {
          "internalType": "uint256[]",
          "name": "values",
          "type": "uint256[]"
        },
        {
          "internalType": "bytes[]",
          "name": "calldatas",
          "type": "bytes[]"
        },
        {
          "internalType": "bytes32",
          "name": "salt",
          "type": "bytes32"
        }
      ],
      "name": "cancel",
      "outputs": [
        {
          "internalType": "uint256",
          "name": "proposalId",
          "type": "uint256"
        }
      ],
      "stateMutability": "nonpayable",
      "type": "function"
    },
    {
      "inputs": [
        {
          "internalType": "address",
          "name": "account",
          "type": "address"
        },
        {
          "internalType": "uint256",
          "name": "blockNumber",
          "type": "uint256"
        }
      ],
      "name": "getVotes",
      "outputs": [
        {
          "internalType": "uint256",
          "name": "",
          "type": "uint256"
        }
      ],
      "stateMutability": "view",
      "type": "function"
    }
  ],
  "bytecode": "0x6101606040523480156200001257600080fd5b50604051620046d8380380620046d8833981810160405281019062000038919062000494565b8082806200004b6200015560201b60201c565b60008280519060200120905060008280519060200120905060007f8b73c3c69bb8fe3d512ecc4cf759cc79239f7b179b0ffacaa9a75d522b39400f90508260e081815250508161010081815250504660a08181525050620000b48184846200019260201b60201c565b608081815250503073ffffffffffffffffffffffffffffffffffffffff1660c08173ffffffffffffffffffffffffffffffffffffffff16815250508061012081815250505050505050806000908051906020019062000115929190620001ce565b50508073ffffffffffffffffffffffffffffffffffffffff166101408173ffffffffffffffffffffffffffffffffffffffff168152505050505062000603565b60606040518060400160405280600181526020017f3100000000000000000000000000000000000000000000000000000000000000815250905090565b60008383834630604051602001620001af95949392919062000541565b6040516020818303038152906040528051906020012090509392505050565b828054620001dc90620005cd565b90600052602060002090601f0160209004810192826200020057600085556200024c565b82601f106200021b57805160ff19168380011785556200024c565b828001600101855582156200024c579182015b828111156200024b5782518255916020019190600101906200022e565b5b5090506200025b91906200025f565b5090565b5b808211156200027a57600081600090555060010162000260565b5090565b6000604051905090565b600080fd5b600080fd5b600080fd5b600080fd5b6000601f19601f8301169050919050565b7f4e487b7100000000000000000000000000000000000000000000000000000000600052604160045260246000fd5b620002e7826200029c565b810181811067ffffffffffffffff82111715620003095762000308620002ad565b5b80604052505050565b60006200031e6200027e565b90506200032c8282620002dc565b919050565b600067ffffffffffffffff8211156200034f576200034e620002ad565b5b6200035a826200029c565b9050602081019050919050565b60005b83811015620003875780820151818401526020810190506200036a565b8381111562000397576000848401525b50505050565b6000620003b4620003ae8462000331565b62000312565b905082815260208101848484011115620003d357620003d262000297565b5b620003e084828562000367565b509392505050565b600082601f8301126200040057620003ff62000292565b5b8151620004128482602086016200039d565b91505092915050565b600073ffffffffffffffffffffffffffffffffffffffff82169050919050565b600062000448826200041b565b9050919050565b60006200045c826200043b565b9050919050565b6200046e816200044f565b81146200047a57600080fd5b50565b6000815190506200048e8162000463565b92915050565b60008060408385031215620004ae57620004ad62000288565b5b600083015167ffffffffffffffff811115620004cf57620004ce6200028d565b5b620004dd85828601620003e8565b9250506020620004f0858286016200047d565b9150509250929050565b6000819050919050565b6200050f81620004fa565b82525050565b6000819050919050565b6200052a8162000515565b82525050565b6200053b816200043b565b82525050565b600060a08201905062000558600083018862000504565b62000567602083018762000504565b62000576604083018662000504565b6200058560608301856200051f565b62000594608083018462000530565b9695505050505050565b7f4e487b7100000000000000000000000000000000000000000000000000000000600052602260045260246000fd5b60006002820490506001821680620005e657607f821691505b60208210811415620005fd57620005fc6200059e565b5b50919050565b60805160a05160c05160e05161010051610120516101405161407362000665600039600081816111990152611781015260006119380152600061197a015260006119590152600061188e015260006118e40152600061190d01526140736000f3fe60806040526004361061014f5760003560e01c806356781388116100b6578063c59057e41161006f578063c59057e41461056b578063dd4e2ba5146105a8578063deaaa7cc146105d3578063eb9019d4146105fe578063f8ce560a1461063b578063fc0c546a1461067857610195565b806356781388146104235780637b3c71d3146104605780637d5e81e21461049d578063b58131b0146104da578063c01f9e3714610505578063c28bc2fa1461054257610195565b80633bccf4fd116101085780633bccf4fd146102c55780633e4f49e614610302578063438596321461033f578063452115d61461037c578063544ffc9c146103b957806354fd4d50146103f857610195565b806301ffc9a71461019a57806302a251a3146101d757806306fdde03146102025780632656227d1461022d5780632d63f6931461025d5780633932abb11461029a57610195565b36610195573073ffffffffffffffffffffffffffffffffffffffff166101736106a3565b73ffffffffffffffffffffffffffffffffffffffff161461019357600080fd5b005b600080fd5b3480156101a657600080fd5b506101c160048036038101906101bc919061209c565b6106ab565b6040516101ce91906120e4565b60405180910390f35b3480156101e357600080fd5b506101ec610725565b6040516101f99190612118565b60405180910390f35b34801561020e57600080fd5b5061021761072e565b60405161022491906121cc565b60405180910390f35b6102476004803603810190610242919061264f565b6107c0565b6040516102549190612118565b60405180910390f35b34801561026957600080fd5b50610284600480360381019061027f919061270a565b6108f3565b6040516102919190612118565b60405180910390f35b3480156102a657600080fd5b506102af610961565b6040516102bc9190612118565b60405180910390f35b3480156102d157600080fd5b506102ec60048036038101906102e79190612770565b61096a565b6040516102f99190612118565b60405180910390f35b34801561030e57600080fd5b506103296004803603810190610324919061270a565b6109f4565b6040516103369190612862565b60405180910390f35b34801561034b57600080fd5b506103666004803603810190610361919061287d565b610b09565b60405161037391906120e4565b60405180910390f35b34801561038857600080fd5b506103a3600480360381019061039e919061264f565b610b74565b6040516103b09190612118565b60405180910390f35b3480156103c557600080fd5b506103e060048036038101906103db919061270a565b610b8c565b6040516103ef939291906128bd565b60405180910390f35b34801561040457600080fd5b5061040d610bc4565b60405161041a91906121cc565b60405180910390f35b34801561042f57600080fd5b5061044a600480360381019061044591906128f4565b610c01565b6040516104579190612118565b60405180910390f35b34801561046c57600080fd5b506104876004803603810190610482919061298f565b610c32565b6040516104949190612118565b60405180910390f35b3480156104a957600080fd5b506104c460048036038101906104bf9190612aa4565b610c9a565b6040516104d19190612118565b60405180910390f35b3480156104e657600080fd5b506104ef610f9a565b6040516104fc9190612118565b60405180910390f35b34801561051157600080fd5b5061052c6004803603810190610527919061270a565b610f9f565b6040516105399190612118565b60405180910390f35b34801561054e57600080fd5b5061056960048036038101906105649190612bd1565b61100d565b005b34801561057757600080fd5b50610592600480360381019061058d919061264f565b6110df565b60405161059f9190612118565b60405180910390f35b3480156105b457600080fd5b506105bd61111b565b6040516105ca91906121cc565b60405180910390f35b3480156105df57600080fd5b506105e8611158565b6040516105f59190612c54565b60405180910390f35b34801561060a57600080fd5b5061062560048036038101906106209190612c6f565b61117c565b6040516106329190612118565b60405180910390f35b34801561064757600080fd5b50610662600480360381019061065d919061270a565b611190565b60405161066f9190612118565b60405180910390f35b34801561068457600080fd5b5061068d611197565b60405161069a9190612d0e565b60405180910390f35b600030905090565b60007fbf26d897000000000000000000000000000000000000000000000000000000007bffffffffffffffffffffffffffffffffffffffffffffffffffffffff1916827bffffffffffffffffffffffffffffffffffffffffffffffffffffffff1916148061071e575061071d826111bb565b5b9050919050565b60006010905090565b60606000805461073d90612d58565b80601f016020809104026020016040519081016040528092919081815260200182805461076990612d58565b80156107b65780601f1061078b576101008083540402835291602001916107b6565b820191906000526020600020905b81548152906001019060200180831161079957829003601f168201915b5050505050905090565b6000806107cf868686866110df565b905060006107dc826109f4565b9050600460078111156107f2576107f16127eb565b5b816007811115610805576108046127eb565b5b14806108355750600560078111156108205761081f6127eb565b5b816007811115610833576108326127eb565b5b145b610874576040517f08c379a000000000000000000000000000000000000000000000000000000000815260040161086b90612dfc565b60405180910390fd5b600180600084815260200190815260200160002060020160006101000a81548160ff0219169083151502179055507f712ae1383f79ac853f8d882153778e0260ef8f03b504e2866e0593e04d2b291f826040516108d19190612118565b60405180910390a16108e68288888888611225565b8192505050949350505050565b6000610950600160008481526020019081526020016000206000016040518060200160405290816000820160009054906101000a900467ffffffffffffffff1667ffffffffffffffff1667ffffffffffffffff1681525050611334565b67ffffffffffffffff169050919050565b60006004905090565b6000806109cb6109c37f150214d74d59b7d1e90c73fc22ef3d991dd0a76b046543d4d80ab92d2a50328f89896040516020016109a893929190612e2b565b60405160208183030381529060405280519060200120611342565b86868661135c565b90506109e887828860405180602001604052806000815250611387565b91505095945050505050565b6000806001600084815260200190815260200160002090508060020160009054906101000a900460ff1615610a2d576007915050610b04565b8060020160019054906101000a900460ff1615610a4e576002915050610b04565b6000610a59846108f3565b90506000811415610a9f576040517f08c379a0000000000000000000000000000000000000000000000000000000008152600401610a9690612eae565b60405180910390fd5b438110610ab157600092505050610b04565b6000610abc85610f9f565b9050438110610ad15760019350505050610b04565b610ada856114db565b8015610aeb5750610aea85611522565b5b15610afc5760049350505050610b04565b600393505050505b919050565b60006002600084815260200190815260200160002060030160008373ffffffffffffffffffffffffffffffffffffffff1673ffffffffffffffffffffffffffffffffffffffff16815260200190815260200160002060009054906101000a900460ff16905092915050565b6000610b828585858561154d565b9050949350505050565b600080600080600260008681526020019081526020016000209050806000015481600101548260020154935093509350509193909250565b60606040518060400160405280600181526020017f3100000000000000000000000000000000000000000000000000000000000000815250905090565b600080610c0c6116a6565b9050610c2984828560405180602001604052806000815250611387565b91505092915050565b600080610c3d6116a6565b9050610c8f86828787878080601f016020809104026020016040519081016040528093929190818152602001838380828437600081840152601f19601f82011690508083019250505050505050611387565b915050949350505050565b6000610ca4610f9a565b610cba33600143610cb59190612efd565b61117c565b1015610cfb576040517f08c379a0000000000000000000000000000000000000000000000000000000008152600401610cf290612fc9565b60405180910390fd5b6000610d1086868686805190602001206110df565b90508451865114610d56576040517f08c379a0000000000000000000000000000000000000000000000000000000008152600401610d4d9061305b565b60405180910390fd5b8351865114610d9a576040517f08c379a0000000000000000000000000000000000000000000000000000000008152600401610d919061305b565b60405180910390fd5b6000865111610dde576040517f08c379a0000000000000000000000000000000000000000000000000000000008152600401610dd5906130c7565b60405180910390fd5b6000600160008381526020019081526020016000209050610e3e816000016040518060200160405290816000820160009054906101000a900467ffffffffffffffff1667ffffffffffffffff1667ffffffffffffffff16815250506116ae565b610e7d576040517f08c379a0000000000000000000000000000000000000000000000000000000008152600401610e7490613159565b60405180910390fd5b6000610e8f610e8a610961565b6116c8565b610e98436116c8565b610ea2919061318d565b90506000610eb6610eb1610725565b6116c8565b82610ec1919061318d565b9050610ed9828460000161171f90919063ffffffff16565b610eef818460010161171f90919063ffffffff16565b7f7d84a6263ae0d98d3329bd7b46bb4e8d6f98cd35a7adb45c274c8b7fd5ebd5e084610f196116a6565b8b8b8d5167ffffffffffffffff811115610f3657610f356121f3565b5b604051908082528060200260200182016040528015610f6957816020015b6060815260200190600190039081610f545790505b508c88888e604051610f83999897969594939291906135aa565b60405180910390a183945050505050949350505050565b600090565b6000610ffc600160008481526020019081526020016000206001016040518060200160405290816000820160009054906101000a900467ffffffffffffffff1667ffffffffffffffff1667ffffffffffffffff1681525050611334565b67ffffffffffffffff169050919050565b6110156106a3565b73ffffffffffffffffffffffffffffffffffffffff166110336116a6565b73ffffffffffffffffffffffffffffffffffffffff1614611089576040517f08c379a0000000000000000000000000000000000000000000000000000000008152600401611080906136a6565b60405180910390fd5b6110d88483838080601f016020809104026020016040519081016040528093929190818152602001838380828437600081840152601f19601f820116905080830192505050505050508561174e565b5050505050565b6000848484846040516020016110f894939291906136c6565b6040516020818303038152906040528051906020012060001c9050949350505050565b60606040518060400160405280602081526020017f737570706f72743d627261766f2671756f72756d3d666f722c6162737461696e815250905090565b7f150214d74d59b7d1e90c73fc22ef3d991dd0a76b046543d4d80ab92d2a50328f81565b6000611188838361177d565b905092915050565b6000919050565b7f000000000000000000000000000000000000000000000000000000000000000081565b60007f01ffc9a7000000000000000000000000000000000000000000000000000000007bffffffffffffffffffffffffffffffffffffffffffffffffffffffff1916827bffffffffffffffffffffffffffffffffffffffffffffffffffffffff1916149050919050565b6000604051806060016040528060278152602001613fee60279139905060005b855181101561132b5760008087838151811061126457611263613720565b5b602002602001015173ffffffffffffffffffffffffffffffffffffffff1687848151811061129557611294613720565b5b60200260200101518785815181106112b0576112af613720565b5b60200260200101516040516112c5919061378b565b60006040518083038185875af1925050503d8060008114611302576040519150601f19603f3d011682016040523d82523d6000602084013e611307565b606091505b5091509150611317828286611823565b50505080611324906137a2565b9050611245565b50505050505050565b600081600001519050919050565b600061135561134f61188a565b836119a4565b9050919050565b600080600061136d878787876119d7565b9150915061137a81611ae4565b8192505050949350505050565b600080600160008781526020019081526020016000209050600160078111156113b3576113b26127eb565b5b6113bc876109f4565b60078111156113ce576113cd6127eb565b5b1461140e576040517f08c379a00000000000000000000000000000000000000000000000000000000081526004016114059061385d565b60405180910390fd5b600061146c8661145d846000016040518060200160405290816000820160009054906101000a900467ffffffffffffffff1667ffffffffffffffff1667ffffffffffffffff1681525050611334565b67ffffffffffffffff1661117c565b905061147a87878784611cb9565b8573ffffffffffffffffffffffffffffffffffffffff167fb8e138887d0aa13bab447e82de9d5c1777041ecd21ca36ba824ff1e6c07ddda4888784886040516114c6949392919061387d565b60405180910390a28092505050949350505050565b6000806002600084815260200190815260200160002090508060020154816001015461150791906138c9565b611518611513856108f3565b611190565b1115915050919050565b6000806002600084815260200190815260200160002090508060000154816001015411915050919050565b60008061155c868686866110df565b90506000611569826109f4565b90506002600781111561157f5761157e6127eb565b5b816007811115611592576115916127eb565b5b141580156115c55750600660078111156115af576115ae6127eb565b5b8160078111156115c2576115c16127eb565b5b14155b80156115f557506007808111156115df576115de6127eb565b5b8160078111156115f2576115f16127eb565b5b14155b611634576040517f08c379a000000000000000000000000000000000000000000000000000000000815260040161162b9061396b565b60405180910390fd5b600180600084815260200190815260200160002060020160016101000a81548160ff0219169083151502179055507f789cf55be980739dad1d0699b93b58e806b51c9d96619bfa8fe0a28abaa7b30c826040516116919190612118565b60405180910390a18192505050949350505050565b600033905090565b600080826000015167ffffffffffffffff16149050919050565b600067ffffffffffffffff8016821115611717576040517f08c379a000000000000000000000000000000000000000000000000000000000815260040161170e906139fd565b60405180910390fd5b819050919050565b808260000160006101000a81548167ffffffffffffffff021916908367ffffffffffffffff1602179055505050565b606061177484848460405180606001604052806029815260200161401560299139611ebf565b90509392505050565b60007f000000000000000000000000000000000000000000000000000000000000000073ffffffffffffffffffffffffffffffffffffffff16633a46b1a884846040518363ffffffff1660e01b81526004016117da929190613a1d565b602060405180830381865afa1580156117f7573d6000803e3d6000fd5b505050506040513d601f19601f8201168201806040525081019061181b9190613a5b565b905092915050565b6060831561183357829050611883565b6000835111156118465782518084602001fd5b816040517f08c379a000000000000000000000000000000000000000000000000000000000815260040161187a91906121cc565b60405180910390fd5b9392505050565b60007f000000000000000000000000000000000000000000000000000000000000000073ffffffffffffffffffffffffffffffffffffffff163073ffffffffffffffffffffffffffffffffffffffff1614801561190657507f000000000000000000000000000000000000000000000000000000000000000046145b15611933577f000000000000000000000000000000000000000000000000000000000000000090506119a1565b61199e7f00000000000000000000000000000000000000000000000000000000000000007f00000000000000000000000000000000000000000000000000000000000000007f0000000000000000000000000000000000000000000000000000000000000000611fd3565b90505b90565b600082826040516020016119b9929190613b00565b60405160208183030381529060405280519060200120905092915050565b6000807f7fffffffffffffffffffffffffffffff5d576e7357a4501ddfe92f46681b20a08360001c1115611a12576000600391509150611adb565b601b8560ff1614158015611a2a5750601c8560ff1614155b15611a3c576000600491509150611adb565b600060018787878760405160008152602001604052604051611a619493929190613b37565b6020604051602081039080840390855afa158015611a83573d6000803e3d6000fd5b505050602060405103519050600073ffffffffffffffffffffffffffffffffffffffff168173ffffffffffffffffffffffffffffffffffffffff161415611ad257600060019250925050611adb565b80600092509250505b94509492505050565b60006004811115611af857611af76127eb565b5b816004811115611b0b57611b0a6127eb565b5b1415611b1657611cb6565b60016004811115611b2a57611b296127eb565b5b816004811115611b3d57611b3c6127eb565b5b1415611b7e576040517f08c379a0000000000000000000000000000000000000000000000000000000008152600401611b7590613bc8565b60405180910390fd5b60026004811115611b9257611b916127eb565b5b816004811115611ba557611ba46127eb565b5b1415611be6576040517f08c379a0000000000000000000000000000000000000000000000000000000008152600401611bdd90613c34565b60405180910390fd5b60036004811115611bfa57611bf96127eb565b5b816004811115611c0d57611c0c6127eb565b5b1415611c4e576040517f08c379a0000000000000000000000000000000000000000000000000000000008152600401611c4590613cc6565b60405180910390fd5b600480811115611c6157611c606127eb565b5b816004811115611c7457611c736127eb565b5b1415611cb5576040517f08c379a0000000000000000000000000000000000000000000000000000000008152600401611cac90613d58565b60405180910390fd5b5b50565b60006002600086815260200190815260200160002090508060030160008573ffffffffffffffffffffffffffffffffffffffff1673ffffffffffffffffffffffffffffffffffffffff16815260200190815260200160002060009054906101000a900460ff1615611d5f576040517f08c379a0000000000000000000000000000000000000000000000000000000008152600401611d5690613dea565b60405180910390fd5b60018160030160008673ffffffffffffffffffffffffffffffffffffffff1673ffffffffffffffffffffffffffffffffffffffff16815260200190815260200160002060006101000a81548160ff02191690831515021790555060006002811115611dcd57611dcc6127eb565b5b60ff168360ff161415611dfa5781816000016000828254611dee91906138c9565b92505081905550611eb8565b60016002811115611e0e57611e0d6127eb565b5b60ff168360ff161415611e3b5781816001016000828254611e2f91906138c9565b92505081905550611eb7565b600280811115611e4e57611e4d6127eb565b5b60ff168360ff161415611e7b5781816002016000828254611e6f91906138c9565b92505081905550611eb6565b6040517f08c379a0000000000000000000000000000000000000000000000000000000008152600401611ead90613e7c565b60405180910390fd5b5b5b5050505050565b606082471015611f04576040517f08c379a0000000000000000000000000000000000000000000000000000000008152600401611efb90613f0e565b60405180910390fd5b611f0d8561200d565b611f4c576040517f08c379a0000000000000000000000000000000000000000000000000000000008152600401611f4390613f7a565b60405180910390fd5b6000808673ffffffffffffffffffffffffffffffffffffffff168587604051611f75919061378b565b60006040518083038185875af1925050503d8060008114611fb2576040519150601f19603f3d011682016040523d82523d6000602084013e611fb7565b606091505b5091509150611fc7828286611823565b92505050949350505050565b60008383834630604051602001611fee959493929190613f9a565b6040516020818303038152906040528051906020012090509392505050565b6000808273ffffffffffffffffffffffffffffffffffffffff163b119050919050565b6000604051905090565b600080fd5b600080fd5b60007fffffffff0000000000000000000000000000000000000000000000000000000082169050919050565b61207981612044565b811461208457600080fd5b50565b60008135905061209681612070565b92915050565b6000602082840312156120b2576120b161203a565b5b60006120c084828501612087565b91505092915050565b60008115159050919050565b6120de816120c9565b82525050565b60006020820190506120f960008301846120d5565b92915050565b6000819050919050565b612112816120ff565b82525050565b600060208201905061212d6000830184612109565b92915050565b600081519050919050565b600082825260208201905092915050565b60005b8381101561216d578082015181840152602081019050612152565b8381111561217c576000848401525b50505050565b6000601f19601f8301169050919050565b600061219e82612133565b6121a8818561213e565b93506121b881856020860161214f565b6121c181612182565b840191505092915050565b600060208201905081810360008301526121e68184612193565b905092915050565b600080fd5b7f4e487b7100000000000000000000000000000000000000000000000000000000600052604160045260246000fd5b61222b82612182565b810181811067ffffffffffffffff8211171561224a576122496121f3565b5b80604052505050565b600061225d612030565b90506122698282612222565b919050565b600067ffffffffffffffff821115612289576122886121f3565b5b602082029050602081019050919050565b600080fd5b600073ffffffffffffffffffffffffffffffffffffffff82169050919050565b60006122ca8261229f565b9050919050565b6122da816122bf565b81146122e557600080fd5b50565b6000813590506122f7816122d1565b92915050565b600061231061230b8461226e565b612253565b905080838252602082019050602084028301858111156123335761233261229a565b5b835b8181101561235c578061234888826122e8565b845260208401935050602081019050612335565b5050509392505050565b600082601f83011261237b5761237a6121ee565b5b813561238b8482602086016122fd565b91505092915050565b600067ffffffffffffffff8211156123af576123ae6121f3565b5b602082029050602081019050919050565b6123c9816120ff565b81146123d457600080fd5b50565b6000813590506123e6816123c0565b92915050565b60006123ff6123fa84612394565b612253565b905080838252602082019050602084028301858111156124225761242161229a565b5b835b8181101561244b578061243788826123d7565b845260208401935050602081019050612424565b5050509392505050565b600082601f83011261246a576124696121ee565b5b813561247a8482602086016123ec565b91505092915050565b600067ffffffffffffffff82111561249e5761249d6121f3565b5b602082029050602081019050919050565b600080fd5b600067ffffffffffffffff8211156124cf576124ce6121f3565b5b6124d882612182565b9050602081019050919050565b82818337600083830152505050565b6000612507612502846124b4565b612253565b905082815260208101848484011115612523576125226124af565b5b61252e8482856124e5565b509392505050565b600082601f83011261254b5761254a6121ee565b5b813561255b8482602086016124f4565b91505092915050565b600061257761257284612483565b612253565b9050808382526020820190506020840283018581111561259a5761259961229a565b5b835b818110156125e157803567ffffffffffffffff8111156125bf576125be6121ee565b5b8086016125cc8982612536565b8552602085019450505060208101905061259c565b5050509392505050565b600082601f830112612600576125ff6121ee565b5b8135612610848260208601612564565b91505092915050565b6000819050919050565b61262c81612619565b811461263757600080fd5b50565b60008135905061264981612623565b92915050565b600080600080608085870312156126695761266861203a565b5b600085013567ffffffffffffffff8111156126875761268661203f565b5b61269387828801612366565b945050602085013567ffffffffffffffff8111156126b4576126b361203f565b5b6126c087828801612455565b935050604085013567ffffffffffffffff8111156126e1576126e061203f565b5b6126ed878288016125eb565b92505060606126fe8782880161263a565b91505092959194509250565b6000602082840312156127205761271f61203a565b5b600061272e848285016123d7565b91505092915050565b600060ff82169050919050565b61274d81612737565b811461275857600080fd5b50565b60008135905061276a81612744565b92915050565b600080600080600060a0868803121561278c5761278b61203a565b5b600061279a888289016123d7565b95505060206127ab8882890161275b565b94505060406127bc8882890161275b565b93505060606127cd8882890161263a565b92505060806127de8882890161263a565b9150509295509295909350565b7f4e487b7100000000000000000000000000000000000000000000000000000000600052602160045260246000fd5b6008811061282b5761282a6127eb565b5b50565b600081905061283c8261281a565b919050565b600061284c8261282e565b9050919050565b61285c81612841565b82525050565b60006020820190506128776000830184612853565b92915050565b600080604083850312156128945761289361203a565b5b60006128a2858286016123d7565b92505060206128b3858286016122e8565b9150509250929050565b60006060820190506128d26000830186612109565b6128df6020830185612109565b6128ec6040830184612109565b949350505050565b6000806040838503121561290b5761290a61203a565b5b6000612919858286016123d7565b925050602061292a8582860161275b565b9150509250929050565b600080fd5b60008083601f84011261294f5761294e6121ee565b5b8235905067ffffffffffffffff81111561296c5761296b612934565b5b6020830191508360018202830111156129885761298761229a565b5b9250929050565b600080600080606085870312156129a9576129a861203a565b5b60006129b7878288016123d7565b94505060206129c88782880161275b565b935050604085013567ffffffffffffffff8111156129e9576129e861203f565b5b6129f587828801612939565b925092505092959194509250565b600067ffffffffffffffff821115612a1e57612a1d6121f3565b5b612a2782612182565b9050602081019050919050565b6000612a47612a4284612a03565b612253565b905082815260208101848484011115612a6357612a626124af565b5b612a6e8482856124e5565b509392505050565b600082601f830112612a8b57612a8a6121ee565b5b8135612a9b848260208601612a34565b91505092915050565b60008060008060808587031215612abe57612abd61203a565b5b600085013567ffffffffffffffff811115612adc57612adb61203f565b5b612ae887828801612366565b945050602085013567ffffffffffffffff811115612b0957612b0861203f565b5b612b1587828801612455565b935050604085013567ffffffffffffffff811115612b3657612b3561203f565b5b612b42878288016125eb565b925050606085013567ffffffffffffffff811115612b6357612b6261203f565b5b612b6f87828801612a76565b91505092959194509250565b60008083601f840112612b9157612b906121ee565b5b8235905067ffffffffffffffff811115612bae57612bad612934565b5b602083019150836001820283011115612bca57612bc961229a565b5b9250929050565b60008060008060608587031215612beb57612bea61203a565b5b6000612bf9878288016122e8565b9450506020612c0a878288016123d7565b935050604085013567ffffffffffffffff811115612c2b57612c2a61203f565b5b612c3787828801612b7b565b925092505092959194509250565b612c4e81612619565b82525050565b6000602082019050612c696000830184612c45565b92915050565b60008060408385031215612c8657612c8561203a565b5b6000612c94858286016122e8565b9250506020612ca5858286016123d7565b9150509250929050565b6000819050919050565b6000612cd4612ccf612cca8461229f565b612caf565b61229f565b9050919050565b6000612ce682612cb9565b9050919050565b6000612cf882612cdb565b9050919050565b612d0881612ced565b82525050565b6000602082019050612d236000830184612cff565b92915050565b7f4e487b7100000000000000000000000000000000000000000000000000000000600052602260045260246000fd5b60006002820490506001821680612d7057607f821691505b60208210811415612d8457612d83612d29565b5b50919050565b7f476f7665726e6f723a2070726f706f73616c206e6f742073756363657373667560008201527f6c00000000000000000000000000000000000000000000000000000000000000602082015250565b6000612de660218361213e565b9150612df182612d8a565b604082019050919050565b60006020820190508181036000830152612e1581612dd9565b9050919050565b612e2581612737565b82525050565b6000606082019050612e406000830186612c45565b612e4d6020830185612109565b612e5a6040830184612e1c565b949350505050565b7f476f7665726e6f723a20756e6b6e6f776e2070726f706f73616c206964000000600082015250565b6000612e98601d8361213e565b9150612ea382612e62565b602082019050919050565b60006020820190508181036000830152612ec781612e8b565b9050919050565b7f4e487b7100000000000000000000000000000000000000000000000000000000600052601160045260246000fd5b6000612f08826120ff565b9150612f13836120ff565b925082821015612f2657612f25612ece565b5b828203905092915050565b7f476f7665726e6f72436f6d7061746962696c697479427261766f3a2070726f7060008201527f6f73657220766f7465732062656c6f772070726f706f73616c2074687265736860208201527f6f6c640000000000000000000000000000000000000000000000000000000000604082015250565b6000612fb360438361213e565b9150612fbe82612f31565b606082019050919050565b60006020820190508181036000830152612fe281612fa6565b9050919050565b7f476f7665726e6f723a20696e76616c69642070726f706f73616c206c656e677460008201527f6800000000000000000000000000000000000000000000000000000000000000602082015250565b600061304560218361213e565b915061305082612fe9565b604082019050919050565b6000602082019050818103600083015261307481613038565b9050919050565b7f476f7665726e6f723a20656d7074792070726f706f73616c0000000000000000600082015250565b60006130b160188361213e565b91506130bc8261307b565b602082019050919050565b600060208201905081810360008301526130e0816130a4565b9050919050565b7f476f7665726e6f723a2070726f706f73616c20616c726561647920657869737460008201527f7300000000000000000000000000000000000000000000000000000000000000602082015250565b600061314360218361213e565b915061314e826130e7565b604082019050919050565b6000602082019050818103600083015261317281613136565b9050919050565b600067ffffffffffffffff82169050919050565b600061319882613179565b91506131a383613179565b92508267ffffffffffffffff038211156131c0576131bf612ece565b5b828201905092915050565b6131d4816122bf565b82525050565b600081519050919050565b600082825260208201905092915050565b6000819050602082019050919050565b61320f816122bf565b82525050565b60006132218383613206565b60208301905092915050565b6000602082019050919050565b6000613245826131da565b61324f81856131e5565b935061325a836131f6565b8060005b8381101561328b5781516132728882613215565b975061327d8361322d565b92505060018101905061325e565b5085935050505092915050565b600081519050919050565b600082825260208201905092915050565b6000819050602082019050919050565b6132cd816120ff565b82525050565b60006132df83836132c4565b60208301905092915050565b6000602082019050919050565b600061330382613298565b61330d81856132a3565b9350613318836132b4565b8060005b8381101561334957815161333088826132d3565b975061333b836132eb565b92505060018101905061331c565b5085935050505092915050565b600081519050919050565b600082825260208201905092915050565b6000819050602082019050919050565b600082825260208201905092915050565b600061339e82612133565b6133a88185613382565b93506133b881856020860161214f565b6133c181612182565b840191505092915050565b60006133d88383613393565b905092915050565b6000602082019050919050565b60006133f882613356565b6134028185613361565b93508360208202850161341485613372565b8060005b85811015613450578484038952815161343185826133cc565b945061343c836133e0565b925060208a01995050600181019050613418565b50829750879550505050505092915050565b600081519050919050565b600082825260208201905092915050565b6000819050602082019050919050565b600081519050919050565b600082825260208201905092915050565b60006134b58261348e565b6134bf8185613499565b93506134cf81856020860161214f565b6134d881612182565b840191505092915050565b60006134ef83836134aa565b905092915050565b6000602082019050919050565b600061350f82613462565b613519818561346d565b93508360208202850161352b8561347e565b8060005b85811015613567578484038952815161354885826134e3565b9450613553836134f7565b925060208a0199505060018101905061352f565b50829750879550505050505092915050565b600061359461358f61358a84613179565b612caf565b6120ff565b9050919050565b6135a481613579565b82525050565b6000610120820190506135c0600083018c612109565b6135cd602083018b6131cb565b81810360408301526135df818a61323a565b905081810360608301526135f381896132f8565b9050818103608083015261360781886133ed565b905081810360a083015261361b8187613504565b905061362a60c083018661359b565b61363760e083018561359b565b81810361010083015261364a8184612193565b90509a9950505050505050505050565b7f476f7665726e6f723a206f6e6c79476f7665726e616e63650000000000000000600082015250565b600061369060188361213e565b915061369b8261365a565b602082019050919050565b600060208201905081810360008301526136bf81613683565b9050919050565b600060808201905081810360008301526136e0818761323a565b905081810360208301526136f481866132f8565b905081810360408301526137088185613504565b90506137176060830184612c45565b95945050505050565b7f4e487b7100000000000000000000000000000000000000000000000000000000600052603260045260246000fd5b600081905092915050565b60006137658261348e565b61376f818561374f565b935061377f81856020860161214f565b80840191505092915050565b6000613797828461375a565b915081905092915050565b60006137ad826120ff565b91507fffffffffffffffffffffffffffffffffffffffffffffffffffffffffffffffff8214156137e0576137df612ece565b5b600182019050919050565b7f476f7665726e6f723a20766f7465206e6f742063757272656e746c792061637460008201527f6976650000000000000000000000000000000000000000000000000000000000602082015250565b600061384760238361213e565b9150613852826137eb565b604082019050919050565b600060208201905081810360008301526138768161383a565b9050919050565b60006080820190506138926000830187612109565b61389f6020830186612e1c565b6138ac6040830185612109565b81810360608301526138be8184612193565b905095945050505050565b60006138d4826120ff565b91506138df836120ff565b9250827fffffffffffffffffffffffffffffffffffffffffffffffffffffffffffffffff0382111561391457613913612ece565b5b828201905092915050565b7f476f7665726e6f723a2070726f706f73616c206e6f7420616374697665000000600082015250565b6000613955601d8361213e565b91506139608261391f565b602082019050919050565b6000602082019050818103600083015261398481613948565b9050919050565b7f53616665436173743a2076616c756520646f65736e27742066697420696e203660008201527f3420626974730000000000000000000000000000000000000000000000000000602082015250565b60006139e760268361213e565b91506139f28261398b565b604082019050919050565b60006020820190508181036000830152613a16816139da565b9050919050565b6000604082019050613a3260008301856131cb565b613a3f6020830184612109565b9392505050565b600081519050613a55816123c0565b92915050565b600060208284031215613a7157613a7061203a565b5b6000613a7f84828501613a46565b91505092915050565b600081905092915050565b7f1901000000000000000000000000000000000000000000000000000000000000600082015250565b6000613ac9600283613a88565b9150613ad482613a93565b600282019050919050565b6000819050919050565b613afa613af582612619565b613adf565b82525050565b6000613b0b82613abc565b9150613b178285613ae9565b602082019150613b278284613ae9565b6020820191508190509392505050565b6000608082019050613b4c6000830187612c45565b613b596020830186612e1c565b613b666040830185612c45565b613b736060830184612c45565b95945050505050565b7f45434453413a20696e76616c6964207369676e61747572650000000000000000600082015250565b6000613bb260188361213e565b9150613bbd82613b7c565b602082019050919050565b60006020820190508181036000830152613be181613ba5565b9050919050565b7f45434453413a20696e76616c6964207369676e6174757265206c656e67746800600082015250565b6000613c1e601f8361213e565b9150613c2982613be8565b602082019050919050565b60006020820190508181036000830152613c4d81613c11565b9050919050565b7f45434453413a20696e76616c6964207369676e6174757265202773272076616c60008201527f7565000000000000000000000000000000000000000000000000000000000000602082015250565b6000613cb060228361213e565b9150613cbb82613c54565b604082019050919050565b60006020820190508181036000830152613cdf81613ca3565b9050919050565b7f45434453413a20696e76616c6964207369676e6174757265202776272076616c60008201527f7565000000000000000000000000000000000000000000000000000000000000602082015250565b6000613d4260228361213e565b9150613d4d82613ce6565b604082019050919050565b60006020820190508181036000830152613d7181613d35565b9050919050565b7f476f7665726e6f72566f74696e6753696d706c653a20766f746520616c72656160008201527f6479206361737400000000000000000000000000000000000000000000000000602082015250565b6000613dd460278361213e565b9150613ddf82613d78565b604082019050919050565b60006020820190508181036000830152613e0381613dc7565b9050919050565b7f476f7665726e6f72566f74696e6753696d706c653a20696e76616c696420766160008201527f6c756520666f7220656e756d20566f7465547970650000000000000000000000602082015250565b6000613e6660358361213e565b9150613e7182613e0a565b604082019050919050565b60006020820190508181036000830152613e9581613e59565b9050919050565b7f416464726573733a20696e73756666696369656e742062616c616e636520666f60008201527f722063616c6c0000000000000000000000000000000000000000000000000000602082015250565b6000613ef860268361213e565b9150613f0382613e9c565b604082019050919050565b60006020820190508181036000830152613f2781613eeb565b9050919050565b7f416464726573733a2063616c6c20746f206e6f6e2d636f6e7472616374000000600082015250565b6000613f64601d8361213e565b9150613f6f82613f2e565b602082019050919050565b60006020820190508181036000830152613f9381613f57565b9050919050565b600060a082019050613faf6000830188612c45565b613fbc6020830187612c45565b613fc96040830186612c45565b613fd66060830185612109565b613fe360808301846131cb565b969550505050505056fe476f7665726e6f723a2063616c6c20726576657274656420776974686f7574206d657373616765416464726573733a206c6f772d6c6576656c2063616c6c20776974682076616c7565206661696c6564a2646970667358221220b03c4365765d4ffca21746473c279d6194d86dac8273f62a21ec69f64b93145d64736f6c634300080b0033",
  "immutableReferences": {
    "6473": [
      {
        "length": 32,
        "start": 4505
      },
      {
        "length": 32,
        "start": 6017
      }
    ],
    "28894": [
      {
        "length": 32,
        "start": 6413
      }
    ],
    "28896": [
      {
        "length": 32,
        "start": 6372
      }
    ],
    "28898": [
      {
        "length": 32,
        "start": 6286
      }
    ],
    "28900": [
      {
        "length": 32,
        "start": 6489
      }
    ],
    "28902": [
      {
        "length": 32,
        "start": 6522
      }
    ],
    "28904": [
      {
        "length": 32,
        "start": 6456
      }
    ]
  },
  "source": "// SPDX-License-Identifier: MIT\r\n\r\npragma solidity ^0.8.0;\r\n\r\nimport \"../governance/extensions/GovernorCountingSimple.sol\";\r\nimport \"../governance/extensions/GovernorVotes.sol\";\r\n\r\ncontract GovernorVoteMocks is GovernorVotes, GovernorCountingSimple {\r\n    constructor(string memory name_, IVotes token_) Governor(name_) GovernorVotes(token_) {}\r\n\r\n    function quorum(uint256) public pure override returns (uint256) {\r\n        return 0;\r\n    }\r\n\r\n    function votingDelay() public pure override returns (uint256) {\r\n        return 4;\r\n    }\r\n\r\n    function votingPeriod() public pure override returns (uint256) {\r\n        return 16;\r\n    }\r\n\r\n    function cancel(\r\n        address[] memory targets,\r\n        uint256[] memory values,\r\n        bytes[] memory calldatas,\r\n        bytes32 salt\r\n    ) public returns (uint256 proposalId) {\r\n        return _cancel(targets, values, calldatas, salt);\r\n    }\r\n\r\n    function getVotes(address account, uint256 blockNumber)\r\n        public\r\n        view\r\n        virtual\r\n        override(IGovernor, GovernorVotes)\r\n        returns (uint256)\r\n    {\r\n        return super.getVotes(account, blockNumber);\r\n    }\r\n}\r\n",
  "sourcePath": "C:\\Users\\Alexandr\\dev\\nft-sim\\contract\\contracts\\mocks\\GovernorVoteMock.sol",
  "compiler": {
    "name": "solc",
    "version": "0.8.11+commit.d7f03943.Emscripten.clang"
  },
  "schemaVersion": "3.4.4",
  "updatedAt": "2022-02-17T11:42:20.931Z",
  "devdoc": {
    "kind": "dev",
    "methods": {
      "COUNTING_MODE()": {
        "details": "See {IGovernor-COUNTING_MODE}."
      },
      "castVote(uint256,uint8)": {
        "details": "See {IGovernor-castVote}."
      },
      "castVoteBySig(uint256,uint8,uint8,bytes32,bytes32)": {
        "details": "See {IGovernor-castVoteBySig}."
      },
      "castVoteWithReason(uint256,uint8,string)": {
        "details": "See {IGovernor-castVoteWithReason}."
      },
      "execute(address[],uint256[],bytes[],bytes32)": {
        "details": "See {IGovernor-execute}."
      },
      "hasVoted(uint256,address)": {
        "details": "See {IGovernor-hasVoted}."
      },
      "hashProposal(address[],uint256[],bytes[],bytes32)": {
        "details": "See {IGovernor-hashProposal}. The proposal id is produced by hashing the RLC encoded `targets` array, the `values` array, the `calldatas` array and the descriptionHash (bytes32 which itself is the keccak256 hash of the description string). This proposal id can be produced from the proposal data which is part of the {ProposalCreated} event. It can even be computed in advance, before the proposal is submitted. Note that the chainId and the governor address are not part of the proposal id computation. Consequently, the same proposal (with same operation and same description) will have the same id if submitted on multiple governors accross multiple networks. This also means that in order to execute the same operation twice (on the same governor) the proposer will have to change the description in order to avoid proposal id conflicts."
      },
      "name()": {
        "details": "See {IGovernor-name}."
      },
      "proposalDeadline(uint256)": {
        "details": "See {IGovernor-proposalDeadline}."
      },
      "proposalSnapshot(uint256)": {
        "details": "See {IGovernor-proposalSnapshot}."
      },
      "proposalThreshold()": {
        "details": "Part of the Governor Bravo's interface: _\"The number of votes required in order for a voter to become a proposer\"_."
      },
      "proposalVotes(uint256)": {
        "details": "Accessor to the internal vote counts."
      },
      "propose(address[],uint256[],bytes[],string)": {
        "details": "See {IGovernor-propose}."
      },
      "relay(address,uint256,bytes)": {
        "details": "Relays a transaction or function call to an arbitrary target. In cases where the governance executor is some contract other than the governor itself, like when using a timelock, this function can be invoked in a governance proposal to recover tokens or Ether that was sent to the governor contract by mistake. Note that if the executor is simply the governor itself, use of `relay` is redundant."
      },
      "state(uint256)": {
        "details": "See {IGovernor-state}."
      },
      "supportsInterface(bytes4)": {
        "details": "See {IERC165-supportsInterface}."
      },
      "version()": {
        "details": "See {IGovernor-version}."
      },
      "votingDelay()": {
        "details": "Delay, in number of block, between the proposal is created and the vote starts. This can be increassed to leave time for users to buy voting power, of delegate it, before the voting of a proposal starts."
      },
      "votingPeriod()": {
        "details": "Delay, in number of blocks, between the vote start and vote ends. NOTE: The {votingDelay} can delay the start of the vote. This must be considered when setting the voting duration compared to the voting delay."
      }
    },
    "version": 1
  },
  "userdoc": {
    "kind": "user",
    "methods": {
      "votingDelay()": {
        "notice": "module:user-config"
      },
      "votingPeriod()": {
        "notice": "module:user-config"
      }
    },
    "version": 1
  }
}