{
  "contractName": "GovernorCompMock",
  "abi": [
    {
      "inputs": [
        {
          "internalType": "string",
          "name": "name_",
          "type": "string"
        },
        {
          "internalType": "contract ERC20VotesComp",
          "name": "token_",
          "type": "address"
        }
      ],
      "stateMutability": "nonpayable",
      "type": "constructor"
    },
    {
      "anonymous": false,
      "inputs": [
        {
          "indexed": false,
          "internalType": "uint256",
          "name": "proposalId",
          "type": "uint256"
        }
      ],
      "name": "ProposalCanceled",
      "type": "event"
    },
    {
      "anonymous": false,
      "inputs": [
        {
          "indexed": false,
          "internalType": "uint256",
          "name": "proposalId",
          "type": "uint256"
        },
        {
          "indexed": false,
          "internalType": "address",
          "name": "proposer",
          "type": "address"
        },
        {
          "indexed": false,
          "internalType": "address[]",
          "name": "targets",
          "type": "address[]"
        },
        {
          "indexed": false,
          "internalType": "uint256[]",
          "name": "values",
          "type": "uint256[]"
        },
        {
          "indexed": false,
          "internalType": "string[]",
          "name": "signatures",
          "type": "string[]"
        },
        {
          "indexed": false,
          "internalType": "bytes[]",
          "name": "calldatas",
          "type": "bytes[]"
        },
        {
          "indexed": false,
          "internalType": "uint256",
          "name": "startBlock",
          "type": "uint256"
        },
        {
          "indexed": false,
          "internalType": "uint256",
          "name": "endBlock",
          "type": "uint256"
        },
        {
          "indexed": false,
          "internalType": "string",
          "name": "description",
          "type": "string"
        }
      ],
      "name": "ProposalCreated",
      "type": "event"
    },
    {
      "anonymous": false,
      "inputs": [
        {
          "indexed": false,
          "internalType": "uint256",
          "name": "proposalId",
          "type": "uint256"
        }
      ],
      "name": "ProposalExecuted",
      "type": "event"
    },
    {
      "anonymous": false,
      "inputs": [
        {
          "indexed": true,
          "internalType": "address",
          "name": "voter",
          "type": "address"
        },
        {
          "indexed": false,
          "internalType": "uint256",
          "name": "proposalId",
          "type": "uint256"
        },
        {
          "indexed": false,
          "internalType": "uint8",
          "name": "support",
          "type": "uint8"
        },
        {
          "indexed": false,
          "internalType": "uint256",
          "name": "weight",
          "type": "uint256"
        },
        {
          "indexed": false,
          "internalType": "string",
          "name": "reason",
          "type": "string"
        }
      ],
      "name": "VoteCast",
      "type": "event"
    },
    {
      "inputs": [],
      "name": "BALLOT_TYPEHASH",
      "outputs": [
        {
          "internalType": "bytes32",
          "name": "",
          "type": "bytes32"
        }
      ],
      "stateMutability": "view",
      "type": "function"
    },
    {
      "inputs": [],
      "name": "COUNTING_MODE",
      "outputs": [
        {
          "internalType": "string",
          "name": "",
          "type": "string"
        }
      ],
      "stateMutability": "pure",
      "type": "function"
    },
    {
      "inputs": [
        {
          "internalType": "uint256",
          "name": "proposalId",
          "type": "uint256"
        },
        {
          "internalType": "uint8",
          "name": "support",
          "type": "uint8"
        }
      ],
      "name": "castVote",
      "outputs": [
        {
          "internalType": "uint256",
          "name": "",
          "type": "uint256"
        }
      ],
      "stateMutability": "nonpayable",
      "type": "function"
    },
    {
      "inputs": [
        {
          "internalType": "uint256",
          "name": "proposalId",
          "type": "uint256"
        },
        {
          "internalType": "uint8",
          "name": "support",
          "type": "uint8"
        },
        {
          "internalType": "uint8",
          "name": "v",
          "type": "uint8"
        },
        {
          "internalType": "bytes32",
          "name": "r",
          "type": "bytes32"
        },
        {
          "internalType": "bytes32",
          "name": "s",
          "type": "bytes32"
        }
      ],
      "name": "castVoteBySig",
      "outputs": [
        {
          "internalType": "uint256",
          "name": "",
          "type": "uint256"
        }
      ],
      "stateMutability": "nonpayable",
      "type": "function"
    },
    {
      "inputs": [
        {
          "internalType": "uint256",
          "name": "proposalId",
          "type": "uint256"
        },
        {
          "internalType": "uint8",
          "name": "support",
          "type": "uint8"
        },
        {
          "internalType": "string",
          "name": "reason",
          "type": "string"
        }
      ],
      "name": "castVoteWithReason",
      "outputs": [
        {
          "internalType": "uint256",
          "name": "",
          "type": "uint256"
        }
      ],
      "stateMutability": "nonpayable",
      "type": "function"
    },
    {
      "inputs": [
        {
          "internalType": "address[]",
          "name": "targets",
          "type": "address[]"
        },
        {
          "internalType": "uint256[]",
          "name": "values",
          "type": "uint256[]"
        },
        {
          "internalType": "bytes[]",
          "name": "calldatas",
          "type": "bytes[]"
        },
        {
          "internalType": "bytes32",
          "name": "descriptionHash",
          "type": "bytes32"
        }
      ],
      "name": "execute",
      "outputs": [
        {
          "internalType": "uint256",
          "name": "",
          "type": "uint256"
        }
      ],
      "stateMutability": "payable",
      "type": "function"
    },
    {
      "inputs": [
        {
          "internalType": "uint256",
          "name": "proposalId",
          "type": "uint256"
        },
        {
          "internalType": "address",
          "name": "account",
          "type": "address"
        }
      ],
      "name": "hasVoted",
      "outputs": [
        {
          "internalType": "bool",
          "name": "",
          "type": "bool"
        }
      ],
      "stateMutability": "view",
      "type": "function"
    },
    {
      "inputs": [
        {
          "internalType": "address[]",
          "name": "targets",
          "type": "address[]"
        },
        {
          "internalType": "uint256[]",
          "name": "values",
          "type": "uint256[]"
        },
        {
          "internalType": "bytes[]",
          "name": "calldatas",
          "type": "bytes[]"
        },
        {
          "internalType": "bytes32",
          "name": "descriptionHash",
          "type": "bytes32"
        }
      ],
      "name": "hashProposal",
      "outputs": [
        {
          "internalType": "uint256",
          "name": "",
          "type": "uint256"
        }
      ],
      "stateMutability": "pure",
      "type": "function"
    },
    {
      "inputs": [],
      "name": "name",
      "outputs": [
        {
          "internalType": "string",
          "name": "",
          "type": "string"
        }
      ],
      "stateMutability": "view",
      "type": "function"
    },
    {
      "inputs": [
        {
          "internalType": "uint256",
          "name": "proposalId",
          "type": "uint256"
        }
      ],
      "name": "proposalDeadline",
      "outputs": [
        {
          "internalType": "uint256",
          "name": "",
          "type": "uint256"
        }
      ],
      "stateMutability": "view",
      "type": "function"
    },
    {
      "inputs": [
        {
          "internalType": "uint256",
          "name": "proposalId",
          "type": "uint256"
        }
      ],
      "name": "proposalSnapshot",
      "outputs": [
        {
          "internalType": "uint256",
          "name": "",
          "type": "uint256"
        }
      ],
      "stateMutability": "view",
      "type": "function"
    },
    {
      "inputs": [],
      "name": "proposalThreshold",
      "outputs": [
        {
          "internalType": "uint256",
          "name": "",
          "type": "uint256"
        }
      ],
      "stateMutability": "view",
      "type": "function"
    },
    {
      "inputs": [
        {
          "internalType": "uint256",
          "name": "proposalId",
          "type": "uint256"
        }
      ],
      "name": "proposalVotes",
      "outputs": [
        {
          "internalType": "uint256",
          "name": "againstVotes",
          "type": "uint256"
        },
        {
          "internalType": "uint256",
          "name": "forVotes",
          "type": "uint256"
        },
        {
          "internalType": "uint256",
          "name": "abstainVotes",
          "type": "uint256"
        }
      ],
      "stateMutability": "view",
      "type": "function"
    },
    {
      "inputs": [
        {
          "internalType": "address[]",
          "name": "targets",
          "type": "address[]"
        },
        {
          "internalType": "uint256[]",
          "name": "values",
          "type": "uint256[]"
        },
        {
          "internalType": "bytes[]",
          "name": "calldatas",
          "type": "bytes[]"
        },
        {
          "internalType": "string",
          "name": "description",
          "type": "string"
        }
      ],
      "name": "propose",
      "outputs": [
        {
          "internalType": "uint256",
          "name": "",
          "type": "uint256"
        }
      ],
      "stateMutability": "nonpayable",
      "type": "function"
    },
    {
      "inputs": [
        {
          "internalType": "address",
          "name": "target",
          "type": "address"
        },
        {
          "internalType": "uint256",
          "name": "value",
          "type": "uint256"
        },
        {
          "internalType": "bytes",
          "name": "data",
          "type": "bytes"
        }
      ],
      "name": "relay",
      "outputs": [],
      "stateMutability": "nonpayable",
      "type": "function"
    },
    {
      "inputs": [
        {
          "internalType": "uint256",
          "name": "proposalId",
          "type": "uint256"
        }
      ],
      "name": "state",
      "outputs": [
        {
          "internalType": "enum IGovernor.ProposalState",
          "name": "",
          "type": "uint8"
        }
      ],
      "stateMutability": "view",
      "type": "function"
    },
    {
      "inputs": [
        {
          "internalType": "bytes4",
          "name": "interfaceId",
          "type": "bytes4"
        }
      ],
      "name": "supportsInterface",
      "outputs": [
        {
          "internalType": "bool",
          "name": "",
          "type": "bool"
        }
      ],
      "stateMutability": "view",
      "type": "function"
    },
    {
      "inputs": [],
      "name": "token",
      "outputs": [
        {
          "internalType": "contract ERC20VotesComp",
          "name": "",
          "type": "address"
        }
      ],
      "stateMutability": "view",
      "type": "function"
    },
    {
      "inputs": [],
      "name": "version",
      "outputs": [
        {
          "internalType": "string",
          "name": "",
          "type": "string"
        }
      ],
      "stateMutability": "view",
      "type": "function"
    },
    {
      "stateMutability": "payable",
      "type": "receive"
    },
    {
      "inputs": [
        {
          "internalType": "uint256",
          "name": "",
          "type": "uint256"
        }
      ],
      "name": "quorum",
      "outputs": [
        {
          "internalType": "uint256",
          "name": "",
          "type": "uint256"
        }
      ],
      "stateMutability": "pure",
      "type": "function"
    },
    {
      "inputs": [],
      "name": "votingDelay",
      "outputs": [
        {
          "internalType": "uint256",
          "name": "",
          "type": "uint256"
        }
      ],
      "stateMutability": "pure",
      "type": "function"
    },
    {
      "inputs": [],
      "name": "votingPeriod",
      "outputs": [
        {
          "internalType": "uint256",
          "name": "",
          "type": "uint256"
        }
      ],
      "stateMutability": "pure",
      "type": "function"
    },
    {
      "inputs": [
        {
          "internalType": "address[]",
          "name": "targets",
          "type": "address[]"
        },
        {
          "internalType": "uint256[]",
          "name": "values",
          "type": "uint256[]"
        },
        {
          "internalType": "bytes[]",
          "name": "calldatas",
          "type": "bytes[]"
        },
        {
          "internalType": "bytes32",
          "name": "salt",
          "type": "bytes32"
        }
      ],
      "name": "cancel",
      "outputs": [
        {
          "internalType": "uint256",
          "name": "proposalId",
          "type": "uint256"
        }
      ],
      "stateMutability": "nonpayable",
      "type": "function"
    },
    {
      "inputs": [
        {
          "internalType": "address",
          "name": "account",
          "type": "address"
        },
        {
          "internalType": "uint256",
          "name": "blockNumber",
          "type": "uint256"
        }
      ],
      "name": "getVotes",
      "outputs": [
        {
          "internalType": "uint256",
          "name": "",
          "type": "uint256"
        }
      ],
      "stateMutability": "view",
      "type": "function"
    }
  ],
  "bytecode": "0x6101606040523480156200001257600080fd5b506040516200471538038062004715833981810160405281019062000038919062000494565b8082806200004b6200015560201b60201c565b60008280519060200120905060008280519060200120905060007f8b73c3c69bb8fe3d512ecc4cf759cc79239f7b179b0ffacaa9a75d522b39400f90508260e081815250508161010081815250504660a08181525050620000b48184846200019260201b60201c565b608081815250503073ffffffffffffffffffffffffffffffffffffffff1660c08173ffffffffffffffffffffffffffffffffffffffff16815250508061012081815250505050505050806000908051906020019062000115929190620001ce565b50508073ffffffffffffffffffffffffffffffffffffffff166101408173ffffffffffffffffffffffffffffffffffffffff168152505050505062000603565b60606040518060400160405280600181526020017f3100000000000000000000000000000000000000000000000000000000000000815250905090565b60008383834630604051602001620001af95949392919062000541565b6040516020818303038152906040528051906020012090509392505050565b828054620001dc90620005cd565b90600052602060002090601f0160209004810192826200020057600085556200024c565b82601f106200021b57805160ff19168380011785556200024c565b828001600101855582156200024c579182015b828111156200024b5782518255916020019190600101906200022e565b5b5090506200025b91906200025f565b5090565b5b808211156200027a57600081600090555060010162000260565b5090565b6000604051905090565b600080fd5b600080fd5b600080fd5b600080fd5b6000601f19601f8301169050919050565b7f4e487b7100000000000000000000000000000000000000000000000000000000600052604160045260246000fd5b620002e7826200029c565b810181811067ffffffffffffffff82111715620003095762000308620002ad565b5b80604052505050565b60006200031e6200027e565b90506200032c8282620002dc565b919050565b600067ffffffffffffffff8211156200034f576200034e620002ad565b5b6200035a826200029c565b9050602081019050919050565b60005b83811015620003875780820151818401526020810190506200036a565b8381111562000397576000848401525b50505050565b6000620003b4620003ae8462000331565b62000312565b905082815260208101848484011115620003d357620003d262000297565b5b620003e084828562000367565b509392505050565b600082601f8301126200040057620003ff62000292565b5b8151620004128482602086016200039d565b91505092915050565b600073ffffffffffffffffffffffffffffffffffffffff82169050919050565b600062000448826200041b565b9050919050565b60006200045c826200043b565b9050919050565b6200046e816200044f565b81146200047a57600080fd5b50565b6000815190506200048e8162000463565b92915050565b60008060408385031215620004ae57620004ad62000288565b5b600083015167ffffffffffffffff811115620004cf57620004ce6200028d565b5b620004dd85828601620003e8565b9250506020620004f0858286016200047d565b9150509250929050565b6000819050919050565b6200050f81620004fa565b82525050565b6000819050919050565b6200052a8162000515565b82525050565b6200053b816200043b565b82525050565b600060a08201905062000558600083018862000504565b62000567602083018762000504565b62000576604083018662000504565b6200058560608301856200051f565b62000594608083018462000530565b9695505050505050565b7f4e487b7100000000000000000000000000000000000000000000000000000000600052602260045260246000fd5b60006002820490506001821680620005e657607f821691505b60208210811415620005fd57620005fc6200059e565b5b50919050565b60805160a05160c05160e0516101005161012051610140516140b0620006656000396000818161119901526117810152600061194601526000611988015260006119670152600061189c015260006118f20152600061191b01526140b06000f3fe60806040526004361061014f5760003560e01c806356781388116100b6578063c59057e41161006f578063c59057e41461056b578063dd4e2ba5146105a8578063deaaa7cc146105d3578063eb9019d4146105fe578063f8ce560a1461063b578063fc0c546a1461067857610195565b806356781388146104235780637b3c71d3146104605780637d5e81e21461049d578063b58131b0146104da578063c01f9e3714610505578063c28bc2fa1461054257610195565b80633bccf4fd116101085780633bccf4fd146102c55780633e4f49e614610302578063438596321461033f578063452115d61461037c578063544ffc9c146103b957806354fd4d50146103f857610195565b806301ffc9a71461019a57806302a251a3146101d757806306fdde03146102025780632656227d1461022d5780632d63f6931461025d5780633932abb11461029a57610195565b36610195573073ffffffffffffffffffffffffffffffffffffffff166101736106a3565b73ffffffffffffffffffffffffffffffffffffffff161461019357600080fd5b005b600080fd5b3480156101a657600080fd5b506101c160048036038101906101bc91906120aa565b6106ab565b6040516101ce91906120f2565b60405180910390f35b3480156101e357600080fd5b506101ec610725565b6040516101f99190612126565b60405180910390f35b34801561020e57600080fd5b5061021761072e565b60405161022491906121da565b60405180910390f35b6102476004803603810190610242919061265d565b6107c0565b6040516102549190612126565b60405180910390f35b34801561026957600080fd5b50610284600480360381019061027f9190612718565b6108f3565b6040516102919190612126565b60405180910390f35b3480156102a657600080fd5b506102af610961565b6040516102bc9190612126565b60405180910390f35b3480156102d157600080fd5b506102ec60048036038101906102e7919061277e565b61096a565b6040516102f99190612126565b60405180910390f35b34801561030e57600080fd5b5061032960048036038101906103249190612718565b6109f4565b6040516103369190612870565b60405180910390f35b34801561034b57600080fd5b506103666004803603810190610361919061288b565b610b09565b60405161037391906120f2565b60405180910390f35b34801561038857600080fd5b506103a3600480360381019061039e919061265d565b610b74565b6040516103b09190612126565b60405180910390f35b3480156103c557600080fd5b506103e060048036038101906103db9190612718565b610b8c565b6040516103ef939291906128cb565b60405180910390f35b34801561040457600080fd5b5061040d610bc4565b60405161041a91906121da565b60405180910390f35b34801561042f57600080fd5b5061044a60048036038101906104459190612902565b610c01565b6040516104579190612126565b60405180910390f35b34801561046c57600080fd5b506104876004803603810190610482919061299d565b610c32565b6040516104949190612126565b60405180910390f35b3480156104a957600080fd5b506104c460048036038101906104bf9190612ab2565b610c9a565b6040516104d19190612126565b60405180910390f35b3480156104e657600080fd5b506104ef610f9a565b6040516104fc9190612126565b60405180910390f35b34801561051157600080fd5b5061052c60048036038101906105279190612718565b610f9f565b6040516105399190612126565b60405180910390f35b34801561054e57600080fd5b5061056960048036038101906105649190612bdf565b61100d565b005b34801561057757600080fd5b50610592600480360381019061058d919061265d565b6110df565b60405161059f9190612126565b60405180910390f35b3480156105b457600080fd5b506105bd61111b565b6040516105ca91906121da565b60405180910390f35b3480156105df57600080fd5b506105e8611158565b6040516105f59190612c62565b60405180910390f35b34801561060a57600080fd5b5061062560048036038101906106209190612c7d565b61117c565b6040516106329190612126565b60405180910390f35b34801561064757600080fd5b50610662600480360381019061065d9190612718565b611190565b60405161066f9190612126565b60405180910390f35b34801561068457600080fd5b5061068d611197565b60405161069a9190612d1c565b60405180910390f35b600030905090565b60007fbf26d897000000000000000000000000000000000000000000000000000000007bffffffffffffffffffffffffffffffffffffffffffffffffffffffff1916827bffffffffffffffffffffffffffffffffffffffffffffffffffffffff1916148061071e575061071d826111bb565b5b9050919050565b60006010905090565b60606000805461073d90612d66565b80601f016020809104026020016040519081016040528092919081815260200182805461076990612d66565b80156107b65780601f1061078b576101008083540402835291602001916107b6565b820191906000526020600020905b81548152906001019060200180831161079957829003601f168201915b5050505050905090565b6000806107cf868686866110df565b905060006107dc826109f4565b9050600460078111156107f2576107f16127f9565b5b816007811115610805576108046127f9565b5b14806108355750600560078111156108205761081f6127f9565b5b816007811115610833576108326127f9565b5b145b610874576040517f08c379a000000000000000000000000000000000000000000000000000000000815260040161086b90612e0a565b60405180910390fd5b600180600084815260200190815260200160002060020160006101000a81548160ff0219169083151502179055507f712ae1383f79ac853f8d882153778e0260ef8f03b504e2866e0593e04d2b291f826040516108d19190612126565b60405180910390a16108e68288888888611225565b8192505050949350505050565b6000610950600160008481526020019081526020016000206000016040518060200160405290816000820160009054906101000a900467ffffffffffffffff1667ffffffffffffffff1667ffffffffffffffff1681525050611334565b67ffffffffffffffff169050919050565b60006004905090565b6000806109cb6109c37f150214d74d59b7d1e90c73fc22ef3d991dd0a76b046543d4d80ab92d2a50328f89896040516020016109a893929190612e39565b60405160208183030381529060405280519060200120611342565b86868661135c565b90506109e887828860405180602001604052806000815250611387565b91505095945050505050565b6000806001600084815260200190815260200160002090508060020160009054906101000a900460ff1615610a2d576007915050610b04565b8060020160019054906101000a900460ff1615610a4e576002915050610b04565b6000610a59846108f3565b90506000811415610a9f576040517f08c379a0000000000000000000000000000000000000000000000000000000008152600401610a9690612ebc565b60405180910390fd5b438110610ab157600092505050610b04565b6000610abc85610f9f565b9050438110610ad15760019350505050610b04565b610ada856114db565b8015610aeb5750610aea85611522565b5b15610afc5760049350505050610b04565b600393505050505b919050565b60006002600084815260200190815260200160002060030160008373ffffffffffffffffffffffffffffffffffffffff1673ffffffffffffffffffffffffffffffffffffffff16815260200190815260200160002060009054906101000a900460ff16905092915050565b6000610b828585858561154d565b9050949350505050565b600080600080600260008681526020019081526020016000209050806000015481600101548260020154935093509350509193909250565b60606040518060400160405280600181526020017f3100000000000000000000000000000000000000000000000000000000000000815250905090565b600080610c0c6116a6565b9050610c2984828560405180602001604052806000815250611387565b91505092915050565b600080610c3d6116a6565b9050610c8f86828787878080601f016020809104026020016040519081016040528093929190818152602001838380828437600081840152601f19601f82011690508083019250505050505050611387565b915050949350505050565b6000610ca4610f9a565b610cba33600143610cb59190612f0b565b61117c565b1015610cfb576040517f08c379a0000000000000000000000000000000000000000000000000000000008152600401610cf290612fd7565b60405180910390fd5b6000610d1086868686805190602001206110df565b90508451865114610d56576040517f08c379a0000000000000000000000000000000000000000000000000000000008152600401610d4d90613069565b60405180910390fd5b8351865114610d9a576040517f08c379a0000000000000000000000000000000000000000000000000000000008152600401610d9190613069565b60405180910390fd5b6000865111610dde576040517f08c379a0000000000000000000000000000000000000000000000000000000008152600401610dd5906130d5565b60405180910390fd5b6000600160008381526020019081526020016000209050610e3e816000016040518060200160405290816000820160009054906101000a900467ffffffffffffffff1667ffffffffffffffff1667ffffffffffffffff16815250506116ae565b610e7d576040517f08c379a0000000000000000000000000000000000000000000000000000000008152600401610e7490613167565b60405180910390fd5b6000610e8f610e8a610961565b6116c8565b610e98436116c8565b610ea2919061319b565b90506000610eb6610eb1610725565b6116c8565b82610ec1919061319b565b9050610ed9828460000161171f90919063ffffffff16565b610eef818460010161171f90919063ffffffff16565b7f7d84a6263ae0d98d3329bd7b46bb4e8d6f98cd35a7adb45c274c8b7fd5ebd5e084610f196116a6565b8b8b8d5167ffffffffffffffff811115610f3657610f35612201565b5b604051908082528060200260200182016040528015610f6957816020015b6060815260200190600190039081610f545790505b508c88888e604051610f83999897969594939291906135b8565b60405180910390a183945050505050949350505050565b600090565b6000610ffc600160008481526020019081526020016000206001016040518060200160405290816000820160009054906101000a900467ffffffffffffffff1667ffffffffffffffff1667ffffffffffffffff1681525050611334565b67ffffffffffffffff169050919050565b6110156106a3565b73ffffffffffffffffffffffffffffffffffffffff166110336116a6565b73ffffffffffffffffffffffffffffffffffffffff1614611089576040517f08c379a0000000000000000000000000000000000000000000000000000000008152600401611080906136b4565b60405180910390fd5b6110d88483838080601f016020809104026020016040519081016040528093929190818152602001838380828437600081840152601f19601f820116905080830192505050505050508561174e565b5050505050565b6000848484846040516020016110f894939291906136d4565b6040516020818303038152906040528051906020012060001c9050949350505050565b60606040518060400160405280602081526020017f737570706f72743d627261766f2671756f72756d3d666f722c6162737461696e815250905090565b7f150214d74d59b7d1e90c73fc22ef3d991dd0a76b046543d4d80ab92d2a50328f81565b6000611188838361177d565b905092915050565b6000919050565b7f000000000000000000000000000000000000000000000000000000000000000081565b60007f01ffc9a7000000000000000000000000000000000000000000000000000000007bffffffffffffffffffffffffffffffffffffffffffffffffffffffff1916827bffffffffffffffffffffffffffffffffffffffffffffffffffffffff1916149050919050565b600060405180606001604052806027815260200161402b60279139905060005b855181101561132b576000808783815181106112645761126361372e565b5b602002602001015173ffffffffffffffffffffffffffffffffffffffff168784815181106112955761129461372e565b5b60200260200101518785815181106112b0576112af61372e565b5b60200260200101516040516112c59190613799565b60006040518083038185875af1925050503d8060008114611302576040519150601f19603f3d011682016040523d82523d6000602084013e611307565b606091505b5091509150611317828286611831565b50505080611324906137b0565b9050611245565b50505050505050565b600081600001519050919050565b600061135561134f611898565b836119b2565b9050919050565b600080600061136d878787876119e5565b9150915061137a81611af2565b8192505050949350505050565b600080600160008781526020019081526020016000209050600160078111156113b3576113b26127f9565b5b6113bc876109f4565b60078111156113ce576113cd6127f9565b5b1461140e576040517f08c379a00000000000000000000000000000000000000000000000000000000081526004016114059061386b565b60405180910390fd5b600061146c8661145d846000016040518060200160405290816000820160009054906101000a900467ffffffffffffffff1667ffffffffffffffff1667ffffffffffffffff1681525050611334565b67ffffffffffffffff1661117c565b905061147a87878784611cc7565b8573ffffffffffffffffffffffffffffffffffffffff167fb8e138887d0aa13bab447e82de9d5c1777041ecd21ca36ba824ff1e6c07ddda4888784886040516114c6949392919061388b565b60405180910390a28092505050949350505050565b6000806002600084815260200190815260200160002090508060020154816001015461150791906138d7565b611518611513856108f3565b611190565b1115915050919050565b6000806002600084815260200190815260200160002090508060000154816001015411915050919050565b60008061155c868686866110df565b90506000611569826109f4565b90506002600781111561157f5761157e6127f9565b5b816007811115611592576115916127f9565b5b141580156115c55750600660078111156115af576115ae6127f9565b5b8160078111156115c2576115c16127f9565b5b14155b80156115f557506007808111156115df576115de6127f9565b5b8160078111156115f2576115f16127f9565b5b14155b611634576040517f08c379a000000000000000000000000000000000000000000000000000000000815260040161162b90613979565b60405180910390fd5b600180600084815260200190815260200160002060020160016101000a81548160ff0219169083151502179055507f789cf55be980739dad1d0699b93b58e806b51c9d96619bfa8fe0a28abaa7b30c826040516116919190612126565b60405180910390a18192505050949350505050565b600033905090565b600080826000015167ffffffffffffffff16149050919050565b600067ffffffffffffffff8016821115611717576040517f08c379a000000000000000000000000000000000000000000000000000000000815260040161170e90613a0b565b60405180910390fd5b819050919050565b808260000160006101000a81548167ffffffffffffffff021916908367ffffffffffffffff1602179055505050565b606061177484848460405180606001604052806029815260200161405260299139611ecd565b90509392505050565b60007f000000000000000000000000000000000000000000000000000000000000000073ffffffffffffffffffffffffffffffffffffffff1663782d6fe184846040518363ffffffff1660e01b81526004016117da929190613a2b565b602060405180830381865afa1580156117f7573d6000803e3d6000fd5b505050506040513d601f19601f8201168201806040525081019061181b9190613a98565b6bffffffffffffffffffffffff16905092915050565b6060831561184157829050611891565b6000835111156118545782518084602001fd5b816040517f08c379a000000000000000000000000000000000000000000000000000000000815260040161188891906121da565b60405180910390fd5b9392505050565b60007f000000000000000000000000000000000000000000000000000000000000000073ffffffffffffffffffffffffffffffffffffffff163073ffffffffffffffffffffffffffffffffffffffff1614801561191457507f000000000000000000000000000000000000000000000000000000000000000046145b15611941577f000000000000000000000000000000000000000000000000000000000000000090506119af565b6119ac7f00000000000000000000000000000000000000000000000000000000000000007f00000000000000000000000000000000000000000000000000000000000000007f0000000000000000000000000000000000000000000000000000000000000000611fe1565b90505b90565b600082826040516020016119c7929190613b3d565b60405160208183030381529060405280519060200120905092915050565b6000807f7fffffffffffffffffffffffffffffff5d576e7357a4501ddfe92f46681b20a08360001c1115611a20576000600391509150611ae9565b601b8560ff1614158015611a385750601c8560ff1614155b15611a4a576000600491509150611ae9565b600060018787878760405160008152602001604052604051611a6f9493929190613b74565b6020604051602081039080840390855afa158015611a91573d6000803e3d6000fd5b505050602060405103519050600073ffffffffffffffffffffffffffffffffffffffff168173ffffffffffffffffffffffffffffffffffffffff161415611ae057600060019250925050611ae9565b80600092509250505b94509492505050565b60006004811115611b0657611b056127f9565b5b816004811115611b1957611b186127f9565b5b1415611b2457611cc4565b60016004811115611b3857611b376127f9565b5b816004811115611b4b57611b4a6127f9565b5b1415611b8c576040517f08c379a0000000000000000000000000000000000000000000000000000000008152600401611b8390613c05565b60405180910390fd5b60026004811115611ba057611b9f6127f9565b5b816004811115611bb357611bb26127f9565b5b1415611bf4576040517f08c379a0000000000000000000000000000000000000000000000000000000008152600401611beb90613c71565b60405180910390fd5b60036004811115611c0857611c076127f9565b5b816004811115611c1b57611c1a6127f9565b5b1415611c5c576040517f08c379a0000000000000000000000000000000000000000000000000000000008152600401611c5390613d03565b60405180910390fd5b600480811115611c6f57611c6e6127f9565b5b816004811115611c8257611c816127f9565b5b1415611cc3576040517f08c379a0000000000000000000000000000000000000000000000000000000008152600401611cba90613d95565b60405180910390fd5b5b50565b60006002600086815260200190815260200160002090508060030160008573ffffffffffffffffffffffffffffffffffffffff1673ffffffffffffffffffffffffffffffffffffffff16815260200190815260200160002060009054906101000a900460ff1615611d6d576040517f08c379a0000000000000000000000000000000000000000000000000000000008152600401611d6490613e27565b60405180910390fd5b60018160030160008673ffffffffffffffffffffffffffffffffffffffff1673ffffffffffffffffffffffffffffffffffffffff16815260200190815260200160002060006101000a81548160ff02191690831515021790555060006002811115611ddb57611dda6127f9565b5b60ff168360ff161415611e085781816000016000828254611dfc91906138d7565b92505081905550611ec6565b60016002811115611e1c57611e1b6127f9565b5b60ff168360ff161415611e495781816001016000828254611e3d91906138d7565b92505081905550611ec5565b600280811115611e5c57611e5b6127f9565b5b60ff168360ff161415611e895781816002016000828254611e7d91906138d7565b92505081905550611ec4565b6040517f08c379a0000000000000000000000000000000000000000000000000000000008152600401611ebb90613eb9565b60405180910390fd5b5b5b5050505050565b606082471015611f12576040517f08c379a0000000000000000000000000000000000000000000000000000000008152600401611f0990613f4b565b60405180910390fd5b611f1b8561201b565b611f5a576040517f08c379a0000000000000000000000000000000000000000000000000000000008152600401611f5190613fb7565b60405180910390fd5b6000808673ffffffffffffffffffffffffffffffffffffffff168587604051611f839190613799565b60006040518083038185875af1925050503d8060008114611fc0576040519150601f19603f3d011682016040523d82523d6000602084013e611fc5565b606091505b5091509150611fd5828286611831565b92505050949350505050565b60008383834630604051602001611ffc959493929190613fd7565b6040516020818303038152906040528051906020012090509392505050565b6000808273ffffffffffffffffffffffffffffffffffffffff163b119050919050565b6000604051905090565b600080fd5b600080fd5b60007fffffffff0000000000000000000000000000000000000000000000000000000082169050919050565b61208781612052565b811461209257600080fd5b50565b6000813590506120a48161207e565b92915050565b6000602082840312156120c0576120bf612048565b5b60006120ce84828501612095565b91505092915050565b60008115159050919050565b6120ec816120d7565b82525050565b600060208201905061210760008301846120e3565b92915050565b6000819050919050565b6121208161210d565b82525050565b600060208201905061213b6000830184612117565b92915050565b600081519050919050565b600082825260208201905092915050565b60005b8381101561217b578082015181840152602081019050612160565b8381111561218a576000848401525b50505050565b6000601f19601f8301169050919050565b60006121ac82612141565b6121b6818561214c565b93506121c681856020860161215d565b6121cf81612190565b840191505092915050565b600060208201905081810360008301526121f481846121a1565b905092915050565b600080fd5b7f4e487b7100000000000000000000000000000000000000000000000000000000600052604160045260246000fd5b61223982612190565b810181811067ffffffffffffffff8211171561225857612257612201565b5b80604052505050565b600061226b61203e565b90506122778282612230565b919050565b600067ffffffffffffffff82111561229757612296612201565b5b602082029050602081019050919050565b600080fd5b600073ffffffffffffffffffffffffffffffffffffffff82169050919050565b60006122d8826122ad565b9050919050565b6122e8816122cd565b81146122f357600080fd5b50565b600081359050612305816122df565b92915050565b600061231e6123198461227c565b612261565b90508083825260208201905060208402830185811115612341576123406122a8565b5b835b8181101561236a578061235688826122f6565b845260208401935050602081019050612343565b5050509392505050565b600082601f830112612389576123886121fc565b5b813561239984826020860161230b565b91505092915050565b600067ffffffffffffffff8211156123bd576123bc612201565b5b602082029050602081019050919050565b6123d78161210d565b81146123e257600080fd5b50565b6000813590506123f4816123ce565b92915050565b600061240d612408846123a2565b612261565b905080838252602082019050602084028301858111156124305761242f6122a8565b5b835b81811015612459578061244588826123e5565b845260208401935050602081019050612432565b5050509392505050565b600082601f830112612478576124776121fc565b5b81356124888482602086016123fa565b91505092915050565b600067ffffffffffffffff8211156124ac576124ab612201565b5b602082029050602081019050919050565b600080fd5b600067ffffffffffffffff8211156124dd576124dc612201565b5b6124e682612190565b9050602081019050919050565b82818337600083830152505050565b6000612515612510846124c2565b612261565b905082815260208101848484011115612531576125306124bd565b5b61253c8482856124f3565b509392505050565b600082601f830112612559576125586121fc565b5b8135612569848260208601612502565b91505092915050565b600061258561258084612491565b612261565b905080838252602082019050602084028301858111156125a8576125a76122a8565b5b835b818110156125ef57803567ffffffffffffffff8111156125cd576125cc6121fc565b5b8086016125da8982612544565b855260208501945050506020810190506125aa565b5050509392505050565b600082601f83011261260e5761260d6121fc565b5b813561261e848260208601612572565b91505092915050565b6000819050919050565b61263a81612627565b811461264557600080fd5b50565b60008135905061265781612631565b92915050565b6000806000806080858703121561267757612676612048565b5b600085013567ffffffffffffffff8111156126955761269461204d565b5b6126a187828801612374565b945050602085013567ffffffffffffffff8111156126c2576126c161204d565b5b6126ce87828801612463565b935050604085013567ffffffffffffffff8111156126ef576126ee61204d565b5b6126fb878288016125f9565b925050606061270c87828801612648565b91505092959194509250565b60006020828403121561272e5761272d612048565b5b600061273c848285016123e5565b91505092915050565b600060ff82169050919050565b61275b81612745565b811461276657600080fd5b50565b60008135905061277881612752565b92915050565b600080600080600060a0868803121561279a57612799612048565b5b60006127a8888289016123e5565b95505060206127b988828901612769565b94505060406127ca88828901612769565b93505060606127db88828901612648565b92505060806127ec88828901612648565b9150509295509295909350565b7f4e487b7100000000000000000000000000000000000000000000000000000000600052602160045260246000fd5b60088110612839576128386127f9565b5b50565b600081905061284a82612828565b919050565b600061285a8261283c565b9050919050565b61286a8161284f565b82525050565b60006020820190506128856000830184612861565b92915050565b600080604083850312156128a2576128a1612048565b5b60006128b0858286016123e5565b92505060206128c1858286016122f6565b9150509250929050565b60006060820190506128e06000830186612117565b6128ed6020830185612117565b6128fa6040830184612117565b949350505050565b6000806040838503121561291957612918612048565b5b6000612927858286016123e5565b925050602061293885828601612769565b9150509250929050565b600080fd5b60008083601f84011261295d5761295c6121fc565b5b8235905067ffffffffffffffff81111561297a57612979612942565b5b602083019150836001820283011115612996576129956122a8565b5b9250929050565b600080600080606085870312156129b7576129b6612048565b5b60006129c5878288016123e5565b94505060206129d687828801612769565b935050604085013567ffffffffffffffff8111156129f7576129f661204d565b5b612a0387828801612947565b925092505092959194509250565b600067ffffffffffffffff821115612a2c57612a2b612201565b5b612a3582612190565b9050602081019050919050565b6000612a55612a5084612a11565b612261565b905082815260208101848484011115612a7157612a706124bd565b5b612a7c8482856124f3565b509392505050565b600082601f830112612a9957612a986121fc565b5b8135612aa9848260208601612a42565b91505092915050565b60008060008060808587031215612acc57612acb612048565b5b600085013567ffffffffffffffff811115612aea57612ae961204d565b5b612af687828801612374565b945050602085013567ffffffffffffffff811115612b1757612b1661204d565b5b612b2387828801612463565b935050604085013567ffffffffffffffff811115612b4457612b4361204d565b5b612b50878288016125f9565b925050606085013567ffffffffffffffff811115612b7157612b7061204d565b5b612b7d87828801612a84565b91505092959194509250565b60008083601f840112612b9f57612b9e6121fc565b5b8235905067ffffffffffffffff811115612bbc57612bbb612942565b5b602083019150836001820283011115612bd857612bd76122a8565b5b9250929050565b60008060008060608587031215612bf957612bf8612048565b5b6000612c07878288016122f6565b9450506020612c18878288016123e5565b935050604085013567ffffffffffffffff811115612c3957612c3861204d565b5b612c4587828801612b89565b925092505092959194509250565b612c5c81612627565b82525050565b6000602082019050612c776000830184612c53565b92915050565b60008060408385031215612c9457612c93612048565b5b6000612ca2858286016122f6565b9250506020612cb3858286016123e5565b9150509250929050565b6000819050919050565b6000612ce2612cdd612cd8846122ad565b612cbd565b6122ad565b9050919050565b6000612cf482612cc7565b9050919050565b6000612d0682612ce9565b9050919050565b612d1681612cfb565b82525050565b6000602082019050612d316000830184612d0d565b92915050565b7f4e487b7100000000000000000000000000000000000000000000000000000000600052602260045260246000fd5b60006002820490506001821680612d7e57607f821691505b60208210811415612d9257612d91612d37565b5b50919050565b7f476f7665726e6f723a2070726f706f73616c206e6f742073756363657373667560008201527f6c00000000000000000000000000000000000000000000000000000000000000602082015250565b6000612df460218361214c565b9150612dff82612d98565b604082019050919050565b60006020820190508181036000830152612e2381612de7565b9050919050565b612e3381612745565b82525050565b6000606082019050612e4e6000830186612c53565b612e5b6020830185612117565b612e686040830184612e2a565b949350505050565b7f476f7665726e6f723a20756e6b6e6f776e2070726f706f73616c206964000000600082015250565b6000612ea6601d8361214c565b9150612eb182612e70565b602082019050919050565b60006020820190508181036000830152612ed581612e99565b9050919050565b7f4e487b7100000000000000000000000000000000000000000000000000000000600052601160045260246000fd5b6000612f168261210d565b9150612f218361210d565b925082821015612f3457612f33612edc565b5b828203905092915050565b7f476f7665726e6f72436f6d7061746962696c697479427261766f3a2070726f7060008201527f6f73657220766f7465732062656c6f772070726f706f73616c2074687265736860208201527f6f6c640000000000000000000000000000000000000000000000000000000000604082015250565b6000612fc160438361214c565b9150612fcc82612f3f565b606082019050919050565b60006020820190508181036000830152612ff081612fb4565b9050919050565b7f476f7665726e6f723a20696e76616c69642070726f706f73616c206c656e677460008201527f6800000000000000000000000000000000000000000000000000000000000000602082015250565b600061305360218361214c565b915061305e82612ff7565b604082019050919050565b6000602082019050818103600083015261308281613046565b9050919050565b7f476f7665726e6f723a20656d7074792070726f706f73616c0000000000000000600082015250565b60006130bf60188361214c565b91506130ca82613089565b602082019050919050565b600060208201905081810360008301526130ee816130b2565b9050919050565b7f476f7665726e6f723a2070726f706f73616c20616c726561647920657869737460008201527f7300000000000000000000000000000000000000000000000000000000000000602082015250565b600061315160218361214c565b915061315c826130f5565b604082019050919050565b6000602082019050818103600083015261318081613144565b9050919050565b600067ffffffffffffffff82169050919050565b60006131a682613187565b91506131b183613187565b92508267ffffffffffffffff038211156131ce576131cd612edc565b5b828201905092915050565b6131e2816122cd565b82525050565b600081519050919050565b600082825260208201905092915050565b6000819050602082019050919050565b61321d816122cd565b82525050565b600061322f8383613214565b60208301905092915050565b6000602082019050919050565b6000613253826131e8565b61325d81856131f3565b935061326883613204565b8060005b838110156132995781516132808882613223565b975061328b8361323b565b92505060018101905061326c565b5085935050505092915050565b600081519050919050565b600082825260208201905092915050565b6000819050602082019050919050565b6132db8161210d565b82525050565b60006132ed83836132d2565b60208301905092915050565b6000602082019050919050565b6000613311826132a6565b61331b81856132b1565b9350613326836132c2565b8060005b8381101561335757815161333e88826132e1565b9750613349836132f9565b92505060018101905061332a565b5085935050505092915050565b600081519050919050565b600082825260208201905092915050565b6000819050602082019050919050565b600082825260208201905092915050565b60006133ac82612141565b6133b68185613390565b93506133c681856020860161215d565b6133cf81612190565b840191505092915050565b60006133e683836133a1565b905092915050565b6000602082019050919050565b600061340682613364565b613410818561336f565b93508360208202850161342285613380565b8060005b8581101561345e578484038952815161343f85826133da565b945061344a836133ee565b925060208a01995050600181019050613426565b50829750879550505050505092915050565b600081519050919050565b600082825260208201905092915050565b6000819050602082019050919050565b600081519050919050565b600082825260208201905092915050565b60006134c38261349c565b6134cd81856134a7565b93506134dd81856020860161215d565b6134e681612190565b840191505092915050565b60006134fd83836134b8565b905092915050565b6000602082019050919050565b600061351d82613470565b613527818561347b565b9350836020820285016135398561348c565b8060005b85811015613575578484038952815161355685826134f1565b945061356183613505565b925060208a0199505060018101905061353d565b50829750879550505050505092915050565b60006135a261359d61359884613187565b612cbd565b61210d565b9050919050565b6135b281613587565b82525050565b6000610120820190506135ce600083018c612117565b6135db602083018b6131d9565b81810360408301526135ed818a613248565b905081810360608301526136018189613306565b9050818103608083015261361581886133fb565b905081810360a08301526136298187613512565b905061363860c08301866135a9565b61364560e08301856135a9565b81810361010083015261365881846121a1565b90509a9950505050505050505050565b7f476f7665726e6f723a206f6e6c79476f7665726e616e63650000000000000000600082015250565b600061369e60188361214c565b91506136a982613668565b602082019050919050565b600060208201905081810360008301526136cd81613691565b9050919050565b600060808201905081810360008301526136ee8187613248565b905081810360208301526137028186613306565b905081810360408301526137168185613512565b90506137256060830184612c53565b95945050505050565b7f4e487b7100000000000000000000000000000000000000000000000000000000600052603260045260246000fd5b600081905092915050565b60006137738261349c565b61377d818561375d565b935061378d81856020860161215d565b80840191505092915050565b60006137a58284613768565b915081905092915050565b60006137bb8261210d565b91507fffffffffffffffffffffffffffffffffffffffffffffffffffffffffffffffff8214156137ee576137ed612edc565b5b600182019050919050565b7f476f7665726e6f723a20766f7465206e6f742063757272656e746c792061637460008201527f6976650000000000000000000000000000000000000000000000000000000000602082015250565b600061385560238361214c565b9150613860826137f9565b604082019050919050565b6000602082019050818103600083015261388481613848565b9050919050565b60006080820190506138a06000830187612117565b6138ad6020830186612e2a565b6138ba6040830185612117565b81810360608301526138cc81846121a1565b905095945050505050565b60006138e28261210d565b91506138ed8361210d565b9250827fffffffffffffffffffffffffffffffffffffffffffffffffffffffffffffffff0382111561392257613921612edc565b5b828201905092915050565b7f476f7665726e6f723a2070726f706f73616c206e6f7420616374697665000000600082015250565b6000613963601d8361214c565b915061396e8261392d565b602082019050919050565b6000602082019050818103600083015261399281613956565b9050919050565b7f53616665436173743a2076616c756520646f65736e27742066697420696e203660008201527f3420626974730000000000000000000000000000000000000000000000000000602082015250565b60006139f560268361214c565b9150613a0082613999565b604082019050919050565b60006020820190508181036000830152613a24816139e8565b9050919050565b6000604082019050613a4060008301856131d9565b613a4d6020830184612117565b9392505050565b60006bffffffffffffffffffffffff82169050919050565b613a7581613a54565b8114613a8057600080fd5b50565b600081519050613a9281613a6c565b92915050565b600060208284031215613aae57613aad612048565b5b6000613abc84828501613a83565b91505092915050565b600081905092915050565b7f1901000000000000000000000000000000000000000000000000000000000000600082015250565b6000613b06600283613ac5565b9150613b1182613ad0565b600282019050919050565b6000819050919050565b613b37613b3282612627565b613b1c565b82525050565b6000613b4882613af9565b9150613b548285613b26565b602082019150613b648284613b26565b6020820191508190509392505050565b6000608082019050613b896000830187612c53565b613b966020830186612e2a565b613ba36040830185612c53565b613bb06060830184612c53565b95945050505050565b7f45434453413a20696e76616c6964207369676e61747572650000000000000000600082015250565b6000613bef60188361214c565b9150613bfa82613bb9565b602082019050919050565b60006020820190508181036000830152613c1e81613be2565b9050919050565b7f45434453413a20696e76616c6964207369676e6174757265206c656e67746800600082015250565b6000613c5b601f8361214c565b9150613c6682613c25565b602082019050919050565b60006020820190508181036000830152613c8a81613c4e565b9050919050565b7f45434453413a20696e76616c6964207369676e6174757265202773272076616c60008201527f7565000000000000000000000000000000000000000000000000000000000000602082015250565b6000613ced60228361214c565b9150613cf882613c91565b604082019050919050565b60006020820190508181036000830152613d1c81613ce0565b9050919050565b7f45434453413a20696e76616c6964207369676e6174757265202776272076616c60008201527f7565000000000000000000000000000000000000000000000000000000000000602082015250565b6000613d7f60228361214c565b9150613d8a82613d23565b604082019050919050565b60006020820190508181036000830152613dae81613d72565b9050919050565b7f476f7665726e6f72566f74696e6753696d706c653a20766f746520616c72656160008201527f6479206361737400000000000000000000000000000000000000000000000000602082015250565b6000613e1160278361214c565b9150613e1c82613db5565b604082019050919050565b60006020820190508181036000830152613e4081613e04565b9050919050565b7f476f7665726e6f72566f74696e6753696d706c653a20696e76616c696420766160008201527f6c756520666f7220656e756d20566f7465547970650000000000000000000000602082015250565b6000613ea360358361214c565b9150613eae82613e47565b604082019050919050565b60006020820190508181036000830152613ed281613e96565b9050919050565b7f416464726573733a20696e73756666696369656e742062616c616e636520666f60008201527f722063616c6c0000000000000000000000000000000000000000000000000000602082015250565b6000613f3560268361214c565b9150613f4082613ed9565b604082019050919050565b60006020820190508181036000830152613f6481613f28565b9050919050565b7f416464726573733a2063616c6c20746f206e6f6e2d636f6e7472616374000000600082015250565b6000613fa1601d8361214c565b9150613fac82613f6b565b602082019050919050565b60006020820190508181036000830152613fd081613f94565b9050919050565b600060a082019050613fec6000830188612c53565b613ff96020830187612c53565b6140066040830186612c53565b6140136060830185612117565b61402060808301846131d9565b969550505050505056fe476f7665726e6f723a2063616c6c20726576657274656420776974686f7574206d657373616765416464726573733a206c6f772d6c6576656c2063616c6c20776974682076616c7565206661696c6564a26469706673582212205343c7d3de21899562cbe614f9b24243bb605077c1bc383d0387aa2aed5ec90b64736f6c634300080b0033",
  "immutableReferences": {
    "6513": [
      {
        "length": 32,
        "start": 4505
      },
      {
        "length": 32,
        "start": 6017
      }
    ],
    "28894": [
      {
        "length": 32,
        "start": 6427
      }
    ],
    "28896": [
      {
        "length": 32,
        "start": 6386
      }
    ],
    "28898": [
      {
        "length": 32,
        "start": 6300
      }
    ],
    "28900": [
      {
        "length": 32,
        "start": 6503
      }
    ],
    "28902": [
      {
        "length": 32,
        "start": 6536
      }
    ],
    "28904": [
      {
        "length": 32,
        "start": 6470
      }
    ]
  },
  "source": "// SPDX-License-Identifier: MIT\r\n\r\npragma solidity ^0.8.0;\r\n\r\nimport \"../governance/extensions/GovernorCountingSimple.sol\";\r\nimport \"../governance/extensions/GovernorVotesComp.sol\";\r\n\r\ncontract GovernorCompMock is GovernorVotesComp, GovernorCountingSimple {\r\n    constructor(string memory name_, ERC20VotesComp token_) Governor(name_) GovernorVotesComp(token_) {}\r\n\r\n    function quorum(uint256) public pure override returns (uint256) {\r\n        return 0;\r\n    }\r\n\r\n    function votingDelay() public pure override returns (uint256) {\r\n        return 4;\r\n    }\r\n\r\n    function votingPeriod() public pure override returns (uint256) {\r\n        return 16;\r\n    }\r\n\r\n    function cancel(\r\n        address[] memory targets,\r\n        uint256[] memory values,\r\n        bytes[] memory calldatas,\r\n        bytes32 salt\r\n    ) public returns (uint256 proposalId) {\r\n        return _cancel(targets, values, calldatas, salt);\r\n    }\r\n\r\n    function getVotes(address account, uint256 blockNumber)\r\n        public\r\n        view\r\n        virtual\r\n        override(IGovernor, GovernorVotesComp)\r\n        returns (uint256)\r\n    {\r\n        return super.getVotes(account, blockNumber);\r\n    }\r\n}\r\n",
  "sourcePath": "C:\\Users\\Alexandr\\dev\\nft-sim\\contract\\contracts\\mocks\\GovernorCompMock.sol",
  "compiler": {
    "name": "solc",
    "version": "0.8.11+commit.d7f03943.Emscripten.clang"
  },
  "schemaVersion": "3.4.4",
  "updatedAt": "2022-02-17T11:42:20.465Z",
  "devdoc": {
    "kind": "dev",
    "methods": {
      "COUNTING_MODE()": {
        "details": "See {IGovernor-COUNTING_MODE}."
      },
      "castVote(uint256,uint8)": {
        "details": "See {IGovernor-castVote}."
      },
      "castVoteBySig(uint256,uint8,uint8,bytes32,bytes32)": {
        "details": "See {IGovernor-castVoteBySig}."
      },
      "castVoteWithReason(uint256,uint8,string)": {
        "details": "See {IGovernor-castVoteWithReason}."
      },
      "execute(address[],uint256[],bytes[],bytes32)": {
        "details": "See {IGovernor-execute}."
      },
      "hasVoted(uint256,address)": {
        "details": "See {IGovernor-hasVoted}."
      },
      "hashProposal(address[],uint256[],bytes[],bytes32)": {
        "details": "See {IGovernor-hashProposal}. The proposal id is produced by hashing the RLC encoded `targets` array, the `values` array, the `calldatas` array and the descriptionHash (bytes32 which itself is the keccak256 hash of the description string). This proposal id can be produced from the proposal data which is part of the {ProposalCreated} event. It can even be computed in advance, before the proposal is submitted. Note that the chainId and the governor address are not part of the proposal id computation. Consequently, the same proposal (with same operation and same description) will have the same id if submitted on multiple governors accross multiple networks. This also means that in order to execute the same operation twice (on the same governor) the proposer will have to change the description in order to avoid proposal id conflicts."
      },
      "name()": {
        "details": "See {IGovernor-name}."
      },
      "proposalDeadline(uint256)": {
        "details": "See {IGovernor-proposalDeadline}."
      },
      "proposalSnapshot(uint256)": {
        "details": "See {IGovernor-proposalSnapshot}."
      },
      "proposalThreshold()": {
        "details": "Part of the Governor Bravo's interface: _\"The number of votes required in order for a voter to become a proposer\"_."
      },
      "proposalVotes(uint256)": {
        "details": "Accessor to the internal vote counts."
      },
      "propose(address[],uint256[],bytes[],string)": {
        "details": "See {IGovernor-propose}."
      },
      "relay(address,uint256,bytes)": {
        "details": "Relays a transaction or function call to an arbitrary target. In cases where the governance executor is some contract other than the governor itself, like when using a timelock, this function can be invoked in a governance proposal to recover tokens or Ether that was sent to the governor contract by mistake. Note that if the executor is simply the governor itself, use of `relay` is redundant."
      },
      "state(uint256)": {
        "details": "See {IGovernor-state}."
      },
      "supportsInterface(bytes4)": {
        "details": "See {IERC165-supportsInterface}."
      },
      "version()": {
        "details": "See {IGovernor-version}."
      },
      "votingDelay()": {
        "details": "Delay, in number of block, between the proposal is created and the vote starts. This can be increassed to leave time for users to buy voting power, of delegate it, before the voting of a proposal starts."
      },
      "votingPeriod()": {
        "details": "Delay, in number of blocks, between the vote start and vote ends. NOTE: The {votingDelay} can delay the start of the vote. This must be considered when setting the voting duration compared to the voting delay."
      }
    },
    "version": 1
  },
  "userdoc": {
    "kind": "user",
    "methods": {
      "votingDelay()": {
        "notice": "module:user-config"
      },
      "votingPeriod()": {
        "notice": "module:user-config"
      }
    },
    "version": 1
  }
}