{
  "contractName": "MigratableMockV1",
  "abi": [
    {
      "inputs": [],
      "name": "x",
      "outputs": [
        {
          "internalType": "uint256",
          "name": "",
          "type": "uint256"
        }
      ],
      "stateMutability": "view",
      "type": "function"
    },
    {
      "inputs": [
        {
          "internalType": "uint256",
          "name": "value",
          "type": "uint256"
        }
      ],
      "name": "initialize",
      "outputs": [],
      "stateMutability": "payable",
      "type": "function"
    }
  ],
  "bytecode": "0x608060405234801561001057600080fd5b50610306806100206000396000f3fe6080604052600436106100295760003560e01c80630c55699c1461002e578063fe4b84df14610059575b600080fd5b34801561003a57600080fd5b50610043610075565b60405161005091906101b4565b60405180910390f35b610073600480360381019061006e9190610200565b61007b565b005b60015481565b600060019054906101000a900460ff166100a35760008054906101000a900460ff16156100ac565b6100ab610167565b5b6100eb576040517f08c379a00000000000000000000000000000000000000000000000000000000081526004016100e2906102b0565b60405180910390fd5b60008060019054906101000a900460ff16159050801561013b576001600060016101000a81548160ff02191690831515021790555060016000806101000a81548160ff0219169083151502179055505b8160018190555080156101635760008060016101000a81548160ff0219169083151502179055505b5050565b600061017230610178565b15905090565b6000808273ffffffffffffffffffffffffffffffffffffffff163b119050919050565b6000819050919050565b6101ae8161019b565b82525050565b60006020820190506101c960008301846101a5565b92915050565b600080fd5b6101dd8161019b565b81146101e857600080fd5b50565b6000813590506101fa816101d4565b92915050565b600060208284031215610216576102156101cf565b5b6000610224848285016101eb565b91505092915050565b600082825260208201905092915050565b7f496e697469616c697a61626c653a20636f6e747261637420697320616c72656160008201527f647920696e697469616c697a6564000000000000000000000000000000000000602082015250565b600061029a602e8361022d565b91506102a58261023e565b604082019050919050565b600060208201905081810360008301526102c98161028d565b905091905056fea2646970667358221220389c4828ca9ed12496616d056e94b96dfea148f68b287dfb4597fb4782dc0bdd64736f6c634300080b0033",
  "immutableReferences": {},
  "source": "// SPDX-License-Identifier: MIT\r\n\r\npragma solidity ^0.8.0;\r\n\r\nimport \"../proxy/utils/Initializable.sol\";\r\n\r\n/**\r\n * @title MigratableMockV1\r\n * @dev This contract is a mock to test initializable functionality through migrations\r\n */\r\ncontract MigratableMockV1 is Initializable {\r\n    uint256 public x;\r\n\r\n    function initialize(uint256 value) public payable initializer {\r\n        x = value;\r\n    }\r\n}\r\n\r\n/**\r\n * @title MigratableMockV2\r\n * @dev This contract is a mock to test migratable functionality with params\r\n */\r\ncontract MigratableMockV2 is MigratableMockV1 {\r\n    bool internal _migratedV2;\r\n    uint256 public y;\r\n\r\n    function migrate(uint256 value, uint256 anotherValue) public payable {\r\n        require(!_migratedV2);\r\n        x = value;\r\n        y = anotherValue;\r\n        _migratedV2 = true;\r\n    }\r\n}\r\n\r\n/**\r\n * @title MigratableMockV3\r\n * @dev This contract is a mock to test migratable functionality without params\r\n */\r\ncontract MigratableMockV3 is MigratableMockV2 {\r\n    bool internal _migratedV3;\r\n\r\n    function migrate() public payable {\r\n        require(!_migratedV3);\r\n        uint256 oldX = x;\r\n        x = y;\r\n        y = oldX;\r\n        _migratedV3 = true;\r\n    }\r\n}\r\n",
  "sourcePath": "C:\\Users\\Alexandr\\dev\\nft-sim\\contract\\contracts\\mocks\\SingleInheritanceInitializableMocks.sol",
  "compiler": {
    "name": "solc",
    "version": "0.8.11+commit.d7f03943.Emscripten.clang"
  },
  "schemaVersion": "3.4.4",
  "updatedAt": "2022-02-17T11:30:02.150Z",
  "devdoc": {
    "details": "This contract is a mock to test initializable functionality through migrations",
    "kind": "dev",
    "methods": {},
    "title": "MigratableMockV1",
    "version": 1
  },
  "userdoc": {
    "kind": "user",
    "methods": {},
    "version": 1
  }
}