{
  "contractName": "MyGovernor2",
  "abi": [
    {
      "inputs": [
        {
          "internalType": "contract IVotes",
          "name": "_token",
          "type": "address"
        },
        {
          "internalType": "contract TimelockController",
          "name": "_timelock",
          "type": "address"
        }
      ],
      "stateMutability": "nonpayable",
      "type": "constructor"
    },
    {
      "anonymous": false,
      "inputs": [
        {
          "indexed": false,
          "internalType": "uint256",
          "name": "proposalId",
          "type": "uint256"
        }
      ],
      "name": "ProposalCanceled",
      "type": "event"
    },
    {
      "anonymous": false,
      "inputs": [
        {
          "indexed": false,
          "internalType": "uint256",
          "name": "proposalId",
          "type": "uint256"
        },
        {
          "indexed": false,
          "internalType": "address",
          "name": "proposer",
          "type": "address"
        },
        {
          "indexed": false,
          "internalType": "address[]",
          "name": "targets",
          "type": "address[]"
        },
        {
          "indexed": false,
          "internalType": "uint256[]",
          "name": "values",
          "type": "uint256[]"
        },
        {
          "indexed": false,
          "internalType": "string[]",
          "name": "signatures",
          "type": "string[]"
        },
        {
          "indexed": false,
          "internalType": "bytes[]",
          "name": "calldatas",
          "type": "bytes[]"
        },
        {
          "indexed": false,
          "internalType": "uint256",
          "name": "startBlock",
          "type": "uint256"
        },
        {
          "indexed": false,
          "internalType": "uint256",
          "name": "endBlock",
          "type": "uint256"
        },
        {
          "indexed": false,
          "internalType": "string",
          "name": "description",
          "type": "string"
        }
      ],
      "name": "ProposalCreated",
      "type": "event"
    },
    {
      "anonymous": false,
      "inputs": [
        {
          "indexed": false,
          "internalType": "uint256",
          "name": "proposalId",
          "type": "uint256"
        }
      ],
      "name": "ProposalExecuted",
      "type": "event"
    },
    {
      "anonymous": false,
      "inputs": [
        {
          "indexed": false,
          "internalType": "uint256",
          "name": "proposalId",
          "type": "uint256"
        },
        {
          "indexed": false,
          "internalType": "uint256",
          "name": "eta",
          "type": "uint256"
        }
      ],
      "name": "ProposalQueued",
      "type": "event"
    },
    {
      "anonymous": false,
      "inputs": [
        {
          "indexed": false,
          "internalType": "uint256",
          "name": "oldQuorumNumerator",
          "type": "uint256"
        },
        {
          "indexed": false,
          "internalType": "uint256",
          "name": "newQuorumNumerator",
          "type": "uint256"
        }
      ],
      "name": "QuorumNumeratorUpdated",
      "type": "event"
    },
    {
      "anonymous": false,
      "inputs": [
        {
          "indexed": false,
          "internalType": "address",
          "name": "oldTimelock",
          "type": "address"
        },
        {
          "indexed": false,
          "internalType": "address",
          "name": "newTimelock",
          "type": "address"
        }
      ],
      "name": "TimelockChange",
      "type": "event"
    },
    {
      "anonymous": false,
      "inputs": [
        {
          "indexed": true,
          "internalType": "address",
          "name": "voter",
          "type": "address"
        },
        {
          "indexed": false,
          "internalType": "uint256",
          "name": "proposalId",
          "type": "uint256"
        },
        {
          "indexed": false,
          "internalType": "uint8",
          "name": "support",
          "type": "uint8"
        },
        {
          "indexed": false,
          "internalType": "uint256",
          "name": "weight",
          "type": "uint256"
        },
        {
          "indexed": false,
          "internalType": "string",
          "name": "reason",
          "type": "string"
        }
      ],
      "name": "VoteCast",
      "type": "event"
    },
    {
      "inputs": [],
      "name": "BALLOT_TYPEHASH",
      "outputs": [
        {
          "internalType": "bytes32",
          "name": "",
          "type": "bytes32"
        }
      ],
      "stateMutability": "view",
      "type": "function"
    },
    {
      "inputs": [],
      "name": "COUNTING_MODE",
      "outputs": [
        {
          "internalType": "string",
          "name": "",
          "type": "string"
        }
      ],
      "stateMutability": "pure",
      "type": "function"
    },
    {
      "inputs": [
        {
          "internalType": "uint256",
          "name": "proposalId",
          "type": "uint256"
        },
        {
          "internalType": "uint8",
          "name": "support",
          "type": "uint8"
        }
      ],
      "name": "castVote",
      "outputs": [
        {
          "internalType": "uint256",
          "name": "",
          "type": "uint256"
        }
      ],
      "stateMutability": "nonpayable",
      "type": "function"
    },
    {
      "inputs": [
        {
          "internalType": "uint256",
          "name": "proposalId",
          "type": "uint256"
        },
        {
          "internalType": "uint8",
          "name": "support",
          "type": "uint8"
        },
        {
          "internalType": "uint8",
          "name": "v",
          "type": "uint8"
        },
        {
          "internalType": "bytes32",
          "name": "r",
          "type": "bytes32"
        },
        {
          "internalType": "bytes32",
          "name": "s",
          "type": "bytes32"
        }
      ],
      "name": "castVoteBySig",
      "outputs": [
        {
          "internalType": "uint256",
          "name": "",
          "type": "uint256"
        }
      ],
      "stateMutability": "nonpayable",
      "type": "function"
    },
    {
      "inputs": [
        {
          "internalType": "uint256",
          "name": "proposalId",
          "type": "uint256"
        },
        {
          "internalType": "uint8",
          "name": "support",
          "type": "uint8"
        },
        {
          "internalType": "string",
          "name": "reason",
          "type": "string"
        }
      ],
      "name": "castVoteWithReason",
      "outputs": [
        {
          "internalType": "uint256",
          "name": "",
          "type": "uint256"
        }
      ],
      "stateMutability": "nonpayable",
      "type": "function"
    },
    {
      "inputs": [
        {
          "internalType": "address[]",
          "name": "targets",
          "type": "address[]"
        },
        {
          "internalType": "uint256[]",
          "name": "values",
          "type": "uint256[]"
        },
        {
          "internalType": "bytes[]",
          "name": "calldatas",
          "type": "bytes[]"
        },
        {
          "internalType": "bytes32",
          "name": "descriptionHash",
          "type": "bytes32"
        }
      ],
      "name": "execute",
      "outputs": [
        {
          "internalType": "uint256",
          "name": "",
          "type": "uint256"
        }
      ],
      "stateMutability": "payable",
      "type": "function"
    },
    {
      "inputs": [
        {
          "internalType": "uint256",
          "name": "proposalId",
          "type": "uint256"
        },
        {
          "internalType": "address",
          "name": "account",
          "type": "address"
        }
      ],
      "name": "hasVoted",
      "outputs": [
        {
          "internalType": "bool",
          "name": "",
          "type": "bool"
        }
      ],
      "stateMutability": "view",
      "type": "function"
    },
    {
      "inputs": [
        {
          "internalType": "address[]",
          "name": "targets",
          "type": "address[]"
        },
        {
          "internalType": "uint256[]",
          "name": "values",
          "type": "uint256[]"
        },
        {
          "internalType": "bytes[]",
          "name": "calldatas",
          "type": "bytes[]"
        },
        {
          "internalType": "bytes32",
          "name": "descriptionHash",
          "type": "bytes32"
        }
      ],
      "name": "hashProposal",
      "outputs": [
        {
          "internalType": "uint256",
          "name": "",
          "type": "uint256"
        }
      ],
      "stateMutability": "pure",
      "type": "function"
    },
    {
      "inputs": [],
      "name": "name",
      "outputs": [
        {
          "internalType": "string",
          "name": "",
          "type": "string"
        }
      ],
      "stateMutability": "view",
      "type": "function"
    },
    {
      "inputs": [
        {
          "internalType": "uint256",
          "name": "proposalId",
          "type": "uint256"
        }
      ],
      "name": "proposalDeadline",
      "outputs": [
        {
          "internalType": "uint256",
          "name": "",
          "type": "uint256"
        }
      ],
      "stateMutability": "view",
      "type": "function"
    },
    {
      "inputs": [
        {
          "internalType": "uint256",
          "name": "proposalId",
          "type": "uint256"
        }
      ],
      "name": "proposalEta",
      "outputs": [
        {
          "internalType": "uint256",
          "name": "",
          "type": "uint256"
        }
      ],
      "stateMutability": "view",
      "type": "function"
    },
    {
      "inputs": [
        {
          "internalType": "uint256",
          "name": "proposalId",
          "type": "uint256"
        }
      ],
      "name": "proposalSnapshot",
      "outputs": [
        {
          "internalType": "uint256",
          "name": "",
          "type": "uint256"
        }
      ],
      "stateMutability": "view",
      "type": "function"
    },
    {
      "inputs": [
        {
          "internalType": "uint256",
          "name": "proposalId",
          "type": "uint256"
        }
      ],
      "name": "proposalVotes",
      "outputs": [
        {
          "internalType": "uint256",
          "name": "againstVotes",
          "type": "uint256"
        },
        {
          "internalType": "uint256",
          "name": "forVotes",
          "type": "uint256"
        },
        {
          "internalType": "uint256",
          "name": "abstainVotes",
          "type": "uint256"
        }
      ],
      "stateMutability": "view",
      "type": "function"
    },
    {
      "inputs": [
        {
          "internalType": "address[]",
          "name": "targets",
          "type": "address[]"
        },
        {
          "internalType": "uint256[]",
          "name": "values",
          "type": "uint256[]"
        },
        {
          "internalType": "bytes[]",
          "name": "calldatas",
          "type": "bytes[]"
        },
        {
          "internalType": "bytes32",
          "name": "descriptionHash",
          "type": "bytes32"
        }
      ],
      "name": "queue",
      "outputs": [
        {
          "internalType": "uint256",
          "name": "",
          "type": "uint256"
        }
      ],
      "stateMutability": "nonpayable",
      "type": "function"
    },
    {
      "inputs": [],
      "name": "quorumDenominator",
      "outputs": [
        {
          "internalType": "uint256",
          "name": "",
          "type": "uint256"
        }
      ],
      "stateMutability": "view",
      "type": "function"
    },
    {
      "inputs": [],
      "name": "quorumNumerator",
      "outputs": [
        {
          "internalType": "uint256",
          "name": "",
          "type": "uint256"
        }
      ],
      "stateMutability": "view",
      "type": "function"
    },
    {
      "inputs": [
        {
          "internalType": "address",
          "name": "target",
          "type": "address"
        },
        {
          "internalType": "uint256",
          "name": "value",
          "type": "uint256"
        },
        {
          "internalType": "bytes",
          "name": "data",
          "type": "bytes"
        }
      ],
      "name": "relay",
      "outputs": [],
      "stateMutability": "nonpayable",
      "type": "function"
    },
    {
      "inputs": [],
      "name": "timelock",
      "outputs": [
        {
          "internalType": "address",
          "name": "",
          "type": "address"
        }
      ],
      "stateMutability": "view",
      "type": "function"
    },
    {
      "inputs": [],
      "name": "token",
      "outputs": [
        {
          "internalType": "contract IVotes",
          "name": "",
          "type": "address"
        }
      ],
      "stateMutability": "view",
      "type": "function"
    },
    {
      "inputs": [
        {
          "internalType": "uint256",
          "name": "newQuorumNumerator",
          "type": "uint256"
        }
      ],
      "name": "updateQuorumNumerator",
      "outputs": [],
      "stateMutability": "nonpayable",
      "type": "function"
    },
    {
      "inputs": [
        {
          "internalType": "contract TimelockController",
          "name": "newTimelock",
          "type": "address"
        }
      ],
      "name": "updateTimelock",
      "outputs": [],
      "stateMutability": "nonpayable",
      "type": "function"
    },
    {
      "inputs": [],
      "name": "version",
      "outputs": [
        {
          "internalType": "string",
          "name": "",
          "type": "string"
        }
      ],
      "stateMutability": "view",
      "type": "function"
    },
    {
      "stateMutability": "payable",
      "type": "receive"
    },
    {
      "inputs": [],
      "name": "votingDelay",
      "outputs": [
        {
          "internalType": "uint256",
          "name": "",
          "type": "uint256"
        }
      ],
      "stateMutability": "pure",
      "type": "function"
    },
    {
      "inputs": [],
      "name": "votingPeriod",
      "outputs": [
        {
          "internalType": "uint256",
          "name": "",
          "type": "uint256"
        }
      ],
      "stateMutability": "pure",
      "type": "function"
    },
    {
      "inputs": [],
      "name": "proposalThreshold",
      "outputs": [
        {
          "internalType": "uint256",
          "name": "",
          "type": "uint256"
        }
      ],
      "stateMutability": "pure",
      "type": "function"
    },
    {
      "inputs": [
        {
          "internalType": "uint256",
          "name": "blockNumber",
          "type": "uint256"
        }
      ],
      "name": "quorum",
      "outputs": [
        {
          "internalType": "uint256",
          "name": "",
          "type": "uint256"
        }
      ],
      "stateMutability": "view",
      "type": "function"
    },
    {
      "inputs": [
        {
          "internalType": "address",
          "name": "account",
          "type": "address"
        },
        {
          "internalType": "uint256",
          "name": "blockNumber",
          "type": "uint256"
        }
      ],
      "name": "getVotes",
      "outputs": [
        {
          "internalType": "uint256",
          "name": "",
          "type": "uint256"
        }
      ],
      "stateMutability": "view",
      "type": "function"
    },
    {
      "inputs": [
        {
          "internalType": "uint256",
          "name": "proposalId",
          "type": "uint256"
        }
      ],
      "name": "state",
      "outputs": [
        {
          "internalType": "enum IGovernor.ProposalState",
          "name": "",
          "type": "uint8"
        }
      ],
      "stateMutability": "view",
      "type": "function"
    },
    {
      "inputs": [
        {
          "internalType": "address[]",
          "name": "targets",
          "type": "address[]"
        },
        {
          "internalType": "uint256[]",
          "name": "values",
          "type": "uint256[]"
        },
        {
          "internalType": "bytes[]",
          "name": "calldatas",
          "type": "bytes[]"
        },
        {
          "internalType": "string",
          "name": "description",
          "type": "string"
        }
      ],
      "name": "propose",
      "outputs": [
        {
          "internalType": "uint256",
          "name": "",
          "type": "uint256"
        }
      ],
      "stateMutability": "nonpayable",
      "type": "function"
    },
    {
      "inputs": [
        {
          "internalType": "bytes4",
          "name": "interfaceId",
          "type": "bytes4"
        }
      ],
      "name": "supportsInterface",
      "outputs": [
        {
          "internalType": "bool",
          "name": "",
          "type": "bool"
        }
      ],
      "stateMutability": "view",
      "type": "function"
    }
  ],
  "bytecode": "0x6101606040523480156200001257600080fd5b50604051620054e2380380620054e28339818101604052810190620000389190620004fd565b600482826040518060400160405280600a81526020017f4d79476f7665726e6f72000000000000000000000000000000000000000000008152508062000083620001b160201b60201c565b60008280519060200120905060008280519060200120905060007f8b73c3c69bb8fe3d512ecc4cf759cc79239f7b179b0ffacaa9a75d522b39400f90508260e081815250508161010081815250504660a08181525050620000ec818484620001ee60201b60201c565b608081815250503073ffffffffffffffffffffffffffffffffffffffff1660c08173ffffffffffffffffffffffffffffffffffffffff1681525050806101208181525050505050505080600090805190602001906200014d92919062000376565b505062000160816200022a60201b60201c565b508073ffffffffffffffffffffffffffffffffffffffff166101408173ffffffffffffffffffffffffffffffffffffffff168152505050620001a881620002cb60201b60201c565b50505062000776565b60606040518060400160405280600181526020017f3100000000000000000000000000000000000000000000000000000000000000815250905090565b600083838346306040516020016200020b9594939291906200058b565b6040516020818303038152906040528051906020012090509392505050565b7f08f74ea46ef7894f65eabfb5e6e695de773a000b47c529ab559178069b226401600260009054906101000a900473ffffffffffffffffffffffffffffffffffffffff16826040516200027f929190620005e8565b60405180910390a180600260006101000a81548173ffffffffffffffffffffffffffffffffffffffff021916908373ffffffffffffffffffffffffffffffffffffffff16021790555050565b620002db6200036d60201b60201c565b81111562000320576040517f08c379a00000000000000000000000000000000000000000000000000000000081526004016200031790620006c2565b60405180910390fd5b60006004549050816004819055507f0553476bf02ef2726e8ce5ced78d63e26e602e4a2257b1f559418e24b4633997818360405162000361929190620006e4565b60405180910390a15050565b60006064905090565b828054620003849062000740565b90600052602060002090601f016020900481019282620003a85760008555620003f4565b82601f10620003c357805160ff1916838001178555620003f4565b82800160010185558215620003f4579182015b82811115620003f3578251825591602001919060010190620003d6565b5b50905062000403919062000407565b5090565b5b808211156200042257600081600090555060010162000408565b5090565b600080fd5b600073ffffffffffffffffffffffffffffffffffffffff82169050919050565b600062000458826200042b565b9050919050565b60006200046c826200044b565b9050919050565b6200047e816200045f565b81146200048a57600080fd5b50565b6000815190506200049e8162000473565b92915050565b6000620004b1826200042b565b9050919050565b6000620004c582620004a4565b9050919050565b620004d781620004b8565b8114620004e357600080fd5b50565b600081519050620004f781620004cc565b92915050565b6000806040838503121562000517576200051662000426565b5b600062000527858286016200048d565b92505060206200053a85828601620004e6565b9150509250929050565b6000819050919050565b620005598162000544565b82525050565b6000819050919050565b62000574816200055f565b82525050565b62000585816200044b565b82525050565b600060a082019050620005a260008301886200054e565b620005b160208301876200054e565b620005c060408301866200054e565b620005cf606083018562000569565b620005de60808301846200057a565b9695505050505050565b6000604082019050620005ff60008301856200057a565b6200060e60208301846200057a565b9392505050565b600082825260208201905092915050565b7f476f7665726e6f72566f74657351756f72756d4672616374696f6e3a2071756f60008201527f72756d4e756d657261746f72206f7665722071756f72756d44656e6f6d696e6160208201527f746f720000000000000000000000000000000000000000000000000000000000604082015250565b6000620006aa60438362000615565b9150620006b78262000626565b606082019050919050565b60006020820190508181036000830152620006dd816200069b565b9050919050565b6000604082019050620006fb600083018562000569565b6200070a602083018462000569565b9392505050565b7f4e487b7100000000000000000000000000000000000000000000000000000000600052602260045260246000fd5b600060028204905060018216806200075957607f821691505b6020821081141562000770576200076f62000711565b5b50919050565b60805160a05160c05160e051610100516101205161014051614d03620007df600039600081816113b30152818161198f0152611a4501526000611cbe01526000611d0001526000611cdf01526000611c1401526000611c6a01526000611c930152614d036000f3fe6080604052600436106101d15760003560e01c80637d5e81e2116100f7578063c28bc2fa11610095578063deaaa7cc11610064578063deaaa7cc14610765578063eb9019d414610790578063f8ce560a146107cd578063fc0c546a1461080a57610217565b8063c28bc2fa146106a9578063c59057e4146106d2578063d33219b41461070f578063dd4e2ba51461073a57610217565b8063a890c910116100d1578063a890c910146105db578063ab58fb8e14610604578063b58131b014610641578063c01f9e371461066c57610217565b80637d5e81e21461054857806397c3d33414610585578063a7713a70146105b057610217565b80633932abb11161016f578063544ffc9c1161013e578063544ffc9c1461046457806354fd4d50146104a357806356781388146104ce5780637b3c71d31461050b57610217565b80633932abb1146103825780633bccf4fd146103ad5780633e4f49e6146103ea578063438596321461042757610217565b806306fdde03116101ab57806306fdde03146102ad578063160cbed7146102d85780632656227d146103155780632d63f6931461034557610217565b806301ffc9a71461021c57806302a251a31461025957806306f3f9e61461028457610217565b36610217573073ffffffffffffffffffffffffffffffffffffffff166101f5610835565b73ffffffffffffffffffffffffffffffffffffffff161461021557600080fd5b005b600080fd5b34801561022857600080fd5b50610243600480360381019061023e9190612a1a565b610844565b6040516102509190612a62565b60405180910390f35b34801561026557600080fd5b5061026e610856565b60405161027b9190612a96565b60405180910390f35b34801561029057600080fd5b506102ab60048036038101906102a69190612add565b610860565b005b3480156102b957600080fd5b506102c26108e8565b6040516102cf9190612ba3565b60405180910390f35b3480156102e457600080fd5b506102ff60048036038101906102fa9190612ffa565b61097a565b60405161030c9190612a96565b60405180910390f35b61032f600480360381019061032a9190612ffa565b610c34565b60405161033c9190612a96565b60405180910390f35b34801561035157600080fd5b5061036c60048036038101906103679190612add565b610d67565b6040516103799190612a96565b60405180910390f35b34801561038e57600080fd5b50610397610dd5565b6040516103a49190612a96565b60405180910390f35b3480156103b957600080fd5b506103d460048036038101906103cf91906130ee565b610dde565b6040516103e19190612a96565b60405180910390f35b3480156103f657600080fd5b50610411600480360381019061040c9190612add565b610e68565b60405161041e91906131e0565b60405180910390f35b34801561043357600080fd5b5061044e600480360381019061044991906131fb565b610e7a565b60405161045b9190612a62565b60405180910390f35b34801561047057600080fd5b5061048b60048036038101906104869190612add565b610ee5565b60405161049a9392919061323b565b60405180910390f35b3480156104af57600080fd5b506104b8610f1d565b6040516104c59190612ba3565b60405180910390f35b3480156104da57600080fd5b506104f560048036038101906104f09190613272565b610f5a565b6040516105029190612a96565b60405180910390f35b34801561051757600080fd5b50610532600480360381019061052d919061330d565b610f8b565b60405161053f9190612a96565b60405180910390f35b34801561055457600080fd5b5061056f600480360381019061056a9190613422565b610ff3565b60405161057c9190612a96565b60405180910390f35b34801561059157600080fd5b5061059a61100b565b6040516105a79190612a96565b60405180910390f35b3480156105bc57600080fd5b506105c5611014565b6040516105d29190612a96565b60405180910390f35b3480156105e757600080fd5b5061060260048036038101906105fd9190613549565b61101e565b005b34801561061057600080fd5b5061062b60048036038101906106269190612add565b6110a6565b6040516106389190612a96565b60405180910390f35b34801561064d57600080fd5b50610656611173565b6040516106639190612a96565b60405180910390f35b34801561067857600080fd5b50610693600480360381019061068e9190612add565b611184565b6040516106a09190612a96565b60405180910390f35b3480156106b557600080fd5b506106d060048036038101906106cb91906135cc565b6111f2565b005b3480156106de57600080fd5b506106f960048036038101906106f49190612ffa565b6112c4565b6040516107069190612a96565b60405180910390f35b34801561071b57600080fd5b50610724611300565b604051610731919061364f565b60405180910390f35b34801561074657600080fd5b5061074f61132a565b60405161075c9190612ba3565b60405180910390f35b34801561077157600080fd5b5061077a611367565b6040516107879190613679565b60405180910390f35b34801561079c57600080fd5b506107b760048036038101906107b29190613694565b61138b565b6040516107c49190612a96565b60405180910390f35b3480156107d957600080fd5b506107f460048036038101906107ef9190612add565b61139f565b6040516108019190612a96565b60405180910390f35b34801561081657600080fd5b5061081f6113b1565b60405161082c9190613733565b60405180910390f35b600061083f6113d5565b905090565b600061084f826113ff565b9050919050565b600061b2fa905090565b610868610835565b73ffffffffffffffffffffffffffffffffffffffff16610886611479565b73ffffffffffffffffffffffffffffffffffffffff16146108dc576040517f08c379a00000000000000000000000000000000000000000000000000000000081526004016108d39061379a565b60405180910390fd5b6108e581611481565b50565b6060600080546108f7906137e9565b80601f0160208091040260200160405190810160405280929190818152602001828054610923906137e9565b80156109705780601f1061094557610100808354040283529160200191610970565b820191906000526020600020905b81548152906001019060200180831161095357829003601f168201915b5050505050905090565b600080610989868686866112c4565b90506004600781111561099f5761099e613169565b5b6109a882610e68565b60078111156109ba576109b9613169565b5b146109fa576040517f08c379a00000000000000000000000000000000000000000000000000000000081526004016109f19061388d565b60405180910390fd5b6000600260009054906101000a900473ffffffffffffffffffffffffffffffffffffffff1673ffffffffffffffffffffffffffffffffffffffff1663f27a0c926040518163ffffffff1660e01b8152600401602060405180830381865afa158015610a69573d6000803e3d6000fd5b505050506040513d601f19601f82011682018060405250810190610a8d91906138c2565b9050600260009054906101000a900473ffffffffffffffffffffffffffffffffffffffff1673ffffffffffffffffffffffffffffffffffffffff1663b1c5f4278888886000896040518663ffffffff1660e01b8152600401610af3959493929190613bca565b602060405180830381865afa158015610b10573d6000803e3d6000fd5b505050506040513d601f19601f82011682018060405250810190610b349190613c47565b6003600084815260200190815260200160002081905550600260009054906101000a900473ffffffffffffffffffffffffffffffffffffffff1673ffffffffffffffffffffffffffffffffffffffff16638f2a0bb0888888600089876040518763ffffffff1660e01b8152600401610bb196959493929190613c74565b600060405180830381600087803b158015610bcb57600080fd5b505af1158015610bdf573d6000803e3d6000fd5b505050507f9a2e42fd6722813d69113e7d0079d3d940171428df7373df9c7f7617cfda2892828242610c119190613d19565b604051610c1f929190613d6f565b60405180910390a18192505050949350505050565b600080610c43868686866112c4565b90506000610c5082610e68565b905060046007811115610c6657610c65613169565b5b816007811115610c7957610c78613169565b5b1480610ca9575060056007811115610c9457610c93613169565b5b816007811115610ca757610ca6613169565b5b145b610ce8576040517f08c379a0000000000000000000000000000000000000000000000000000000008152600401610cdf9061388d565b60405180910390fd5b600180600084815260200190815260200160002060020160006101000a81548160ff0219169083151502179055507f712ae1383f79ac853f8d882153778e0260ef8f03b504e2866e0593e04d2b291f82604051610d459190612a96565b60405180910390a1610d5a8288888888611516565b8192505050949350505050565b6000610dc4600160008481526020019081526020016000206000016040518060200160405290816000820160009054906101000a900467ffffffffffffffff1667ffffffffffffffff1667ffffffffffffffff168152505061152a565b67ffffffffffffffff169050919050565b60006001905090565b600080610e3f610e377f150214d74d59b7d1e90c73fc22ef3d991dd0a76b046543d4d80ab92d2a50328f8989604051602001610e1c93929190613da7565b60405160208183030381529060405280519060200120611538565b868686611552565b9050610e5c8782886040518060200160405280600081525061157d565b91505095945050505050565b6000610e73826116d1565b9050919050565b60006005600084815260200190815260200160002060030160008373ffffffffffffffffffffffffffffffffffffffff1673ffffffffffffffffffffffffffffffffffffffff16815260200190815260200160002060009054906101000a900460ff16905092915050565b600080600080600560008681526020019081526020016000209050806000015481600101548260020154935093509350509193909250565b60606040518060400160405280600181526020017f3100000000000000000000000000000000000000000000000000000000000000815250905090565b600080610f65611479565b9050610f828482856040518060200160405280600081525061157d565b91505092915050565b600080610f96611479565b9050610fe886828787878080601f016020809104026020016040519081016040528093929190818152602001838380828437600081840152601f19601f8201169050808301925050505050505061157d565b915050949350505050565b6000611001858585856118a5565b9050949350505050565b60006064905090565b6000600454905090565b611026610835565b73ffffffffffffffffffffffffffffffffffffffff16611044611479565b73ffffffffffffffffffffffffffffffffffffffff161461109a576040517f08c379a00000000000000000000000000000000000000000000000000000000081526004016110919061379a565b60405180910390fd5b6110a3816118bd565b50565b600080600260009054906101000a900473ffffffffffffffffffffffffffffffffffffffff1673ffffffffffffffffffffffffffffffffffffffff1663d45c443560036000868152602001908152602001600020546040518263ffffffff1660e01b81526004016111179190613679565b602060405180830381865afa158015611134573d6000803e3d6000fd5b505050506040513d601f19601f8201168201806040525081019061115891906138c2565b905060018114611168578061116b565b60005b915050919050565b6000683635c9adc5dea00000905090565b60006111e1600160008481526020019081526020016000206001016040518060200160405290816000820160009054906101000a900467ffffffffffffffff1667ffffffffffffffff1667ffffffffffffffff168152505061152a565b67ffffffffffffffff169050919050565b6111fa610835565b73ffffffffffffffffffffffffffffffffffffffff16611218611479565b73ffffffffffffffffffffffffffffffffffffffff161461126e576040517f08c379a00000000000000000000000000000000000000000000000000000000081526004016112659061379a565b60405180910390fd5b6112bd8483838080601f016020809104026020016040519081016040528093929190818152602001838380828437600081840152601f19601f820116905080830192505050505050508561195c565b5050505050565b6000848484846040516020016112dd9493929190613dde565b6040516020818303038152906040528051906020012060001c9050949350505050565b6000600260009054906101000a900473ffffffffffffffffffffffffffffffffffffffff16905090565b60606040518060400160405280602081526020017f737570706f72743d627261766f2671756f72756d3d666f722c6162737461696e815250905090565b7f150214d74d59b7d1e90c73fc22ef3d991dd0a76b046543d4d80ab92d2a50328f81565b6000611397838361198b565b905092915050565b60006113aa82611a31565b9050919050565b7f000000000000000000000000000000000000000000000000000000000000000081565b6000600260009054906101000a900473ffffffffffffffffffffffffffffffffffffffff16905090565b60007f6e665ced000000000000000000000000000000000000000000000000000000007bffffffffffffffffffffffffffffffffffffffffffffffffffffffff1916827bffffffffffffffffffffffffffffffffffffffffffffffffffffffff19161480611472575061147182611af8565b5b9050919050565b600033905090565b61148961100b565b8111156114cb576040517f08c379a00000000000000000000000000000000000000000000000000000000081526004016114c290613ed0565b60405180910390fd5b60006004549050816004819055507f0553476bf02ef2726e8ce5ced78d63e26e602e4a2257b1f559418e24b4633997818360405161150a929190613d6f565b60405180910390a15050565b6115238585858585611b72565b5050505050565b600081600001519050919050565b600061154b611545611c10565b83611d2a565b9050919050565b600080600061156387878787611d5d565b9150915061157081611e6a565b8192505050949350505050565b600080600160008781526020019081526020016000209050600160078111156115a9576115a8613169565b5b6115b287610e68565b60078111156115c4576115c3613169565b5b14611604576040517f08c379a00000000000000000000000000000000000000000000000000000000081526004016115fb90613f62565b60405180910390fd5b600061166286611653846000016040518060200160405290816000820160009054906101000a900467ffffffffffffffff1667ffffffffffffffff1667ffffffffffffffff168152505061152a565b67ffffffffffffffff1661138b565b90506116708787878461203f565b8573ffffffffffffffffffffffffffffffffffffffff167fb8e138887d0aa13bab447e82de9d5c1777041ecd21ca36ba824ff1e6c07ddda4888784886040516116bc9493929190613f82565b60405180910390a28092505050949350505050565b6000806116dd83612245565b9050600460078111156116f3576116f2613169565b5b81600781111561170657611705613169565b5b1461171457809150506118a0565b6000600360008581526020019081526020016000205490506000801b8114156117415781925050506118a0565b600260009054906101000a900473ffffffffffffffffffffffffffffffffffffffff1673ffffffffffffffffffffffffffffffffffffffff16632ab0f529826040518263ffffffff1660e01b815260040161179c9190613679565b602060405180830381865afa1580156117b9573d6000803e3d6000fd5b505050506040513d601f19601f820116820180604052508101906117dd9190613ffa565b156117ed576007925050506118a0565b600260009054906101000a900473ffffffffffffffffffffffffffffffffffffffff1673ffffffffffffffffffffffffffffffffffffffff1663584b153e826040518263ffffffff1660e01b81526004016118489190613679565b602060405180830381865afa158015611865573d6000803e3d6000fd5b505050506040513d601f19601f820116820180604052508101906118899190613ffa565b15611899576005925050506118a0565b6002925050505b919050565b60006118b38585858561235a565b9050949350505050565b7f08f74ea46ef7894f65eabfb5e6e695de773a000b47c529ab559178069b226401600260009054906101000a900473ffffffffffffffffffffffffffffffffffffffff1682604051611910929190614027565b60405180910390a180600260006101000a81548173ffffffffffffffffffffffffffffffffffffffff021916908373ffffffffffffffffffffffffffffffffffffffff16021790555050565b6060611982848484604051806060016040528060298152602001614ca56029913961265a565b90509392505050565b60007f000000000000000000000000000000000000000000000000000000000000000073ffffffffffffffffffffffffffffffffffffffff16633a46b1a884846040518363ffffffff1660e01b81526004016119e8929190614050565b602060405180830381865afa158015611a05573d6000803e3d6000fd5b505050506040513d601f19601f82011682018060405250810190611a2991906138c2565b905092915050565b6000611a3b61100b565b611a43611014565b7f000000000000000000000000000000000000000000000000000000000000000073ffffffffffffffffffffffffffffffffffffffff16638e539e8c856040518263ffffffff1660e01b8152600401611a9c9190612a96565b602060405180830381865afa158015611ab9573d6000803e3d6000fd5b505050506040513d601f19601f82011682018060405250810190611add91906138c2565b611ae79190614079565b611af19190614102565b9050919050565b60007fbf26d897000000000000000000000000000000000000000000000000000000007bffffffffffffffffffffffffffffffffffffffffffffffffffffffff1916827bffffffffffffffffffffffffffffffffffffffffffffffffffffffff19161480611b6b5750611b6a8261276e565b5b9050919050565b600260009054906101000a900473ffffffffffffffffffffffffffffffffffffffff1673ffffffffffffffffffffffffffffffffffffffff1663e38335e5348686866000876040518763ffffffff1660e01b8152600401611bd7959493929190613bca565b6000604051808303818588803b158015611bf057600080fd5b505af1158015611c04573d6000803e3d6000fd5b50505050505050505050565b60007f000000000000000000000000000000000000000000000000000000000000000073ffffffffffffffffffffffffffffffffffffffff163073ffffffffffffffffffffffffffffffffffffffff16148015611c8c57507f000000000000000000000000000000000000000000000000000000000000000046145b15611cb9577f00000000000000000000000000000000000000000000000000000000000000009050611d27565b611d247f00000000000000000000000000000000000000000000000000000000000000007f00000000000000000000000000000000000000000000000000000000000000007f00000000000000000000000000000000000000000000000000000000000000006127d8565b90505b90565b60008282604051602001611d3f9291906141ab565b60405160208183030381529060405280519060200120905092915050565b6000807f7fffffffffffffffffffffffffffffff5d576e7357a4501ddfe92f46681b20a08360001c1115611d98576000600391509150611e61565b601b8560ff1614158015611db05750601c8560ff1614155b15611dc2576000600491509150611e61565b600060018787878760405160008152602001604052604051611de794939291906141e2565b6020604051602081039080840390855afa158015611e09573d6000803e3d6000fd5b505050602060405103519050600073ffffffffffffffffffffffffffffffffffffffff168173ffffffffffffffffffffffffffffffffffffffff161415611e5857600060019250925050611e61565b80600092509250505b94509492505050565b60006004811115611e7e57611e7d613169565b5b816004811115611e9157611e90613169565b5b1415611e9c5761203c565b60016004811115611eb057611eaf613169565b5b816004811115611ec357611ec2613169565b5b1415611f04576040517f08c379a0000000000000000000000000000000000000000000000000000000008152600401611efb90614273565b60405180910390fd5b60026004811115611f1857611f17613169565b5b816004811115611f2b57611f2a613169565b5b1415611f6c576040517f08c379a0000000000000000000000000000000000000000000000000000000008152600401611f63906142df565b60405180910390fd5b60036004811115611f8057611f7f613169565b5b816004811115611f9357611f92613169565b5b1415611fd4576040517f08c379a0000000000000000000000000000000000000000000000000000000008152600401611fcb90614371565b60405180910390fd5b600480811115611fe757611fe6613169565b5b816004811115611ffa57611ff9613169565b5b141561203b576040517f08c379a000000000000000000000000000000000000000000000000000000000815260040161203290614403565b60405180910390fd5b5b50565b60006005600086815260200190815260200160002090508060030160008573ffffffffffffffffffffffffffffffffffffffff1673ffffffffffffffffffffffffffffffffffffffff16815260200190815260200160002060009054906101000a900460ff16156120e5576040517f08c379a00000000000000000000000000000000000000000000000000000000081526004016120dc90614495565b60405180910390fd5b60018160030160008673ffffffffffffffffffffffffffffffffffffffff1673ffffffffffffffffffffffffffffffffffffffff16815260200190815260200160002060006101000a81548160ff0219169083151502179055506000600281111561215357612152613169565b5b60ff168360ff16141561218057818160000160008282546121749190613d19565b9250508190555061223e565b6001600281111561219457612193613169565b5b60ff168360ff1614156121c157818160010160008282546121b59190613d19565b9250508190555061223d565b6002808111156121d4576121d3613169565b5b60ff168360ff16141561220157818160020160008282546121f59190613d19565b9250508190555061223c565b6040517f08c379a000000000000000000000000000000000000000000000000000000000815260040161223390614527565b60405180910390fd5b5b5b5050505050565b6000806001600084815260200190815260200160002090508060020160009054906101000a900460ff161561227e576007915050612355565b8060020160019054906101000a900460ff161561229f576002915050612355565b60006122aa84610d67565b905060008114156122f0576040517f08c379a00000000000000000000000000000000000000000000000000000000081526004016122e790614593565b60405180910390fd5b43811061230257600092505050612355565b600061230d85611184565b90504381106123225760019350505050612355565b61232b85612812565b801561233c575061233b85612859565b5b1561234d5760049350505050612355565b600393505050505b919050565b6000612364611173565b61237a3360014361237591906145b3565b61138b565b10156123bb576040517f08c379a00000000000000000000000000000000000000000000000000000000081526004016123b29061467f565b60405180910390fd5b60006123d086868686805190602001206112c4565b90508451865114612416576040517f08c379a000000000000000000000000000000000000000000000000000000000815260040161240d90614711565b60405180910390fd5b835186511461245a576040517f08c379a000000000000000000000000000000000000000000000000000000000815260040161245190614711565b60405180910390fd5b600086511161249e576040517f08c379a00000000000000000000000000000000000000000000000000000000081526004016124959061477d565b60405180910390fd5b60006001600083815260200190815260200160002090506124fe816000016040518060200160405290816000820160009054906101000a900467ffffffffffffffff1667ffffffffffffffff1667ffffffffffffffff1681525050612884565b61253d576040517f08c379a00000000000000000000000000000000000000000000000000000000081526004016125349061480f565b60405180910390fd5b600061254f61254a610dd5565b61289e565b6125584361289e565b6125629190614843565b90506000612576612571610856565b61289e565b826125819190614843565b905061259982846000016128f590919063ffffffff16565b6125af81846001016128f590919063ffffffff16565b7f7d84a6263ae0d98d3329bd7b46bb4e8d6f98cd35a7adb45c274c8b7fd5ebd5e0846125d9611479565b8b8b8d5167ffffffffffffffff8111156125f6576125f5612bca565b5b60405190808252806020026020018201604052801561262957816020015b60608152602001906001900390816126145790505b508c88888e604051612643999897969594939291906149be565b60405180910390a183945050505050949350505050565b60608247101561269f576040517f08c379a000000000000000000000000000000000000000000000000000000000815260040161269690614ae0565b60405180910390fd5b6126a885612924565b6126e7576040517f08c379a00000000000000000000000000000000000000000000000000000000081526004016126de90614b4c565b60405180910390fd5b6000808673ffffffffffffffffffffffffffffffffffffffff1685876040516127109190614ba8565b60006040518083038185875af1925050503d806000811461274d576040519150601f19603f3d011682016040523d82523d6000602084013e612752565b606091505b5091509150612762828286612947565b92505050949350505050565b60007f01ffc9a7000000000000000000000000000000000000000000000000000000007bffffffffffffffffffffffffffffffffffffffffffffffffffffffff1916827bffffffffffffffffffffffffffffffffffffffffffffffffffffffff1916149050919050565b600083838346306040516020016127f3959493929190614bbf565b6040516020818303038152906040528051906020012090509392505050565b6000806005600084815260200190815260200160002090508060020154816001015461283e9190613d19565b61284f61284a85610d67565b61139f565b1115915050919050565b6000806005600084815260200190815260200160002090508060000154816001015411915050919050565b600080826000015167ffffffffffffffff16149050919050565b600067ffffffffffffffff80168211156128ed576040517f08c379a00000000000000000000000000000000000000000000000000000000081526004016128e490614c84565b60405180910390fd5b819050919050565b808260000160006101000a81548167ffffffffffffffff021916908367ffffffffffffffff1602179055505050565b6000808273ffffffffffffffffffffffffffffffffffffffff163b119050919050565b60608315612957578290506129a7565b60008351111561296a5782518084602001fd5b816040517f08c379a000000000000000000000000000000000000000000000000000000000815260040161299e9190612ba3565b60405180910390fd5b9392505050565b6000604051905090565b600080fd5b600080fd5b60007fffffffff0000000000000000000000000000000000000000000000000000000082169050919050565b6129f7816129c2565b8114612a0257600080fd5b50565b600081359050612a14816129ee565b92915050565b600060208284031215612a3057612a2f6129b8565b5b6000612a3e84828501612a05565b91505092915050565b60008115159050919050565b612a5c81612a47565b82525050565b6000602082019050612a776000830184612a53565b92915050565b6000819050919050565b612a9081612a7d565b82525050565b6000602082019050612aab6000830184612a87565b92915050565b612aba81612a7d565b8114612ac557600080fd5b50565b600081359050612ad781612ab1565b92915050565b600060208284031215612af357612af26129b8565b5b6000612b0184828501612ac8565b91505092915050565b600081519050919050565b600082825260208201905092915050565b60005b83811015612b44578082015181840152602081019050612b29565b83811115612b53576000848401525b50505050565b6000601f19601f8301169050919050565b6000612b7582612b0a565b612b7f8185612b15565b9350612b8f818560208601612b26565b612b9881612b59565b840191505092915050565b60006020820190508181036000830152612bbd8184612b6a565b905092915050565b600080fd5b7f4e487b7100000000000000000000000000000000000000000000000000000000600052604160045260246000fd5b612c0282612b59565b810181811067ffffffffffffffff82111715612c2157612c20612bca565b5b80604052505050565b6000612c346129ae565b9050612c408282612bf9565b919050565b600067ffffffffffffffff821115612c6057612c5f612bca565b5b602082029050602081019050919050565b600080fd5b600073ffffffffffffffffffffffffffffffffffffffff82169050919050565b6000612ca182612c76565b9050919050565b612cb181612c96565b8114612cbc57600080fd5b50565b600081359050612cce81612ca8565b92915050565b6000612ce7612ce284612c45565b612c2a565b90508083825260208201905060208402830185811115612d0a57612d09612c71565b5b835b81811015612d335780612d1f8882612cbf565b845260208401935050602081019050612d0c565b5050509392505050565b600082601f830112612d5257612d51612bc5565b5b8135612d62848260208601612cd4565b91505092915050565b600067ffffffffffffffff821115612d8657612d85612bca565b5b602082029050602081019050919050565b6000612daa612da584612d6b565b612c2a565b90508083825260208201905060208402830185811115612dcd57612dcc612c71565b5b835b81811015612df65780612de28882612ac8565b845260208401935050602081019050612dcf565b5050509392505050565b600082601f830112612e1557612e14612bc5565b5b8135612e25848260208601612d97565b91505092915050565b600067ffffffffffffffff821115612e4957612e48612bca565b5b602082029050602081019050919050565b600080fd5b600067ffffffffffffffff821115612e7a57612e79612bca565b5b612e8382612b59565b9050602081019050919050565b82818337600083830152505050565b6000612eb2612ead84612e5f565b612c2a565b905082815260208101848484011115612ece57612ecd612e5a565b5b612ed9848285612e90565b509392505050565b600082601f830112612ef657612ef5612bc5565b5b8135612f06848260208601612e9f565b91505092915050565b6000612f22612f1d84612e2e565b612c2a565b90508083825260208201905060208402830185811115612f4557612f44612c71565b5b835b81811015612f8c57803567ffffffffffffffff811115612f6a57612f69612bc5565b5b808601612f778982612ee1565b85526020850194505050602081019050612f47565b5050509392505050565b600082601f830112612fab57612faa612bc5565b5b8135612fbb848260208601612f0f565b91505092915050565b6000819050919050565b612fd781612fc4565b8114612fe257600080fd5b50565b600081359050612ff481612fce565b92915050565b60008060008060808587031215613014576130136129b8565b5b600085013567ffffffffffffffff811115613032576130316129bd565b5b61303e87828801612d3d565b945050602085013567ffffffffffffffff81111561305f5761305e6129bd565b5b61306b87828801612e00565b935050604085013567ffffffffffffffff81111561308c5761308b6129bd565b5b61309887828801612f96565b92505060606130a987828801612fe5565b91505092959194509250565b600060ff82169050919050565b6130cb816130b5565b81146130d657600080fd5b50565b6000813590506130e8816130c2565b92915050565b600080600080600060a0868803121561310a576131096129b8565b5b600061311888828901612ac8565b9550506020613129888289016130d9565b945050604061313a888289016130d9565b935050606061314b88828901612fe5565b925050608061315c88828901612fe5565b9150509295509295909350565b7f4e487b7100000000000000000000000000000000000000000000000000000000600052602160045260246000fd5b600881106131a9576131a8613169565b5b50565b60008190506131ba82613198565b919050565b60006131ca826131ac565b9050919050565b6131da816131bf565b82525050565b60006020820190506131f560008301846131d1565b92915050565b60008060408385031215613212576132116129b8565b5b600061322085828601612ac8565b925050602061323185828601612cbf565b9150509250929050565b60006060820190506132506000830186612a87565b61325d6020830185612a87565b61326a6040830184612a87565b949350505050565b60008060408385031215613289576132886129b8565b5b600061329785828601612ac8565b92505060206132a8858286016130d9565b9150509250929050565b600080fd5b60008083601f8401126132cd576132cc612bc5565b5b8235905067ffffffffffffffff8111156132ea576132e96132b2565b5b60208301915083600182028301111561330657613305612c71565b5b9250929050565b60008060008060608587031215613327576133266129b8565b5b600061333587828801612ac8565b9450506020613346878288016130d9565b935050604085013567ffffffffffffffff811115613367576133666129bd565b5b613373878288016132b7565b925092505092959194509250565b600067ffffffffffffffff82111561339c5761339b612bca565b5b6133a582612b59565b9050602081019050919050565b60006133c56133c084613381565b612c2a565b9050828152602081018484840111156133e1576133e0612e5a565b5b6133ec848285612e90565b509392505050565b600082601f83011261340957613408612bc5565b5b81356134198482602086016133b2565b91505092915050565b6000806000806080858703121561343c5761343b6129b8565b5b600085013567ffffffffffffffff81111561345a576134596129bd565b5b61346687828801612d3d565b945050602085013567ffffffffffffffff811115613487576134866129bd565b5b61349387828801612e00565b935050604085013567ffffffffffffffff8111156134b4576134b36129bd565b5b6134c087828801612f96565b925050606085013567ffffffffffffffff8111156134e1576134e06129bd565b5b6134ed878288016133f4565b91505092959194509250565b600061350482612c76565b9050919050565b6000613516826134f9565b9050919050565b6135268161350b565b811461353157600080fd5b50565b6000813590506135438161351d565b92915050565b60006020828403121561355f5761355e6129b8565b5b600061356d84828501613534565b91505092915050565b60008083601f84011261358c5761358b612bc5565b5b8235905067ffffffffffffffff8111156135a9576135a86132b2565b5b6020830191508360018202830111156135c5576135c4612c71565b5b9250929050565b600080600080606085870312156135e6576135e56129b8565b5b60006135f487828801612cbf565b945050602061360587828801612ac8565b935050604085013567ffffffffffffffff811115613626576136256129bd565b5b61363287828801613576565b925092505092959194509250565b61364981612c96565b82525050565b60006020820190506136646000830184613640565b92915050565b61367381612fc4565b82525050565b600060208201905061368e600083018461366a565b92915050565b600080604083850312156136ab576136aa6129b8565b5b60006136b985828601612cbf565b92505060206136ca85828601612ac8565b9150509250929050565b6000819050919050565b60006136f96136f46136ef84612c76565b6136d4565b612c76565b9050919050565b600061370b826136de565b9050919050565b600061371d82613700565b9050919050565b61372d81613712565b82525050565b60006020820190506137486000830184613724565b92915050565b7f476f7665726e6f723a206f6e6c79476f7665726e616e63650000000000000000600082015250565b6000613784601883612b15565b915061378f8261374e565b602082019050919050565b600060208201905081810360008301526137b381613777565b9050919050565b7f4e487b7100000000000000000000000000000000000000000000000000000000600052602260045260246000fd5b6000600282049050600182168061380157607f821691505b60208210811415613815576138146137ba565b5b50919050565b7f476f7665726e6f723a2070726f706f73616c206e6f742073756363657373667560008201527f6c00000000000000000000000000000000000000000000000000000000000000602082015250565b6000613877602183612b15565b91506138828261381b565b604082019050919050565b600060208201905081810360008301526138a68161386a565b9050919050565b6000815190506138bc81612ab1565b92915050565b6000602082840312156138d8576138d76129b8565b5b60006138e6848285016138ad565b91505092915050565b600081519050919050565b600082825260208201905092915050565b6000819050602082019050919050565b61392481612c96565b82525050565b6000613936838361391b565b60208301905092915050565b6000602082019050919050565b600061395a826138ef565b61396481856138fa565b935061396f8361390b565b8060005b838110156139a0578151613987888261392a565b975061399283613942565b925050600181019050613973565b5085935050505092915050565b600081519050919050565b600082825260208201905092915050565b6000819050602082019050919050565b6139e281612a7d565b82525050565b60006139f483836139d9565b60208301905092915050565b6000602082019050919050565b6000613a18826139ad565b613a2281856139b8565b9350613a2d836139c9565b8060005b83811015613a5e578151613a4588826139e8565b9750613a5083613a00565b925050600181019050613a31565b5085935050505092915050565b600081519050919050565b600082825260208201905092915050565b6000819050602082019050919050565b600081519050919050565b600082825260208201905092915050565b6000613abe82613a97565b613ac88185613aa2565b9350613ad8818560208601612b26565b613ae181612b59565b840191505092915050565b6000613af88383613ab3565b905092915050565b6000602082019050919050565b6000613b1882613a6b565b613b228185613a76565b935083602082028501613b3485613a87565b8060005b85811015613b705784840389528151613b518582613aec565b9450613b5c83613b00565b925060208a01995050600181019050613b38565b50829750879550505050505092915050565b6000819050919050565b60008160001b9050919050565b6000613bb4613baf613baa84613b82565b613b8c565b612fc4565b9050919050565b613bc481613b99565b82525050565b600060a0820190508181036000830152613be4818861394f565b90508181036020830152613bf88187613a0d565b90508181036040830152613c0c8186613b0d565b9050613c1b6060830185613bbb565b613c28608083018461366a565b9695505050505050565b600081519050613c4181612fce565b92915050565b600060208284031215613c5d57613c5c6129b8565b5b6000613c6b84828501613c32565b91505092915050565b600060c0820190508181036000830152613c8e818961394f565b90508181036020830152613ca28188613a0d565b90508181036040830152613cb68187613b0d565b9050613cc56060830186613bbb565b613cd2608083018561366a565b613cdf60a0830184612a87565b979650505050505050565b7f4e487b7100000000000000000000000000000000000000000000000000000000600052601160045260246000fd5b6000613d2482612a7d565b9150613d2f83612a7d565b9250827fffffffffffffffffffffffffffffffffffffffffffffffffffffffffffffffff03821115613d6457613d63613cea565b5b828201905092915050565b6000604082019050613d846000830185612a87565b613d916020830184612a87565b9392505050565b613da1816130b5565b82525050565b6000606082019050613dbc600083018661366a565b613dc96020830185612a87565b613dd66040830184613d98565b949350505050565b60006080820190508181036000830152613df8818761394f565b90508181036020830152613e0c8186613a0d565b90508181036040830152613e208185613b0d565b9050613e2f606083018461366a565b95945050505050565b7f476f7665726e6f72566f74657351756f72756d4672616374696f6e3a2071756f60008201527f72756d4e756d657261746f72206f7665722071756f72756d44656e6f6d696e6160208201527f746f720000000000000000000000000000000000000000000000000000000000604082015250565b6000613eba604383612b15565b9150613ec582613e38565b606082019050919050565b60006020820190508181036000830152613ee981613ead565b9050919050565b7f476f7665726e6f723a20766f7465206e6f742063757272656e746c792061637460008201527f6976650000000000000000000000000000000000000000000000000000000000602082015250565b6000613f4c602383612b15565b9150613f5782613ef0565b604082019050919050565b60006020820190508181036000830152613f7b81613f3f565b9050919050565b6000608082019050613f976000830187612a87565b613fa46020830186613d98565b613fb16040830185612a87565b8181036060830152613fc38184612b6a565b905095945050505050565b613fd781612a47565b8114613fe257600080fd5b50565b600081519050613ff481613fce565b92915050565b6000602082840312156140105761400f6129b8565b5b600061401e84828501613fe5565b91505092915050565b600060408201905061403c6000830185613640565b6140496020830184613640565b9392505050565b60006040820190506140656000830185613640565b6140726020830184612a87565b9392505050565b600061408482612a7d565b915061408f83612a7d565b9250817fffffffffffffffffffffffffffffffffffffffffffffffffffffffffffffffff04831182151516156140c8576140c7613cea565b5b828202905092915050565b7f4e487b7100000000000000000000000000000000000000000000000000000000600052601260045260246000fd5b600061410d82612a7d565b915061411883612a7d565b925082614128576141276140d3565b5b828204905092915050565b600081905092915050565b7f1901000000000000000000000000000000000000000000000000000000000000600082015250565b6000614174600283614133565b915061417f8261413e565b600282019050919050565b6000819050919050565b6141a56141a082612fc4565b61418a565b82525050565b60006141b682614167565b91506141c28285614194565b6020820191506141d28284614194565b6020820191508190509392505050565b60006080820190506141f7600083018761366a565b6142046020830186613d98565b614211604083018561366a565b61421e606083018461366a565b95945050505050565b7f45434453413a20696e76616c6964207369676e61747572650000000000000000600082015250565b600061425d601883612b15565b915061426882614227565b602082019050919050565b6000602082019050818103600083015261428c81614250565b9050919050565b7f45434453413a20696e76616c6964207369676e6174757265206c656e67746800600082015250565b60006142c9601f83612b15565b91506142d482614293565b602082019050919050565b600060208201905081810360008301526142f8816142bc565b9050919050565b7f45434453413a20696e76616c6964207369676e6174757265202773272076616c60008201527f7565000000000000000000000000000000000000000000000000000000000000602082015250565b600061435b602283612b15565b9150614366826142ff565b604082019050919050565b6000602082019050818103600083015261438a8161434e565b9050919050565b7f45434453413a20696e76616c6964207369676e6174757265202776272076616c60008201527f7565000000000000000000000000000000000000000000000000000000000000602082015250565b60006143ed602283612b15565b91506143f882614391565b604082019050919050565b6000602082019050818103600083015261441c816143e0565b9050919050565b7f476f7665726e6f72566f74696e6753696d706c653a20766f746520616c72656160008201527f6479206361737400000000000000000000000000000000000000000000000000602082015250565b600061447f602783612b15565b915061448a82614423565b604082019050919050565b600060208201905081810360008301526144ae81614472565b9050919050565b7f476f7665726e6f72566f74696e6753696d706c653a20696e76616c696420766160008201527f6c756520666f7220656e756d20566f7465547970650000000000000000000000602082015250565b6000614511603583612b15565b915061451c826144b5565b604082019050919050565b6000602082019050818103600083015261454081614504565b9050919050565b7f476f7665726e6f723a20756e6b6e6f776e2070726f706f73616c206964000000600082015250565b600061457d601d83612b15565b915061458882614547565b602082019050919050565b600060208201905081810360008301526145ac81614570565b9050919050565b60006145be82612a7d565b91506145c983612a7d565b9250828210156145dc576145db613cea565b5b828203905092915050565b7f476f7665726e6f72436f6d7061746962696c697479427261766f3a2070726f7060008201527f6f73657220766f7465732062656c6f772070726f706f73616c2074687265736860208201527f6f6c640000000000000000000000000000000000000000000000000000000000604082015250565b6000614669604383612b15565b9150614674826145e7565b606082019050919050565b600060208201905081810360008301526146988161465c565b9050919050565b7f476f7665726e6f723a20696e76616c69642070726f706f73616c206c656e677460008201527f6800000000000000000000000000000000000000000000000000000000000000602082015250565b60006146fb602183612b15565b91506147068261469f565b604082019050919050565b6000602082019050818103600083015261472a816146ee565b9050919050565b7f476f7665726e6f723a20656d7074792070726f706f73616c0000000000000000600082015250565b6000614767601883612b15565b915061477282614731565b602082019050919050565b600060208201905081810360008301526147968161475a565b9050919050565b7f476f7665726e6f723a2070726f706f73616c20616c726561647920657869737460008201527f7300000000000000000000000000000000000000000000000000000000000000602082015250565b60006147f9602183612b15565b91506148048261479d565b604082019050919050565b60006020820190508181036000830152614828816147ec565b9050919050565b600067ffffffffffffffff82169050919050565b600061484e8261482f565b91506148598361482f565b92508267ffffffffffffffff0382111561487657614875613cea565b5b828201905092915050565b600081519050919050565b600082825260208201905092915050565b6000819050602082019050919050565b600082825260208201905092915050565b60006148c982612b0a565b6148d381856148ad565b93506148e3818560208601612b26565b6148ec81612b59565b840191505092915050565b600061490383836148be565b905092915050565b6000602082019050919050565b600061492382614881565b61492d818561488c565b93508360208202850161493f8561489d565b8060005b8581101561497b578484038952815161495c85826148f7565b94506149678361490b565b925060208a01995050600181019050614943565b50829750879550505050505092915050565b60006149a86149a361499e8461482f565b6136d4565b612a7d565b9050919050565b6149b88161498d565b82525050565b6000610120820190506149d4600083018c612a87565b6149e1602083018b613640565b81810360408301526149f3818a61394f565b90508181036060830152614a078189613a0d565b90508181036080830152614a1b8188614918565b905081810360a0830152614a2f8187613b0d565b9050614a3e60c08301866149af565b614a4b60e08301856149af565b818103610100830152614a5e8184612b6a565b90509a9950505050505050505050565b7f416464726573733a20696e73756666696369656e742062616c616e636520666f60008201527f722063616c6c0000000000000000000000000000000000000000000000000000602082015250565b6000614aca602683612b15565b9150614ad582614a6e565b604082019050919050565b60006020820190508181036000830152614af981614abd565b9050919050565b7f416464726573733a2063616c6c20746f206e6f6e2d636f6e7472616374000000600082015250565b6000614b36601d83612b15565b9150614b4182614b00565b602082019050919050565b60006020820190508181036000830152614b6581614b29565b9050919050565b600081905092915050565b6000614b8282613a97565b614b8c8185614b6c565b9350614b9c818560208601612b26565b80840191505092915050565b6000614bb48284614b77565b915081905092915050565b600060a082019050614bd4600083018861366a565b614be1602083018761366a565b614bee604083018661366a565b614bfb6060830185612a87565b614c086080830184613640565b9695505050505050565b7f53616665436173743a2076616c756520646f65736e27742066697420696e203660008201527f3420626974730000000000000000000000000000000000000000000000000000602082015250565b6000614c6e602683612b15565b9150614c7982614c12565b604082019050919050565b60006020820190508181036000830152614c9d81614c61565b905091905056fe416464726573733a206c6f772d6c6576656c2063616c6c20776974682076616c7565206661696c6564a26469706673582212209bb4e3add82b30f57022a661f1fe8a1ae50fe3fa4647f0eb90c64e8812d45e7164736f6c634300080b0033",
  "immutableReferences": {
    "5772": [
      {
        "length": 32,
        "start": 5043
      },
      {
        "length": 32,
        "start": 6543
      },
      {
        "length": 32,
        "start": 6725
      }
    ],
    "28224": [
      {
        "length": 32,
        "start": 7315
      }
    ],
    "28226": [
      {
        "length": 32,
        "start": 7274
      }
    ],
    "28228": [
      {
        "length": 32,
        "start": 7188
      }
    ],
    "28230": [
      {
        "length": 32,
        "start": 7391
      }
    ],
    "28232": [
      {
        "length": 32,
        "start": 7424
      }
    ],
    "28234": [
      {
        "length": 32,
        "start": 7358
      }
    ]
  },
  "source": "// SPDX-License-Identifier: MIT\r\npragma solidity ^0.8.2;\r\n\r\nimport \"../../governance/Governor.sol\";\r\nimport \"../../governance/extensions/GovernorProposalThreshold.sol\";\r\nimport \"../../governance/extensions/GovernorCountingSimple.sol\";\r\nimport \"../../governance/extensions/GovernorVotes.sol\";\r\nimport \"../../governance/extensions/GovernorVotesQuorumFraction.sol\";\r\nimport \"../../governance/extensions/GovernorTimelockControl.sol\";\r\n\r\ncontract MyGovernor2 is\r\n    Governor,\r\n    GovernorTimelockControl,\r\n    GovernorProposalThreshold,\r\n    GovernorVotes,\r\n    GovernorVotesQuorumFraction,\r\n    GovernorCountingSimple\r\n{\r\n    constructor(IVotes _token, TimelockController _timelock)\r\n        Governor(\"MyGovernor\")\r\n        GovernorVotes(_token)\r\n        GovernorVotesQuorumFraction(4)\r\n        GovernorTimelockControl(_timelock)\r\n    {}\r\n\r\n    function votingDelay() public pure override returns (uint256) {\r\n        return 1; // 1 block\r\n    }\r\n\r\n    function votingPeriod() public pure override returns (uint256) {\r\n        return 45818; // 1 week\r\n    }\r\n\r\n    function proposalThreshold() public pure override returns (uint256) {\r\n        return 1000e18;\r\n    }\r\n\r\n    // The following functions are overrides required by Solidity.\r\n\r\n    function quorum(uint256 blockNumber)\r\n        public\r\n        view\r\n        override(IGovernor, GovernorVotesQuorumFraction)\r\n        returns (uint256)\r\n    {\r\n        return super.quorum(blockNumber);\r\n    }\r\n\r\n    function getVotes(address account, uint256 blockNumber)\r\n        public\r\n        view\r\n        override(IGovernor, GovernorVotes)\r\n        returns (uint256)\r\n    {\r\n        return super.getVotes(account, blockNumber);\r\n    }\r\n\r\n    function state(uint256 proposalId) public view override(Governor, GovernorTimelockControl) returns (ProposalState) {\r\n        return super.state(proposalId);\r\n    }\r\n\r\n    function propose(\r\n        address[] memory targets,\r\n        uint256[] memory values,\r\n        bytes[] memory calldatas,\r\n        string memory description\r\n    ) public override(Governor, GovernorProposalThreshold, IGovernor) returns (uint256) {\r\n        return super.propose(targets, values, calldatas, description);\r\n    }\r\n\r\n    function _execute(\r\n        uint256 proposalId,\r\n        address[] memory targets,\r\n        uint256[] memory values,\r\n        bytes[] memory calldatas,\r\n        bytes32 descriptionHash\r\n    ) internal override(Governor, GovernorTimelockControl) {\r\n        super._execute(proposalId, targets, values, calldatas, descriptionHash);\r\n    }\r\n\r\n    function _cancel(\r\n        address[] memory targets,\r\n        uint256[] memory values,\r\n        bytes[] memory calldatas,\r\n        bytes32 descriptionHash\r\n    ) internal override(Governor, GovernorTimelockControl) returns (uint256) {\r\n        return super._cancel(targets, values, calldatas, descriptionHash);\r\n    }\r\n\r\n    function _executor() internal view override(Governor, GovernorTimelockControl) returns (address) {\r\n        return super._executor();\r\n    }\r\n\r\n    function supportsInterface(bytes4 interfaceId)\r\n        public\r\n        view\r\n        override(Governor, GovernorTimelockControl)\r\n        returns (bool)\r\n    {\r\n        return super.supportsInterface(interfaceId);\r\n    }\r\n}\r\n",
  "sourcePath": "C:\\Users\\Alexandr\\dev\\nft-sim\\contract\\contracts\\mocks\\wizard\\MyGovernor2.sol",
  "compiler": {
    "name": "solc",
    "version": "0.8.11+commit.d7f03943.Emscripten.clang"
  },
  "schemaVersion": "3.4.4",
  "updatedAt": "2022-02-17T10:48:57.690Z",
  "devdoc": {
    "kind": "dev",
    "methods": {
      "COUNTING_MODE()": {
        "details": "See {IGovernor-COUNTING_MODE}."
      },
      "castVote(uint256,uint8)": {
        "details": "See {IGovernor-castVote}."
      },
      "castVoteBySig(uint256,uint8,uint8,bytes32,bytes32)": {
        "details": "See {IGovernor-castVoteBySig}."
      },
      "castVoteWithReason(uint256,uint8,string)": {
        "details": "See {IGovernor-castVoteWithReason}."
      },
      "execute(address[],uint256[],bytes[],bytes32)": {
        "details": "See {IGovernor-execute}."
      },
      "hasVoted(uint256,address)": {
        "details": "See {IGovernor-hasVoted}."
      },
      "hashProposal(address[],uint256[],bytes[],bytes32)": {
        "details": "See {IGovernor-hashProposal}. The proposal id is produced by hashing the RLC encoded `targets` array, the `values` array, the `calldatas` array and the descriptionHash (bytes32 which itself is the keccak256 hash of the description string). This proposal id can be produced from the proposal data which is part of the {ProposalCreated} event. It can even be computed in advance, before the proposal is submitted. Note that the chainId and the governor address are not part of the proposal id computation. Consequently, the same proposal (with same operation and same description) will have the same id if submitted on multiple governors accross multiple networks. This also means that in order to execute the same operation twice (on the same governor) the proposer will have to change the description in order to avoid proposal id conflicts."
      },
      "name()": {
        "details": "See {IGovernor-name}."
      },
      "proposalDeadline(uint256)": {
        "details": "See {IGovernor-proposalDeadline}."
      },
      "proposalEta(uint256)": {
        "details": "Public accessor to check the eta of a queued proposal"
      },
      "proposalSnapshot(uint256)": {
        "details": "See {IGovernor-proposalSnapshot}."
      },
      "proposalThreshold()": {
        "details": "Part of the Governor Bravo's interface: _\"The number of votes required in order for a voter to become a proposer\"_."
      },
      "proposalVotes(uint256)": {
        "details": "Accessor to the internal vote counts."
      },
      "queue(address[],uint256[],bytes[],bytes32)": {
        "details": "Function to queue a proposal to the timelock."
      },
      "quorumDenominator()": {
        "details": "Returns the quorum denominator. Defaults to 100, but may be overridden."
      },
      "quorumNumerator()": {
        "details": "Returns the current quorum numerator. See {quorumDenominator}."
      },
      "relay(address,uint256,bytes)": {
        "details": "Relays a transaction or function call to an arbitrary target. In cases where the governance executor is some contract other than the governor itself, like when using a timelock, this function can be invoked in a governance proposal to recover tokens or Ether that was sent to the governor contract by mistake. Note that if the executor is simply the governor itself, use of `relay` is redundant."
      },
      "timelock()": {
        "details": "Public accessor to check the address of the timelock"
      },
      "updateQuorumNumerator(uint256)": {
        "details": "Changes the quorum numerator. Emits a {QuorumNumeratorUpdated} event. Requirements: - Must be called through a governance proposal. - New numerator must be smaller or equal to the denominator."
      },
      "updateTimelock(address)": {
        "details": "Public endpoint to update the underlying timelock instance. Restricted to the timelock itself, so updates must be proposed, scheduled, and executed through governance proposals. CAUTION: It is not recommended to change the timelock while there are other queued governance proposals."
      },
      "version()": {
        "details": "See {IGovernor-version}."
      },
      "votingDelay()": {
        "details": "Delay, in number of block, between the proposal is created and the vote starts. This can be increassed to leave time for users to buy voting power, of delegate it, before the voting of a proposal starts."
      },
      "votingPeriod()": {
        "details": "Delay, in number of blocks, between the vote start and vote ends. NOTE: The {votingDelay} can delay the start of the vote. This must be considered when setting the voting duration compared to the voting delay."
      }
    },
    "version": 1
  },
  "userdoc": {
    "kind": "user",
    "methods": {
      "votingDelay()": {
        "notice": "module:user-config"
      },
      "votingPeriod()": {
        "notice": "module:user-config"
      }
    },
    "version": 1
  }
}