{
  "contractName": "SampleMother",
  "abi": [
    {
      "inputs": [],
      "name": "isHuman",
      "outputs": [
        {
          "internalType": "bool",
          "name": "",
          "type": "bool"
        }
      ],
      "stateMutability": "view",
      "type": "function"
    },
    {
      "inputs": [],
      "name": "mother",
      "outputs": [
        {
          "internalType": "uint256",
          "name": "",
          "type": "uint256"
        }
      ],
      "stateMutability": "view",
      "type": "function"
    },
    {
      "inputs": [],
      "name": "initialize",
      "outputs": [],
      "stateMutability": "nonpayable",
      "type": "function"
    },
    {
      "inputs": [
        {
          "internalType": "uint256",
          "name": "value",
          "type": "uint256"
        }
      ],
      "name": "initialize",
      "outputs": [],
      "stateMutability": "nonpayable",
      "type": "function"
    }
  ],
  "bytecode": "0x608060405234801561001057600080fd5b5061068e806100206000396000f3fe608060405234801561001057600080fd5b506004361061004c5760003560e01c80634a6c9db6146100515780638129fc1c1461006f578063ed7dfee314610079578063fe4b84df14610097575b600080fd5b6100596100b3565b6040516100669190610476565b60405180910390f35b6100776100c6565b005b6100816101b2565b60405161008e91906104aa565b60405180910390f35b6100b160048036038101906100ac91906104f6565b6101b8565b005b600060029054906101000a900460ff1681565b600060019054906101000a900460ff166100ee5760008054906101000a900460ff16156100f7565b6100f66102a6565b5b610136576040517f08c379a000000000000000000000000000000000000000000000000000000000815260040161012d906105a6565b60405180910390fd5b60008060019054906101000a900460ff161590508015610186576001600060016101000a81548160ff02191690831515021790555060016000806101000a81548160ff0219169083151502179055505b61018e6102b7565b80156101af5760008060016101000a81548160ff0219169083151502179055505b50565b60015481565b600060019054906101000a900460ff166101e05760008054906101000a900460ff16156101e9565b6101e86102a6565b5b610228576040517f08c379a000000000000000000000000000000000000000000000000000000000815260040161021f906105a6565b60405180910390fd5b60008060019054906101000a900460ff161590508015610278576001600060016101000a81548160ff02191690831515021790555060016000806101000a81548160ff0219169083151502179055505b61028182610310565b80156102a25760008060016101000a81548160ff0219169083151502179055505b5050565b60006102b130610373565b15905090565b600060019054906101000a900460ff16610306576040517f08c379a00000000000000000000000000000000000000000000000000000000081526004016102fd90610638565b60405180910390fd5b61030e610396565b565b600060019054906101000a900460ff1661035f576040517f08c379a000000000000000000000000000000000000000000000000000000000815260040161035690610638565b60405180910390fd5b6103676102b7565b61037081610402565b50565b6000808273ffffffffffffffffffffffffffffffffffffffff163b119050919050565b600060019054906101000a900460ff166103e5576040517f08c379a00000000000000000000000000000000000000000000000000000000081526004016103dc90610638565b60405180910390fd5b6001600060026101000a81548160ff021916908315150217905550565b600060019054906101000a900460ff16610451576040517f08c379a000000000000000000000000000000000000000000000000000000000815260040161044890610638565b60405180910390fd5b8060018190555050565b60008115159050919050565b6104708161045b565b82525050565b600060208201905061048b6000830184610467565b92915050565b6000819050919050565b6104a481610491565b82525050565b60006020820190506104bf600083018461049b565b92915050565b600080fd5b6104d381610491565b81146104de57600080fd5b50565b6000813590506104f0816104ca565b92915050565b60006020828403121561050c5761050b6104c5565b5b600061051a848285016104e1565b91505092915050565b600082825260208201905092915050565b7f496e697469616c697a61626c653a20636f6e747261637420697320616c72656160008201527f647920696e697469616c697a6564000000000000000000000000000000000000602082015250565b6000610590602e83610523565b915061059b82610534565b604082019050919050565b600060208201905081810360008301526105bf81610583565b9050919050565b7f496e697469616c697a61626c653a20636f6e7472616374206973206e6f74206960008201527f6e697469616c697a696e67000000000000000000000000000000000000000000602082015250565b6000610622602b83610523565b915061062d826105c6565b604082019050919050565b6000602082019050818103600083015261065181610615565b905091905056fea264697066735822122082ff53e95b8799f349d48aea94f4303a980c7f20e1d54d1da3183114eeb0944d64736f6c634300080b0033",
  "immutableReferences": {},
  "source": "// SPDX-License-Identifier: MIT\r\n\r\npragma solidity ^0.8.0;\r\n\r\nimport \"../proxy/utils/Initializable.sol\";\r\n\r\n// Sample contracts showing upgradeability with multiple inheritance.\r\n// Child contract inherits from Father and Mother contracts, and Father extends from Gramps.\r\n//\r\n//         Human\r\n//       /       \\\r\n//      |       Gramps\r\n//      |         |\r\n//    Mother    Father\r\n//      |         |\r\n//      -- Child --\r\n\r\n/**\r\n * Sample base intializable contract that is a human\r\n */\r\ncontract SampleHuman is Initializable {\r\n    bool public isHuman;\r\n\r\n    function initialize() public initializer {\r\n        __SampleHuman_init();\r\n    }\r\n\r\n    // solhint-disable-next-line func-name-mixedcase\r\n    function __SampleHuman_init() internal onlyInitializing {\r\n        __SampleHuman_init_unchained();\r\n    }\r\n\r\n    // solhint-disable-next-line func-name-mixedcase\r\n    function __SampleHuman_init_unchained() internal onlyInitializing {\r\n        isHuman = true;\r\n    }\r\n}\r\n\r\n/**\r\n * Sample base intializable contract that defines a field mother\r\n */\r\ncontract SampleMother is Initializable, SampleHuman {\r\n    uint256 public mother;\r\n\r\n    function initialize(uint256 value) public virtual initializer {\r\n        __SampleMother_init(value);\r\n    }\r\n\r\n    // solhint-disable-next-line func-name-mixedcase\r\n    function __SampleMother_init(uint256 value) internal onlyInitializing {\r\n        __SampleHuman_init();\r\n        __SampleMother_init_unchained(value);\r\n    }\r\n\r\n    // solhint-disable-next-line func-name-mixedcase\r\n    function __SampleMother_init_unchained(uint256 value) internal onlyInitializing {\r\n        mother = value;\r\n    }\r\n}\r\n\r\n/**\r\n * Sample base intializable contract that defines a field gramps\r\n */\r\ncontract SampleGramps is Initializable, SampleHuman {\r\n    string public gramps;\r\n\r\n    function initialize(string memory value) public virtual initializer {\r\n        __SampleGramps_init(value);\r\n    }\r\n\r\n    // solhint-disable-next-line func-name-mixedcase\r\n    function __SampleGramps_init(string memory value) internal onlyInitializing {\r\n        __SampleHuman_init();\r\n        __SampleGramps_init_unchained(value);\r\n    }\r\n\r\n    // solhint-disable-next-line func-name-mixedcase\r\n    function __SampleGramps_init_unchained(string memory value) internal onlyInitializing {\r\n        gramps = value;\r\n    }\r\n}\r\n\r\n/**\r\n * Sample base intializable contract that defines a field father and extends from gramps\r\n */\r\ncontract SampleFather is Initializable, SampleGramps {\r\n    uint256 public father;\r\n\r\n    function initialize(string memory _gramps, uint256 _father) public initializer {\r\n        __SampleFather_init(_gramps, _father);\r\n    }\r\n\r\n    // solhint-disable-next-line func-name-mixedcase\r\n    function __SampleFather_init(string memory _gramps, uint256 _father) internal onlyInitializing {\r\n        __SampleGramps_init(_gramps);\r\n        __SampleFather_init_unchained(_father);\r\n    }\r\n\r\n    // solhint-disable-next-line func-name-mixedcase\r\n    function __SampleFather_init_unchained(uint256 _father) internal onlyInitializing {\r\n        father = _father;\r\n    }\r\n}\r\n\r\n/**\r\n * Child extends from mother, father (gramps)\r\n */\r\ncontract SampleChild is Initializable, SampleMother, SampleFather {\r\n    uint256 public child;\r\n\r\n    function initialize(\r\n        uint256 _mother,\r\n        string memory _gramps,\r\n        uint256 _father,\r\n        uint256 _child\r\n    ) public initializer {\r\n        __SampleChild_init(_mother, _gramps, _father, _child);\r\n    }\r\n\r\n    // solhint-disable-next-line func-name-mixedcase\r\n    function __SampleChild_init(\r\n        uint256 _mother,\r\n        string memory _gramps,\r\n        uint256 _father,\r\n        uint256 _child\r\n    ) internal onlyInitializing {\r\n        __SampleMother_init(_mother);\r\n        __SampleFather_init(_gramps, _father);\r\n        __SampleChild_init_unchained(_child);\r\n    }\r\n\r\n    // solhint-disable-next-line func-name-mixedcase\r\n    function __SampleChild_init_unchained(uint256 _child) internal onlyInitializing {\r\n        child = _child;\r\n    }\r\n}\r\n",
  "sourcePath": "C:\\Users\\Alexandr\\dev\\nft-sim\\contract\\contracts\\mocks\\MultipleInheritanceInitializableMocks.sol",
  "compiler": {
    "name": "solc",
    "version": "0.8.11+commit.d7f03943.Emscripten.clang"
  },
  "schemaVersion": "3.4.4",
  "updatedAt": "2022-02-17T11:42:21.094Z",
  "devdoc": {
    "kind": "dev",
    "methods": {},
    "version": 1
  },
  "userdoc": {
    "kind": "user",
    "methods": {},
    "notice": "Sample base intializable contract that defines a field mother",
    "version": 1
  }
}