{
  "contractName": "SimCardNft",
  "abi": [
    {
      "inputs": [],
      "stateMutability": "nonpayable",
      "type": "constructor"
    },
    {
      "anonymous": false,
      "inputs": [
        {
          "indexed": true,
          "internalType": "address",
          "name": "owner",
          "type": "address"
        },
        {
          "indexed": true,
          "internalType": "address",
          "name": "approved",
          "type": "address"
        },
        {
          "indexed": true,
          "internalType": "uint256",
          "name": "tokenId",
          "type": "uint256"
        }
      ],
      "name": "Approval",
      "type": "event"
    },
    {
      "anonymous": false,
      "inputs": [
        {
          "indexed": true,
          "internalType": "address",
          "name": "owner",
          "type": "address"
        },
        {
          "indexed": true,
          "internalType": "address",
          "name": "operator",
          "type": "address"
        },
        {
          "indexed": false,
          "internalType": "bool",
          "name": "approved",
          "type": "bool"
        }
      ],
      "name": "ApprovalForAll",
      "type": "event"
    },
    {
      "anonymous": false,
      "inputs": [
        {
          "indexed": true,
          "internalType": "address",
          "name": "from",
          "type": "address"
        },
        {
          "indexed": true,
          "internalType": "address",
          "name": "to",
          "type": "address"
        },
        {
          "indexed": true,
          "internalType": "uint256",
          "name": "tokenId",
          "type": "uint256"
        }
      ],
      "name": "Transfer",
      "type": "event"
    },
    {
      "inputs": [
        {
          "internalType": "address",
          "name": "to",
          "type": "address"
        },
        {
          "internalType": "uint256",
          "name": "tokenId",
          "type": "uint256"
        }
      ],
      "name": "approve",
      "outputs": [],
      "stateMutability": "nonpayable",
      "type": "function"
    },
    {
      "inputs": [
        {
          "internalType": "address",
          "name": "owner",
          "type": "address"
        }
      ],
      "name": "balanceOf",
      "outputs": [
        {
          "internalType": "uint256",
          "name": "",
          "type": "uint256"
        }
      ],
      "stateMutability": "view",
      "type": "function"
    },
    {
      "inputs": [
        {
          "internalType": "uint256",
          "name": "tokenId",
          "type": "uint256"
        }
      ],
      "name": "getApproved",
      "outputs": [
        {
          "internalType": "address",
          "name": "",
          "type": "address"
        }
      ],
      "stateMutability": "view",
      "type": "function"
    },
    {
      "inputs": [
        {
          "internalType": "address",
          "name": "owner",
          "type": "address"
        },
        {
          "internalType": "address",
          "name": "operator",
          "type": "address"
        }
      ],
      "name": "isApprovedForAll",
      "outputs": [
        {
          "internalType": "bool",
          "name": "",
          "type": "bool"
        }
      ],
      "stateMutability": "view",
      "type": "function"
    },
    {
      "inputs": [],
      "name": "name",
      "outputs": [
        {
          "internalType": "string",
          "name": "",
          "type": "string"
        }
      ],
      "stateMutability": "view",
      "type": "function"
    },
    {
      "inputs": [
        {
          "internalType": "uint256",
          "name": "tokenId",
          "type": "uint256"
        }
      ],
      "name": "ownerOf",
      "outputs": [
        {
          "internalType": "address",
          "name": "",
          "type": "address"
        }
      ],
      "stateMutability": "view",
      "type": "function"
    },
    {
      "inputs": [
        {
          "internalType": "address",
          "name": "from",
          "type": "address"
        },
        {
          "internalType": "address",
          "name": "to",
          "type": "address"
        },
        {
          "internalType": "uint256",
          "name": "tokenId",
          "type": "uint256"
        }
      ],
      "name": "safeTransferFrom",
      "outputs": [],
      "stateMutability": "nonpayable",
      "type": "function"
    },
    {
      "inputs": [
        {
          "internalType": "address",
          "name": "from",
          "type": "address"
        },
        {
          "internalType": "address",
          "name": "to",
          "type": "address"
        },
        {
          "internalType": "uint256",
          "name": "tokenId",
          "type": "uint256"
        },
        {
          "internalType": "bytes",
          "name": "_data",
          "type": "bytes"
        }
      ],
      "name": "safeTransferFrom",
      "outputs": [],
      "stateMutability": "nonpayable",
      "type": "function"
    },
    {
      "inputs": [
        {
          "internalType": "address",
          "name": "operator",
          "type": "address"
        },
        {
          "internalType": "bool",
          "name": "approved",
          "type": "bool"
        }
      ],
      "name": "setApprovalForAll",
      "outputs": [],
      "stateMutability": "nonpayable",
      "type": "function"
    },
    {
      "inputs": [
        {
          "internalType": "bytes4",
          "name": "interfaceId",
          "type": "bytes4"
        }
      ],
      "name": "supportsInterface",
      "outputs": [
        {
          "internalType": "bool",
          "name": "",
          "type": "bool"
        }
      ],
      "stateMutability": "view",
      "type": "function"
    },
    {
      "inputs": [],
      "name": "symbol",
      "outputs": [
        {
          "internalType": "string",
          "name": "",
          "type": "string"
        }
      ],
      "stateMutability": "view",
      "type": "function"
    },
    {
      "inputs": [
        {
          "internalType": "uint256",
          "name": "tokenId",
          "type": "uint256"
        }
      ],
      "name": "tokenURI",
      "outputs": [
        {
          "internalType": "string",
          "name": "",
          "type": "string"
        }
      ],
      "stateMutability": "view",
      "type": "function"
    },
    {
      "inputs": [
        {
          "internalType": "address",
          "name": "from",
          "type": "address"
        },
        {
          "internalType": "address",
          "name": "to",
          "type": "address"
        },
        {
          "internalType": "uint256",
          "name": "tokenId",
          "type": "uint256"
        }
      ],
      "name": "transferFrom",
      "outputs": [],
      "stateMutability": "nonpayable",
      "type": "function"
    },
    {
      "inputs": [
        {
          "internalType": "address",
          "name": "user",
          "type": "address"
        },
        {
          "internalType": "uint256",
          "name": "phoneNumber",
          "type": "uint256"
        }
      ],
      "name": "registerSim",
      "outputs": [
        {
          "internalType": "uint256",
          "name": "",
          "type": "uint256"
        }
      ],
      "stateMutability": "nonpayable",
      "type": "function"
    }
  ],
  "bytecode": "0x60806040523480156200001157600080fd5b506040518060400160405280600a81526020017f53696d436172644e6674000000000000000000000000000000000000000000008152506040518060400160405280600681526020017f53494d4e46540000000000000000000000000000000000000000000000000000815250816000908051906020019062000096929190620000b8565b508060019080519060200190620000af929190620000b8565b505050620001cd565b828054620000c69062000197565b90600052602060002090601f016020900481019282620000ea576000855562000136565b82601f106200010557805160ff191683800117855562000136565b8280016001018555821562000136579182015b828111156200013557825182559160200191906001019062000118565b5b50905062000145919062000149565b5090565b5b80821115620001645760008160009055506001016200014a565b5090565b7f4e487b7100000000000000000000000000000000000000000000000000000000600052602260045260246000fd5b60006002820490506001821680620001b057607f821691505b60208210811415620001c757620001c662000168565b5b50919050565b6126f180620001dd6000396000f3fe608060405234801561001057600080fd5b50600436106100ea5760003560e01c806370a082311161008c578063a22cb46511610066578063a22cb4651461026f578063b88d4fde1461028b578063c87b56dd146102a7578063e985e9c5146102d7576100ea565b806370a08231146101f15780637a86fc741461022157806395d89b4114610251576100ea565b8063095ea7b3116100c8578063095ea7b31461016d57806323b872dd1461018957806342842e0e146101a55780636352211e146101c1576100ea565b806301ffc9a7146100ef57806306fdde031461011f578063081812fc1461013d575b600080fd5b61010960048036038101906101049190611674565b610307565b60405161011691906116bc565b60405180910390f35b6101276103e9565b6040516101349190611770565b60405180910390f35b610157600480360381019061015291906117c8565b61047b565b6040516101649190611836565b60405180910390f35b6101876004803603810190610182919061187d565b610500565b005b6101a3600480360381019061019e91906118bd565b610618565b005b6101bf60048036038101906101ba91906118bd565b610678565b005b6101db60048036038101906101d691906117c8565b610698565b6040516101e89190611836565b60405180910390f35b61020b60048036038101906102069190611910565b61074a565b604051610218919061194c565b60405180910390f35b61023b6004803603810190610236919061187d565b610802565b604051610248919061194c565b60405180910390f35b610259610817565b6040516102669190611770565b60405180910390f35b61028960048036038101906102849190611993565b6108a9565b005b6102a560048036038101906102a09190611b08565b6108bf565b005b6102c160048036038101906102bc91906117c8565b610921565b6040516102ce9190611770565b60405180910390f35b6102f160048036038101906102ec9190611b8b565b6109c8565b6040516102fe91906116bc565b60405180910390f35b60007f80ac58cd000000000000000000000000000000000000000000000000000000007bffffffffffffffffffffffffffffffffffffffffffffffffffffffff1916827bffffffffffffffffffffffffffffffffffffffffffffffffffffffff191614806103d257507f5b5e139f000000000000000000000000000000000000000000000000000000007bffffffffffffffffffffffffffffffffffffffffffffffffffffffff1916827bffffffffffffffffffffffffffffffffffffffffffffffffffffffff1916145b806103e257506103e182610a5c565b5b9050919050565b6060600080546103f890611bfa565b80601f016020809104026020016040519081016040528092919081815260200182805461042490611bfa565b80156104715780601f1061044657610100808354040283529160200191610471565b820191906000526020600020905b81548152906001019060200180831161045457829003601f168201915b5050505050905090565b600061048682610ac6565b6104c5576040517f08c379a00000000000000000000000000000000000000000000000000000000081526004016104bc90611c9e565b60405180910390fd5b6004600083815260200190815260200160002060009054906101000a900473ffffffffffffffffffffffffffffffffffffffff169050919050565b600061050b82610698565b90508073ffffffffffffffffffffffffffffffffffffffff168373ffffffffffffffffffffffffffffffffffffffff16141561057c576040517f08c379a000000000000000000000000000000000000000000000000000000000815260040161057390611d30565b60405180910390fd5b8073ffffffffffffffffffffffffffffffffffffffff1661059b610b32565b73ffffffffffffffffffffffffffffffffffffffff1614806105ca57506105c9816105c4610b32565b6109c8565b5b610609576040517f08c379a000000000000000000000000000000000000000000000000000000000815260040161060090611dc2565b60405180910390fd5b6106138383610b3a565b505050565b610629610623610b32565b82610bf3565b610668576040517f08c379a000000000000000000000000000000000000000000000000000000000815260040161065f90611e54565b60405180910390fd5b610673838383610cd1565b505050565b610693838383604051806020016040528060008152506108bf565b505050565b6000806002600084815260200190815260200160002060009054906101000a900473ffffffffffffffffffffffffffffffffffffffff169050600073ffffffffffffffffffffffffffffffffffffffff168173ffffffffffffffffffffffffffffffffffffffff161415610741576040517f08c379a000000000000000000000000000000000000000000000000000000000815260040161073890611ee6565b60405180910390fd5b80915050919050565b60008073ffffffffffffffffffffffffffffffffffffffff168273ffffffffffffffffffffffffffffffffffffffff1614156107bb576040517f08c379a00000000000000000000000000000000000000000000000000000000081526004016107b290611f78565b60405180910390fd5b600360008373ffffffffffffffffffffffffffffffffffffffff1673ffffffffffffffffffffffffffffffffffffffff168152602001908152602001600020549050919050565b600061080e8383610f38565b81905092915050565b60606001805461082690611bfa565b80601f016020809104026020016040519081016040528092919081815260200182805461085290611bfa565b801561089f5780601f106108745761010080835404028352916020019161089f565b820191906000526020600020905b81548152906001019060200180831161088257829003601f168201915b5050505050905090565b6108bb6108b4610b32565b8383611112565b5050565b6108d06108ca610b32565b83610bf3565b61090f576040517f08c379a000000000000000000000000000000000000000000000000000000000815260040161090690611e54565b60405180910390fd5b61091b8484848461127f565b50505050565b606061092c82610ac6565b61096b576040517f08c379a00000000000000000000000000000000000000000000000000000000081526004016109629061200a565b60405180910390fd5b60006109756112db565b9050600081511161099557604051806020016040528060008152506109c0565b8061099f846112f2565b6040516020016109b0929190612066565b6040516020818303038152906040525b915050919050565b6000600560008473ffffffffffffffffffffffffffffffffffffffff1673ffffffffffffffffffffffffffffffffffffffff16815260200190815260200160002060008373ffffffffffffffffffffffffffffffffffffffff1673ffffffffffffffffffffffffffffffffffffffff16815260200190815260200160002060009054906101000a900460ff16905092915050565b60007f01ffc9a7000000000000000000000000000000000000000000000000000000007bffffffffffffffffffffffffffffffffffffffffffffffffffffffff1916827bffffffffffffffffffffffffffffffffffffffffffffffffffffffff1916149050919050565b60008073ffffffffffffffffffffffffffffffffffffffff166002600084815260200190815260200160002060009054906101000a900473ffffffffffffffffffffffffffffffffffffffff1673ffffffffffffffffffffffffffffffffffffffff1614159050919050565b600033905090565b816004600083815260200190815260200160002060006101000a81548173ffffffffffffffffffffffffffffffffffffffff021916908373ffffffffffffffffffffffffffffffffffffffff160217905550808273ffffffffffffffffffffffffffffffffffffffff16610bad83610698565b73ffffffffffffffffffffffffffffffffffffffff167f8c5be1e5ebec7d5bd14f71427d1e84f3dd0314c0f7b2291e5b200ac8c7c3b92560405160405180910390a45050565b6000610bfe82610ac6565b610c3d576040517f08c379a0000000000000000000000000000000000000000000000000000000008152600401610c34906120fc565b60405180910390fd5b6000610c4883610698565b90508073ffffffffffffffffffffffffffffffffffffffff168473ffffffffffffffffffffffffffffffffffffffff161480610cb757508373ffffffffffffffffffffffffffffffffffffffff16610c9f8461047b565b73ffffffffffffffffffffffffffffffffffffffff16145b80610cc85750610cc781856109c8565b5b91505092915050565b8273ffffffffffffffffffffffffffffffffffffffff16610cf182610698565b73ffffffffffffffffffffffffffffffffffffffff1614610d47576040517f08c379a0000000000000000000000000000000000000000000000000000000008152600401610d3e9061218e565b60405180910390fd5b600073ffffffffffffffffffffffffffffffffffffffff168273ffffffffffffffffffffffffffffffffffffffff161415610db7576040517f08c379a0000000000000000000000000000000000000000000000000000000008152600401610dae90612220565b60405180910390fd5b610dc2838383611453565b610dcd600082610b3a565b6001600360008573ffffffffffffffffffffffffffffffffffffffff1673ffffffffffffffffffffffffffffffffffffffff1681526020019081526020016000206000828254610e1d919061226f565b925050819055506001600360008473ffffffffffffffffffffffffffffffffffffffff1673ffffffffffffffffffffffffffffffffffffffff1681526020019081526020016000206000828254610e7491906122a3565b92505081905550816002600083815260200190815260200160002060006101000a81548173ffffffffffffffffffffffffffffffffffffffff021916908373ffffffffffffffffffffffffffffffffffffffff160217905550808273ffffffffffffffffffffffffffffffffffffffff168473ffffffffffffffffffffffffffffffffffffffff167fddf252ad1be2c89b69c2b068fc378daa952ba7f163c4a11628f55a4df523b3ef60405160405180910390a4610f33838383611458565b505050565b600073ffffffffffffffffffffffffffffffffffffffff168273ffffffffffffffffffffffffffffffffffffffff161415610fa8576040517f08c379a0000000000000000000000000000000000000000000000000000000008152600401610f9f90612345565b60405180910390fd5b610fb181610ac6565b15610ff1576040517f08c379a0000000000000000000000000000000000000000000000000000000008152600401610fe8906123b1565b60405180910390fd5b610ffd60008383611453565b6001600360008473ffffffffffffffffffffffffffffffffffffffff1673ffffffffffffffffffffffffffffffffffffffff168152602001908152602001600020600082825461104d91906122a3565b92505081905550816002600083815260200190815260200160002060006101000a81548173ffffffffffffffffffffffffffffffffffffffff021916908373ffffffffffffffffffffffffffffffffffffffff160217905550808273ffffffffffffffffffffffffffffffffffffffff16600073ffffffffffffffffffffffffffffffffffffffff167fddf252ad1be2c89b69c2b068fc378daa952ba7f163c4a11628f55a4df523b3ef60405160405180910390a461110e60008383611458565b5050565b8173ffffffffffffffffffffffffffffffffffffffff168373ffffffffffffffffffffffffffffffffffffffff161415611181576040517f08c379a00000000000000000000000000000000000000000000000000000000081526004016111789061241d565b60405180910390fd5b80600560008573ffffffffffffffffffffffffffffffffffffffff1673ffffffffffffffffffffffffffffffffffffffff16815260200190815260200160002060008473ffffffffffffffffffffffffffffffffffffffff1673ffffffffffffffffffffffffffffffffffffffff16815260200190815260200160002060006101000a81548160ff0219169083151502179055508173ffffffffffffffffffffffffffffffffffffffff168373ffffffffffffffffffffffffffffffffffffffff167f17307eab39ab6107e8899845ad3d59bd9653f200f220920489ca2b5937696c318360405161127291906116bc565b60405180910390a3505050565b61128a848484610cd1565b6112968484848461145d565b6112d5576040517f08c379a00000000000000000000000000000000000000000000000000000000081526004016112cc906124af565b60405180910390fd5b50505050565b606060405180602001604052806000815250905090565b6060600082141561133a576040518060400160405280600181526020017f3000000000000000000000000000000000000000000000000000000000000000815250905061144e565b600082905060005b6000821461136c578080611355906124cf565b915050600a826113659190612547565b9150611342565b60008167ffffffffffffffff811115611388576113876119dd565b5b6040519080825280601f01601f1916602001820160405280156113ba5781602001600182028036833780820191505090505b5090505b60008514611447576001826113d3919061226f565b9150600a856113e29190612578565b60306113ee91906122a3565b60f81b818381518110611404576114036125a9565b5b60200101907effffffffffffffffffffffffffffffffffffffffffffffffffffffffffffff1916908160001a905350600a856114409190612547565b94506113be565b8093505050505b919050565b505050565b505050565b600061147e8473ffffffffffffffffffffffffffffffffffffffff166115e5565b156115d8578373ffffffffffffffffffffffffffffffffffffffff1663150b7a026114a7610b32565b8786866040518563ffffffff1660e01b81526004016114c9949392919061262d565b6020604051808303816000875af192505050801561150557506040513d601f19601f82011682018060405250810190611502919061268e565b60015b611588573d8060008114611535576040519150601f19603f3d011682016040523d82523d6000602084013e61153a565b606091505b50600081511415611580576040517f08c379a0000000000000000000000000000000000000000000000000000000008152600401611577906124af565b60405180910390fd5b805181602001fd5b63150b7a0260e01b7bffffffffffffffffffffffffffffffffffffffffffffffffffffffff1916817bffffffffffffffffffffffffffffffffffffffffffffffffffffffff1916149150506115dd565b600190505b949350505050565b6000808273ffffffffffffffffffffffffffffffffffffffff163b119050919050565b6000604051905090565b600080fd5b600080fd5b60007fffffffff0000000000000000000000000000000000000000000000000000000082169050919050565b6116518161161c565b811461165c57600080fd5b50565b60008135905061166e81611648565b92915050565b60006020828403121561168a57611689611612565b5b60006116988482850161165f565b91505092915050565b60008115159050919050565b6116b6816116a1565b82525050565b60006020820190506116d160008301846116ad565b92915050565b600081519050919050565b600082825260208201905092915050565b60005b838110156117115780820151818401526020810190506116f6565b83811115611720576000848401525b50505050565b6000601f19601f8301169050919050565b6000611742826116d7565b61174c81856116e2565b935061175c8185602086016116f3565b61176581611726565b840191505092915050565b6000602082019050818103600083015261178a8184611737565b905092915050565b6000819050919050565b6117a581611792565b81146117b057600080fd5b50565b6000813590506117c28161179c565b92915050565b6000602082840312156117de576117dd611612565b5b60006117ec848285016117b3565b91505092915050565b600073ffffffffffffffffffffffffffffffffffffffff82169050919050565b6000611820826117f5565b9050919050565b61183081611815565b82525050565b600060208201905061184b6000830184611827565b92915050565b61185a81611815565b811461186557600080fd5b50565b60008135905061187781611851565b92915050565b6000806040838503121561189457611893611612565b5b60006118a285828601611868565b92505060206118b3858286016117b3565b9150509250929050565b6000806000606084860312156118d6576118d5611612565b5b60006118e486828701611868565b93505060206118f586828701611868565b9250506040611906868287016117b3565b9150509250925092565b60006020828403121561192657611925611612565b5b600061193484828501611868565b91505092915050565b61194681611792565b82525050565b6000602082019050611961600083018461193d565b92915050565b611970816116a1565b811461197b57600080fd5b50565b60008135905061198d81611967565b92915050565b600080604083850312156119aa576119a9611612565b5b60006119b885828601611868565b92505060206119c98582860161197e565b9150509250929050565b600080fd5b600080fd5b7f4e487b7100000000000000000000000000000000000000000000000000000000600052604160045260246000fd5b611a1582611726565b810181811067ffffffffffffffff82111715611a3457611a336119dd565b5b80604052505050565b6000611a47611608565b9050611a538282611a0c565b919050565b600067ffffffffffffffff821115611a7357611a726119dd565b5b611a7c82611726565b9050602081019050919050565b82818337600083830152505050565b6000611aab611aa684611a58565b611a3d565b905082815260208101848484011115611ac757611ac66119d8565b5b611ad2848285611a89565b509392505050565b600082601f830112611aef57611aee6119d3565b5b8135611aff848260208601611a98565b91505092915050565b60008060008060808587031215611b2257611b21611612565b5b6000611b3087828801611868565b9450506020611b4187828801611868565b9350506040611b52878288016117b3565b925050606085013567ffffffffffffffff811115611b7357611b72611617565b5b611b7f87828801611ada565b91505092959194509250565b60008060408385031215611ba257611ba1611612565b5b6000611bb085828601611868565b9250506020611bc185828601611868565b9150509250929050565b7f4e487b7100000000000000000000000000000000000000000000000000000000600052602260045260246000fd5b60006002820490506001821680611c1257607f821691505b60208210811415611c2657611c25611bcb565b5b50919050565b7f4552433732313a20617070726f76656420717565727920666f72206e6f6e657860008201527f697374656e7420746f6b656e0000000000000000000000000000000000000000602082015250565b6000611c88602c836116e2565b9150611c9382611c2c565b604082019050919050565b60006020820190508181036000830152611cb781611c7b565b9050919050565b7f4552433732313a20617070726f76616c20746f2063757272656e74206f776e6560008201527f7200000000000000000000000000000000000000000000000000000000000000602082015250565b6000611d1a6021836116e2565b9150611d2582611cbe565b604082019050919050565b60006020820190508181036000830152611d4981611d0d565b9050919050565b7f4552433732313a20617070726f76652063616c6c6572206973206e6f74206f7760008201527f6e6572206e6f7220617070726f76656420666f7220616c6c0000000000000000602082015250565b6000611dac6038836116e2565b9150611db782611d50565b604082019050919050565b60006020820190508181036000830152611ddb81611d9f565b9050919050565b7f4552433732313a207472616e736665722063616c6c6572206973206e6f74206f60008201527f776e6572206e6f7220617070726f766564000000000000000000000000000000602082015250565b6000611e3e6031836116e2565b9150611e4982611de2565b604082019050919050565b60006020820190508181036000830152611e6d81611e31565b9050919050565b7f4552433732313a206f776e657220717565727920666f72206e6f6e657869737460008201527f656e7420746f6b656e0000000000000000000000000000000000000000000000602082015250565b6000611ed06029836116e2565b9150611edb82611e74565b604082019050919050565b60006020820190508181036000830152611eff81611ec3565b9050919050565b7f4552433732313a2062616c616e636520717565727920666f7220746865207a6560008201527f726f206164647265737300000000000000000000000000000000000000000000602082015250565b6000611f62602a836116e2565b9150611f6d82611f06565b604082019050919050565b60006020820190508181036000830152611f9181611f55565b9050919050565b7f4552433732314d657461646174613a2055524920717565727920666f72206e6f60008201527f6e6578697374656e7420746f6b656e0000000000000000000000000000000000602082015250565b6000611ff4602f836116e2565b9150611fff82611f98565b604082019050919050565b6000602082019050818103600083015261202381611fe7565b9050919050565b600081905092915050565b6000612040826116d7565b61204a818561202a565b935061205a8185602086016116f3565b80840191505092915050565b60006120728285612035565b915061207e8284612035565b91508190509392505050565b7f4552433732313a206f70657261746f7220717565727920666f72206e6f6e657860008201527f697374656e7420746f6b656e0000000000000000000000000000000000000000602082015250565b60006120e6602c836116e2565b91506120f18261208a565b604082019050919050565b60006020820190508181036000830152612115816120d9565b9050919050565b7f4552433732313a207472616e736665722066726f6d20696e636f72726563742060008201527f6f776e6572000000000000000000000000000000000000000000000000000000602082015250565b60006121786025836116e2565b91506121838261211c565b604082019050919050565b600060208201905081810360008301526121a78161216b565b9050919050565b7f4552433732313a207472616e7366657220746f20746865207a65726f2061646460008201527f7265737300000000000000000000000000000000000000000000000000000000602082015250565b600061220a6024836116e2565b9150612215826121ae565b604082019050919050565b60006020820190508181036000830152612239816121fd565b9050919050565b7f4e487b7100000000000000000000000000000000000000000000000000000000600052601160045260246000fd5b600061227a82611792565b915061228583611792565b92508282101561229857612297612240565b5b828203905092915050565b60006122ae82611792565b91506122b983611792565b9250827fffffffffffffffffffffffffffffffffffffffffffffffffffffffffffffffff038211156122ee576122ed612240565b5b828201905092915050565b7f4552433732313a206d696e7420746f20746865207a65726f2061646472657373600082015250565b600061232f6020836116e2565b915061233a826122f9565b602082019050919050565b6000602082019050818103600083015261235e81612322565b9050919050565b7f4552433732313a20746f6b656e20616c7265616479206d696e74656400000000600082015250565b600061239b601c836116e2565b91506123a682612365565b602082019050919050565b600060208201905081810360008301526123ca8161238e565b9050919050565b7f4552433732313a20617070726f766520746f2063616c6c657200000000000000600082015250565b60006124076019836116e2565b9150612412826123d1565b602082019050919050565b60006020820190508181036000830152612436816123fa565b9050919050565b7f4552433732313a207472616e7366657220746f206e6f6e20455243373231526560008201527f63656976657220696d706c656d656e7465720000000000000000000000000000602082015250565b60006124996032836116e2565b91506124a48261243d565b604082019050919050565b600060208201905081810360008301526124c88161248c565b9050919050565b60006124da82611792565b91507fffffffffffffffffffffffffffffffffffffffffffffffffffffffffffffffff82141561250d5761250c612240565b5b600182019050919050565b7f4e487b7100000000000000000000000000000000000000000000000000000000600052601260045260246000fd5b600061255282611792565b915061255d83611792565b92508261256d5761256c612518565b5b828204905092915050565b600061258382611792565b915061258e83611792565b92508261259e5761259d612518565b5b828206905092915050565b7f4e487b7100000000000000000000000000000000000000000000000000000000600052603260045260246000fd5b600081519050919050565b600082825260208201905092915050565b60006125ff826125d8565b61260981856125e3565b93506126198185602086016116f3565b61262281611726565b840191505092915050565b60006080820190506126426000830187611827565b61264f6020830186611827565b61265c604083018561193d565b818103606083015261266e81846125f4565b905095945050505050565b60008151905061268881611648565b92915050565b6000602082840312156126a4576126a3611612565b5b60006126b284828501612679565b9150509291505056fea2646970667358221220b0d4b18d4b7f7e4b435ceb72603c92192f5a920aa373a36137f20445e02cc0e464736f6c634300080b0033",
  "immutableReferences": {},
  "source": "pragma solidity ^0.8.11;\n// SPDX-License-Identifier: MIT\nimport \"./token/ERC721/ERC721.sol\";\n\ncontract SimCardNft is ERC721 {\n\n    constructor() ERC721(\"SimCardNft\", \"SIMNFT\") {\n    }\n\n    function registerSim(address user, uint256 phoneNumber) public returns (uint256) {\n        _mint(user, phoneNumber);\n        return phoneNumber;\n    }\n}",
  "sourcePath": "C:\\Users\\Alexandr\\dev\\nft-sim\\contract\\contracts\\sim-nft.sol",
  "compiler": {
    "name": "solc",
    "version": "0.8.11+commit.d7f03943.Emscripten.clang"
  },
  "schemaVersion": "3.4.4",
  "updatedAt": "2022-02-17T10:48:57.982Z",
  "devdoc": {
    "kind": "dev",
    "methods": {
      "approve(address,uint256)": {
        "details": "See {IERC721-approve}."
      },
      "balanceOf(address)": {
        "details": "See {IERC721-balanceOf}."
      },
      "getApproved(uint256)": {
        "details": "See {IERC721-getApproved}."
      },
      "isApprovedForAll(address,address)": {
        "details": "See {IERC721-isApprovedForAll}."
      },
      "name()": {
        "details": "See {IERC721Metadata-name}."
      },
      "ownerOf(uint256)": {
        "details": "See {IERC721-ownerOf}."
      },
      "safeTransferFrom(address,address,uint256)": {
        "details": "See {IERC721-safeTransferFrom}."
      },
      "safeTransferFrom(address,address,uint256,bytes)": {
        "details": "See {IERC721-safeTransferFrom}."
      },
      "setApprovalForAll(address,bool)": {
        "details": "See {IERC721-setApprovalForAll}."
      },
      "supportsInterface(bytes4)": {
        "details": "See {IERC165-supportsInterface}."
      },
      "symbol()": {
        "details": "See {IERC721Metadata-symbol}."
      },
      "tokenURI(uint256)": {
        "details": "See {IERC721Metadata-tokenURI}."
      },
      "transferFrom(address,address,uint256)": {
        "details": "See {IERC721-transferFrom}."
      }
    },
    "version": 1
  },
  "userdoc": {
    "kind": "user",
    "methods": {},
    "version": 1
  }
}